{
  "_format": "hh-sol-artifact-1",
  "contractName": "AccountDestination",
  "sourceName": "contracts/AccountDestination.sol",
  "abi": [
    {
      "inputs": [
        {
          "internalType": "address",
          "name": "_owner",
          "type": "address"
        },
        {
          "internalType": "address",
          "name": "_ccipRouter",
          "type": "address"
        },
        {
          "internalType": "address",
          "name": "_nativeAccount",
          "type": "address"
        }
      ],
      "stateMutability": "nonpayable",
      "type": "constructor"
    },
    {
      "inputs": [],
      "name": "ECDSAInvalidSignature",
      "type": "error"
    },
    {
      "inputs": [
        {
          "internalType": "uint256",
          "name": "length",
          "type": "uint256"
        }
      ],
      "name": "ECDSAInvalidSignatureLength",
      "type": "error"
    },
    {
      "inputs": [
        {
          "internalType": "bytes32",
          "name": "s",
          "type": "bytes32"
        }
      ],
      "name": "ECDSAInvalidSignatureS",
      "type": "error"
    },
    {
      "inputs": [
        {
          "internalType": "address",
          "name": "router",
          "type": "address"
        }
      ],
      "name": "InvalidRouter",
      "type": "error"
    },
    {
      "anonymous": false,
      "inputs": [
        {
          "indexed": false,
          "internalType": "bool",
          "name": "success",
          "type": "bool"
        },
        {
          "indexed": false,
          "internalType": "bytes",
          "name": "data",
          "type": "bytes"
        }
      ],
      "name": "CallResult",
      "type": "event"
    },
    {
      "anonymous": false,
      "inputs": [
        {
          "indexed": false,
          "internalType": "uint256",
          "name": "amountA",
          "type": "uint256"
        },
        {
          "indexed": false,
          "internalType": "uint256",
          "name": "amountB",
          "type": "uint256"
        },
        {
          "indexed": false,
          "internalType": "uint256",
          "name": "liquidity",
          "type": "uint256"
        }
      ],
      "name": "LiquidityAdded",
      "type": "event"
    },
    {
      "anonymous": false,
      "inputs": [
        {
          "indexed": false,
          "internalType": "string",
          "name": "reason",
          "type": "string"
        }
      ],
      "name": "LiquidityAdditionFailed",
      "type": "event"
    },
    {
      "anonymous": false,
      "inputs": [
        {
          "indexed": false,
          "internalType": "bytes",
          "name": "lowLevelData",
          "type": "bytes"
        }
      ],
      "name": "LowLevelLiquidityAdditionFailed",
      "type": "event"
    },
    {
      "inputs": [],
      "name": "ROUTER02",
      "outputs": [
        {
          "internalType": "address",
          "name": "",
          "type": "address"
        }
      ],
      "stateMutability": "view",
      "type": "function"
    },
    {
      "inputs": [
        {
          "internalType": "address",
          "name": "tokenA",
          "type": "address"
        },
        {
          "internalType": "address",
          "name": "tokenB",
          "type": "address"
        },
        {
          "internalType": "uint256",
          "name": "amountA",
          "type": "uint256"
        },
        {
          "internalType": "uint256",
          "name": "amountB",
          "type": "uint256"
        }
      ],
      "name": "addLiquidity",
      "outputs": [],
      "stateMutability": "nonpayable",
      "type": "function"
    },
    {
      "inputs": [
        {
          "components": [
            {
              "internalType": "bytes32",
              "name": "messageId",
              "type": "bytes32"
            },
            {
              "internalType": "uint64",
              "name": "sourceChainSelector",
              "type": "uint64"
            },
            {
              "internalType": "bytes",
              "name": "sender",
              "type": "bytes"
            },
            {
              "internalType": "bytes",
              "name": "data",
              "type": "bytes"
            },
            {
              "components": [
                {
                  "internalType": "address",
                  "name": "token",
                  "type": "address"
                },
                {
                  "internalType": "uint256",
                  "name": "amount",
                  "type": "uint256"
                }
              ],
              "internalType": "struct Client.EVMTokenAmount[]",
              "name": "destTokenAmounts",
              "type": "tuple[]"
            }
          ],
          "internalType": "struct Client.Any2EVMMessage",
          "name": "message",
          "type": "tuple"
        }
      ],
      "name": "ccipReceive",
      "outputs": [],
      "stateMutability": "nonpayable",
      "type": "function"
    },
    {
      "inputs": [],
      "name": "creationAddress",
      "outputs": [
        {
          "internalType": "address",
          "name": "",
          "type": "address"
        }
      ],
      "stateMutability": "view",
      "type": "function"
    },
    {
      "inputs": [
        {
          "internalType": "address",
          "name": "token",
          "type": "address"
        },
        {
          "internalType": "uint256",
          "name": "amount",
          "type": "uint256"
        }
      ],
      "name": "depositToken",
      "outputs": [],
      "stateMutability": "nonpayable",
      "type": "function"
    },
    {
      "inputs": [
        {
          "internalType": "uint8",
          "name": "multiplex",
          "type": "uint8"
        },
        {
          "internalType": "address",
          "name": "token1",
          "type": "address"
        },
        {
          "internalType": "address",
          "name": "token2",
          "type": "address"
        },
        {
          "internalType": "uint256",
          "name": "_amount",
          "type": "uint256"
        }
      ],
      "name": "encodeDataIncubation",
      "outputs": [
        {
          "internalType": "bytes",
          "name": "",
          "type": "bytes"
        }
      ],
      "stateMutability": "pure",
      "type": "function"
    },
    {
      "inputs": [
        {
          "internalType": "address",
          "name": "target",
          "type": "address"
        },
        {
          "internalType": "bytes",
          "name": "data",
          "type": "bytes"
        }
      ],
      "name": "execute",
      "outputs": [],
      "stateMutability": "payable",
      "type": "function"
    },
    {
      "inputs": [],
      "name": "getLastReceivedMessageDetails",
      "outputs": [
        {
          "internalType": "bytes32",
          "name": "messageId",
          "type": "bytes32"
        },
        {
          "internalType": "string",
          "name": "text",
          "type": "string"
        },
        {
          "internalType": "bytes",
          "name": "textBytes",
          "type": "bytes"
        }
      ],
      "stateMutability": "view",
      "type": "function"
    },
    {
      "inputs": [],
      "name": "getRouter",
      "outputs": [
        {
          "internalType": "address",
          "name": "",
          "type": "address"
        }
      ],
      "stateMutability": "view",
      "type": "function"
    },
    {
      "inputs": [
        {
          "internalType": "address",
          "name": "token",
          "type": "address"
        }
      ],
      "name": "getTokenBalance",
      "outputs": [
        {
          "internalType": "uint256",
          "name": "",
          "type": "uint256"
        }
      ],
      "stateMutability": "view",
      "type": "function"
    },
    {
      "inputs": [],
      "name": "initAA",
      "outputs": [],
      "stateMutability": "nonpayable",
      "type": "function"
    },
    {
      "inputs": [],
      "name": "latestSourceMessage",
      "outputs": [
        {
          "internalType": "bytes32",
          "name": "",
          "type": "bytes32"
        }
      ],
      "stateMutability": "view",
      "type": "function"
    },
    {
      "inputs": [
        {
          "internalType": "address",
          "name": "tokenA",
          "type": "address"
        },
        {
          "internalType": "address",
          "name": "tokenB",
          "type": "address"
        },
        {
          "internalType": "address",
          "name": "pair",
          "type": "address"
        },
        {
          "internalType": "uint256",
          "name": "liquidity",
          "type": "uint256"
        }
      ],
      "name": "liquidateLiquidity",
      "outputs": [
        {
          "internalType": "uint256",
          "name": "amountA",
          "type": "uint256"
        },
        {
          "internalType": "uint256",
          "name": "amountB",
          "type": "uint256"
        }
      ],
      "stateMutability": "nonpayable",
      "type": "function"
    },
    {
      "inputs": [],
      "name": "nativeAccount",
      "outputs": [
        {
          "internalType": "address",
          "name": "",
          "type": "address"
        }
      ],
      "stateMutability": "view",
      "type": "function"
    },
    {
      "inputs": [],
      "name": "owner",
      "outputs": [
        {
          "internalType": "address",
          "name": "",
          "type": "address"
        }
      ],
      "stateMutability": "view",
      "type": "function"
    },
    {
      "inputs": [],
      "name": "salt",
      "outputs": [
        {
          "internalType": "uint256",
          "name": "",
          "type": "uint256"
        }
      ],
      "stateMutability": "view",
      "type": "function"
    },
    {
      "inputs": [
        {
          "internalType": "bytes4",
          "name": "interfaceId",
          "type": "bytes4"
        }
      ],
      "name": "supportsInterface",
      "outputs": [
        {
          "internalType": "bool",
          "name": "",
          "type": "bool"
        }
      ],
      "stateMutability": "pure",
      "type": "function"
    },
    {
      "inputs": [],
      "name": "uniswapRouter",
      "outputs": [
        {
          "internalType": "contract IUniswapV2Router02",
          "name": "",
          "type": "address"
        }
      ],
      "stateMutability": "view",
      "type": "function"
    },
    {
      "inputs": [
        {
          "components": [
            {
              "internalType": "address",
              "name": "sender",
              "type": "address"
            },
            {
              "internalType": "uint256",
              "name": "nonce",
              "type": "uint256"
            },
            {
              "internalType": "bytes",
              "name": "initCode",
              "type": "bytes"
            },
            {
              "internalType": "bytes",
              "name": "callData",
              "type": "bytes"
            },
            {
              "internalType": "uint256",
              "name": "callGasLimit",
              "type": "uint256"
            },
            {
              "internalType": "uint256",
              "name": "verificationGasLimit",
              "type": "uint256"
            },
            {
              "internalType": "uint256",
              "name": "preVerificationGas",
              "type": "uint256"
            },
            {
              "internalType": "uint256",
              "name": "maxFeePerGas",
              "type": "uint256"
            },
            {
              "internalType": "uint256",
              "name": "maxPriorityFeePerGas",
              "type": "uint256"
            },
            {
              "internalType": "bytes",
              "name": "paymasterAndData",
              "type": "bytes"
            },
            {
              "internalType": "bytes",
              "name": "signature",
              "type": "bytes"
            }
          ],
          "internalType": "struct UserOperation",
          "name": "userOp",
          "type": "tuple"
        },
        {
          "internalType": "bytes32",
          "name": "userOpHash",
          "type": "bytes32"
        },
        {
          "internalType": "uint256",
          "name": "",
          "type": "uint256"
        }
      ],
      "name": "validateUserOp",
      "outputs": [
        {
          "internalType": "uint256",
          "name": "validationData",
          "type": "uint256"
        }
      ],
      "stateMutability": "view",
      "type": "function"
    },
    {
      "inputs": [
        {
          "internalType": "address",
          "name": "token",
          "type": "address"
        },
        {
          "internalType": "uint256",
          "name": "amount",
          "type": "uint256"
        }
      ],
      "name": "withdrawToken",
      "outputs": [],
      "stateMutability": "nonpayable",
      "type": "function"
    },
    {
      "stateMutability": "payable",
      "type": "receive"
    }
  ],
  "bytecode": "0x60a034620000ff57601f62001f5f38819003918201601f19168301916001600160401b038311848410176200010457808492606094604052833981010312620000ff576200004d816200011a565b906200006a604062000062602084016200011a565b92016200011a565b6001600160a01b039180831615620000e6576080528173641e13e0aedf07e48205322ae19f565a81bd4ca59360018060a01b031994808660085416176008558560095416176009551683600054161760005516906001541617600155604051611e2f9081620001308239608051818181610b150152610d680152f35b6040516335fdcccd60e21b815260006004820152602490fd5b600080fd5b634e487b7160e01b600052604160045260246000fd5b51906001600160a01b0382168203620000ff5756fe6080604052600436101561001b575b361561001957600080fd5b005b60003560e01c806301ffc9a71461015b57806305483090146101565780631cff79cd14610151578063263596a51461014c57806326e4bcfb1461014757806329639df714610142578063338b5dea1461013d5780633a871cdd146101385780633aecd0e31461013357806347af954d1461012e578063698b64a7146101295780636d9bad7014610124578063735de9f71461011f578063740f45451461011a57806385572ffb146101155780638da5cb5b146101105780639e281a981461010b578063b0f479a114610106578063bfa0b133146101015763cf6c62ea0361000e57610daa565b610d8c565b610d48565b610c19565b610bf2565b610ad6565b610aaf565b610a88565b6108ca565b61084f565b61080c565b610769565b610670565b6105ac565b610593565b610575565b610455565b61032f565b610201565b346101fc5760206003193601126101fc576004357fffffffff0000000000000000000000000000000000000000000000000000000081168091036101fc57807f85572ffb00000000000000000000000000000000000000000000000000000000602092149081156101d2575b506040519015158152f35b7f01ffc9a700000000000000000000000000000000000000000000000000000000915014386101c7565b600080fd5b346101fc5760006003193601126101fc5760206001600160a01b0360015416604051908152f35b6001600160a01b038116036101fc57565b634e487b7160e01b600052604160045260246000fd5b6040810190811067ffffffffffffffff82111761026b57604052565b610239565b60a0810190811067ffffffffffffffff82111761026b57604052565b90601f601f19910116810190811067ffffffffffffffff82111761026b57604052565b604051906102bc82610270565b565b67ffffffffffffffff811161026b57601f01601f191660200190565b9291926102e6826102be565b916102f4604051938461028c565b8294818452818301116101fc578281602093846000960137010152565b9080601f830112156101fc5781602061032c933591016102da565b90565b60406003193601126101fc5760043561034781610228565b60243567ffffffffffffffff81116101fc5760009161036b83923690600401610311565b9082602083519301915af161037e610fa9565b90156103c9576103c47f582326e533af48b16567b0565a82550442e225cf8491cb9ae2a29e1f96935e7c9160405191829160018352604060208401526040830190610430565b0390a1005b606460405162461bcd60e51b815260206004820152600b60248201527f43616c6c206661696c65640000000000000000000000000000000000000000006044820152fd5b60005b8381106104205750506000910152565b8181015183820152602001610410565b90601f19601f60209361044e8151809281875287808801910161040d565b0116010190565b346101fc57600080600319360112610572576005546040519082916007549361047d85610fd9565b90818352602095869160019160018116908160001461054f57506001146104f5575b82866104f1876104b1818c038261028c565b6104e3604051916104cc836104c581611013565b038461028c565b606060405196879687528601526060850190610430565b908382036040850152610430565b0390f35b92919550600783527fa66cc928b5edb82af9bd49922954155ab7b0942694bea4ce44661d9a8736c6885b82841061053c575050508101909201916104b1846104f18361049f565b805485850188015292860192810161051f565b60ff19168487015250505090151560051b82010192506104b1846104f18361049f565b80fd5b346101fc5760006003193601126101fc576020600454604051908152f35b346101fc57600080600319360112610572578060025580f35b346101fc5760406003193601126101fc576001600160a01b0360206004356105d381610228565b60646024356105e38115156110c8565b600060405195869485937f23b872dd0000000000000000000000000000000000000000000000000000000085523360048601523060248601526044850152165af1801561066b576100199160009161063c575b50611137565b61065e915060203d602011610664575b610656818361028c565b810190611113565b38610636565b503d61064c565b61112b565b346101fc576003196060813601126101fc5767ffffffffffffffff6004358181116101fc57610160813603938401126101fc576000927f19457468657265756d205369676e6564204d6573736167653a0a3332000000008452602435601c52603c8420917fffffffffffffffffffffffffffffffffffffffffffffffffffffffffffffffdd61014482013592018212156107655701600481013592831161076157602401918036038313610761576107339261072d9136916102da565b9061132b565b81546001600160a01b039081169116036107575760ff905b60405191168152602090f35b5060ff600161074b565b8380fd5b8480fd5b346101fc5760206003193601126101fc576001600160a01b03602060043561079081610228565b6024604051809481937f70a08231000000000000000000000000000000000000000000000000000000008352306004840152165afa801561066b576020916000916107df575b50604051908152f35b6107ff9150823d8411610805575b6107f7818361028c565b810190611182565b386107d6565b503d6107ed565b346101fc5760006003193601126101fc5760206001600160a01b0360035416604051908152f35b60ff8116036101fc57565b90602061032c928181520190610430565b346101fc5760806003193601126101fc576104f160043561086f81610833565b60243561087b81610228565b60443561088781610228565b60ff604051931660208401526001600160a01b0380921660408401521660608201526064356080820152608081526108be81610270565b6040519182918261083e565b346101fc5760806003193601126101fc576004356108e781610228565b6024356108f381610228565b6109636044359261090384610228565b606435602061091a6008546001600160a01b031690565b95610924836111a7565b9060409760006001600160a01b038a5180998196829563095ea7b360e01b845260048401602090939291936001600160a01b0360408201951681520152565b0393165af192831561066b578593610a69575b5061099861098c6009546001600160a01b031690565b6001600160a01b031690565b9060006109a4426111d8565b85517fbaa2abde0000000000000000000000000000000000000000000000000000000081526001600160a01b039586166004820152969094166024870152604486019190915260006064860181905260848601523060a486015260c4850192909252839160e4918391905af191821561066b57600091600093610a34575b50519081526020810191909152604090f35b81610a5a9294506104f193503d8511610a62575b610a52818361028c565b8101906111f6565b929091610a22565b503d610a48565b610a819060203d60201161066457610656818361028c565b5038610976565b346101fc5760006003193601126101fc5760206001600160a01b0360095416604051908152f35b346101fc5760006003193601126101fc5760206001600160a01b0360085416604051908152f35b346101fc576003196020813601126101fc5760049081359067ffffffffffffffff908183116101fc5760a09083360301126101fc576001600160a01b037f0000000000000000000000000000000000000000000000000000000000000000163303610bc257610b436102af565b91808401358352610b566024820161120c565b602084015260448101358281116101fc57610b7690853691840101610311565b604084015260648101358281116101fc57610b9690853691840101610311565b606084015260848101359182116101fc5761001993610bb89236920101611239565b60808201526115bf565b6040517fd7f733340000000000000000000000000000000000000000000000000000000081523381850152602490fd5b346101fc5760006003193601126101fc5760206001600160a01b0360005416604051908152f35b346101fc5760406003193601126101fc57600435610c3681610228565b6001600160a01b0360243591610c4d8315156110c8565b6040517f70a082310000000000000000000000000000000000000000000000000000000081523060048201526020939291909116908381602481855afa91821561066b5783610cad6000958795610cf0958891610d2b575b5010156112c5565b6040517fa9059cbb000000000000000000000000000000000000000000000000000000008152336004820152602481019190915293849283919082906044820190565b03925af190811561066b5761001992600092610d0e575b5050611137565b610d249250803d1061066457610656818361028c565b3880610d07565b610d429150873d8911610805576107f7818361028c565b38610ca5565b346101fc5760006003193601126101fc5760206040516001600160a01b037f0000000000000000000000000000000000000000000000000000000000000000168152f35b346101fc5760006003193601126101fc576020600254604051908152f35b346101fc5760806003193601126101fc57600435610dc781610228565b602435610dd381610228565b6008546001600160a01b03916064359160443590841693610df3826111c2565b60405163095ea7b360e01b8082526001600160a01b0397909716600482015260248101919091529460209190828760448160008c87165af191821561066b57610e81978493610f8c575b506008546001600160a01b03166000610e55896111c2565b936040519a8b9586948593845260048401602090939291936001600160a01b0360408201951681520152565b039288165af194851561066b57606095610f6e575b50506000610eaf61098c6009546001600160a01b031690565b92610f36610ebc426111d8565b604051988997889687957fe8e33700000000000000000000000000000000000000000000000000000000008752309360048801929360e09497969591976101008501986001600160a01b03948580921687521660208601526040850152606084015260006080840152600060a08401521660c08201520152565b03925af1801561066b57610f4657005b6100199060603d606011610f67575b610f5f818361028c565b810190611310565b503d610f55565b81610f8492903d1061066457610656818361028c565b503880610e96565b610fa290843d861161066457610656818361028c565b5038610e3d565b3d15610fd4573d90610fba826102be565b91610fc8604051938461028c565b82523d6000602084013e565b606090565b90600182811c92168015611009575b6020831014610ff357565b634e487b7160e01b600052602260045260246000fd5b91607f1691610fe8565b6006546000929161102382610fd9565b808252916020906001908181169081156110a25750600114611046575b50505050565b9293945060066000527ff652222313e28459528d920b65115c16c04f3efc82aaedc97be59f3f377c0d3f926000935b85851061108f575050506020925001019038808080611040565b8054858501840152938201938101611075565b915050602094955060ff1991509291921683830152151560051b01019038808080611040565b156110cf57565b606460405162461bcd60e51b815260206004820152601d60248201527f416d6f756e74206d7573742062652067726561746572207468616e20300000006044820152fd5b908160209103126101fc575180151581036101fc5790565b6040513d6000823e3d90fd5b1561113e57565b606460405162461bcd60e51b815260206004820152600f60248201527f5472616e73666572206661696c656400000000000000000000000000000000006044820152fd5b908160209103126101fc575190565b634e487b7160e01b600052601160045260246000fd5b908160011b91808304600214901517156111bd57565b611191565b906003820291808304600314901517156111bd57565b9061012c82018092116111bd57565b906103e882018092116111bd57565b91908260409103126101fc576020825192015190565b359067ffffffffffffffff821682036101fc57565b67ffffffffffffffff811161026b5760051b60200190565b9080601f830112156101fc57813591602061125384611221565b93604093611264604051968761028c565b818652828087019260061b850101938185116101fc578301915b84831061128e5750505050505090565b85838303126101fc5783869182516112a58161024f565b85356112b081610228565b8152828601358382015281520192019161127e565b156112cc57565b606460405162461bcd60e51b815260206004820152601460248201527f496e73756666696369656e742062616c616e63650000000000000000000000006044820152fd5b908160609103126101fc578051916040602083015192015190565b61032c91611338916116c2565b9092919261171e565b90916060828403126101fc57815161135881610833565b92602083015161136781610228565b9260408101519067ffffffffffffffff82116101fc570181601f820112156101fc578051611394816102be565b926113a2604051948561028c565b818452602082840101116101fc5761032c916020808501910161040d565b156113c757565b606460405162461bcd60e51b815260206004820152601560248201527f4c6f772d6c6576656c2063616c6c206661696c656400000000000000000000006044820152fd5b908160209103126101fc575161032c81610228565b91908260809103126101fc57815161143781610833565b91602081015161144681610228565b916060604083015161145781610228565b92015190565b601f8111611469575050565b60009060066000527ff652222313e28459528d920b65115c16c04f3efc82aaedc97be59f3f377c0d3f906020601f850160051c830194106114c5575b601f0160051c01915b8281106114ba57505050565b8181556001016114ae565b90925082906114a5565b90815167ffffffffffffffff811161026b576114f5816114f0600654610fd9565b61145d565b602080601f831160011461153757508190611527939460009261152c575b50506000198260011b9260031b1c19161790565b600655565b015190503880611513565b90601f1983169461156a60066000527ff652222313e28459528d920b65115c16c04f3efc82aaedc97be59f3f377c0d3f90565b926000905b8782106115a757505083600195961061158e575b505050811b01600655565b015160001960f88460031b161c19169055388080611583565b8060018596829496860151815501950193019061156f565b6102bc906115f36060820191825160016020918281018360ff825116928315611637575b505050146115f9575b5051600555565b516114cf565b611610611631918551908082518301019101611420565b6001600160a01b0393509091611625426111e7565b938033941691166119cf565b386115ec565b6000806116536116ba95611686958561098c9651010190611341565b9150826001600160a01b038b8451940192165af1611678611672610fa9565b916113c0565b86808251830101910161140b565b6001600160a01b03167fffffffffffffffffffffffff00000000000000000000000000000000000000006003541617600355565b3883816115e3565b81519190604183036116f3576116ec92506020820151906060604084015193015160001a90611d75565b9192909190565b505060009160029190565b6004111561170857565b634e487b7160e01b600052602160045260246000fd5b611727816116fe565b80611730575050565b611739816116fe565b6001810361176b5760046040517ff645eedf000000000000000000000000000000000000000000000000000000008152fd5b611774816116fe565b600281036117ae576040517ffce698f700000000000000000000000000000000000000000000000000000000815260048101839052602490fd5b806117ba6003926116fe565b146117c25750565b6040517fd78bce0c0000000000000000000000000000000000000000000000000000000081526004810191909152602490fd5b604051906060820182811067ffffffffffffffff82111761026b5760405260028252604082602036910137565b634e487b7160e01b600052603260045260246000fd5b8051156118455760200190565b611822565b8051600110156118455760400190565b60209081818403126101fc5780519067ffffffffffffffff82116101fc57019180601f840112156101fc57825161189081611221565b9361189e604051958661028c565b818552838086019260051b8201019283116101fc578301905b8282106118c5575050505090565b815181529083019083016118b7565b91909493929460a083019083526020906000602085015260a060408501528251809152602060c0850193019160005b8281106119255750505050906001600160a01b03608092951660608201520152565b83516001600160a01b031685529381019392810192600101611903565b60009060033d1161194f57565b905060046000803e60005160e01c90565b600060443d1061032c5760405160031991823d016004833e815167ffffffffffffffff918282113d6024840111176119be578184019485519384116119c6573d850101602084870101116119be575061032c9291016020019061028c565b949350505050565b50949350505050565b9293916001600160a01b03946119f061098c6009546001600160a01b031690565b9260409687519663095ea7b360e01b9687895288611a3360209860048301602069021e19e0c9bab2400000919392936001600160a01b0360408201951681520152565b0398878160009b818d8888165af1801561066b57611d58575b50611ad78982611a5a6117f5565b98611a7686611a688c611838565b906001600160a01b03169052565b611a8388611a688c61184a565b8d83611a9a61098c6009546001600160a01b031690565b9260011c9b8c9251968795869485937f38ed17390000000000000000000000000000000000000000000000000000000085523091600486016118d4565b03925af1801561066b57611b4594611afb8d928b948e8092611d35575b505061184a565b519a8c611b1361098c6009546001600160a01b031690565b93518098819582948352600483016020683635c9adc5dea00000919392936001600160a01b0360408201951681520152565b039289165af190811561066b576060978a94611bef93611d17575b5050611b7761098c6009546001600160a01b031690565b958b51998a98899788967fe8e3370000000000000000000000000000000000000000000000000000000000885260048801929360e09497969591976101008501986001600160a01b03948580921687521660208601526040850152606084015260006080840152600060a08401521660c08201520152565b03925af182908084938592611cf2575b50611cb457505050600190611c12611942565b6308c379a014611c62575b50611c255750565b611c5d7fd2869c41864a337230696c4e2d2188cf0b362c451a8b2cf202682c0b3bee45d691611c52610fa9565b90519182918261083e565b0390a1565b611c6a611960565b9081611c77575b50611c1d565b83519092507f16f910bbc684c1469a47cc2b21887a6e1cf0c0a2b1ee03b4539c3a5cbd7e0e20918190611caa908261083e565b0390a13880611c71565b935190815260208101919091526040810192909252507fd7f28048575eead8851d024ead087913957dfb4fd1a02b4d1573f5352a5a2be390606090a1565b91509250611d0f915060603d606011610f6757610f5f818361028c565b909238611bff565b81611d2d92903d1061066457610656818361028c565b503880611b60565b611d5192503d8091833e611d49818361028c565b81019061185a565b388e611af4565b611d6e90883d8a1161066457610656818361028c565b5038611a4c565b91907f7fffffffffffffffffffffffffffffff5d576e7357a4501ddfe92f46681b20a08411611ded57926020929160ff608095604051948552168484015260408301526060820152600092839182805260015afa1561066b5780516001600160a01b03811615611de457918190565b50809160019190565b5050506000916003919056fea2646970667358221220c395ba88daded4e04fbe807119de739acc1d1fa34a1b31a48594e72e514b6a6164736f6c63430008180033",
  "linkReferences": {},
  "deployedLinkReferences": {}
}