{
  "_format": "hh-sol-artifact-1",
  "contractName": "ProgrammableTokenTransfers",
  "sourceName": "contracts/cleanup/ProgrammableTokenTransfers.sol",
  "abi": [
    {
      "inputs": [
        {
          "internalType": "address",
          "name": "_router",
          "type": "address"
        },
        {
          "internalType": "address",
          "name": "_link",
          "type": "address"
        }
      ],
      "stateMutability": "nonpayable",
      "type": "constructor"
    },
    {
      "inputs": [
        {
          "internalType": "uint64",
          "name": "destinationChainSelector",
          "type": "uint64"
        }
      ],
      "name": "DestinationChainNotAllowed",
      "type": "error"
    },
    {
      "inputs": [
        {
          "internalType": "address",
          "name": "owner",
          "type": "address"
        },
        {
          "internalType": "address",
          "name": "target",
          "type": "address"
        },
        {
          "internalType": "uint256",
          "name": "value",
          "type": "uint256"
        }
      ],
      "name": "FailedToWithdrawEth",
      "type": "error"
    },
    {
      "inputs": [],
      "name": "InvalidReceiverAddress",
      "type": "error"
    },
    {
      "inputs": [
        {
          "internalType": "address",
          "name": "router",
          "type": "address"
        }
      ],
      "name": "InvalidRouter",
      "type": "error"
    },
    {
      "inputs": [
        {
          "internalType": "uint256",
          "name": "currentBalance",
          "type": "uint256"
        },
        {
          "internalType": "uint256",
          "name": "calculatedFees",
          "type": "uint256"
        }
      ],
      "name": "NotEnoughBalance",
      "type": "error"
    },
    {
      "inputs": [],
      "name": "NothingToWithdraw",
      "type": "error"
    },
    {
      "inputs": [
        {
          "internalType": "address",
          "name": "sender",
          "type": "address"
        }
      ],
      "name": "SenderNotAllowed",
      "type": "error"
    },
    {
      "inputs": [
        {
          "internalType": "uint64",
          "name": "sourceChainSelector",
          "type": "uint64"
        }
      ],
      "name": "SourceChainNotAllowed",
      "type": "error"
    },
    {
      "anonymous": false,
      "inputs": [
        {
          "indexed": true,
          "internalType": "bytes32",
          "name": "messageId",
          "type": "bytes32"
        },
        {
          "indexed": true,
          "internalType": "uint64",
          "name": "sourceChainSelector",
          "type": "uint64"
        },
        {
          "indexed": false,
          "internalType": "address",
          "name": "sender",
          "type": "address"
        },
        {
          "indexed": false,
          "internalType": "string",
          "name": "text",
          "type": "string"
        },
        {
          "indexed": false,
          "internalType": "address",
          "name": "token",
          "type": "address"
        },
        {
          "indexed": false,
          "internalType": "uint256",
          "name": "tokenAmount",
          "type": "uint256"
        }
      ],
      "name": "MessageReceived",
      "type": "event"
    },
    {
      "anonymous": false,
      "inputs": [
        {
          "indexed": true,
          "internalType": "bytes32",
          "name": "messageId",
          "type": "bytes32"
        },
        {
          "indexed": true,
          "internalType": "uint64",
          "name": "destinationChainSelector",
          "type": "uint64"
        },
        {
          "indexed": false,
          "internalType": "address",
          "name": "receiver",
          "type": "address"
        },
        {
          "indexed": false,
          "internalType": "string",
          "name": "text",
          "type": "string"
        },
        {
          "indexed": false,
          "internalType": "address",
          "name": "token",
          "type": "address"
        },
        {
          "indexed": false,
          "internalType": "uint256",
          "name": "tokenAmount",
          "type": "uint256"
        },
        {
          "indexed": false,
          "internalType": "address",
          "name": "feeToken",
          "type": "address"
        },
        {
          "indexed": false,
          "internalType": "uint256",
          "name": "fees",
          "type": "uint256"
        }
      ],
      "name": "MessageSent",
      "type": "event"
    },
    {
      "anonymous": false,
      "inputs": [
        {
          "indexed": true,
          "internalType": "address",
          "name": "from",
          "type": "address"
        },
        {
          "indexed": true,
          "internalType": "address",
          "name": "to",
          "type": "address"
        }
      ],
      "name": "OwnershipTransferRequested",
      "type": "event"
    },
    {
      "anonymous": false,
      "inputs": [
        {
          "indexed": true,
          "internalType": "address",
          "name": "from",
          "type": "address"
        },
        {
          "indexed": true,
          "internalType": "address",
          "name": "to",
          "type": "address"
        }
      ],
      "name": "OwnershipTransferred",
      "type": "event"
    },
    {
      "inputs": [],
      "name": "acceptOwnership",
      "outputs": [],
      "stateMutability": "nonpayable",
      "type": "function"
    },
    {
      "inputs": [
        {
          "internalType": "uint64",
          "name": "_destinationChainSelector",
          "type": "uint64"
        },
        {
          "internalType": "bool",
          "name": "allowed",
          "type": "bool"
        }
      ],
      "name": "allowlistDestinationChain",
      "outputs": [],
      "stateMutability": "nonpayable",
      "type": "function"
    },
    {
      "inputs": [
        {
          "internalType": "address",
          "name": "_sender",
          "type": "address"
        },
        {
          "internalType": "bool",
          "name": "allowed",
          "type": "bool"
        }
      ],
      "name": "allowlistSender",
      "outputs": [],
      "stateMutability": "nonpayable",
      "type": "function"
    },
    {
      "inputs": [
        {
          "internalType": "uint64",
          "name": "_sourceChainSelector",
          "type": "uint64"
        },
        {
          "internalType": "bool",
          "name": "allowed",
          "type": "bool"
        }
      ],
      "name": "allowlistSourceChain",
      "outputs": [],
      "stateMutability": "nonpayable",
      "type": "function"
    },
    {
      "inputs": [
        {
          "internalType": "uint64",
          "name": "",
          "type": "uint64"
        }
      ],
      "name": "allowlistedDestinationChains",
      "outputs": [
        {
          "internalType": "bool",
          "name": "",
          "type": "bool"
        }
      ],
      "stateMutability": "view",
      "type": "function"
    },
    {
      "inputs": [
        {
          "internalType": "address",
          "name": "",
          "type": "address"
        }
      ],
      "name": "allowlistedSenders",
      "outputs": [
        {
          "internalType": "bool",
          "name": "",
          "type": "bool"
        }
      ],
      "stateMutability": "view",
      "type": "function"
    },
    {
      "inputs": [
        {
          "internalType": "uint64",
          "name": "",
          "type": "uint64"
        }
      ],
      "name": "allowlistedSourceChains",
      "outputs": [
        {
          "internalType": "bool",
          "name": "",
          "type": "bool"
        }
      ],
      "stateMutability": "view",
      "type": "function"
    },
    {
      "inputs": [
        {
          "components": [
            {
              "internalType": "bytes32",
              "name": "messageId",
              "type": "bytes32"
            },
            {
              "internalType": "uint64",
              "name": "sourceChainSelector",
              "type": "uint64"
            },
            {
              "internalType": "bytes",
              "name": "sender",
              "type": "bytes"
            },
            {
              "internalType": "bytes",
              "name": "data",
              "type": "bytes"
            },
            {
              "components": [
                {
                  "internalType": "address",
                  "name": "token",
                  "type": "address"
                },
                {
                  "internalType": "uint256",
                  "name": "amount",
                  "type": "uint256"
                }
              ],
              "internalType": "struct Client.EVMTokenAmount[]",
              "name": "destTokenAmounts",
              "type": "tuple[]"
            }
          ],
          "internalType": "struct Client.Any2EVMMessage",
          "name": "message",
          "type": "tuple"
        }
      ],
      "name": "ccipReceive",
      "outputs": [],
      "stateMutability": "nonpayable",
      "type": "function"
    },
    {
      "inputs": [],
      "name": "getLastReceivedMessageDetails",
      "outputs": [
        {
          "internalType": "bytes32",
          "name": "messageId",
          "type": "bytes32"
        },
        {
          "internalType": "string",
          "name": "text",
          "type": "string"
        },
        {
          "internalType": "address",
          "name": "tokenAddress",
          "type": "address"
        },
        {
          "internalType": "uint256",
          "name": "tokenAmount",
          "type": "uint256"
        }
      ],
      "stateMutability": "view",
      "type": "function"
    },
    {
      "inputs": [],
      "name": "getRouter",
      "outputs": [
        {
          "internalType": "address",
          "name": "",
          "type": "address"
        }
      ],
      "stateMutability": "view",
      "type": "function"
    },
    {
      "inputs": [],
      "name": "owner",
      "outputs": [
        {
          "internalType": "address",
          "name": "",
          "type": "address"
        }
      ],
      "stateMutability": "view",
      "type": "function"
    },
    {
      "inputs": [
        {
          "internalType": "uint64",
          "name": "_destinationChainSelector",
          "type": "uint64"
        },
        {
          "internalType": "address",
          "name": "_receiver",
          "type": "address"
        },
        {
          "internalType": "string",
          "name": "_text",
          "type": "string"
        },
        {
          "internalType": "address",
          "name": "_token",
          "type": "address"
        },
        {
          "internalType": "uint256",
          "name": "_amount",
          "type": "uint256"
        }
      ],
      "name": "sendMessagePayLINK",
      "outputs": [
        {
          "internalType": "bytes32",
          "name": "messageId",
          "type": "bytes32"
        }
      ],
      "stateMutability": "nonpayable",
      "type": "function"
    },
    {
      "inputs": [
        {
          "internalType": "uint64",
          "name": "_destinationChainSelector",
          "type": "uint64"
        },
        {
          "internalType": "address",
          "name": "_receiver",
          "type": "address"
        },
        {
          "internalType": "string",
          "name": "_text",
          "type": "string"
        },
        {
          "internalType": "address",
          "name": "_token",
          "type": "address"
        },
        {
          "internalType": "uint256",
          "name": "_amount",
          "type": "uint256"
        }
      ],
      "name": "sendMessagePayNative",
      "outputs": [
        {
          "internalType": "bytes32",
          "name": "messageId",
          "type": "bytes32"
        }
      ],
      "stateMutability": "nonpayable",
      "type": "function"
    },
    {
      "inputs": [
        {
          "internalType": "bytes4",
          "name": "interfaceId",
          "type": "bytes4"
        }
      ],
      "name": "supportsInterface",
      "outputs": [
        {
          "internalType": "bool",
          "name": "",
          "type": "bool"
        }
      ],
      "stateMutability": "pure",
      "type": "function"
    },
    {
      "inputs": [
        {
          "internalType": "address",
          "name": "to",
          "type": "address"
        }
      ],
      "name": "transferOwnership",
      "outputs": [],
      "stateMutability": "nonpayable",
      "type": "function"
    },
    {
      "inputs": [
        {
          "internalType": "address",
          "name": "_beneficiary",
          "type": "address"
        }
      ],
      "name": "withdraw",
      "outputs": [],
      "stateMutability": "nonpayable",
      "type": "function"
    },
    {
      "inputs": [
        {
          "internalType": "address",
          "name": "_beneficiary",
          "type": "address"
        },
        {
          "internalType": "address",
          "name": "_token",
          "type": "address"
        }
      ],
      "name": "withdrawToken",
      "outputs": [],
      "stateMutability": "nonpayable",
      "type": "function"
    },
    {
      "stateMutability": "payable",
      "type": "receive"
    }
  ],
  "bytecode": "0x60a0346200011257601f62001f0c38819003918201601f19168301916001600160401b038311848410176200011757808492604094855283398101031262000112576200005a602062000052836200012d565b92016200012d565b906001600160a01b039081811615620000f9576080523315620000b45760018060a01b0319913383600054161760005516906009541617600955604051611dc9908162000143823960805181818161027701526109620152f35b60405162461bcd60e51b815260206004820152601860248201527f43616e6e6f7420736574206f776e657220746f207a65726f00000000000000006044820152606490fd5b6040516335fdcccd60e21b815260006004820152602490fd5b600080fd5b634e487b7160e01b600052604160045260246000fd5b51906001600160a01b0382168203620001125756fe608080604052600436101561001d575b50361561001b57600080fd5b005b60003560e01c90816301ffc9a7146117c1575080631dd11dac1461137a578063263596a5146112765780633aeac4e1146110ae5780634030d5211461106e57806351cff8d914610fbd5780636159ada114610f7e57806375c67c6614610f3e57806379ba509714610e8457806385572ffb146109275780638da5cb5b146109005780638f3f4e1a146102f157806396d3b83d1461029b578063b0f479a114610257578063db04fa4914610201578063eab5b02c146101ac5763f2fde38b146100e5573861000f565b346101a75760206003193601126101a7576100fe611876565b610106611c1d565b6001600160a01b0380911690338214610163578173ffffffffffffffffffffffffffffffffffffffff196001541617600155600054167fed8889f560326eb138920d842192f0eb3dd22b4f139c87a2c57538e05bae1278600080a3005b606460405162461bcd60e51b815260206004820152601760248201527f43616e6e6f74207472616e7366657220746f2073656c660000000000000000006044820152fd5b600080fd5b346101a75760406003193601126101a75761001b6101c8611876565b6001600160a01b036101d8611951565b916101e1611c1d565b16600052600860205260406000209060ff60ff1983541691151516179055565b346101a75760406003193601126101a75761001b61021d61185f565b67ffffffffffffffff61022e611951565b91610237611c1d565b16600052600760205260406000209060ff60ff1983541691151516179055565b346101a75760006003193601126101a75760206040516001600160a01b037f0000000000000000000000000000000000000000000000000000000000000000168152f35b346101a75760406003193601126101a75761001b6102b761185f565b67ffffffffffffffff6102c8611951565b916102d1611c1d565b16600052600660205260406000209060ff60ff1983541691151516179055565b346101a7576102ff3661188c565b9092939161030b611c1d565b67ffffffffffffffff8616600052600660205260ff60406000205416156108c5576001600160a01b0383161561089b576001600160a01b0360095416916060608060405161035881611960565b82815282602082015282604082015260008382015201526040519561037c87611992565b6001875260005b60208110610876575060405161039881611992565b6001600160a01b03871681528260208201526103b388611c75565b526103bd87611c75565b50604051966001600160a01b0386166020890152602088526103de88611992565b60405190602080830152610408826103fa604082018887611b2f565b03601f1981018452836119e6565b60405191610415836119ae565b62030d408352604051927f97a657c900000000000000000000000000000000000000000000000000000000602085015251602484015260248352610458836119ca565b604051996104658b611960565b8a5260208a015260408901528460608901526080880152604051937fb0f479a1000000000000000000000000000000000000000000000000000000008552602085600481305afa9081156106ed576104f895600092610845575b506020898b60405198899283927f20487ded00000000000000000000000000000000000000000000000000000000845260048401611a28565b03816001600160a01b0386165afa9586156106ed57600096610811575b506040516370a0823160e01b8152306004820152602081602481855afa9081156106ed576000916107df575b5086116107455760405163095ea7b360e01b81526001600160a01b03831660048201526024810187905290602090829060449082906000905af180156106ed57610726575b5060405163095ea7b360e01b81526001600160a01b038216600482015260248101849052976020898060448101038160006001600160a01b038d165af19182156106ed57610617996020936106f9575b508a60006001600160a01b03604051809d819682957f96f4e9f900000000000000000000000000000000000000000000000000000000845260048401611a28565b0393165af19687156106ed576000976106ae575b506020977f437cb3c5ba4364504dda6ba3c906ffb0897c7beeb1675f3aaf22a1b9a99b3994946001600160a01b03948997948661068b67ffffffffffffffff968260095416946040519a8b9a168a528f60c0908b015260c08a0191611b2f565b9a1660408701526060860152608085015260a084015216940390a3604051908152f35b909491929396506020813d6020116106e5575b816106ce602093836119e6565b810103126101a7575195909390929190602061062b565b3d91506106c1565b6040513d6000823e3d90fd5b61071890843d861161071f575b61071081836119e6565b810190611b17565b508b6105d6565b503d610706565b61073e9060203d60201161071f5761071081836119e6565b5089610586565b856020602492604051938480926370a0823160e01b82523060048301525afa9081156106ed576000916107aa575b60449250604051917f8f0f420600000000000000000000000000000000000000000000000000000000835260048301526024820152fd5b90506020823d6020116107d7575b816107c5602093836119e6565b810103126101a7576044915190610773565b3d91506107b8565b90506020813d602011610809575b816107fa602093836119e6565b810103126101a757518b610541565b3d91506107ed565b9095506020813d60201161083d575b8161082d602093836119e6565b810103126101a75751948a610515565b3d9150610820565b61086891925060203d60201161086f575b61086081836119e6565b810190611a09565b908a6104bf565b503d610856565b60209060405161088581611992565b6000815260008382015282828b01015201610383565b60046040517fa05ff47e000000000000000000000000000000000000000000000000000000008152fd5b60248667ffffffffffffffff604051917f206abad7000000000000000000000000000000000000000000000000000000008352166004820152fd5b346101a75760006003193601126101a75760206001600160a01b0360005416604051908152f35b346101a7576003196020813601126101a7576004359067ffffffffffffffff82116101a75760a09082360301126101a7576001600160a01b037f0000000000000000000000000000000000000000000000000000000000000000163303610e545760405161099481611960565b816004013581526024918281013567ffffffffffffffff811681036101a7576020830152604481013567ffffffffffffffff81116101a7576109dc9060043691840101611bd6565b6040830152606481013567ffffffffffffffff81116101a757610a059060043691840101611bd6565b606083015260848101359067ffffffffffffffff82116101a75701366023820112156101a757600481013567ffffffffffffffff8111610e3f5760405191610a5360208360051b01846119e6565b81835284602084019260061b820101903682116101a7578501915b818310610dfa57505050608082015267ffffffffffffffff6020820151166001600160a01b03610aab604084015160208082518301019101611a09565b169080600052600760205260ff6040600020541615610dca575080600052600860205260ff6040600020541615610d9a57508051600255610af9606082015160208082518301019101611c98565b9182519067ffffffffffffffff8211610d865750610b18600554611b50565b601f8111610ce3575b50602092601f8211600114610c615792819293600092610c56575b50506000198260011b9260031b1c1916176005555b6001600160a01b03610b666080830151611c75565b51511673ffffffffffffffffffffffffffffffffffffffff1960035416176003556020610b966080830151611c75565b51015160045580517f90ec910a8f80bb04e184a806e2ae6f8786ef2ae898859a3180f953397edc12016001600160a01b0367ffffffffffffffff60208501511693610bee604082015160208082518301019101611a09565b90610c06606082015160208082518301019101611c98565b610c466020610c28608087610c1d82880151611c75565b515116950151611c75565b5101519160405195869516855260806020860152608085019061192c565b91604084015260608301520390a3005b015190508380610b3c565b601f1982169360056000527f036b6384b5eca791c62761152d0c79bb0604c104a5fb6f4eb0703f3154bb3db09160005b868110610ccb5750836001959610610cb2575b505050811b01600555610b51565b015160001960f88460031b161c19169055838080610ca4565b91926020600181928685015181550194019201610c91565b6005600052601f820160051c7f036b6384b5eca791c62761152d0c79bb0604c104a5fb6f4eb0703f3154bb3db0019060208310610d5e575b601f0160051c7f036b6384b5eca791c62761152d0c79bb0604c104a5fb6f4eb0703f3154bb3db001905b818110610d525750610b21565b60008155600101610d45565b7f036b6384b5eca791c62761152d0c79bb0604c104a5fb6f4eb0703f3154bb3db09150610d1b565b634e487b7160e01b60005260416004526000fd5b9050604051907fd0d259760000000000000000000000000000000000000000000000000000000082526004820152fd5b8390604051907f213c26780000000000000000000000000000000000000000000000000000000082526004820152fd5b6040833603126101a75760405190610e1182611992565b8335906001600160a01b03821682036101a75782602092604094528286013583820152815201920191610a6e565b83634e487b7160e01b60005260416004526000fd5b60246040517fd7f73334000000000000000000000000000000000000000000000000000000008152336004820152fd5b346101a75760006003193601126101a7576001546001600160a01b038082163303610efa576000549173ffffffffffffffffffffffffffffffffffffffff19903382851617600055166001553391167f8be0079c531659141344cd1fd0a4f28419497f9722a3daafe3b4186f6b6457e0600080a3005b606460405162461bcd60e51b815260206004820152601660248201527f4d7573742062652070726f706f736564206f776e6572000000000000000000006044820152fd5b346101a75760206003193601126101a75767ffffffffffffffff610f6061185f565b166000526006602052602060ff604060002054166040519015158152f35b346101a75760206003193601126101a7576001600160a01b03610f9f611876565b166000526008602052602060ff604060002054166040519015158152f35b346101a75760206003193601126101a757610fd6611876565b610fde611c1d565b4790811561104457600080808085855af1610ff7611ba6565b5015610fff57005b6064916001600160a01b03604051927f9d11f5630000000000000000000000000000000000000000000000000000000084523360048501521660248301526044820152fd5b60046040517fd0d04f60000000000000000000000000000000000000000000000000000000008152fd5b346101a75760206003193601126101a75767ffffffffffffffff61109061185f565b166000526007602052602060ff604060002054166040519015158152f35b346101a75760406003193601126101a7576110c7611876565b602435906001600160a01b0382168092036101a7576110e4611c1d565b6040516370a0823160e01b81523060048201526020928382602481845afa9182156106ed57600092611247575b508115611044576040517fa9059cbb000000000000000000000000000000000000000000000000000000008582019081526001600160a01b039490941660248201526044808201939093529182526111bc9260009081906111736064866119e6565b6040519461118086611992565b8786527f5361666545524332303a206c6f772d6c6576656c2063616c6c206661696c656488870152519082855af16111b6611ba6565b91611cf7565b805190816111c657005b82806111d6938301019101611b17565b156111dd57005b6084906040519062461bcd60e51b82526004820152602a60248201527f5361666545524332303a204552433230206f7065726174696f6e20646964206e60448201527f6f742073756363656564000000000000000000000000000000000000000000006064820152fd5b9091508381813d831161126f575b61125f81836119e6565b810103126101a757519084611111565b503d611255565b346101a75760006003193601126101a75760025460035460045460405160055493926001600160a01b0316919060006112ae86611b50565b80835260209687919060019081811690811561135c5750600114611306575b505050906112e0816112f79303826119e6565b60806040519687968752860152608085019061192c565b91604084015260608301520390f35b600560009081529293507f036b6384b5eca791c62761152d0c79bb0604c104a5fb6f4eb0703f3154bb3db05b8284106113495750505082010185826112f76112cd565b8054868501860152928401928101611332565b60ff1916848701525050151560051b830101905085826112f76112cd565b346101a7576113883661188c565b94939290611394611c1d565b67ffffffffffffffff851693846000526020966006885260ff6040600020541615611790576001600160a01b0380921693841561089b57606060806040516113db81611960565b828152828c8201528260408201526000838201520152604051926113fe84611992565b600184528960005b81811061176c575050806040519561141d87611992565b1694858152838b82015261143085611c75565b5261143a84611c75565b508960405194878287015281865261145186611992565b60405182808201526114798161146b604082018d89611b2f565b03601f1981018352826119e6565b604051611485816119ae565b62030d4081527f97a657c90000000000000000000000000000000000000000000000000000000060405194850152516024840152602483526114c6836119ca565b604051966114d388611960565b87528c87015260408601526000606086015260808501526040517fb0f479a10000000000000000000000000000000000000000000000000000000081528a81600481305afa9081156106ed5760009161174f575b501697604051937f20487ded0000000000000000000000000000000000000000000000000000000085528a8580611562848660048401611a28565b03818d5afa9485156106ed57600095611720575b504785116116e85760405163095ea7b360e01b81526001600160a01b038b16600482015260248101859052998b8b60448160008b5af19283156106ed576115f59b8d946116cb575b5086604051809d819582947f96f4e9f900000000000000000000000000000000000000000000000000000000845260048401611a28565b03925af19788156106ed5760009861166e575b50918795939161164c7f437cb3c5ba4364504dda6ba3c906ffb0897c7beeb1675f3aaf22a1b9a99b39949694604051968796875260c08d88015260c0870191611b2f565b92604085015260608401526000608084015260a08301520390a3604051908152f35b94929095939197508885813d83116116c4575b61168b81836119e6565b810103126101a75793519692949193909290917f437cb3c5ba4364504dda6ba3c906ffb0897c7beeb1675f3aaf22a1b9a99b3994611608565b503d611681565b6116e190853d871161071f5761071081836119e6565b508d6115be565b6044854790604051917f8f0f420600000000000000000000000000000000000000000000000000000000835260048301526024820152fd5b9094508a81813d8311611748575b61173881836119e6565b810103126101a75751938b611576565b503d61172e565b61176691508b3d8d1161086f5761086081836119e6565b8b611527565b60405161177881611992565b60008152600083820152828288010152018a90611406565b602486604051907f206abad70000000000000000000000000000000000000000000000000000000082526004820152fd5b346101a75760206003193601126101a757600435907fffffffff0000000000000000000000000000000000000000000000000000000082168092036101a757817f85572ffb0000000000000000000000000000000000000000000000000000000060209314908115611835575b5015158152f35b7f01ffc9a7000000000000000000000000000000000000000000000000000000009150148361182e565b6004359067ffffffffffffffff821682036101a757565b600435906001600160a01b03821682036101a757565b60a06003198201126101a75767ffffffffffffffff60043581811681036101a757926001600160a01b039060243582811681036101a75793604435908482116101a757806023830112156101a75781600401359485116101a757602485830101116101a757602401929160643590811681036101a7579060843590565b60005b83811061191c5750506000910152565b818101518382015260200161190c565b90601f19601f60209361194a81518092818752878088019101611909565b0116010190565b6024359081151582036101a757565b60a0810190811067ffffffffffffffff82111761197c57604052565b634e487b7160e01b600052604160045260246000fd5b6040810190811067ffffffffffffffff82111761197c57604052565b6020810190811067ffffffffffffffff82111761197c57604052565b6060810190811067ffffffffffffffff82111761197c57604052565b90601f601f19910116810190811067ffffffffffffffff82111761197c57604052565b908160209103126101a757516001600160a01b03811681036101a75790565b9092919267ffffffffffffffff604091168252602091604083820152611a5a855160a0604084015260e083019061192c565b91611a9484870151937fffffffffffffffffffffffffffffffffffffffffffffffffffffffffffffffc0948585830301606086015261192c565b604087015194848483030160808501528080875193848152019601926000905b838210611aee57505050505060c06080866001600160a01b036060611aeb989901511660a08501520151928285030191015261192c565b90565b845180516001600160a01b03168952830151888401529687019693820193600190910190611ab4565b908160209103126101a7575180151581036101a75790565b601f8260209493601f19938186528686013760008582860101520116010190565b90600182811c92168015611b80575b6020831014611b6a57565b634e487b7160e01b600052602260045260246000fd5b91607f1691611b5f565b67ffffffffffffffff811161197c57601f01601f191660200190565b3d15611bd1573d90611bb782611b8a565b91611bc560405193846119e6565b82523d6000602084013e565b606090565b81601f820112156101a757803590611bed82611b8a565b92611bfb60405194856119e6565b828452602083830101116101a757816000926020809301838601378301015290565b6001600160a01b03600054163303611c3157565b606460405162461bcd60e51b815260206004820152601660248201527f4f6e6c792063616c6c61626c65206279206f776e6572000000000000000000006044820152fd5b805115611c825760200190565b634e487b7160e01b600052603260045260246000fd5b6020818303126101a75780519067ffffffffffffffff82116101a7570181601f820112156101a7578051611ccb81611b8a565b92611cd960405194856119e6565b818452602082840101116101a757611aeb9160208085019101611909565b91929015611d585750815115611d0b575090565b3b15611d145790565b606460405162461bcd60e51b815260206004820152601d60248201527f416464726573733a2063616c6c20746f206e6f6e2d636f6e74726163740000006044820152fd5b825190915015611d6b5750805190602001fd5b611d8f9060405191829162461bcd60e51b835260206004840152602483019061192c565b0390fdfea2646970667358221220176dba1a0cfe69111a759da8d8ac27fa4e328e5adddc5e511a4c47366244485f64736f6c63430008180033",
  "linkReferences": {},
  "deployedLinkReferences": {}
}