{
  "_format": "hh-sol-artifact-1",
  "contractName": "Encode",
  "sourceName": "contracts/cleanup/Encode.sol",
  "abi": [
    {
      "inputs": [
        {
          "internalType": "bytes",
          "name": "encodedData",
          "type": "bytes"
        }
      ],
      "name": "decodeAndExecute",
      "outputs": [
        {
          "internalType": "bool",
          "name": "success",
          "type": "bool"
        }
      ],
      "stateMutability": "nonpayable",
      "type": "function"
    },
    {
      "inputs": [
        {
          "internalType": "uint8",
          "name": "multiplex",
          "type": "uint8"
        },
        {
          "internalType": "address",
          "name": "number_address",
          "type": "address"
        }
      ],
      "name": "encodeNumber",
      "outputs": [
        {
          "internalType": "bytes",
          "name": "callData",
          "type": "bytes"
        },
        {
          "internalType": "bytes",
          "name": "encodeData",
          "type": "bytes"
        }
      ],
      "stateMutability": "pure",
      "type": "function"
    }
  ],
  "bytecode": "0x608080604052346100165761043e908161001c8239f35b600080fdfe6040608081526004908136101561001557600080fd5b600090813560e01c80633c3a74051461018b5763b262a3a41461003757600080fd5b3461018457806003193601126101845782359160ff83168093036101885760243573ffffffffffffffffffffffffffffffffffffffff8116809103610184578251937fd09de08a0000000000000000000000000000000000000000000000000000000060208601528585528385019285841067ffffffffffffffff851117610158575090829161015493855260608601526080850152606060a08501526101337fffffffffffffffffffffffffffffffffffffffffffffffffffffffffffffffc08561010660c08201826103e3565b037fffffffffffffffffffffffffffffffffffffffffffffffffffffffffffffffa0810184520182610352565b61014683519484869586528501906103e3565b9083820360208501526103e3565b0390f35b806041887f4e487b71000000000000000000000000000000000000000000000000000000006024945252fd5b5080fd5b80fd5b5034610184576020928360031936011261034e5767ffffffffffffffff813581811161034a573660238201121561034a5780830135916101ca836103a4565b926101d786519485610352565b8084528784019236602483830101116103465781889260248b9301863785010152825183019160608489850194031261034257519060ff821680920361034257858401519373ffffffffffffffffffffffffffffffffffffffff851680950361034657606081015191821161034657019082603f830112156103425787820151610260816103a4565b9261026d88519485610352565b8184528984019488838301011161033e5760019291858961028e93016103c0565b036103355751859283929083905af1923d1561032f573d906102af826103a4565b916102bc85519384610352565b8252853d92013e5b82156102d457505b519015158152f35b8360649251917f08c379a0000000000000000000000000000000000000000000000000000000008352820152601560248201527f4c6f772d6c6576656c2063616c6c206661696c656400000000000000000000006044820152fd5b506102c4565b505050506102cc565b8880fd5b8680fd5b8780fd5b8480fd5b8280fd5b90601f601f19910116810190811067ffffffffffffffff82111761037557604052565b7f4e487b7100000000000000000000000000000000000000000000000000000000600052604160045260246000fd5b67ffffffffffffffff811161037557601f01601f191660200190565b60005b8381106103d35750506000910152565b81810151838201526020016103c3565b90601f19601f602093610401815180928187528780880191016103c0565b011601019056fea2646970667358221220132170106b87fe976f080a3dfe33e93202fd351d9ef5e09f0e9d38b7f1b0c3c664736f6c63430008180033",
  "linkReferences": {},
  "deployedLinkReferences": {}
}