{
  "_format": "hh-sol-artifact-1",
  "contractName": "Number",
  "sourceName": "contracts/cleanup/Number.sol",
  "abi": [
    {
      "inputs": [],
      "name": "decrement",
      "outputs": [],
      "stateMutability": "nonpayable",
      "type": "function"
    },
    {
      "inputs": [],
      "name": "getNumber",
      "outputs": [
        {
          "internalType": "uint256",
          "name": "_number",
          "type": "uint256"
        }
      ],
      "stateMutability": "view",
      "type": "function"
    },
    {
      "inputs": [],
      "name": "increment",
      "outputs": [],
      "stateMutability": "nonpayable",
      "type": "function"
    },
    {
      "inputs": [],
      "name": "number",
      "outputs": [
        {
          "internalType": "uint256",
          "name": "",
          "type": "uint256"
        }
      ],
      "stateMutability": "view",
      "type": "function"
    }
  ],
  "bytecode": "0x6080806040523461001b57603260005561011f90816100218239f35b600080fdfe60806040526004361015601157600080fd5b6000803560e01c80632baeceb71460ca5780638381f58a1460af578063d09de08a1460615763f2c9ecd814604457600080fd5b34605e5780600319360112605e5760209054604051908152f35b80fd5b5034605e5780600319360112605e5780546000198114608257600101815580f35b6024827f4e487b710000000000000000000000000000000000000000000000000000000081526011600452fd5b5034605e5780600319360112605e5760209054604051908152f35b5034605e5780600319360112605e578054801560825760001901815580f3fea26469706673582212208c1ea79a1e318aa26681735a792d25d98741a100bafb346dcfeb942a6115c74764736f6c63430008180033",
  "linkReferences": {},
  "deployedLinkReferences": {}
}