{
  "_format": "hh-sol-artifact-1",
  "contractName": "AFTesting",
  "sourceName": "contracts/AFTesting.sol",
  "abi": [
    {
      "inputs": [],
      "name": "AF",
      "outputs": [
        {
          "internalType": "contract AccountFactory",
          "name": "",
          "type": "address"
        }
      ],
      "stateMutability": "view",
      "type": "function"
    },
    {
      "inputs": [],
      "name": "creationAddress",
      "outputs": [
        {
          "internalType": "address",
          "name": "",
          "type": "address"
        }
      ],
      "stateMutability": "view",
      "type": "function"
    },
    {
      "inputs": [
        {
          "internalType": "uint8",
          "name": "multiplex",
          "type": "uint8"
        },
        {
          "internalType": "address",
          "name": "AAFactory",
          "type": "address"
        },
        {
          "internalType": "address",
          "name": "AAUser",
          "type": "address"
        },
        {
          "internalType": "address",
          "name": "router",
          "type": "address"
        }
      ],
      "name": "encodeData",
      "outputs": [
        {
          "internalType": "bytes",
          "name": "",
          "type": "bytes"
        }
      ],
      "stateMutability": "pure",
      "type": "function"
    },
    {
      "inputs": [
        {
          "internalType": "bytes",
          "name": "message",
          "type": "bytes"
        }
      ],
      "name": "onReceive",
      "outputs": [
        {
          "internalType": "address",
          "name": "",
          "type": "address"
        }
      ],
      "stateMutability": "nonpayable",
      "type": "function"
    },
    {
      "stateMutability": "payable",
      "type": "receive"
    }
  ],
  "bytecode": "0x6080806040523461001657610622908161001c8239f35b600080fdfe6080604052600436101561001b575b361561001957600080fd5b005b6000803560e01c90816317610fcf1461005e5750806347af954d14610059578063518affcc14610054576391c3be840361000e5761028b565b6101d2565b610199565b346101075760206003193601126101075760043567ffffffffffffffff8111610103573660238201121561010357806004013561009a8161017d565b916100a8604051938461015a565b81835236602483830101116100ff57926020826100d4949360246100fb9701838601378301015261041b565b60405173ffffffffffffffffffffffffffffffffffffffff90911681529081906020820190565b0390f35b8380fd5b5080fd5b80fd5b7f4e487b7100000000000000000000000000000000000000000000000000000000600052604160045260246000fd5b6080810190811067ffffffffffffffff82111761015557604052565b61010a565b90601f601f19910116810190811067ffffffffffffffff82111761015557604052565b67ffffffffffffffff811161015557601f01601f191660200190565b346101cd5760006003193601126101cd57602073ffffffffffffffffffffffffffffffffffffffff60015416604051908152f35b600080fd5b346101cd5760006003193601126101cd57602073ffffffffffffffffffffffffffffffffffffffff60005416604051908152f35b60ff8116036101cd57565b73ffffffffffffffffffffffffffffffffffffffff8116036101cd57565b60005b8381106102425750506000910152565b8181015183820152602001610232565b90601f19601f6020936102708151809281875287808801910161022f565b0116010190565b906020610288928181520190610252565b90565b346101cd5760806003193601126101cd576100fb60ff6103656004356102b081610206565b6103576024356102bf81610211565b604435906102cc82610211565b606435906102d982610211565b604051927f133572ba00000000000000000000000000000000000000000000000000000000602085015273ffffffffffffffffffffffffffffffffffffffff928380921660248601521660448401526044835261033583610139565b6040519687951660208601521660408401526060808401526080830190610252565b03601f19810183528261015a565b60405191829182610277565b3d1561039c573d906103828261017d565b91610390604051938461015a565b82523d6000602084013e565b606090565b156103a857565b60646040517f08c379a000000000000000000000000000000000000000000000000000000000815260206004820152601560248201527f4c6f772d6c6576656c2063616c6c206661696c656400000000000000000000006044820152fd5b908160209103126101cd575161028881610211565b80516020908201916060818385019403126101cd57818101519261043e84610206565b60408201519161044d83610211565b60608101519067ffffffffffffffff82116101cd570181603f820112156101cd578381015161047b8161017d565b92610489604051948561015a565b818452604082840101116101cd576104a7916040868501910161022f565b61052360ff6000956105316044602486015195015194604051948591898301977f42441339000000000000000000000000000000000000000000000000000000008952339160248501916040919493606084019573ffffffffffffffffffffffffffffffffffffffff9283809216865216602085015216910152565b03601f19810185528461015a565b161561053f575b5050505090565b93610585939281928273ffffffffffffffffffffffffffffffffffffffff61059e985193165af190610578610572610371565b926103a1565b8082518301019101610406565b73ffffffffffffffffffffffffffffffffffffffff1690565b6105e38173ffffffffffffffffffffffffffffffffffffffff167fffffffffffffffffffffffff00000000000000000000000000000000000000006001541617600155565b3880808061053856fea264697066735822122089df0bd7a8d2ef58f0c0242ed35e7ee39092e8924da6a646a8b572b49fbe8fb264736f6c63430008180033",
  "linkReferences": {},
  "deployedLinkReferences": {}
}