{
  "_format": "hh-sol-artifact-1",
  "contractName": "AccountNative",
  "sourceName": "contracts/AccountNative.sol",
  "abi": [
    {
      "inputs": [
        {
          "internalType": "address",
          "name": "_owner",
          "type": "address"
        },
        {
          "internalType": "address",
          "name": "_ccipRouter",
          "type": "address"
        }
      ],
      "stateMutability": "nonpayable",
      "type": "constructor"
    },
    {
      "inputs": [
        {
          "internalType": "address",
          "name": "router",
          "type": "address"
        }
      ],
      "name": "InvalidRouter",
      "type": "error"
    },
    {
      "anonymous": false,
      "inputs": [
        {
          "indexed": false,
          "internalType": "bool",
          "name": "success",
          "type": "bool"
        },
        {
          "indexed": false,
          "internalType": "bytes",
          "name": "data",
          "type": "bytes"
        }
      ],
      "name": "CallResult",
      "type": "event"
    },
    {
      "inputs": [
        {
          "internalType": "uint64",
          "name": "_destinationChainSelector",
          "type": "uint64"
        },
        {
          "internalType": "address",
          "name": "_receiver",
          "type": "address"
        },
        {
          "internalType": "address",
          "name": "AAFactory",
          "type": "address"
        },
        {
          "internalType": "address",
          "name": "AAUser",
          "type": "address"
        },
        {
          "internalType": "address",
          "name": "destinationRouter",
          "type": "address"
        },
        {
          "internalType": "address",
          "name": "paymaster",
          "type": "address"
        }
      ],
      "name": "AAInitializeDestination",
      "outputs": [
        {
          "internalType": "bytes32",
          "name": "messageId",
          "type": "bytes32"
        }
      ],
      "stateMutability": "nonpayable",
      "type": "function"
    },
    {
      "inputs": [],
      "name": "ROUTER02",
      "outputs": [
        {
          "internalType": "address",
          "name": "",
          "type": "address"
        }
      ],
      "stateMutability": "view",
      "type": "function"
    },
    {
      "inputs": [],
      "name": "WETH",
      "outputs": [
        {
          "internalType": "address",
          "name": "",
          "type": "address"
        }
      ],
      "stateMutability": "view",
      "type": "function"
    },
    {
      "inputs": [
        {
          "components": [
            {
              "internalType": "bytes32",
              "name": "messageId",
              "type": "bytes32"
            },
            {
              "internalType": "uint64",
              "name": "sourceChainSelector",
              "type": "uint64"
            },
            {
              "internalType": "bytes",
              "name": "sender",
              "type": "bytes"
            },
            {
              "internalType": "bytes",
              "name": "data",
              "type": "bytes"
            },
            {
              "components": [
                {
                  "internalType": "address",
                  "name": "token",
                  "type": "address"
                },
                {
                  "internalType": "uint256",
                  "name": "amount",
                  "type": "uint256"
                }
              ],
              "internalType": "struct Client.EVMTokenAmount[]",
              "name": "destTokenAmounts",
              "type": "tuple[]"
            }
          ],
          "internalType": "struct Client.Any2EVMMessage",
          "name": "message",
          "type": "tuple"
        }
      ],
      "name": "ccipReceive",
      "outputs": [],
      "stateMutability": "nonpayable",
      "type": "function"
    },
    {
      "inputs": [],
      "name": "creationAddress",
      "outputs": [
        {
          "internalType": "address",
          "name": "",
          "type": "address"
        }
      ],
      "stateMutability": "view",
      "type": "function"
    },
    {
      "inputs": [
        {
          "internalType": "address",
          "name": "target",
          "type": "address"
        },
        {
          "internalType": "bytes",
          "name": "data",
          "type": "bytes"
        }
      ],
      "name": "execute",
      "outputs": [],
      "stateMutability": "payable",
      "type": "function"
    },
    {
      "inputs": [],
      "name": "getLastReceivedMessageDetails",
      "outputs": [
        {
          "internalType": "bytes32",
          "name": "messageId",
          "type": "bytes32"
        },
        {
          "internalType": "string",
          "name": "text",
          "type": "string"
        },
        {
          "internalType": "bytes",
          "name": "textBytes",
          "type": "bytes"
        }
      ],
      "stateMutability": "view",
      "type": "function"
    },
    {
      "inputs": [],
      "name": "getRouter",
      "outputs": [
        {
          "internalType": "address",
          "name": "",
          "type": "address"
        }
      ],
      "stateMutability": "view",
      "type": "function"
    },
    {
      "inputs": [
        {
          "internalType": "uint64",
          "name": "_destinationChainSelector",
          "type": "uint64"
        },
        {
          "internalType": "address",
          "name": "_receiverDestination",
          "type": "address"
        },
        {
          "internalType": "address",
          "name": "_SendToken",
          "type": "address"
        },
        {
          "internalType": "address",
          "name": "token1",
          "type": "address"
        },
        {
          "internalType": "address",
          "name": "token2",
          "type": "address"
        },
        {
          "internalType": "address",
          "name": "token1destination",
          "type": "address"
        },
        {
          "internalType": "address",
          "name": "token2destination",
          "type": "address"
        },
        {
          "internalType": "uint256",
          "name": "initialValue",
          "type": "uint256"
        },
        {
          "internalType": "uint256",
          "name": "deadline",
          "type": "uint256"
        },
        {
          "internalType": "address",
          "name": "paymaster",
          "type": "address"
        }
      ],
      "name": "incubate",
      "outputs": [],
      "stateMutability": "nonpayable",
      "type": "function"
    },
    {
      "inputs": [
        {
          "internalType": "uint64",
          "name": "_destinationChainSelector",
          "type": "uint64"
        },
        {
          "internalType": "address",
          "name": "_receiver",
          "type": "address"
        },
        {
          "internalType": "address",
          "name": "token1",
          "type": "address"
        },
        {
          "internalType": "address",
          "name": "token2",
          "type": "address"
        },
        {
          "internalType": "address",
          "name": "paymaster",
          "type": "address"
        }
      ],
      "name": "incubateDestination",
      "outputs": [
        {
          "internalType": "bytes32",
          "name": "messageId",
          "type": "bytes32"
        }
      ],
      "stateMutability": "nonpayable",
      "type": "function"
    },
    {
      "inputs": [],
      "name": "initAA",
      "outputs": [],
      "stateMutability": "nonpayable",
      "type": "function"
    },
    {
      "inputs": [
        {
          "internalType": "bytes32[2]",
          "name": "aPublicKey",
          "type": "bytes32[2]"
        }
      ],
      "name": "initialize",
      "outputs": [],
      "stateMutability": "nonpayable",
      "type": "function"
    },
    {
      "inputs": [
        {
          "internalType": "bytes32",
          "name": "message",
          "type": "bytes32"
        },
        {
          "internalType": "bytes",
          "name": "signature",
          "type": "bytes"
        }
      ],
      "name": "isValidSignature",
      "outputs": [
        {
          "internalType": "bytes4",
          "name": "magicValue",
          "type": "bytes4"
        }
      ],
      "stateMutability": "view",
      "type": "function"
    },
    {
      "inputs": [],
      "name": "latestSourceMessage",
      "outputs": [
        {
          "internalType": "bytes32",
          "name": "",
          "type": "bytes32"
        }
      ],
      "stateMutability": "view",
      "type": "function"
    },
    {
      "inputs": [],
      "name": "owner",
      "outputs": [
        {
          "internalType": "address",
          "name": "",
          "type": "address"
        }
      ],
      "stateMutability": "view",
      "type": "function"
    },
    {
      "inputs": [],
      "name": "publicKey",
      "outputs": [
        {
          "internalType": "bytes32",
          "name": "X",
          "type": "bytes32"
        },
        {
          "internalType": "bytes32",
          "name": "Y",
          "type": "bytes32"
        }
      ],
      "stateMutability": "view",
      "type": "function"
    },
    {
      "inputs": [],
      "name": "salt",
      "outputs": [
        {
          "internalType": "uint256",
          "name": "",
          "type": "uint256"
        }
      ],
      "stateMutability": "view",
      "type": "function"
    },
    {
      "inputs": [
        {
          "internalType": "bytes4",
          "name": "interfaceId",
          "type": "bytes4"
        }
      ],
      "name": "supportsInterface",
      "outputs": [
        {
          "internalType": "bool",
          "name": "",
          "type": "bool"
        }
      ],
      "stateMutability": "pure",
      "type": "function"
    },
    {
      "inputs": [],
      "name": "uniswapRouter",
      "outputs": [
        {
          "internalType": "contract IUniswapV2Router02",
          "name": "",
          "type": "address"
        }
      ],
      "stateMutability": "view",
      "type": "function"
    },
    {
      "inputs": [
        {
          "components": [
            {
              "internalType": "address",
              "name": "sender",
              "type": "address"
            },
            {
              "internalType": "uint256",
              "name": "nonce",
              "type": "uint256"
            },
            {
              "internalType": "bytes",
              "name": "initCode",
              "type": "bytes"
            },
            {
              "internalType": "bytes",
              "name": "callData",
              "type": "bytes"
            },
            {
              "internalType": "uint256",
              "name": "callGasLimit",
              "type": "uint256"
            },
            {
              "internalType": "uint256",
              "name": "verificationGasLimit",
              "type": "uint256"
            },
            {
              "internalType": "uint256",
              "name": "preVerificationGas",
              "type": "uint256"
            },
            {
              "internalType": "uint256",
              "name": "maxFeePerGas",
              "type": "uint256"
            },
            {
              "internalType": "uint256",
              "name": "maxPriorityFeePerGas",
              "type": "uint256"
            },
            {
              "internalType": "bytes",
              "name": "paymasterAndData",
              "type": "bytes"
            },
            {
              "internalType": "bytes",
              "name": "signature",
              "type": "bytes"
            }
          ],
          "internalType": "struct UserOperation",
          "name": "userOp",
          "type": "tuple"
        },
        {
          "internalType": "bytes32",
          "name": "userOpHash",
          "type": "bytes32"
        },
        {
          "internalType": "uint256",
          "name": "",
          "type": "uint256"
        }
      ],
      "name": "validateUserOp",
      "outputs": [
        {
          "internalType": "uint256",
          "name": "validationData",
          "type": "uint256"
        }
      ],
      "stateMutability": "nonpayable",
      "type": "function"
    },
    {
      "stateMutability": "payable",
      "type": "receive"
    }
  ],
  "bytecode": "0x60a0346200010757601f6200272138819003918201601f19168301916001600160401b038311848410176200010c57808492604094855283398101031262000107576200005a6020620000528362000122565b920162000122565b6001600160a01b039080821615620000ee57608052600060095573139d70e24b8c82539800eeb99510bfb8b09eaf689160018060a01b0319928084600a541617600a5573fff9976782d46cc05630d1f6ebab18b2324d6b1484600b541617600b5583600c541617600c55169060005416176000556040516125e99081620001388239608051818181610ad20152610b830152f35b6040516335fdcccd60e21b815260006004820152602490fd5b600080fd5b634e487b7160e01b600052604160045260246000fd5b51906001600160a01b0382168203620001075756fe608080604052600436101561001d575b50361561001b57600080fd5b005b60003560e01c90816301ffc9a7146116a4575080631626ba7e146116215780631cff79cd1461153c578063263596a51461138957806326e4bcfb1461136b57806329639df7146113535780632d160321146112ec5780633a871cdd1461129e57806347af954d1461127757806363ffab3114611252578063735de9f71461122b578063740f4545146112045780637823d3f3146110bf57806385572ffb14610b445780638da5cb5b14610b1d578063ad5c464814610af6578063b0f479a114610ab2578063bfa0b13314610a94578063c8a10ada1461088e5763e5c01f9514610106573861000f565b3461064657610140600319360112610646576101206118fc565b610128611742565b90610131611758565b9061013a61176e565b91610143611784565b61014b61179a565b60c435946001600160a01b03861686036106465761012435926001600160a01b0384168403610646576000806001600160a01b03600b541660405160208101907fd0e30db0000000000000000000000000000000000000000000000000000000008252600481526101bb816117b0565b519160e435905af16101cb611980565b501561084a576001600160a01b03600c54166040519063095ea7b360e01b8252600482015269021e19e0c9bab2400000602482015260208160448160006001600160a01b0388165af180156106535761082b575b506040519161022d83611804565b6002835260403660208501376001600160a01b03811661024c84611afc565b5261025683611b1f565b6001600160a01b0383169052600360e43581020460e435036106f9576001600160a01b03600c541660405180947f38ed173900000000000000000000000000000000000000000000000000000000825260a4820160e43560030260021c60048401526000602484015260a060448401528151809152602060c4840192019060005b818110610809575050509181600081819530606483015261010435608483015203925af192831561065357600093610759575b50600361031684611b1f565b51046001600160a01b03600c54166040519063095ea7b360e01b8252600482015269021e19e0c9bab2400000602482015260208160448160006001600160a01b0389165af19283156106535760006001600160a01b03936101049360609661073a575b5084600c5416908560405198899788967fe8e33700000000000000000000000000000000000000000000000000000000008852166004870152166024850152600360e435810260021c04604485015260648401528160848401528160a48401523060c4840152833560e48401525af180156106535761070f575b506103fd90611b1f565b5194858060011b04600214861517156106f9576040519061041d826117b0565b6001825260005b602081106106d457506001600160a01b03908160405196610444886117b0565b169586815260038960011b04602082015261045e84611afc565b5261046883611afc565b5081604051946063602087015216604085015216606083015260038660011b0460808301526080825261049a826117e8565b6001600160a01b0360405197166020880152602087526104b9876117b0565b6104d36040516104c8816117cc565b622dc6c08152611d89565b91604051976104e1896117e8565b88526020880152604087015260006060870152608086015260405163095ea7b360e01b81526001600160a01b038216600482015260038560011b0460248201526020816044816000875af18015610653576106a5575b50604051927fb0f479a1000000000000000000000000000000000000000000000000000000008452602084600481305afa928315610653576001600160a01b039660209560009561065f575b5067ffffffffffffffff926000926105e08a936040519b8c998a9889967fb344b6ea00000000000000000000000000000000000000000000000000000000885216600487015216602485015260a0604485015260a4840190611a21565b90606483015260038960011b0460848301520393165af191821561065357600092610619575b5060039060011b04600955600355600080f35b9091506020813d60201161064b575b8161063560209383611820565b810103126106465751906003610606565b600080fd5b3d9150610628565b6040513d6000823e3d90fd5b88919550926000926105e061069267ffffffffffffffff968a3d8c1161069e575b61068a8183611820565b810190611a02565b97935050925092610583565b503d610680565b6106c69060203d6020116106cd575b6106be8183611820565b810190611e28565b5038610537565b503d6106b4565b6020906040516106e3816117b0565b6000815260008382015282828601015201610424565b634e487b7160e01b600052601160045260246000fd5b606090813d8311610733575b6107258183611820565b8101031261064657386103f3565b503d61071b565b6107529060203d6020116106cd576106be8183611820565b5038610379565b9092503d806000833e61076c8183611820565b60208282810103126106465781519067ffffffffffffffff821161064657808301601f8385010112156106465781830151916107a7836119ea565b936107b56040519586611820565b8385526020850192810160208560051b8484010101116106465780820160200192915b60208560051b828401010184106107f5575050505050913861030a565b6020808094865181520194019392506107d8565b82516001600160a01b03168452889450602093840193909201916001016102d7565b6108439060203d6020116106cd576106be8183611820565b503861021f565b606460405162461bcd60e51b815260206004820152601360248201527f57455448204465706f736974206661696c6564000000000000000000000000006044820152fd5b346106465760a0600319360112610646576108a76118fc565b6108af611742565b6108b7611758565b916108c061176e565b916108c9611784565b6040516108d5816117cc565b60008152600954908115610a5057604051916020976001898501526001600160a01b039788809216604086015216606084015260808301526080825261091a826117e8565b85604051941687850152868452610930846117b0565b61093f6040516104c8816117cc565b916040519461094d866117e8565b8552878501526040840152600060608401526080830152604051927fb0f479a10000000000000000000000000000000000000000000000000000000084528584600481305afa8015610653576109e2958795600092610a30575b5060009192604051978896879586937f6628c6e800000000000000000000000000000000000000000000000000000000855260048501611acd565b0393165af190811561065357600091610a03575b5080600355604051908152f35b90508181813d8311610a29575b610a1a8183611820565b810103126106465751826109f6565b503d610a10565b60009250610a4a90873d891161069e5761068a8183611820565b916109a7565b606460405162461bcd60e51b815260206004820152601e60248201527f53656564207a65726f2c207472616e73666572207365656420666972737400006044820152fd5b34610646576000600319360112610646576020600154604051908152f35b346106465760006003193601126106465760206040516001600160a01b037f0000000000000000000000000000000000000000000000000000000000000000168152f35b346106465760006003193601126106465760206001600160a01b03600b5416604051908152f35b346106465760006003193601126106465760206001600160a01b0360005416604051908152f35b3461064657602060031981813601126106465760043567ffffffffffffffff918282116106465760a0908236030112610646576001600160a01b0392837f000000000000000000000000000000000000000000000000000000000000000016330361108f57604051610bb5816117e8565b826004013581526024948584013585811681036106465783830152604484013585811161064657610bec9060043691870101611896565b6040830152606484013585811161064657610c0d9060043691870101611896565b936060830194855260848101359086821161064657013660238201121561064657600481013590610c3d826119ea565b91610c4b6040519384611820565b808352888684019160061b83010191368311610646578901905b8282106110525750505060808301528351805181019060608186840193031261064657848101519160ff831680930361064657610ca460408301611dc6565b9160608101519089821161064657019080603f830112156106465786820151610ccf92604001611dda565b9115610fa7575b5050505160065581518051810190828181840193031261064657828101519085821161064657019080603f830112156106465782820151610d1992604001611dda565b918251848111610f9257610d2e6008546119b0565b93601f94858111610f46575b508390858311600114610ec057610d69929160009183610eb5575b50506000198260011b9260031b1c19161790565b6008555b51938451938411610ea15750610d846007546119b0565b828111610e4b575b5080918311600114610dca57508190610dba93600092610dbf5750506000198260011b9260031b1c19161790565b600755005b015190508380610d55565b90601f1983169360076000527fa66cc928b5edb82af9bd49922954155ab7b0942694bea4ce44661d9a8736c688926000905b868210610e335750508360019510610e1a575b505050811b01600755005b015160001960f88460031b161c19169055828080610e0f565b80600185968294968601518155019501930190610dfc565b610e929060076000527fa66cc928b5edb82af9bd49922954155ab7b0942694bea4ce44661d9a8736c6888480870160051c820192858810610e98575b0160051c0190611e11565b84610d8c565b92508192610e87565b634e487b7160e01b60005260416004526000fd5b015190508880610d55565b90601f1983169160086000527ff3f7a9fe364faab93b216da50a3214154f22a0a2b415b23a84c8169e8b636ee39260005b87828210610f30575050908460019594939210610f17575b505050811b01600855610d6d565b015160001960f88460031b161c19169055878080610f09565b6001859682939686015181550195019301610ef1565b610f8c9060086000527ff3f7a9fe364faab93b216da50a3214154f22a0a2b415b23a84c8169e8b636ee38780860160051c820192888710610e98570160051c0190611e11565b87610d3a565b85634e487b7160e01b60005260416004526000fd5b8160009291838588829551940192165af1610fc0611980565b901561100f5783818051810103126106465783610fdd9101611dc6565b167fffffffffffffffffffffffff00000000000000000000000000000000000000006002541617600255858080610cd6565b6064846015896040519262461bcd60e51b845260048401528201527f4c6f772d6c6576656c2063616c6c206661696c656400000000000000000000006044820152fd5b6040823603126106465760405190611069826117b0565b823590868216820361064657828992604094528285013583820152815201910190610c65565b60246040517fd7f73334000000000000000000000000000000000000000000000000000000008152336004820152fd5b346106465760c0600319360112610646576110d86118fc565b6110e0611742565b906110e9611758565b906110f261176e565b926110fb611784565b9261110461179a565b90604051611111816117cc565b600081526040516020977f133572ba00000000000000000000000000000000000000000000000000000000898301526001600160a01b039788809216602484015216604482015260448152608081019281841067ffffffffffffffff8511176111ee5761091a91887fffffffffffffffffffffffffffffffffffffffffffffffffffffffffffffff809286604052600060a08401521660c0820152606060e08201526111c16101008201826118d7565b037fffffffffffffffffffffffffffffffffffffffffffffffffffffffffffffff60810185520183611820565b634e487b7160e01b600052604160045260246000fd5b346106465760006003193601126106465760206001600160a01b03600a5416604051908152f35b346106465760006003193601126106465760206001600160a01b03600c5416604051908152f35b3461064657600060031936011261064657604060045460055482519182526020820152f35b346106465760006003193601126106465760206001600160a01b0360025416604051908152f35b3461064657600319606081360112610646576004359067ffffffffffffffff821161064657610160908236030112610646576112e09060243590600401611c4b565b50602060405160008152f35b3461064657604060031936011261064657366023121561064657604051611312816117b0565b604481368211610646576004905b8282106113435783602081519101519061133b6040516117b0565b600455600555005b8135815260209182019101611320565b34610646576000600319360112610646576000600155005b34610646576000600319360112610646576020600354604051908152f35b3461064657600060031936011261064657600654604051600091600854916113b0836119b0565b80825281602095869260019660018116908160001461151e57506001146114c2575b506113df92500382611820565b6040519060009385600754916113f4836119b0565b80865292600181169081156114a5575060011461144b575b50846114478561143986611422838c0384611820565b6060604051968796875286015260608501906118d7565b9083820360408501526118d7565b0390f35b9190955060076000527fa66cc928b5edb82af9bd49922954155ab7b0942694bea4ce44661d9a8736c688916000925b8284106114925750505082019093019280858361140c565b805486850189015292870192810161147a565b60ff191683870152505090151560051b830101935080858361140c565b600860009081529150867ff3f7a9fe364faab93b216da50a3214154f22a0a2b415b23a84c8169e8b636ee35b82841061150757505050916113df9282010186926113d2565b8054878501870152869450928501928891016114ee565b60ff19168486015250879390151560051b83010190506113df6113d2565b6040600319360112610646576004356001600160a01b03811681036106465760243567ffffffffffffffff81116106465760009161157f83923690600401611896565b9082602083519301915af1611592611980565b90156115dd576115d87f582326e533af48b16567b0565a82550442e225cf8491cb9ae2a29e1f96935e7c91604051918291600183526040602084015260408301906118d7565b0390a1005b606460405162461bcd60e51b815260206004820152600b60248201527f43616c6c206661696c65640000000000000000000000000000000000000000006044820152fd5b346106465760406003193601126106465767ffffffffffffffff602435818111610646573660238201121561064657806004013591821161064657366024838301011161064657602091602461167a9201600435611913565b7fffffffff0000000000000000000000000000000000000000000000000000000060405191168152f35b3461064657602060031936011261064657600435907fffffffff00000000000000000000000000000000000000000000000000000000821680920361064657817f85572ffb0000000000000000000000000000000000000000000000000000000060209314908115611718575b5015158152f35b7f01ffc9a70000000000000000000000000000000000000000000000000000000091501483611711565b602435906001600160a01b038216820361064657565b604435906001600160a01b038216820361064657565b606435906001600160a01b038216820361064657565b608435906001600160a01b038216820361064657565b60a435906001600160a01b038216820361064657565b6040810190811067ffffffffffffffff8211176111ee57604052565b6020810190811067ffffffffffffffff8211176111ee57604052565b60a0810190811067ffffffffffffffff8211176111ee57604052565b6060810190811067ffffffffffffffff8211176111ee57604052565b90601f601f19910116810190811067ffffffffffffffff8211176111ee57604052565b67ffffffffffffffff81116111ee57601f01601f191660200190565b92919261186b82611843565b916118796040519384611820565b829481845281830111610646578281602093846000960137010152565b9080601f83011215610646578160206118b19335910161185f565b90565b60005b8381106118c75750506000910152565b81810151838201526020016118b7565b90601f19601f6020936118f5815180928187528780880191016118b4565b0116010190565b6004359067ffffffffffffffff8216820361064657565b9061193492916040519060208201526020815261192f816117b0565b611b2f565b61195c577fffffffff0000000000000000000000000000000000000000000000000000000090565b7f1626ba7e0000000000000000000000000000000000000000000000000000000090565b3d156119ab573d9061199182611843565b9161199f6040519384611820565b82523d6000602084013e565b606090565b90600182811c921680156119e0575b60208310146119ca57565b634e487b7160e01b600052602260045260246000fd5b91607f16916119bf565b67ffffffffffffffff81116111ee5760051b60200190565b9081602091031261064657516001600160a01b03811681036106465790565b9190611a36835160a0835260a08301906118d7565b90611a4d60209283860151838203858501526118d7565b60409060408601519383820360408501528080865193848152019501926000905b838210611aa45750505050506080846001600160a01b0360606118b19697015116606084015201519060808184039101526118d7565b845180516001600160a01b03168852830151878401529586019593820193600190910190611a6e565b6001600160a01b036118b1949367ffffffffffffffff6060941683521660208201528160408201520190611a21565b805115611b095760200190565b634e487b7160e01b600052603260045260246000fd5b805160011015611b095760400190565b909182019160208184031261064657803567ffffffffffffffff9182821161064657019060c082850312610646576040519060c08201828110828211176111ee5760405282358181116106465785611b88918501611896565b8252602083013590811161064657820184601f82011215610646576118b194816020611bb69335910161185f565b91826020830152604081013580604084015260608201359081606085015260a06080840135938460808701520135938460a082015251946004549560055497611e51565b9035907fffffffffffffffffffffffffffffffffffffffffffffffffffffffffffffffe181360301821215610646570180359067ffffffffffffffff82116106465760200191813603831361064657565b60009291610140820191611c5f8382611bfa565b8092915015611d6057611c728482611bfa565b15611d7557359160018360f81c14600014611d6a57600711611d6057611c988482611bfa565b600795919511611d5c57611cab91611bfa565b92909583600711611d5957507fffffffffffff000000000000000000000000000000000000000000000000000060017ffffffffffffffffffffffffffffffffffffffffffffffffffffffffffffffff96007611d4b9899019501957fff0000000000000000000000000000000000000000000000000000000000000060405195166020860152013516602183015260278201526027815261192f81611804565b611d5457600190565b600090565b80fd5b8680fd5b5060019450505050565b506001955050505050565b602487634e487b7160e01b81526032600452fd5b604051907f97a657c9000000000000000000000000000000000000000000000000000000006020830152516024820152602481526118b181611804565b51906001600160a01b038216820361064657565b90929192611de781611843565b91611df56040519384611820565b829482845282820111610646576020611e0f9301906118b4565b565b818110611e1c575050565b60008155600101611e11565b90816020910312610646575180151581036106465790565b908151811015611b09570160200190565b9793959496929190918251986020998a81109081156122bb575b506122ac57611eb1604098848c7f2274797065223a22776562617574686e2e6765742200000000000000000000008c5191611ea5836117b0565b60158352820152612395565b156122ac57611ebf9061241e565b6000815160028111908161224a575b50156121b9575060025b81519081039081116106f9578a9291818a611ef38794611843565b91611f0082519384611820565b808352611f0c81611843565b93601f19888501950136863760005b8281106120dc57505050611fa4957f226368616c6c656e6765223a220000000000000000000000000000000000000093611f69611f9f94602e9451968794850152518092602d8501906118b4565b81017f2200000000000000000000000000000000000000000000000000000000000000602d82015203600e810184520182611820565b612395565b156120cf576000611fc28992838951928284809451938492016118b4565b8101039060025afa156120c457600061201888928251612008898051809388611ff481840197888151938492016118b4565b820190898201520387810184520182611820565b88519283928392519283916118b4565b8101039060025afa156120b95760005192845195878701948552858701526060860152608085015260a084015260a0835260c083019280841067ffffffffffffffff8511176111ee5760009384935251907394474db941cb2d89f3dbd946aaec40054c30a9cd5afa90612089611980565b91156120a357808280518101031261064657015160011490565b634e487b7160e01b600052600160045260246000fd5b83513d6000823e3d90fd5b84513d6000823e3d90fd5b5050505050505050600090565b9194969750929450600191507fff000000000000000000000000000000000000000000000000000000000000007f2b00000000000000000000000000000000000000000000000000000000000000816121358487611e40565b51160361215a5750602d6121498287611e40565b535b018d9594928794928d92611f1b565b7f2f00000000000000000000000000000000000000000000000000000000000000816121868487611e40565b5116036121a05750605f61219a8287611e40565b5361214b565b6121aa8285611e40565b511660001a61219a8287611e40565b81516001811190816121d4575b5015611ed857506001611ed8565b600019810191508111612236577fff0000000000000000000000000000000000000000000000000000000000000061222d7f3d000000000000000000000000000000000000000000000000000000000000009285611e40565b511614386121c6565b602482634e487b7160e01b81526011600452fd5b600119810191508111612236577fff000000000000000000000000000000000000000000000000000000000000006122a37f3d000000000000000000000000000000000000000000000000000000000000009285611e40565b51161438611ece565b50505050505050505050600090565b90508a1015611b09576122f37fff000000000000000000000000000000000000000000000000000000000000006040860151166122fa565b1538611e6b565b7f010000000000000000000000000000000000000000000000000000000000000080821603612382577f080000000000000000000000000000000000000000000000000000000000000080821603612353575b50600190565b7f100000000000000000000000000000000000000000000000000000000000000080911614611d54573861234d565b50600090565b919082018092116106f957565b9190825192815160005b8581106123b157505050505050600190565b816123bc8287612388565b1015612413577fff00000000000000000000000000000000000000000000000000000000000000806123ee8386611e40565b5116906124046123fe8489612388565b87611e40565b5116036124135760010161239f565b505050505050600090565b9081511561259e576040519161243383611804565b604083527f4142434445464748494a4b4c4d4e4f505152535455565758595a61626364656660208401527f6768696a6b6c6d6e6f707172737475767778797a303132333435363738392b2f6040840152805192600291600285018095116106f9576003809504928360021b937f3fffffffffffffffffffffffffffffffffffffffffffffffffffffffffffffff8116036106f957946124ea6124d485611843565b946124e26040519687611820565b808652611843565b601f1960208601910136823792829183518401976020890192835194600085525b8a81106125515750505050600393949596505251068060011461253e57600214612533575090565b600019603d91015390565b5060011981603d60001981940153015390565b836004919b989b019a8b51600190603f9082828260121c16870101518453828282600c1c16870101518385015382828260061c16870101518785015316840101518582015301969961250b565b90506040516125ac816117cc565b600081529056fea264697066735822122051482a2c986499f31b1567c4dc43ddef32f78c8acf6b5a8d8753ce59c8bb6a7464736f6c63430008180033",
  "linkReferences": {},
  "deployedLinkReferences": {}
}