{
  "_format": "hh-sol-artifact-1",
  "contractName": "AccountNative",
  "sourceName": "contracts/AccountNative.sol",
  "abi": [
    {
      "inputs": [
        {
          "internalType": "address",
          "name": "_owner",
          "type": "address"
        },
        {
          "internalType": "address",
          "name": "_ccipRouter",
          "type": "address"
        }
      ],
      "stateMutability": "nonpayable",
      "type": "constructor"
    },
    {
      "inputs": [
        {
          "internalType": "address",
          "name": "router",
          "type": "address"
        }
      ],
      "name": "InvalidRouter",
      "type": "error"
    },
    {
      "anonymous": false,
      "inputs": [
        {
          "indexed": false,
          "internalType": "bool",
          "name": "success",
          "type": "bool"
        },
        {
          "indexed": false,
          "internalType": "bytes",
          "name": "data",
          "type": "bytes"
        }
      ],
      "name": "CallResult",
      "type": "event"
    },
    {
      "inputs": [
        {
          "internalType": "uint64",
          "name": "_destinationChainSelector",
          "type": "uint64"
        },
        {
          "internalType": "address",
          "name": "_receiver",
          "type": "address"
        },
        {
          "internalType": "address",
          "name": "AAFactory",
          "type": "address"
        },
        {
          "internalType": "address",
          "name": "AAUser",
          "type": "address"
        },
        {
          "internalType": "address",
          "name": "destinationRouter",
          "type": "address"
        },
        {
          "internalType": "address",
          "name": "paymaster",
          "type": "address"
        }
      ],
      "name": "AAInitializeDestination",
      "outputs": [
        {
          "internalType": "bytes32",
          "name": "messageId",
          "type": "bytes32"
        }
      ],
      "stateMutability": "nonpayable",
      "type": "function"
    },
    {
      "inputs": [],
      "name": "ROUTER02",
      "outputs": [
        {
          "internalType": "address",
          "name": "",
          "type": "address"
        }
      ],
      "stateMutability": "view",
      "type": "function"
    },
    {
      "inputs": [],
      "name": "WETH",
      "outputs": [
        {
          "internalType": "address",
          "name": "",
          "type": "address"
        }
      ],
      "stateMutability": "view",
      "type": "function"
    },
    {
      "inputs": [
        {
          "internalType": "string",
          "name": "newAquarium",
          "type": "string"
        }
      ],
      "name": "addAquarium",
      "outputs": [],
      "stateMutability": "nonpayable",
      "type": "function"
    },
    {
      "inputs": [
        {
          "internalType": "string",
          "name": "aquarium",
          "type": "string"
        },
        {
          "internalType": "string",
          "name": "newFish",
          "type": "string"
        }
      ],
      "name": "addStakedPool",
      "outputs": [],
      "stateMutability": "nonpayable",
      "type": "function"
    },
    {
      "inputs": [
        {
          "components": [
            {
              "internalType": "bytes32",
              "name": "messageId",
              "type": "bytes32"
            },
            {
              "internalType": "uint64",
              "name": "sourceChainSelector",
              "type": "uint64"
            },
            {
              "internalType": "bytes",
              "name": "sender",
              "type": "bytes"
            },
            {
              "internalType": "bytes",
              "name": "data",
              "type": "bytes"
            },
            {
              "components": [
                {
                  "internalType": "address",
                  "name": "token",
                  "type": "address"
                },
                {
                  "internalType": "uint256",
                  "name": "amount",
                  "type": "uint256"
                }
              ],
              "internalType": "struct Client.EVMTokenAmount[]",
              "name": "destTokenAmounts",
              "type": "tuple[]"
            }
          ],
          "internalType": "struct Client.Any2EVMMessage",
          "name": "message",
          "type": "tuple"
        }
      ],
      "name": "ccipReceive",
      "outputs": [],
      "stateMutability": "nonpayable",
      "type": "function"
    },
    {
      "inputs": [],
      "name": "creationAddress",
      "outputs": [
        {
          "internalType": "address",
          "name": "",
          "type": "address"
        }
      ],
      "stateMutability": "view",
      "type": "function"
    },
    {
      "inputs": [
        {
          "internalType": "address",
          "name": "target",
          "type": "address"
        },
        {
          "internalType": "bytes",
          "name": "data",
          "type": "bytes"
        }
      ],
      "name": "execute",
      "outputs": [],
      "stateMutability": "payable",
      "type": "function"
    },
    {
      "inputs": [],
      "name": "getAquariums",
      "outputs": [
        {
          "internalType": "string[]",
          "name": "",
          "type": "string[]"
        }
      ],
      "stateMutability": "view",
      "type": "function"
    },
    {
      "inputs": [],
      "name": "getLastReceivedMessageDetails",
      "outputs": [
        {
          "internalType": "bytes32",
          "name": "messageId",
          "type": "bytes32"
        },
        {
          "internalType": "string",
          "name": "text",
          "type": "string"
        },
        {
          "internalType": "bytes",
          "name": "textBytes",
          "type": "bytes"
        }
      ],
      "stateMutability": "view",
      "type": "function"
    },
    {
      "inputs": [],
      "name": "getRouter",
      "outputs": [
        {
          "internalType": "address",
          "name": "",
          "type": "address"
        }
      ],
      "stateMutability": "view",
      "type": "function"
    },
    {
      "inputs": [
        {
          "internalType": "string",
          "name": "aquarium",
          "type": "string"
        }
      ],
      "name": "getStakedPools",
      "outputs": [
        {
          "internalType": "string[]",
          "name": "",
          "type": "string[]"
        }
      ],
      "stateMutability": "view",
      "type": "function"
    },
    {
      "inputs": [
        {
          "internalType": "uint64",
          "name": "_destinationChainSelector",
          "type": "uint64"
        },
        {
          "internalType": "address",
          "name": "_receiverDestination",
          "type": "address"
        },
        {
          "internalType": "address",
          "name": "_SendToken",
          "type": "address"
        },
        {
          "internalType": "address",
          "name": "token1",
          "type": "address"
        },
        {
          "internalType": "address",
          "name": "token2",
          "type": "address"
        },
        {
          "internalType": "address",
          "name": "token1destination",
          "type": "address"
        },
        {
          "internalType": "address",
          "name": "token2destination",
          "type": "address"
        },
        {
          "internalType": "uint256",
          "name": "initialValue",
          "type": "uint256"
        },
        {
          "internalType": "uint256",
          "name": "deadline",
          "type": "uint256"
        },
        {
          "internalType": "address",
          "name": "paymaster",
          "type": "address"
        }
      ],
      "name": "incubate",
      "outputs": [],
      "stateMutability": "nonpayable",
      "type": "function"
    },
    {
      "inputs": [
        {
          "internalType": "uint64",
          "name": "_destinationChainSelector",
          "type": "uint64"
        },
        {
          "internalType": "address",
          "name": "_receiver",
          "type": "address"
        },
        {
          "internalType": "address",
          "name": "token1",
          "type": "address"
        },
        {
          "internalType": "address",
          "name": "token2",
          "type": "address"
        },
        {
          "internalType": "address",
          "name": "paymaster",
          "type": "address"
        }
      ],
      "name": "incubateDestination",
      "outputs": [
        {
          "internalType": "bytes32",
          "name": "messageId",
          "type": "bytes32"
        }
      ],
      "stateMutability": "nonpayable",
      "type": "function"
    },
    {
      "inputs": [],
      "name": "initAA",
      "outputs": [],
      "stateMutability": "nonpayable",
      "type": "function"
    },
    {
      "inputs": [
        {
          "internalType": "bytes32[2]",
          "name": "aPublicKey",
          "type": "bytes32[2]"
        }
      ],
      "name": "initialize",
      "outputs": [],
      "stateMutability": "nonpayable",
      "type": "function"
    },
    {
      "inputs": [
        {
          "internalType": "bytes32",
          "name": "message",
          "type": "bytes32"
        },
        {
          "internalType": "bytes",
          "name": "signature",
          "type": "bytes"
        }
      ],
      "name": "isValidSignature",
      "outputs": [
        {
          "internalType": "bytes4",
          "name": "magicValue",
          "type": "bytes4"
        }
      ],
      "stateMutability": "view",
      "type": "function"
    },
    {
      "inputs": [],
      "name": "latestSourceMessage",
      "outputs": [
        {
          "internalType": "bytes32",
          "name": "",
          "type": "bytes32"
        }
      ],
      "stateMutability": "view",
      "type": "function"
    },
    {
      "inputs": [],
      "name": "owner",
      "outputs": [
        {
          "internalType": "address",
          "name": "",
          "type": "address"
        }
      ],
      "stateMutability": "view",
      "type": "function"
    },
    {
      "inputs": [],
      "name": "publicKey",
      "outputs": [
        {
          "internalType": "bytes32",
          "name": "X",
          "type": "bytes32"
        },
        {
          "internalType": "bytes32",
          "name": "Y",
          "type": "bytes32"
        }
      ],
      "stateMutability": "view",
      "type": "function"
    },
    {
      "inputs": [],
      "name": "salt",
      "outputs": [
        {
          "internalType": "uint256",
          "name": "",
          "type": "uint256"
        }
      ],
      "stateMutability": "view",
      "type": "function"
    },
    {
      "inputs": [
        {
          "internalType": "bytes4",
          "name": "interfaceId",
          "type": "bytes4"
        }
      ],
      "name": "supportsInterface",
      "outputs": [
        {
          "internalType": "bool",
          "name": "",
          "type": "bool"
        }
      ],
      "stateMutability": "pure",
      "type": "function"
    },
    {
      "inputs": [],
      "name": "uniswapRouter",
      "outputs": [
        {
          "internalType": "contract IUniswapV2Router02",
          "name": "",
          "type": "address"
        }
      ],
      "stateMutability": "view",
      "type": "function"
    },
    {
      "inputs": [
        {
          "components": [
            {
              "internalType": "address",
              "name": "sender",
              "type": "address"
            },
            {
              "internalType": "uint256",
              "name": "nonce",
              "type": "uint256"
            },
            {
              "internalType": "bytes",
              "name": "initCode",
              "type": "bytes"
            },
            {
              "internalType": "bytes",
              "name": "callData",
              "type": "bytes"
            },
            {
              "internalType": "uint256",
              "name": "callGasLimit",
              "type": "uint256"
            },
            {
              "internalType": "uint256",
              "name": "verificationGasLimit",
              "type": "uint256"
            },
            {
              "internalType": "uint256",
              "name": "preVerificationGas",
              "type": "uint256"
            },
            {
              "internalType": "uint256",
              "name": "maxFeePerGas",
              "type": "uint256"
            },
            {
              "internalType": "uint256",
              "name": "maxPriorityFeePerGas",
              "type": "uint256"
            },
            {
              "internalType": "bytes",
              "name": "paymasterAndData",
              "type": "bytes"
            },
            {
              "internalType": "bytes",
              "name": "signature",
              "type": "bytes"
            }
          ],
          "internalType": "struct UserOperation",
          "name": "userOp",
          "type": "tuple"
        },
        {
          "internalType": "bytes32",
          "name": "userOpHash",
          "type": "bytes32"
        },
        {
          "internalType": "uint256",
          "name": "",
          "type": "uint256"
        }
      ],
      "name": "validateUserOp",
      "outputs": [
        {
          "internalType": "uint256",
          "name": "validationData",
          "type": "uint256"
        }
      ],
      "stateMutability": "nonpayable",
      "type": "function"
    },
    {
      "stateMutability": "payable",
      "type": "receive"
    }
  ],
  "bytecode": "0x60a034620003385762002fd790601f19601f6001600160401b03388590038281018416850190828211868310176200033d57808691604098899485528339810103126200033857620000518462000353565b9262000061602080960162000353565b6001600160a01b03939084811615620003205760805260009586600955875193818501858110828211176200030c576060860181811083821117620002f8578a52600b81526a6574682d7365706f6c696160a81b8a8701528552600a549460019586600a558087106200027e575b509290600a89528289209189945b8786106200015f578b8b8b8b73139d70e24b8c82539800eeb99510bfb8b09eaf689160018060a01b0319928084600c541617600c5573fff9976782d46cc05630d1f6ebab18b2324d6b1484600d541617600d5583600e541617600e55169082541617905551612c189081620003bf8239608051818181610c620152610dcc0152f35b80519081518481116200026a57899187918e6200017d895462000368565b8781116200022f575b508390878311600114620001cb5790859683620001bf575b5050600019600383901b1c191690841b1787555b01940195019492620000dd565b0151905038806200019e565b908c83168a8352858320925b818110620002175750908697848895949310620001fd575b505050811b018755620001b2565b015160001960f88460031b161c19169055388080620001ef565b8289015184558f978d979401939283019201620001d7565b62000259908a835285832060058a808701821c83019389881062000260575b01901c0190620003a5565b3862000186565b935082936200024e565b634e487b7160e01b8d52604160045260248dfd5b600a8a528680858c2092830192015b8281106200029d575050620000cf565b8b620002aa825462000368565b80620002bc575b50500187906200028d565b888111600114620002d3575081555b8b38620002b1565b828252620002ee89898420920160051c8201858301620003a5565b81835555620002cb565b634e487b7160e01b8a52604160045260248afd5b634e487b7160e01b89526041600452602489fd5b87516335fdcccd60e21b815260006004820152602490fd5b600080fd5b634e487b7160e01b600052604160045260246000fd5b51906001600160a01b03821682036200033857565b90600182811c921680156200039a575b60208310146200038457565b634e487b7160e01b600052602260045260246000fd5b91607f169162000378565b818110620003b1575050565b60008155600101620003a556fe608080604052600436101561001d575b50361561001b57600080fd5b005b60003560e01c90816301ffc9a71461196b575080631626ba7e146118e85780631cff79cd14611803578063263596a51461165457806326e4bcfb1461163657806329639df71461161e5780632d160321146115b75780633a871cdd14611569578063449d193f146114d157806347af954d146114aa57806363ffab3114611485578063735de9f71461145e578063740f4545146114375780637823d3f31461130857806385572ffb14610d8d5780638da5cb5b14610d66578063a563794a14610cad578063ad5c464814610c86578063b0f479a114610c42578063bfa0b13314610c24578063c8a10ada14610a1e578063e5c01f951461029b578063e8b4a30d146101e85763ee0e73a114610132573861000f565b346101e35760206003193601126101e35760043567ffffffffffffffff81116101e357610163903690600401611b26565b600a5490680100000000000000008210156101cd576001820180600a558210156101b75761001b91600a6000527fc65a7bb8d6351c1cf70c95a316cc6a92839c986682d98bc35f958f4883f9d2a801611f4f565b634e487b7160e01b600052603260045260246000fd5b634e487b7160e01b600052604160045260246000fd5b600080fd5b346101e35760406003193601126101e35767ffffffffffffffff6004358181116101e35761021a903690600401611b26565b906024359081116101e357602061023861025d923690600401611b26565b9261024a6102458261232b565b611ed0565b8160405193828580945193849201611b6d565b8101600b815203019020908154680100000000000000008110156101cd57600181018084558110156101b75761001b92600052602060002001611f4f565b346101e3576101406003193601126101e3576102b5611c37565b6102bd611a09565b906102c6611a1f565b906102cf611a35565b916102d8611a4b565b6102e0611a61565b60c435946001600160a01b03861686036101e35761012435926001600160a01b03841684036101e3576000806001600160a01b03600d541660405160208101907fd0e30db00000000000000000000000000000000000000000000000000000000082526004815261035081611a77565b519160e435905af1610360611cbb565b50156109da576001600160a01b03600e54166040519063095ea7b360e01b8252600482015269021e19e0c9bab2400000602482015260208160448160006001600160a01b0388165af180156107e3576109bb575b50604051916103c283611acb565b6002835260403660208501376001600160a01b0381166103e184611f1b565b526103eb83611f28565b6001600160a01b0383169052600360e43581020460e43503610889576001600160a01b03600e541660405180947f38ed173900000000000000000000000000000000000000000000000000000000825260a4820160e43560030260021c60048401526000602484015260a060448401528151809152602060c4840192019060005b818110610999575050509181600081819530606483015261010435608483015203925af19283156107e3576000936108e9575b5060036104ab84611f28565b51046001600160a01b03600e54166040519063095ea7b360e01b8252600482015269021e19e0c9bab2400000602482015260208160448160006001600160a01b0389165af19283156107e35760006001600160a01b0393610104936060966108ca575b5084600e5416908560405198899788967fe8e33700000000000000000000000000000000000000000000000000000000008852166004870152166024850152600360e435810260021c04604485015260648401528160848401528160a48401523060c4840152833560e48401525af180156107e35761089f575b5061059290611f28565b5194858060011b046002148615171561088957604051906105b282611a77565b6001825260005b6020811061086457506001600160a01b039081604051966105d988611a77565b169586815260038960011b0460208201526105f384611f1b565b526105fd83611f1b565b5081604051946063602087015216604085015216606083015260038660011b0460808301526080825261062f82611aaf565b6001600160a01b03604051971660208801526020875261064e87611a77565b61066860405161065d81611a93565b622dc6c081526122a3565b916040519761067689611aaf565b88526020880152604087015260006060870152608086015260405163095ea7b360e01b81526001600160a01b038216600482015260038560011b0460248201526020816044816000875af180156107e357610835575b50604051927fb0f479a1000000000000000000000000000000000000000000000000000000008452602084600481305afa9283156107e3576001600160a01b03966020956000956107ef575b5067ffffffffffffffff926000926107758a936040519b8c998a9889967fb344b6ea00000000000000000000000000000000000000000000000000000000885216600487015216602485015260a0604485015260a4840190611df2565b90606483015260038960011b0460848301520393165af19182156107e3576000926107ae575b5060039060011b04600955600355600080f35b9091506020813d6020116107db575b816107ca60209383611ae7565b810103126101e3575190600361079b565b3d91506107bd565b6040513d6000823e3d90fd5b889195509260009261077561082267ffffffffffffffff968a3d8c1161082e575b61081a8183611ae7565b810190611dd3565b97935050925092610718565b503d610810565b6108569060203d60201161085d575b61084e8183611ae7565b810190612457565b50856106cc565b503d610844565b60209060405161087381611a77565b60008152600083820152828286010152016105b9565b634e487b7160e01b600052601160045260246000fd5b606090813d83116108c3575b6108b58183611ae7565b810103126101e35787610588565b503d6108ab565b6108e29060203d60201161085d5761084e8183611ae7565b508e61050e565b9092503d806000833e6108fc8183611ae7565b60208282810103126101e35781519067ffffffffffffffff82116101e357808301601f8385010112156101e357818301519161093783611dbb565b936109456040519586611ae7565b8385526020850192810160208560051b8484010101116101e35780820160200192915b60208560051b82840101018410610985575050505050918961049f565b602080809486518152019401939250610968565b82516001600160a01b031684528894506020938401939092019160010161046c565b6109d39060203d60201161085d5761084e8183611ae7565b50886103b4565b606460405162461bcd60e51b815260206004820152601360248201527f57455448204465706f736974206661696c6564000000000000000000000000006044820152fd5b346101e35760a06003193601126101e357610a37611c37565b610a3f611a09565b610a47611a1f565b91610a50611a35565b91610a59611a4b565b604051610a6581611a93565b60008152600954908115610be057604051916020976001898501526001600160a01b0397888092166040860152166060840152608083015260808252610aaa82611aaf565b85604051941687850152868452610ac084611a77565b610acf60405161065d81611a93565b9160405194610add86611aaf565b8552878501526040840152600060608401526080830152604051927fb0f479a10000000000000000000000000000000000000000000000000000000084528584600481305afa80156107e357610b72958795600092610bc0575b5060009192604051978896879586937f6628c6e800000000000000000000000000000000000000000000000000000000855260048501611ea1565b0393165af19081156107e357600091610b93575b5080600355604051908152f35b90508181813d8311610bb9575b610baa8183611ae7565b810103126101e3575182610b86565b503d610ba0565b60009250610bda90873d891161082e5761081a8183611ae7565b91610b37565b606460405162461bcd60e51b815260206004820152601e60248201527f53656564207a65726f2c207472616e73666572207365656420666972737400006044820152fd5b346101e35760006003193601126101e3576020600154604051908152f35b346101e35760006003193601126101e35760206040516001600160a01b037f0000000000000000000000000000000000000000000000000000000000000000168152f35b346101e35760006003193601126101e35760206001600160a01b03600d5416604051908152f35b346101e3576020806003193601126101e35760043567ffffffffffffffff81116101e35781610ce3610cef923690600401611b26565b61024a6102458261232b565b8101600b8152030190208054610d0481611dbb565b91610d126040519384611ae7565b8183526000908152838120938084015b838310610d3b5760405180610d378782611bb5565b0390f35b6001828192604051610d5881610d51818d611d25565b0382611ae7565b815201960192019194610d22565b346101e35760006003193601126101e35760206001600160a01b0360005416604051908152f35b346101e357602060031981813601126101e35760043567ffffffffffffffff918282116101e35760a09082360301126101e3576001600160a01b0392837f00000000000000000000000000000000000000000000000000000000000000001633036112d857604051610dfe81611aaf565b826004013581526024948584013585811681036101e3578383015260448401358581116101e357610e359060043691870101611b26565b604083015260648401358581116101e357610e569060043691870101611b26565b93606083019485526084810135908682116101e35701366023820112156101e357600481013590610e8682611dbb565b91610e946040519384611ae7565b808352888684019160061b830101913683116101e3578901905b82821061129b575050506080830152835180518101906060818684019303126101e357848101519160ff83168093036101e357610eed604083016122e0565b916060810151908982116101e357019080603f830112156101e35786820151610f18926040016122f4565b91156111f0575b505050516006558151805181019082818184019303126101e35782810151908582116101e357019080603f830112156101e35782820151610f62926040016122f4565b9182518481116111db57610f77600854611ceb565b93601f9485811161118f575b50839085831160011461110957610fb29291600091836110fe575b50506000198260011b9260031b1c19161790565b6008555b519384519384116110ea5750610fcd600754611ceb565b828111611094575b508091831160011461101357508190611003936000926110085750506000198260011b9260031b1c19161790565b600755005b015190508380610f9e565b90601f1983169360076000527fa66cc928b5edb82af9bd49922954155ab7b0942694bea4ce44661d9a8736c688926000905b86821061107c5750508360019510611063575b505050811b01600755005b015160001960f88460031b161c19169055828080611058565b80600185968294968601518155019501930190611045565b6110db9060076000527fa66cc928b5edb82af9bd49922954155ab7b0942694bea4ce44661d9a8736c6888480870160051c8201928588106110e1575b0160051c0190611f38565b84610fd5565b925081926110d0565b634e487b7160e01b60005260416004526000fd5b015190508880610f9e565b90601f1983169160086000527ff3f7a9fe364faab93b216da50a3214154f22a0a2b415b23a84c8169e8b636ee39260005b87828210611179575050908460019594939210611160575b505050811b01600855610fb6565b015160001960f88460031b161c19169055878080611152565b600185968293968601518155019501930161113a565b6111d59060086000527ff3f7a9fe364faab93b216da50a3214154f22a0a2b415b23a84c8169e8b636ee38780860160051c8201928887106110e1570160051c0190611f38565b87610f83565b85634e487b7160e01b60005260416004526000fd5b8160009291838588829551940192165af1611209611cbb565b90156112585783818051810103126101e3578361122691016122e0565b167fffffffffffffffffffffffff00000000000000000000000000000000000000006002541617600255858080610f1f565b6064846015896040519262461bcd60e51b845260048401528201527f4c6f772d6c6576656c2063616c6c206661696c656400000000000000000000006044820152fd5b6040823603126101e357604051906112b282611a77565b82359086821682036101e357828992604094528285013583820152815201910190610eae565b60246040517fd7f73334000000000000000000000000000000000000000000000000000000008152336004820152fd5b346101e35760c06003193601126101e357611321611c37565b611329611a09565b90611332611a1f565b9061133b611a35565b92611344611a4b565b9261134d611a61565b9060405161135a81611a93565b600081526040516020977f133572ba00000000000000000000000000000000000000000000000000000000898301526001600160a01b039788809216602484015216604482015260448152608081019281841067ffffffffffffffff8511176101cd57610aaa91887fffffffffffffffffffffffffffffffffffffffffffffffffffffffffffffff809286604052600060a08401521660c0820152606060e082015261140a610100820182611b90565b037fffffffffffffffffffffffffffffffffffffffffffffffffffffffffffffff60810185520183611ae7565b346101e35760006003193601126101e35760206001600160a01b03600c5416604051908152f35b346101e35760006003193601126101e35760206001600160a01b03600e5416604051908152f35b346101e35760006003193601126101e357604060045460055482519182526020820152f35b346101e35760006003193601126101e35760206001600160a01b0360025416604051908152f35b346101e35760006003193601126101e357600a546114ee81611dbb565b6114fb6040519182611ae7565b81815260209160208201600a6000527fc65a7bb8d6351c1cf70c95a316cc6a92839c986682d98bc35f958f4883f9d2a8936000915b8383106115455760405180610d378782611bb5565b600182819260405161155b81610d51818d611d25565b815201960192019194611530565b346101e3576003196060813601126101e3576004359067ffffffffffffffff82116101e3576101609082360301126101e3576115ab9060243590600401612165565b50602060405160008152f35b346101e35760406003193601126101e35736602312156101e3576040516115dd81611a77565b6044813682116101e3576004905b82821061160e57836020815191015190611606604051611a77565b600455600555005b81358152602091820191016115eb565b346101e35760006003193601126101e3576000600155005b346101e35760006003193601126101e3576020600354604051908152f35b346101e35760006003193601126101e3576006546040516000916008549161167b83611ceb565b8082528160209586926001966001811690816000146117e55750600114611789575b506116aa92500382611ae7565b6040519060009385600754916116bf83611ceb565b808652926001811690811561176c5750600114611712575b5084610d3785611704866116ed838c0384611ae7565b606060405196879687528601526060850190611b90565b908382036040850152611b90565b9190955060076000527fa66cc928b5edb82af9bd49922954155ab7b0942694bea4ce44661d9a8736c688916000925b828410611759575050508201909301928085836116d7565b8054868501890152928701928101611741565b60ff191683870152505090151560051b83010193508085836116d7565b600860009081529150867ff3f7a9fe364faab93b216da50a3214154f22a0a2b415b23a84c8169e8b636ee35b8284106117ce57505050916116aa92820101869261169d565b8054878501870152869450928501928891016117b5565b60ff19168486015250879390151560051b83010190506116aa61169d565b60406003193601126101e3576004356001600160a01b03811681036101e35760243567ffffffffffffffff81116101e35760009161184683923690600401611b26565b9082602083519301915af1611859611cbb565b90156118a45761189f7f582326e533af48b16567b0565a82550442e225cf8491cb9ae2a29e1f96935e7c9160405191829160018352604060208401526040830190611b90565b0390a1005b606460405162461bcd60e51b815260206004820152600b60248201527f43616c6c206661696c65640000000000000000000000000000000000000000006044820152fd5b346101e35760406003193601126101e35767ffffffffffffffff6024358181116101e357366023820112156101e35780600401359182116101e35736602483830101116101e35760209160246119419201600435611c4e565b7fffffffff0000000000000000000000000000000000000000000000000000000060405191168152f35b346101e35760206003193601126101e357600435907fffffffff0000000000000000000000000000000000000000000000000000000082168092036101e357817f85572ffb00000000000000000000000000000000000000000000000000000000602093149081156119df575b5015158152f35b7f01ffc9a700000000000000000000000000000000000000000000000000000000915014836119d8565b602435906001600160a01b03821682036101e357565b604435906001600160a01b03821682036101e357565b606435906001600160a01b03821682036101e357565b608435906001600160a01b03821682036101e357565b60a435906001600160a01b03821682036101e357565b6040810190811067ffffffffffffffff8211176101cd57604052565b6020810190811067ffffffffffffffff8211176101cd57604052565b60a0810190811067ffffffffffffffff8211176101cd57604052565b6060810190811067ffffffffffffffff8211176101cd57604052565b90601f601f19910116810190811067ffffffffffffffff8211176101cd57604052565b67ffffffffffffffff81116101cd57601f01601f191660200190565b81601f820112156101e357803590611b3d82611b0a565b92611b4b6040519485611ae7565b828452602083830101116101e357816000926020809301838601378301015290565b60005b838110611b805750506000910152565b8181015183820152602001611b70565b90601f19601f602093611bae81518092818752878088019101611b6d565b0116010190565b6020808201906020835283518092526040830192602060408460051b8301019501936000915b848310611beb5750505050505090565b9091929394958480611c27837fffffffffffffffffffffffffffffffffffffffffffffffffffffffffffffffc086600196030187528a51611b90565b9801930193019194939290611bdb565b6004359067ffffffffffffffff821682036101e357565b90611c6f929160405190602082015260208152611c6a81611a77565b61205a565b611c97577fffffffff0000000000000000000000000000000000000000000000000000000090565b7f1626ba7e0000000000000000000000000000000000000000000000000000000090565b3d15611ce6573d90611ccc82611b0a565b91611cda6040519384611ae7565b82523d6000602084013e565b606090565b90600182811c92168015611d1b575b6020831014611d0557565b634e487b7160e01b600052602260045260246000fd5b91607f1691611cfa565b805460009392611d3482611ceb565b91828252602093600191600181169081600014611d9c5750600114611d5b575b5050505050565b90939495506000929192528360002092846000945b838610611d8857505050500101903880808080611d54565b805485870183015294019385908201611d70565b60ff19168685015250505090151560051b010191503880808080611d54565b67ffffffffffffffff81116101cd5760051b60200190565b908160209103126101e357516001600160a01b03811681036101e35790565b9190611e07835160a0835260a0830190611b90565b90611e1e6020928386015183820385850152611b90565b60409060408601519383820360408501528080865193848152019501926000905b838210611e785750505050506080846001600160a01b036060611e75969701511660608401520151906080818403910152611b90565b90565b845180516001600160a01b03168852830151878401529586019593820193600190910190611e3f565b6001600160a01b03611e75949367ffffffffffffffff6060941683521660208201528160408201520190611df2565b15611ed757565b606460405162461bcd60e51b815260206004820152601860248201527f417175617269756d20646f6573206e6f742065786973742e00000000000000006044820152fd5b8051156101b75760200190565b8051600110156101b75760400190565b818110611f43575050565b60008155600101611f38565b919091825167ffffffffffffffff81116101cd57611f6d8254611ceb565b601f811161201d575b50602080601f8311600114611fb857508190611fa9939495600092611fad5750506000198260011b9260031b1c19161790565b9055565b015190503880610f9e565b90601f19831695846000526020600020926000905b88821061200557505083600195969710611fec575b505050811b019055565b015160001960f88460031b161c19169055388080611fe2565b80600185968294968601518155019501930190611fcd565b61204a90836000526020600020601f840160051c81019160208510612050575b601f0160051c0190611f38565b38611f76565b909150819061203d565b90918201916020818403126101e357803567ffffffffffffffff918282116101e357019060c0828503126101e3576040519060c08201828110828211176101cd5760405282358181116101e357856120b3918501611b26565b825260208301359081116101e357611e75946120d0918401611b26565b91826020830152604081013580604084015260608201359081606085015260a06080840135938460808701520135938460a082015251946004549560055497612480565b9035907fffffffffffffffffffffffffffffffffffffffffffffffffffffffffffffffe1813603018212156101e3570180359067ffffffffffffffff82116101e3576020019181360383136101e357565b600092916101408201916121798382612114565b809291501561227a5761218c8482612114565b1561228f57359160018360f81c146000146122845760071161227a576121b28482612114565b600795919511612276576121c591612114565b9290958360071161227357507fffffffffffff000000000000000000000000000000000000000000000000000060017ffffffffffffffffffffffffffffffffffffffffffffffffffffffffffffffff960076122659899019501957fff00000000000000000000000000000000000000000000000000000000000000604051951660208601520135166021830152602782015260278152611c6a81611acb565b61226e57600190565b600090565b80fd5b8680fd5b5060019450505050565b506001955050505050565b602487634e487b7160e01b81526032600452fd5b604051907f97a657c900000000000000000000000000000000000000000000000000000000602083015251602482015260248152611e7581611acb565b51906001600160a01b03821682036101e357565b9092919261230181611b0a565b9161230f6040519384611ae7565b8294828452828201116101e3576020612329930190611b6d565b565b600090600a8054925b8381106123445750505050600090565b81600052807fc65a7bb8d6351c1cf70c95a316cc6a92839c986682d98bc35f958f4883f9d2a80160408051602090818101906000948181549661238688611ceb565b92600198878a8216918260001461243a5750506001146123f9575b506123b5925003601f198101835282611ae7565b51902091516123e08282019282816123d38b87815193849201611b6d565b8101038084520182611ae7565b519020146123f15750600101612334565b935050505090565b915050600052818480600020886000915b858310612421575050506123b592820101386123a1565b809192945054838588010152019101859088859361240a565b60ff191688526123b5958015150285010192503891506123a19050565b908160209103126101e3575180151581036101e35790565b9081518110156101b7570160200190565b9793959496929190918251986020998a81109081156128ea575b506128db576124e0604098848c7f2274797065223a22776562617574686e2e6765742200000000000000000000008c51916124d483611a77565b601583528201526129c4565b156128db576124ee90612a4d565b60008151600281119081612879575b50156127e8575060025b8151908103908111610889578a9291818a6125228794611b0a565b9161252f82519384611ae7565b80835261253b81611b0a565b93601f19888501950136863760005b82811061270b575050506125d3957f226368616c6c656e6765223a2200000000000000000000000000000000000000936125986125ce94602e9451968794850152518092602d850190611b6d565b81017f2200000000000000000000000000000000000000000000000000000000000000602d82015203600e810184520182611ae7565b6129c4565b156126fe5760006125f1899283895192828480945193849201611b6d565b8101039060025afa156126f3576000612647889282516126378980518093886126238184019788815193849201611b6d565b820190898201520387810184520182611ae7565b8851928392839251928391611b6d565b8101039060025afa156126e85760005192845195878701948552858701526060860152608085015260a084015260a0835260c083019280841067ffffffffffffffff8511176101cd5760009384935251907394474db941cb2d89f3dbd946aaec40054c30a9cd5afa906126b8611cbb565b91156126d25780828051810103126101e357015160011490565b634e487b7160e01b600052600160045260246000fd5b83513d6000823e3d90fd5b84513d6000823e3d90fd5b5050505050505050600090565b9194969750929450600191507fff000000000000000000000000000000000000000000000000000000000000007f2b0000000000000000000000000000000000000000000000000000000000000081612764848761246f565b5116036127895750602d612778828761246f565b535b018d9594928794928d9261254a565b7f2f00000000000000000000000000000000000000000000000000000000000000816127b5848761246f565b5116036127cf5750605f6127c9828761246f565b5361277a565b6127d9828561246f565b511660001a6127c9828761246f565b8151600181119081612803575b501561250757506001612507565b600019810191508111612865577fff0000000000000000000000000000000000000000000000000000000000000061285c7f3d00000000000000000000000000000000000000000000000000000000000000928561246f565b511614386127f5565b602482634e487b7160e01b81526011600452fd5b600119810191508111612865577fff000000000000000000000000000000000000000000000000000000000000006128d27f3d00000000000000000000000000000000000000000000000000000000000000928561246f565b511614386124fd565b50505050505050505050600090565b90508a10156101b7576129227fff00000000000000000000000000000000000000000000000000000000000000604086015116612929565b153861249a565b7f0100000000000000000000000000000000000000000000000000000000000000808216036129b1577f080000000000000000000000000000000000000000000000000000000000000080821603612982575b50600190565b7f10000000000000000000000000000000000000000000000000000000000000008091161461226e573861297c565b50600090565b9190820180921161088957565b9190825192815160005b8581106129e057505050505050600190565b816129eb82876129b7565b1015612a42577fff0000000000000000000000000000000000000000000000000000000000000080612a1d838661246f565b511690612a33612a2d84896129b7565b8761246f565b511603612a42576001016129ce565b505050505050600090565b90815115612bcd5760405191612a6283611acb565b604083527f4142434445464748494a4b4c4d4e4f505152535455565758595a61626364656660208401527f6768696a6b6c6d6e6f707172737475767778797a303132333435363738392b2f604084015280519260029160028501809511610889576003809504928360021b937f3fffffffffffffffffffffffffffffffffffffffffffffffffffffffffffffff8116036108895794612b19612b0385611b0a565b94612b116040519687611ae7565b808652611b0a565b601f1960208601910136823792829183518401976020890192835194600085525b8a8110612b8057505050506003939495965052510680600114612b6d57600214612b62575090565b600019603d91015390565b5060011981603d60001981940153015390565b836004919b989b019a8b51600190603f9082828260121c16870101518453828282600c1c16870101518385015382828260061c168701015187850153168401015185820153019699612b3a565b9050604051612bdb81611a93565b600081529056fea264697066735822122083ae06e5a800bff2ba8b7355afe897c33ae54b69485baeefa1c4e07a5a8f3e9f64736f6c63430008180033",
  "linkReferences": {},
  "deployedLinkReferences": {}
}