{
  "_format": "hh-sol-artifact-1",
  "contractName": "AccountNative",
  "sourceName": "contracts/AccountNative.sol",
  "abi": [
    {
      "inputs": [
        {
          "internalType": "address",
          "name": "_owner",
          "type": "address"
        },
        {
          "internalType": "address",
          "name": "_ccipRouter",
          "type": "address"
        }
      ],
      "stateMutability": "nonpayable",
      "type": "constructor"
    },
    {
      "inputs": [
        {
          "internalType": "address",
          "name": "router",
          "type": "address"
        }
      ],
      "name": "InvalidRouter",
      "type": "error"
    },
    {
      "anonymous": false,
      "inputs": [
        {
          "indexed": false,
          "internalType": "bool",
          "name": "success",
          "type": "bool"
        },
        {
          "indexed": false,
          "internalType": "bytes",
          "name": "data",
          "type": "bytes"
        }
      ],
      "name": "CallResult",
      "type": "event"
    },
    {
      "inputs": [
        {
          "internalType": "uint64",
          "name": "_destinationChainSelector",
          "type": "uint64"
        },
        {
          "internalType": "address",
          "name": "_receiver",
          "type": "address"
        },
        {
          "internalType": "address",
          "name": "AAFactory",
          "type": "address"
        },
        {
          "internalType": "address",
          "name": "AAUser",
          "type": "address"
        },
        {
          "internalType": "address",
          "name": "destinationRouter",
          "type": "address"
        },
        {
          "internalType": "address",
          "name": "paymaster",
          "type": "address"
        }
      ],
      "name": "AAInitializeDestination",
      "outputs": [
        {
          "internalType": "bytes32",
          "name": "messageId",
          "type": "bytes32"
        }
      ],
      "stateMutability": "nonpayable",
      "type": "function"
    },
    {
      "inputs": [],
      "name": "ROUTER02",
      "outputs": [
        {
          "internalType": "address",
          "name": "",
          "type": "address"
        }
      ],
      "stateMutability": "view",
      "type": "function"
    },
    {
      "inputs": [],
      "name": "WETH",
      "outputs": [
        {
          "internalType": "address",
          "name": "",
          "type": "address"
        }
      ],
      "stateMutability": "view",
      "type": "function"
    },
    {
      "inputs": [
        {
          "internalType": "string",
          "name": "newAquarium",
          "type": "string"
        }
      ],
      "name": "addAquarium",
      "outputs": [],
      "stateMutability": "nonpayable",
      "type": "function"
    },
    {
      "inputs": [
        {
          "internalType": "string",
          "name": "aquarium",
          "type": "string"
        },
        {
          "internalType": "string",
          "name": "newFish",
          "type": "string"
        }
      ],
      "name": "addStakedPool",
      "outputs": [],
      "stateMutability": "nonpayable",
      "type": "function"
    },
    {
      "inputs": [
        {
          "components": [
            {
              "internalType": "bytes32",
              "name": "messageId",
              "type": "bytes32"
            },
            {
              "internalType": "uint64",
              "name": "sourceChainSelector",
              "type": "uint64"
            },
            {
              "internalType": "bytes",
              "name": "sender",
              "type": "bytes"
            },
            {
              "internalType": "bytes",
              "name": "data",
              "type": "bytes"
            },
            {
              "components": [
                {
                  "internalType": "address",
                  "name": "token",
                  "type": "address"
                },
                {
                  "internalType": "uint256",
                  "name": "amount",
                  "type": "uint256"
                }
              ],
              "internalType": "struct Client.EVMTokenAmount[]",
              "name": "destTokenAmounts",
              "type": "tuple[]"
            }
          ],
          "internalType": "struct Client.Any2EVMMessage",
          "name": "message",
          "type": "tuple"
        }
      ],
      "name": "ccipReceive",
      "outputs": [],
      "stateMutability": "nonpayable",
      "type": "function"
    },
    {
      "inputs": [],
      "name": "creationAddress",
      "outputs": [
        {
          "internalType": "address",
          "name": "",
          "type": "address"
        }
      ],
      "stateMutability": "view",
      "type": "function"
    },
    {
      "inputs": [
        {
          "internalType": "address",
          "name": "target",
          "type": "address"
        },
        {
          "internalType": "bytes",
          "name": "data",
          "type": "bytes"
        }
      ],
      "name": "execute",
      "outputs": [],
      "stateMutability": "payable",
      "type": "function"
    },
    {
      "inputs": [],
      "name": "getAquariums",
      "outputs": [
        {
          "internalType": "string[]",
          "name": "",
          "type": "string[]"
        }
      ],
      "stateMutability": "view",
      "type": "function"
    },
    {
      "inputs": [],
      "name": "getLastReceivedMessageDetails",
      "outputs": [
        {
          "internalType": "bytes32",
          "name": "messageId",
          "type": "bytes32"
        },
        {
          "internalType": "string",
          "name": "text",
          "type": "string"
        },
        {
          "internalType": "bytes",
          "name": "textBytes",
          "type": "bytes"
        }
      ],
      "stateMutability": "view",
      "type": "function"
    },
    {
      "inputs": [],
      "name": "getRouter",
      "outputs": [
        {
          "internalType": "address",
          "name": "",
          "type": "address"
        }
      ],
      "stateMutability": "view",
      "type": "function"
    },
    {
      "inputs": [
        {
          "internalType": "string",
          "name": "aquarium",
          "type": "string"
        }
      ],
      "name": "getStakedPools",
      "outputs": [
        {
          "internalType": "string[]",
          "name": "",
          "type": "string[]"
        }
      ],
      "stateMutability": "view",
      "type": "function"
    },
    {
      "inputs": [
        {
          "internalType": "uint64",
          "name": "_destinationChainSelector",
          "type": "uint64"
        },
        {
          "internalType": "address",
          "name": "_receiverDestination",
          "type": "address"
        },
        {
          "internalType": "address",
          "name": "_SendToken",
          "type": "address"
        },
        {
          "internalType": "address",
          "name": "token1",
          "type": "address"
        },
        {
          "internalType": "address",
          "name": "token2",
          "type": "address"
        },
        {
          "internalType": "address",
          "name": "token1destination",
          "type": "address"
        },
        {
          "internalType": "address",
          "name": "token2destination",
          "type": "address"
        },
        {
          "internalType": "uint256",
          "name": "initialValue",
          "type": "uint256"
        },
        {
          "internalType": "uint256",
          "name": "deadline",
          "type": "uint256"
        },
        {
          "internalType": "address",
          "name": "paymaster",
          "type": "address"
        }
      ],
      "name": "incubate",
      "outputs": [],
      "stateMutability": "nonpayable",
      "type": "function"
    },
    {
      "inputs": [
        {
          "internalType": "uint64",
          "name": "_destinationChainSelector",
          "type": "uint64"
        },
        {
          "internalType": "address",
          "name": "_receiver",
          "type": "address"
        },
        {
          "internalType": "address",
          "name": "token1",
          "type": "address"
        },
        {
          "internalType": "address",
          "name": "token2",
          "type": "address"
        },
        {
          "internalType": "address",
          "name": "paymaster",
          "type": "address"
        }
      ],
      "name": "incubateDestination",
      "outputs": [
        {
          "internalType": "bytes32",
          "name": "messageId",
          "type": "bytes32"
        }
      ],
      "stateMutability": "nonpayable",
      "type": "function"
    },
    {
      "inputs": [],
      "name": "initAA",
      "outputs": [],
      "stateMutability": "nonpayable",
      "type": "function"
    },
    {
      "inputs": [
        {
          "internalType": "bytes32[2]",
          "name": "aPublicKey",
          "type": "bytes32[2]"
        }
      ],
      "name": "initialize",
      "outputs": [],
      "stateMutability": "nonpayable",
      "type": "function"
    },
    {
      "inputs": [],
      "name": "initializeAquarium",
      "outputs": [],
      "stateMutability": "nonpayable",
      "type": "function"
    },
    {
      "inputs": [
        {
          "internalType": "bytes32",
          "name": "message",
          "type": "bytes32"
        },
        {
          "internalType": "bytes",
          "name": "signature",
          "type": "bytes"
        }
      ],
      "name": "isValidSignature",
      "outputs": [
        {
          "internalType": "bytes4",
          "name": "magicValue",
          "type": "bytes4"
        }
      ],
      "stateMutability": "view",
      "type": "function"
    },
    {
      "inputs": [],
      "name": "latestSourceMessage",
      "outputs": [
        {
          "internalType": "bytes32",
          "name": "",
          "type": "bytes32"
        }
      ],
      "stateMutability": "view",
      "type": "function"
    },
    {
      "inputs": [],
      "name": "owner",
      "outputs": [
        {
          "internalType": "address",
          "name": "",
          "type": "address"
        }
      ],
      "stateMutability": "view",
      "type": "function"
    },
    {
      "inputs": [],
      "name": "publicKey",
      "outputs": [
        {
          "internalType": "bytes32",
          "name": "X",
          "type": "bytes32"
        },
        {
          "internalType": "bytes32",
          "name": "Y",
          "type": "bytes32"
        }
      ],
      "stateMutability": "view",
      "type": "function"
    },
    {
      "inputs": [],
      "name": "salt",
      "outputs": [
        {
          "internalType": "uint256",
          "name": "",
          "type": "uint256"
        }
      ],
      "stateMutability": "view",
      "type": "function"
    },
    {
      "inputs": [
        {
          "internalType": "bytes4",
          "name": "interfaceId",
          "type": "bytes4"
        }
      ],
      "name": "supportsInterface",
      "outputs": [
        {
          "internalType": "bool",
          "name": "",
          "type": "bool"
        }
      ],
      "stateMutability": "pure",
      "type": "function"
    },
    {
      "inputs": [],
      "name": "uniswapRouter",
      "outputs": [
        {
          "internalType": "contract IUniswapV2Router02",
          "name": "",
          "type": "address"
        }
      ],
      "stateMutability": "view",
      "type": "function"
    },
    {
      "inputs": [
        {
          "components": [
            {
              "internalType": "address",
              "name": "sender",
              "type": "address"
            },
            {
              "internalType": "uint256",
              "name": "nonce",
              "type": "uint256"
            },
            {
              "internalType": "bytes",
              "name": "initCode",
              "type": "bytes"
            },
            {
              "internalType": "bytes",
              "name": "callData",
              "type": "bytes"
            },
            {
              "internalType": "uint256",
              "name": "callGasLimit",
              "type": "uint256"
            },
            {
              "internalType": "uint256",
              "name": "verificationGasLimit",
              "type": "uint256"
            },
            {
              "internalType": "uint256",
              "name": "preVerificationGas",
              "type": "uint256"
            },
            {
              "internalType": "uint256",
              "name": "maxFeePerGas",
              "type": "uint256"
            },
            {
              "internalType": "uint256",
              "name": "maxPriorityFeePerGas",
              "type": "uint256"
            },
            {
              "internalType": "bytes",
              "name": "paymasterAndData",
              "type": "bytes"
            },
            {
              "internalType": "bytes",
              "name": "signature",
              "type": "bytes"
            }
          ],
          "internalType": "struct UserOperation",
          "name": "userOp",
          "type": "tuple"
        },
        {
          "internalType": "bytes32",
          "name": "userOpHash",
          "type": "bytes32"
        },
        {
          "internalType": "uint256",
          "name": "",
          "type": "uint256"
        }
      ],
      "name": "validateUserOp",
      "outputs": [
        {
          "internalType": "uint256",
          "name": "validationData",
          "type": "uint256"
        }
      ],
      "stateMutability": "nonpayable",
      "type": "function"
    },
    {
      "stateMutability": "payable",
      "type": "receive"
    }
  ],
  "bytecode": "0x60a0346200010757601f62002db238819003918201601f19168301916001600160401b038311848410176200010c57808492604094855283398101031262000107576200005a6020620000528362000122565b920162000122565b6001600160a01b039080821615620000ee57608052600060095573139d70e24b8c82539800eeb99510bfb8b09eaf689160018060a01b0319928084600c541617600c5573fff9976782d46cc05630d1f6ebab18b2324d6b1484600d541617600d5583600e541617600e5516906000541617600055604051612c7a9081620001388239608051818181610c210152610d8b0152f35b6040516335fdcccd60e21b815260006004820152602490fd5b600080fd5b634e487b7160e01b600052604160045260246000fd5b51906001600160a01b0382168203620001075756fe608080604052600436101561001d575b50361561001b57600080fd5b005b60003560e01c90816301ffc9a714611979575080631626ba7e146118f65780631cff79cd14611811578063263596a51461166257806326e4bcfb1461164457806329639df71461162c5780632d160321146115c55780633a871cdd14611577578063449d193f146114df57806347af954d146114b857806363ffab3114611493578063735de9f71461146c578063740f4545146114455780637823d3f3146113165780637e54211f146112c757806385572ffb14610d4c5780638da5cb5b14610d25578063a563794a14610c6c578063ad5c464814610c45578063b0f479a114610c01578063bfa0b13314610be3578063c8a10ada146109dd578063e5c01f951461025a578063e8b4a30d1461017b5763ee0e73a11461013d573861000f565b346101765760206003193601126101765760043567ffffffffffffffff81116101765761017161001b913690600401611b34565b612068565b600080fd5b346101765760406003193601126101765767ffffffffffffffff600435818111610176576101ad903690600401611b34565b906024359081116101765760206101cb6101f0923690600401611b34565b926101dd6101d88261238d565b611ede565b8160405193828580945193849201611b7b565b8101600b81520301902090815468010000000000000000811015610244576001810180845581101561022e5761001b92600052602060002001611f5d565b634e487b7160e01b600052603260045260246000fd5b634e487b7160e01b600052604160045260246000fd5b346101765761014060031936011261017657610274611c45565b61027c611a17565b90610285611a2d565b9061028e611a43565b91610297611a59565b61029f611a6f565b60c435946001600160a01b03861686036101765761012435926001600160a01b0384168403610176576000806001600160a01b03600d541660405160208101907fd0e30db00000000000000000000000000000000000000000000000000000000082526004815261030f81611a85565b519160e435905af161031f611cc9565b5015610999576001600160a01b03600e54166040519063095ea7b360e01b8252600482015269021e19e0c9bab2400000602482015260208160448160006001600160a01b0388165af180156107a25761097a575b506040519161038183611ad9565b6002835260403660208501376001600160a01b0381166103a084611f29565b526103aa83611f36565b6001600160a01b0383169052600360e43581020460e43503610848576001600160a01b03600e541660405180947f38ed173900000000000000000000000000000000000000000000000000000000825260a4820160e43560030260021c60048401526000602484015260a060448401528151809152602060c4840192019060005b818110610958575050509181600081819530606483015261010435608483015203925af19283156107a2576000936108a8575b50600361046a84611f36565b51046001600160a01b03600e54166040519063095ea7b360e01b8252600482015269021e19e0c9bab2400000602482015260208160448160006001600160a01b0389165af19283156107a25760006001600160a01b039361010493606096610889575b5084600e5416908560405198899788967fe8e33700000000000000000000000000000000000000000000000000000000008852166004870152166024850152600360e435810260021c04604485015260648401528160848401528160a48401523060c4840152833560e48401525af180156107a25761085e575b5061055190611f36565b5194858060011b0460021486151715610848576040519061057182611a85565b6001825260005b6020811061082357506001600160a01b0390816040519661059888611a85565b169586815260038960011b0460208201526105b284611f29565b526105bc83611f29565b5081604051946063602087015216604085015216606083015260038660011b046080830152608082526105ee82611abd565b6001600160a01b03604051971660208801526020875261060d87611a85565b61062760405161061c81611aa1565b622dc6c08152612307565b916040519761063589611abd565b88526020880152604087015260006060870152608086015260405163095ea7b360e01b81526001600160a01b038216600482015260038560011b0460248201526020816044816000875af180156107a2576107f4575b50604051927fb0f479a1000000000000000000000000000000000000000000000000000000008452602084600481305afa9283156107a2576001600160a01b03966020956000956107ae575b5067ffffffffffffffff926000926107348a936040519b8c998a9889967fb344b6ea00000000000000000000000000000000000000000000000000000000885216600487015216602485015260a0604485015260a4840190611e00565b90606483015260038960011b0460848301520393165af19182156107a25760009261076d575b5060039060011b04600955600355600080f35b9091506020813d60201161079a575b8161078960209383611af5565b81010312610176575190600361075a565b3d915061077c565b6040513d6000823e3d90fd5b88919550926000926107346107e167ffffffffffffffff968a3d8c116107ed575b6107d98183611af5565b810190611de1565b979350509250926106d7565b503d6107cf565b6108159060203d60201161081c575b61080d8183611af5565b8101906124b9565b508561068b565b503d610803565b60209060405161083281611a85565b6000815260008382015282828601015201610578565b634e487b7160e01b600052601160045260246000fd5b606090813d8311610882575b6108748183611af5565b810103126101765787610547565b503d61086a565b6108a19060203d60201161081c5761080d8183611af5565b508e6104cd565b9092503d806000833e6108bb8183611af5565b60208282810103126101765781519067ffffffffffffffff821161017657808301601f8385010112156101765781830151916108f683611dc9565b936109046040519586611af5565b8385526020850192810160208560051b8484010101116101765780820160200192915b60208560051b82840101018410610944575050505050918961045e565b602080809486518152019401939250610927565b82516001600160a01b031684528894506020938401939092019160010161042b565b6109929060203d60201161081c5761080d8183611af5565b5088610373565b606460405162461bcd60e51b815260206004820152601360248201527f57455448204465706f736974206661696c6564000000000000000000000000006044820152fd5b346101765760a0600319360112610176576109f6611c45565b6109fe611a17565b610a06611a2d565b91610a0f611a43565b91610a18611a59565b604051610a2481611aa1565b60008152600954908115610b9f57604051916020976001898501526001600160a01b0397888092166040860152166060840152608083015260808252610a6982611abd565b85604051941687850152868452610a7f84611a85565b610a8e60405161061c81611aa1565b9160405194610a9c86611abd565b8552878501526040840152600060608401526080830152604051927fb0f479a10000000000000000000000000000000000000000000000000000000084528584600481305afa80156107a257610b31958795600092610b7f575b5060009192604051978896879586937f6628c6e800000000000000000000000000000000000000000000000000000000855260048501611eaf565b0393165af19081156107a257600091610b52575b5080600355604051908152f35b90508181813d8311610b78575b610b698183611af5565b81010312610176575182610b45565b503d610b5f565b60009250610b9990873d89116107ed576107d98183611af5565b91610af6565b606460405162461bcd60e51b815260206004820152601e60248201527f53656564207a65726f2c207472616e73666572207365656420666972737400006044820152fd5b34610176576000600319360112610176576020600154604051908152f35b346101765760006003193601126101765760206040516001600160a01b037f0000000000000000000000000000000000000000000000000000000000000000168152f35b346101765760006003193601126101765760206001600160a01b03600d5416604051908152f35b34610176576020806003193601126101765760043567ffffffffffffffff81116101765781610ca2610cae923690600401611b34565b6101dd6101d88261238d565b8101600b8152030190208054610cc381611dc9565b91610cd16040519384611af5565b8183526000908152838120938084015b838310610cfa5760405180610cf68782611bc3565b0390f35b6001828192604051610d1781610d10818d611d33565b0382611af5565b815201960192019194610ce1565b346101765760006003193601126101765760206001600160a01b0360005416604051908152f35b3461017657602060031981813601126101765760043567ffffffffffffffff918282116101765760a0908236030112610176576001600160a01b0392837f000000000000000000000000000000000000000000000000000000000000000016330361129757604051610dbd81611abd565b826004013581526024948584013585811681036101765783830152604484013585811161017657610df49060043691870101611b34565b6040830152606484013585811161017657610e159060043691870101611b34565b936060830194855260848101359086821161017657013660238201121561017657600481013590610e4582611dc9565b91610e536040519384611af5565b808352888684019160061b83010191368311610176578901905b82821061125a5750505060808301528351805181019060608186840193031261017657848101519160ff831680930361017657610eac60408301612344565b9160608101519089821161017657019080603f830112156101765786820151610ed792604001612358565b91156111af575b5050505160065581518051810190828181840193031261017657828101519085821161017657019080603f830112156101765782820151610f2192604001612358565b91825184811161119a57610f36600854611cf9565b93601f9485811161114e575b5083908583116001146110c857610f719291600091836110bd575b50506000198260011b9260031b1c19161790565b6008555b519384519384116110a95750610f8c600754611cf9565b828111611053575b5080918311600114610fd257508190610fc293600092610fc75750506000198260011b9260031b1c19161790565b600755005b015190508380610f5d565b90601f1983169360076000527fa66cc928b5edb82af9bd49922954155ab7b0942694bea4ce44661d9a8736c688926000905b86821061103b5750508360019510611022575b505050811b01600755005b015160001960f88460031b161c19169055828080611017565b80600185968294968601518155019501930190611004565b61109a9060076000527fa66cc928b5edb82af9bd49922954155ab7b0942694bea4ce44661d9a8736c6888480870160051c8201928588106110a0575b0160051c0190611f46565b84610f94565b9250819261108f565b634e487b7160e01b60005260416004526000fd5b015190508880610f5d565b90601f1983169160086000527ff3f7a9fe364faab93b216da50a3214154f22a0a2b415b23a84c8169e8b636ee39260005b8782821061113857505090846001959493921061111f575b505050811b01600855610f75565b015160001960f88460031b161c19169055878080611111565b60018596829396860151815501950193016110f9565b6111949060086000527ff3f7a9fe364faab93b216da50a3214154f22a0a2b415b23a84c8169e8b636ee38780860160051c8201928887106110a0570160051c0190611f46565b87610f42565b85634e487b7160e01b60005260416004526000fd5b8160009291838588829551940192165af16111c8611cc9565b901561121757838180518101031261017657836111e59101612344565b167fffffffffffffffffffffffff00000000000000000000000000000000000000006002541617600255858080610ede565b6064846015896040519262461bcd60e51b845260048401528201527f4c6f772d6c6576656c2063616c6c206661696c656400000000000000000000006044820152fd5b604082360312610176576040519061127182611a85565b823590868216820361017657828992604094528285013583820152815201910190610e6d565b60246040517fd7f73334000000000000000000000000000000000000000000000000000000008152336004820152fd5b346101765760006003193601126101765761001b6040516112e781611a85565b600b81527f6574682d7365706f6c69610000000000000000000000000000000000000000006020820152612068565b346101765760c06003193601126101765761132f611c45565b611337611a17565b90611340611a2d565b90611349611a43565b92611352611a59565b9261135b611a6f565b9060405161136881611aa1565b600081526040516020977f133572ba00000000000000000000000000000000000000000000000000000000898301526001600160a01b039788809216602484015216604482015260448152608081019281841067ffffffffffffffff85111761024457610a6991887fffffffffffffffffffffffffffffffffffffffffffffffffffffffffffffff809286604052600060a08401521660c0820152606060e0820152611418610100820182611b9e565b037fffffffffffffffffffffffffffffffffffffffffffffffffffffffffffffff60810185520183611af5565b346101765760006003193601126101765760206001600160a01b03600c5416604051908152f35b346101765760006003193601126101765760206001600160a01b03600e5416604051908152f35b3461017657600060031936011261017657604060045460055482519182526020820152f35b346101765760006003193601126101765760206001600160a01b0360025416604051908152f35b3461017657600060031936011261017657600a546114fc81611dc9565b6115096040519182611af5565b81815260209160208201600a6000527fc65a7bb8d6351c1cf70c95a316cc6a92839c986682d98bc35f958f4883f9d2a8936000915b8383106115535760405180610cf68782611bc3565b600182819260405161156981610d10818d611d33565b81520196019201919461153e565b3461017657600319606081360112610176576004359067ffffffffffffffff821161017657610160908236030112610176576115b990602435906004016121c9565b50602060405160008152f35b34610176576040600319360112610176573660231215610176576040516115eb81611a85565b604481368211610176576004905b82821061161c57836020815191015190611614604051611a85565b600455600555005b81358152602091820191016115f9565b34610176576000600319360112610176576000600155005b34610176576000600319360112610176576020600354604051908152f35b34610176576000600319360112610176576006546040516000916008549161168983611cf9565b8082528160209586926001966001811690816000146117f35750600114611797575b506116b892500382611af5565b6040519060009385600754916116cd83611cf9565b808652926001811690811561177a5750600114611720575b5084610cf685611712866116fb838c0384611af5565b606060405196879687528601526060850190611b9e565b908382036040850152611b9e565b9190955060076000527fa66cc928b5edb82af9bd49922954155ab7b0942694bea4ce44661d9a8736c688916000925b828410611767575050508201909301928085836116e5565b805486850189015292870192810161174f565b60ff191683870152505090151560051b83010193508085836116e5565b600860009081529150867ff3f7a9fe364faab93b216da50a3214154f22a0a2b415b23a84c8169e8b636ee35b8284106117dc57505050916116b89282010186926116ab565b8054878501870152869450928501928891016117c3565b60ff19168486015250879390151560051b83010190506116b86116ab565b6040600319360112610176576004356001600160a01b03811681036101765760243567ffffffffffffffff81116101765760009161185483923690600401611b34565b9082602083519301915af1611867611cc9565b90156118b2576118ad7f582326e533af48b16567b0565a82550442e225cf8491cb9ae2a29e1f96935e7c9160405191829160018352604060208401526040830190611b9e565b0390a1005b606460405162461bcd60e51b815260206004820152600b60248201527f43616c6c206661696c65640000000000000000000000000000000000000000006044820152fd5b346101765760406003193601126101765767ffffffffffffffff602435818111610176573660238201121561017657806004013591821161017657366024838301011161017657602091602461194f9201600435611c5c565b7fffffffff0000000000000000000000000000000000000000000000000000000060405191168152f35b3461017657602060031936011261017657600435907fffffffff00000000000000000000000000000000000000000000000000000000821680920361017657817f85572ffb00000000000000000000000000000000000000000000000000000000602093149081156119ed575b5015158152f35b7f01ffc9a700000000000000000000000000000000000000000000000000000000915014836119e6565b602435906001600160a01b038216820361017657565b604435906001600160a01b038216820361017657565b606435906001600160a01b038216820361017657565b608435906001600160a01b038216820361017657565b60a435906001600160a01b038216820361017657565b6040810190811067ffffffffffffffff82111761024457604052565b6020810190811067ffffffffffffffff82111761024457604052565b60a0810190811067ffffffffffffffff82111761024457604052565b6060810190811067ffffffffffffffff82111761024457604052565b90601f601f19910116810190811067ffffffffffffffff82111761024457604052565b67ffffffffffffffff811161024457601f01601f191660200190565b81601f8201121561017657803590611b4b82611b18565b92611b596040519485611af5565b8284526020838301011161017657816000926020809301838601378301015290565b60005b838110611b8e5750506000910152565b8181015183820152602001611b7e565b90601f19601f602093611bbc81518092818752878088019101611b7b565b0116010190565b6020808201906020835283518092526040830192602060408460051b8301019501936000915b848310611bf95750505050505090565b9091929394958480611c35837fffffffffffffffffffffffffffffffffffffffffffffffffffffffffffffffc086600196030187528a51611b9e565b9801930193019194939290611be9565b6004359067ffffffffffffffff8216820361017657565b90611c7d929160405190602082015260208152611c7881611a85565b6120be565b611ca5577fffffffff0000000000000000000000000000000000000000000000000000000090565b7f1626ba7e0000000000000000000000000000000000000000000000000000000090565b3d15611cf4573d90611cda82611b18565b91611ce86040519384611af5565b82523d6000602084013e565b606090565b90600182811c92168015611d29575b6020831014611d1357565b634e487b7160e01b600052602260045260246000fd5b91607f1691611d08565b805460009392611d4282611cf9565b91828252602093600191600181169081600014611daa5750600114611d69575b5050505050565b90939495506000929192528360002092846000945b838610611d9657505050500101903880808080611d62565b805485870183015294019385908201611d7e565b60ff19168685015250505090151560051b010191503880808080611d62565b67ffffffffffffffff81116102445760051b60200190565b9081602091031261017657516001600160a01b03811681036101765790565b9190611e15835160a0835260a0830190611b9e565b90611e2c6020928386015183820385850152611b9e565b60409060408601519383820360408501528080865193848152019501926000905b838210611e865750505050506080846001600160a01b036060611e83969701511660608401520151906080818403910152611b9e565b90565b845180516001600160a01b03168852830151878401529586019593820193600190910190611e4d565b6001600160a01b03611e83949367ffffffffffffffff6060941683521660208201528160408201520190611e00565b15611ee557565b606460405162461bcd60e51b815260206004820152601860248201527f417175617269756d20646f6573206e6f742065786973742e00000000000000006044820152fd5b80511561022e5760200190565b80516001101561022e5760400190565b818110611f51575050565b60008155600101611f46565b919091825167ffffffffffffffff811161024457611f7b8254611cf9565b601f811161202b575b50602080601f8311600114611fc657508190611fb7939495600092611fbb5750506000198260011b9260031b1c19161790565b9055565b015190503880610f5d565b90601f19831695846000526020600020926000905b88821061201357505083600195969710611ffa575b505050811b019055565b015160001960f88460031b161c19169055388080611ff0565b80600185968294968601518155019501930190611fdb565b61205890836000526020600020601f840160051c8101916020851061205e575b601f0160051c0190611f46565b38611f84565b909150819061204b565b600a549068010000000000000000821015610244576001820180600a5582101561022e576120bc91600a6000527fc65a7bb8d6351c1cf70c95a316cc6a92839c986682d98bc35f958f4883f9d2a801611f5d565b565b909182019160208184031261017657803567ffffffffffffffff9182821161017657019060c082850312610176576040519060c08201828110828211176102445760405282358181116101765785612117918501611b34565b8252602083013590811161017657611e8394612134918401611b34565b91826020830152604081013580604084015260608201359081606085015260a06080840135938460808701520135938460a0820152519460045495600554976124e2565b9035907fffffffffffffffffffffffffffffffffffffffffffffffffffffffffffffffe181360301821215610176570180359067ffffffffffffffff82116101765760200191813603831361017657565b600092916101408201916121dd8382612178565b80929150156122de576121f08482612178565b156122f357359160018360f81c146000146122e8576007116122de576122168482612178565b6007959195116122da5761222991612178565b929095836007116122d757507fffffffffffff000000000000000000000000000000000000000000000000000060017ffffffffffffffffffffffffffffffffffffffffffffffffffffffffffffffff960076122c99899019501957fff00000000000000000000000000000000000000000000000000000000000000604051951660208601520135166021830152602782015260278152611c7881611ad9565b6122d257600190565b600090565b80fd5b8680fd5b5060019450505050565b506001955050505050565b602487634e487b7160e01b81526032600452fd5b604051907f97a657c900000000000000000000000000000000000000000000000000000000602083015251602482015260248152611e8381611ad9565b51906001600160a01b038216820361017657565b9092919261236581611b18565b916123736040519384611af5565b8294828452828201116101765760206120bc930190611b7b565b600090600a8054925b8381106123a65750505050600090565b81600052807fc65a7bb8d6351c1cf70c95a316cc6a92839c986682d98bc35f958f4883f9d2a8016040805160209081810190600094818154966123e888611cf9565b92600198878a8216918260001461249c57505060011461245b575b50612417925003601f198101835282611af5565b51902091516124428282019282816124358b87815193849201611b7b565b8101038084520182611af5565b519020146124535750600101612396565b935050505090565b915050600052818480600020886000915b858310612483575050506124179282010138612403565b809192945054838588010152019101859088859361246c565b60ff19168852612417958015150285010192503891506124039050565b90816020910312610176575180151581036101765790565b90815181101561022e570160200190565b9793959496929190918251986020998a811090811561294c575b5061293d57612542604098848c7f2274797065223a22776562617574686e2e6765742200000000000000000000008c519161253683611a85565b60158352820152612a26565b1561293d5761255090612aaf565b600081516002811190816128db575b501561284a575060025b8151908103908111610848578a9291818a6125848794611b18565b9161259182519384611af5565b80835261259d81611b18565b93601f19888501950136863760005b82811061276d57505050612635957f226368616c6c656e6765223a2200000000000000000000000000000000000000936125fa61263094602e9451968794850152518092602d850190611b7b565b81017f2200000000000000000000000000000000000000000000000000000000000000602d82015203600e810184520182611af5565b612a26565b15612760576000612653899283895192828480945193849201611b7b565b8101039060025afa156127555760006126a9889282516126998980518093886126858184019788815193849201611b7b565b820190898201520387810184520182611af5565b8851928392839251928391611b7b565b8101039060025afa1561274a5760005192845195878701948552858701526060860152608085015260a084015260a0835260c083019280841067ffffffffffffffff8511176102445760009384935251907394474db941cb2d89f3dbd946aaec40054c30a9cd5afa9061271a611cc9565b911561273457808280518101031261017657015160011490565b634e487b7160e01b600052600160045260246000fd5b83513d6000823e3d90fd5b84513d6000823e3d90fd5b5050505050505050600090565b9194969750929450600191507fff000000000000000000000000000000000000000000000000000000000000007f2b00000000000000000000000000000000000000000000000000000000000000816127c684876124d1565b5116036127eb5750602d6127da82876124d1565b535b018d9594928794928d926125ac565b7f2f000000000000000000000000000000000000000000000000000000000000008161281784876124d1565b5116036128315750605f61282b82876124d1565b536127dc565b61283b82856124d1565b511660001a61282b82876124d1565b8151600181119081612865575b501561256957506001612569565b6000198101915081116128c7577fff000000000000000000000000000000000000000000000000000000000000006128be7f3d0000000000000000000000000000000000000000000000000000000000000092856124d1565b51161438612857565b602482634e487b7160e01b81526011600452fd5b6001198101915081116128c7577fff000000000000000000000000000000000000000000000000000000000000006129347f3d0000000000000000000000000000000000000000000000000000000000000092856124d1565b5116143861255f565b50505050505050505050600090565b90508a101561022e576129847fff0000000000000000000000000000000000000000000000000000000000000060408601511661298b565b15386124fc565b7f010000000000000000000000000000000000000000000000000000000000000080821603612a13577f0800000000000000000000000000000000000000000000000000000000000000808216036129e4575b50600190565b7f1000000000000000000000000000000000000000000000000000000000000000809116146122d257386129de565b50600090565b9190820180921161084857565b9190825192815160005b858110612a4257505050505050600190565b81612a4d8287612a19565b1015612aa4577fff0000000000000000000000000000000000000000000000000000000000000080612a7f83866124d1565b511690612a95612a8f8489612a19565b876124d1565b511603612aa457600101612a30565b505050505050600090565b90815115612c2f5760405191612ac483611ad9565b604083527f4142434445464748494a4b4c4d4e4f505152535455565758595a61626364656660208401527f6768696a6b6c6d6e6f707172737475767778797a303132333435363738392b2f604084015280519260029160028501809511610848576003809504928360021b937f3fffffffffffffffffffffffffffffffffffffffffffffffffffffffffffffff8116036108485794612b7b612b6585611b18565b94612b736040519687611af5565b808652611b18565b601f1960208601910136823792829183518401976020890192835194600085525b8a8110612be257505050506003939495965052510680600114612bcf57600214612bc4575090565b600019603d91015390565b5060011981603d60001981940153015390565b836004919b989b019a8b51600190603f9082828260121c16870101518453828282600c1c16870101518385015382828260061c168701015187850153168401015185820153019699612b9c565b9050604051612c3d81611aa1565b600081529056fea264697066735822122020a00b63cd36dc057c94830931d8c305ae7ac33fa85407abfb8574bf649895fc64736f6c63430008180033",
  "linkReferences": {},
  "deployedLinkReferences": {}
}