{
  "_format": "hh-sol-artifact-1",
  "contractName": "Creator",
  "sourceName": "contracts/Creator.sol",
  "abi": [
    {
      "inputs": [
        {
          "internalType": "address",
          "name": "_owner",
          "type": "address"
        },
        {
          "internalType": "address",
          "name": "_ccipRouter",
          "type": "address"
        }
      ],
      "stateMutability": "nonpayable",
      "type": "constructor"
    },
    {
      "inputs": [
        {
          "internalType": "address",
          "name": "router",
          "type": "address"
        }
      ],
      "name": "InvalidRouter",
      "type": "error"
    },
    {
      "anonymous": false,
      "inputs": [
        {
          "indexed": false,
          "internalType": "bool",
          "name": "success",
          "type": "bool"
        },
        {
          "indexed": false,
          "internalType": "bytes",
          "name": "data",
          "type": "bytes"
        }
      ],
      "name": "CallResult",
      "type": "event"
    },
    {
      "anonymous": false,
      "inputs": [
        {
          "indexed": false,
          "internalType": "address",
          "name": "account",
          "type": "address"
        }
      ],
      "name": "CreatedAccount",
      "type": "event"
    },
    {
      "inputs": [
        {
          "components": [
            {
              "internalType": "bytes32",
              "name": "messageId",
              "type": "bytes32"
            },
            {
              "internalType": "uint64",
              "name": "sourceChainSelector",
              "type": "uint64"
            },
            {
              "internalType": "bytes",
              "name": "sender",
              "type": "bytes"
            },
            {
              "internalType": "bytes",
              "name": "data",
              "type": "bytes"
            },
            {
              "components": [
                {
                  "internalType": "address",
                  "name": "token",
                  "type": "address"
                },
                {
                  "internalType": "uint256",
                  "name": "amount",
                  "type": "uint256"
                }
              ],
              "internalType": "struct Client.EVMTokenAmount[]",
              "name": "destTokenAmounts",
              "type": "tuple[]"
            }
          ],
          "internalType": "struct Client.Any2EVMMessage",
          "name": "message",
          "type": "tuple"
        }
      ],
      "name": "ccipReceive",
      "outputs": [],
      "stateMutability": "nonpayable",
      "type": "function"
    },
    {
      "inputs": [],
      "name": "creationAddress",
      "outputs": [
        {
          "internalType": "address",
          "name": "",
          "type": "address"
        }
      ],
      "stateMutability": "view",
      "type": "function"
    },
    {
      "inputs": [],
      "name": "d_AAFactory",
      "outputs": [
        {
          "internalType": "address",
          "name": "",
          "type": "address"
        }
      ],
      "stateMutability": "view",
      "type": "function"
    },
    {
      "inputs": [],
      "name": "d_AAUser",
      "outputs": [
        {
          "internalType": "address",
          "name": "",
          "type": "address"
        }
      ],
      "stateMutability": "view",
      "type": "function"
    },
    {
      "inputs": [],
      "name": "d_multiplex",
      "outputs": [
        {
          "internalType": "uint8",
          "name": "",
          "type": "uint8"
        }
      ],
      "stateMutability": "view",
      "type": "function"
    },
    {
      "inputs": [],
      "name": "d_nativeAccount",
      "outputs": [
        {
          "internalType": "address",
          "name": "",
          "type": "address"
        }
      ],
      "stateMutability": "view",
      "type": "function"
    },
    {
      "inputs": [],
      "name": "d_router",
      "outputs": [
        {
          "internalType": "address",
          "name": "",
          "type": "address"
        }
      ],
      "stateMutability": "view",
      "type": "function"
    },
    {
      "inputs": [],
      "name": "getLastReceivedMessageDetails",
      "outputs": [
        {
          "internalType": "bytes32",
          "name": "messageId",
          "type": "bytes32"
        },
        {
          "internalType": "string",
          "name": "text",
          "type": "string"
        },
        {
          "internalType": "bytes",
          "name": "textBytes",
          "type": "bytes"
        }
      ],
      "stateMutability": "view",
      "type": "function"
    },
    {
      "inputs": [],
      "name": "getRouter",
      "outputs": [
        {
          "internalType": "address",
          "name": "",
          "type": "address"
        }
      ],
      "stateMutability": "view",
      "type": "function"
    },
    {
      "inputs": [],
      "name": "latestSourceMessage",
      "outputs": [
        {
          "internalType": "bytes32",
          "name": "",
          "type": "bytes32"
        }
      ],
      "stateMutability": "view",
      "type": "function"
    },
    {
      "inputs": [],
      "name": "owner",
      "outputs": [
        {
          "internalType": "address",
          "name": "",
          "type": "address"
        }
      ],
      "stateMutability": "view",
      "type": "function"
    },
    {
      "inputs": [
        {
          "internalType": "bytes4",
          "name": "interfaceId",
          "type": "bytes4"
        }
      ],
      "name": "supportsInterface",
      "outputs": [
        {
          "internalType": "bool",
          "name": "",
          "type": "bool"
        }
      ],
      "stateMutability": "pure",
      "type": "function"
    },
    {
      "stateMutability": "payable",
      "type": "receive"
    }
  ],
  "bytecode": "0x60a0346100b057601f61102138819003918201601f19168301916001600160401b038311848410176100b55780849260409485528339810103126100b057610052602061004b836100cb565b92016100cb565b6001600160a01b03919082811615610097576080521660018060a01b03196000541617600055604051610f4190816100e082396080518181816103df01526105030152f35b6040516335fdcccd60e21b815260006004820152602490fd5b600080fd5b634e487b7160e01b600052604160045260246000fd5b51906001600160a01b03821682036100b05756fe6080604052600436101561001b575b361561001957600080fd5b005b60003560e01c806301d3f286146100db57806301ffc9a7146100d65780630eae5600146100d1578063263596a5146100cc57806326e4bcfb146100c757806347af954d146100c2578063837cee9a146100bd57806385572ffb146100b85780638da5cb5b146100b3578063b0f479a1146100ae578063bd0b8ae8146100a95763e700068c0361000e5761054e565b610527565b6104e3565b6104bc565b6103a0565b61037c565b610355565b610337565b610217565b6101a8565b610107565b346101025760006003193601126101025760206001600160a01b0360085416604051908152f35b600080fd5b34610102576020600319360112610102576004357fffffffff00000000000000000000000000000000000000000000000000000000811680910361010257807f85572ffb000000000000000000000000000000000000000000000000000000006020921490811561017e575b506040519015158152f35b7f01ffc9a70000000000000000000000000000000000000000000000000000000091501438610173565b346101025760006003193601126101025760206001600160a01b0360075416604051908152f35b60005b8381106101e25750506000910152565b81810151838201526020016101d2565b90601f19601f602093610210815180928187528780880191016101cf565b0116010190565b3461010257600080600319360112610334576003546040519082916005549361023f85610575565b90818352602095869160019160018116908160001461031157506001146102b7575b82866102b387610273818c03826106cd565b6102a56040519161028e83610287816105c8565b03846106cd565b6060604051968796875286015260608501906101f2565b9083820360408501526101f2565b0390f35b92919550600583527f036b6384b5eca791c62761152d0c79bb0604c104a5fb6f4eb0703f3154bb3db05b8284106102fe57505050810190920191610273846102b383610261565b80548585018801529286019281016102e1565b60ff19168487015250505090151560051b8201019250610273846102b383610261565b80fd5b34610102576000600319360112610102576020600254604051908152f35b346101025760006003193601126101025760206001600160a01b0360015416604051908152f35b3461010257600060031936011261010257602060ff60095460a01c16604051908152f35b34610102576003196020813601126101025760049081359067ffffffffffffffff908183116101025760a0908336030112610102576001600160a01b037f000000000000000000000000000000000000000000000000000000000000000016330361048c5761040d6106f0565b9180840135835261042060248201610710565b602084015260448101358281116101025761044090853691840101610741565b604084015260648101358281116101025761046090853691840101610741565b6060840152608481013591821161010257610019936104829236920101610799565b6080820152610c5a565b6040517fd7f733340000000000000000000000000000000000000000000000000000000081523381850152602490fd5b346101025760006003193601126101025760206001600160a01b0360005416604051908152f35b346101025760006003193601126101025760206040516001600160a01b037f0000000000000000000000000000000000000000000000000000000000000000168152f35b346101025760006003193601126101025760206001600160a01b0360095416604051908152f35b346101025760006003193601126101025760206001600160a01b0360065416604051908152f35b90600182811c921680156105be575b602083101461058f57565b7f4e487b7100000000000000000000000000000000000000000000000000000000600052602260045260246000fd5b91607f1691610584565b600454600092916105d882610575565b8082529160209060019081811690811561065757506001146105fb575b50505050565b9293945060046000527f8a35acfbc15ff81a39ae7d344fd709f28e8600b4aa8c65c6b64bfe7fe36bd19b926000935b8585106106445750505060209250010190388080806105f5565b805485850184015293820193810161062a565b915050602094955060ff1991509291921683830152151560051b010190388080806105f5565b7f4e487b7100000000000000000000000000000000000000000000000000000000600052604160045260246000fd5b6040810190811067ffffffffffffffff8211176106c857604052565b61067d565b90601f601f19910116810190811067ffffffffffffffff8211176106c857604052565b6040519060a0820182811067ffffffffffffffff8211176106c857604052565b359067ffffffffffffffff8216820361010257565b67ffffffffffffffff81116106c857601f01601f191660200190565b81601f820112156101025780359061075882610725565b9261076660405194856106cd565b8284526020838301011161010257816000926020809301838601378301015290565b6001600160a01b0381160361010257565b81601f8201121561010257803590602067ffffffffffffffff83116106c857604092604051946107ce838360051b01876106cd565b818652828087019260061b85010193818511610102578301915b8483106107f85750505050505090565b858383031261010257838691825161080f816106ac565b853561081a81610788565b815282860135838201528152019201916107e8565b9092919261083c81610725565b9161084a60405193846106cd565b8294828452828201116101025760206108649301906101cf565b565b909160608284031261010257815160ff811681036101025792602083015161088d81610788565b9260408101519067ffffffffffffffff821161010257019080601f830112156101025781516108be9260200161082f565b90565b9081602091031261010257516108be81610788565b3d15610901573d906108e782610725565b916108f560405193846106cd565b82523d6000602084013e565b606090565b1561090d57565b60646040517f08c379a000000000000000000000000000000000000000000000000000000000815260206004820152601560248201527f4c6f772d6c6576656c2063616c6c206661696c656400000000000000000000006044820152fd5b6020818303126101025780519067ffffffffffffffff821161010257019080601f830112156101025781516108be9260200161082f565b601f81116109ae575050565b60009060056000527f036b6384b5eca791c62761152d0c79bb0604c104a5fb6f4eb0703f3154bb3db0906020601f850160051c83019410610a0a575b601f0160051c01915b8281106109ff57505050565b8181556001016109f3565b90925082906109ea565b601f8111610a20575050565b60009060046000527f8a35acfbc15ff81a39ae7d344fd709f28e8600b4aa8c65c6b64bfe7fe36bd19b906020601f850160051c83019410610a7c575b601f0160051c01915b828110610a7157505050565b818155600101610a65565b9092508290610a5c565b90815167ffffffffffffffff81116106c857610aac81610aa7600554610575565b6109a2565b602080601f8311600114610aee57508190610ade9394600092610ae3575b50506000198260011b9260031b1c19161790565b600555565b015190503880610aca565b90601f19831694610b2160056000527f036b6384b5eca791c62761152d0c79bb0604c104a5fb6f4eb0703f3154bb3db090565b926000905b878210610b5e575050836001959610610b45575b505050811b01600555565b015160001960f88460031b161c19169055388080610b3a565b80600185968294968601518155019501930190610b26565b90815167ffffffffffffffff81116106c857610b9c81610b97600454610575565b610a14565b602080601f8311600114610bd257508190610bcd9394600092610ae35750506000198260011b9260031b1c19161790565b600455565b90601f19831694610c0560046000527f8a35acfbc15ff81a39ae7d344fd709f28e8600b4aa8c65c6b64bfe7fe36bd19b90565b926000905b878210610c42575050836001959610610c29575b505050811b01600455565b015160001960f88460031b161c19169055388080610c1e565b80600185968294968601518155019501930190610c0a565b61086490610e4e610e496060830192610e3a8451916001600160a01b03610c8c84519460208080978301019101610866565b91921660ff610cb6610caa60408701518980825183010191016108c1565b6001600160a01b031690565b93610ddf60446024860151950151610db660405196610d8d8c8901997f42441339000000000000000000000000000000000000000000000000000000008b52610d378a610d298388876024850191604091949360608401956001600160a01b039283809216865216602085015216910152565b03601f1981018c528b6106cd565b610d64896001600160a01b031673ffffffffffffffffffffffffffffffffffffffff196009541617600955565b6001600160a01b031673ffffffffffffffffffffffffffffffffffffffff196006541617600655565b6001600160a01b031673ffffffffffffffffffffffffffffffffffffffff196007541617600755565b6001600160a01b031673ffffffffffffffffffffffffffffffffffffffff196008541617600855565b610e2a817fffffffffffffffffffffff00ffffffffffffffffffffffffffffffffffffffff74ff00000000000000000000000000000000000000006009549260a01b16911617600955565b1615610e54575b50505051600355565b8351805181018201910161096b565b610a86565b51610b76565b600080610caa92610eb09582610e879651925af1610e79610e736108d6565b91610906565b8680825183010191016108c1565b6001600160a01b031673ffffffffffffffffffffffffffffffffffffffff196001541617600155565b7f9a99f061244371663ac486f29204cfb3ce10dec6b603f0a69a3eb90ed3891cee610f00610ee66001546001600160a01b031690565b6040516001600160a01b0390911681529081906020820190565b0390a1388080610e3156fea2646970667358221220e1bd0b630f5a538148c6062cdad193f77d0b50f9dbee166e98590248073a9c5d64736f6c63430008180033",
  "linkReferences": {},
  "deployedLinkReferences": {}
}