{
  "_format": "hh-sol-artifact-1",
  "contractName": "Multicall",
  "sourceName": "contracts/Multicall.sol",
  "abi": [
    {
      "inputs": [
        {
          "components": [
            {
              "internalType": "address",
              "name": "target",
              "type": "address"
            },
            {
              "internalType": "bytes",
              "name": "callData",
              "type": "bytes"
            }
          ],
          "internalType": "struct Multicall.call[]",
          "name": "calls",
          "type": "tuple[]"
        }
      ],
      "name": "aggregate",
      "outputs": [
        {
          "internalType": "uint256",
          "name": "blockNumber",
          "type": "uint256"
        },
        {
          "internalType": "bytes[]",
          "name": "returnData",
          "type": "bytes[]"
        }
      ],
      "stateMutability": "nonpayable",
      "type": "function"
    }
  ],
  "bytecode": "0x6080806040523461001657610411908161001c8239f35b600080fdfe604060808152600490600436101561001657600080fd5b6000803560e01c63252dba421461002c57600080fd5b3461033e57602090817ffffffffffffffffffffffffffffffffffffffffffffffffffffffffffffffffc36011261033e5767ffffffffffffffff9360043585811161033a573660238201121561033a578060040135602461009461008f8361037d565b610341565b976024878a858152019360051b850101933685116103365760248101935b858510610247578a518a8a8a8e6100d76100ce61008f8761037d565b9580875261037d565b601f1980910184845b82811061023757505050825b825181101561018057838073ffffffffffffffffffffffffffffffffffffffff61011684876103b1565b5151168761012485886103b1565b51015190828983519301915af13d15610178573d9061014561008f83610395565b9182523d868884013e5b156101745790600191610162828a6103b1565b5261016d81896103b1565b50016100ec565b8480fd5b60609061014f565b83858884898051938185019143865281860152835180925260608501928160608460051b88010195019387915b8483106101ba5787870388f35b9091929394957fffffffffffffffffffffffffffffffffffffffffffffffffffffffffffffffa0888203018352848288518b815191828652815b83811061021d575050818501840152601f011690910181019681019594936001019201906101ad565b8082018601518782018701528a958895508f9350016101f4565b606082828b0101520185906100e0565b84358381116103325782018a7fffffffffffffffffffffffffffffffffffffffffffffffffffffffffffffffdc8236030112610332578a51908b820182811086821117610320578c528581013573ffffffffffffffffffffffffffffffffffffffff81168103610318578252604490818101359086821161031c570190366043830112156103185786820135906102e061008f83610395565b9282845236828483010111610314578d8381979593948f9395839896018386013783010152838201528152019401936100b2565b8c80fd5b8a80fd5b8b80fd5b868b60418c634e487b7160e01b835252fd5b8880fd5b8680fd5b8280fd5b80fd5b90601f19601f604051930116820182811067ffffffffffffffff82111761036757604052565b634e487b7160e01b600052604160045260246000fd5b67ffffffffffffffff81116103675760051b60200190565b67ffffffffffffffff811161036757601f01601f191660200190565b80518210156103c55760209160051b010190565b634e487b7160e01b600052603260045260246000fdfea2646970667358221220fb1782e1ccc204257a7c019a68b8c96bf24e56f0eec85f3893c1567c08aaca0264736f6c63430008180033",
  "linkReferences": {},
  "deployedLinkReferences": {}
}