{"contracts/AFTesting.sol":{"AFTesting":{"abi":[{"inputs":[],"name":"AF","outputs":[{"internalType":"contract AccountFactory","name":"","type":"address"}],"stateMutability":"view","type":"function"},{"inputs":[],"name":"creationAddress","outputs":[{"internalType":"address","name":"","type":"address"}],"stateMutability":"view","type":"function"},{"inputs":[{"internalType":"uint8","name":"multiplex","type":"uint8"},{"internalType":"address","name":"AAFactory","type":"address"},{"internalType":"address","name":"AAUser","type":"address"},{"internalType":"address","name":"router","type":"address"}],"name":"encodeData","outputs":[{"internalType":"bytes","name":"","type":"bytes"}],"stateMutability":"pure","type":"function"},{"inputs":[{"internalType":"bytes","name":"message","type":"bytes"}],"name":"onReceive","outputs":[{"internalType":"address","name":"","type":"address"}],"stateMutability":"nonpayable","type":"function"},{"stateMutability":"payable","type":"receive"}],"evm":{"bytecode":{"linkReferences":{},"object":"6080806040523461001657610622908161001c8239f35b600080fdfe6080604052600436101561001b575b361561001957600080fd5b005b6000803560e01c90816317610fcf1461005e5750806347af954d14610059578063518affcc14610054576391c3be840361000e5761028b565b6101d2565b610199565b346101075760206003193601126101075760043567ffffffffffffffff8111610103573660238201121561010357806004013561009a8161017d565b916100a8604051938461015a565b81835236602483830101116100ff57926020826100d4949360246100fb9701838601378301015261041b565b60405173ffffffffffffffffffffffffffffffffffffffff90911681529081906020820190565b0390f35b8380fd5b5080fd5b80fd5b7f4e487b7100000000000000000000000000000000000000000000000000000000600052604160045260246000fd5b6080810190811067ffffffffffffffff82111761015557604052565b61010a565b90601f601f19910116810190811067ffffffffffffffff82111761015557604052565b67ffffffffffffffff811161015557601f01601f191660200190565b346101cd5760006003193601126101cd57602073ffffffffffffffffffffffffffffffffffffffff60015416604051908152f35b600080fd5b346101cd5760006003193601126101cd57602073ffffffffffffffffffffffffffffffffffffffff60005416604051908152f35b60ff8116036101cd57565b73ffffffffffffffffffffffffffffffffffffffff8116036101cd57565b60005b8381106102425750506000910152565b8181015183820152602001610232565b90601f19601f6020936102708151809281875287808801910161022f565b0116010190565b906020610288928181520190610252565b90565b346101cd5760806003193601126101cd576100fb60ff6103656004356102b081610206565b6103576024356102bf81610211565b604435906102cc82610211565b606435906102d982610211565b604051927f133572ba00000000000000000000000000000000000000000000000000000000602085015273ffffffffffffffffffffffffffffffffffffffff928380921660248601521660448401526044835261033583610139565b6040519687951660208601521660408401526060808401526080830190610252565b03601f19810183528261015a565b60405191829182610277565b3d1561039c573d906103828261017d565b91610390604051938461015a565b82523d6000602084013e565b606090565b156103a857565b60646040517f08c379a000000000000000000000000000000000000000000000000000000000815260206004820152601560248201527f4c6f772d6c6576656c2063616c6c206661696c656400000000000000000000006044820152fd5b908160209103126101cd575161028881610211565b80516020908201916060818385019403126101cd57818101519261043e84610206565b60408201519161044d83610211565b60608101519067ffffffffffffffff82116101cd570181603f820112156101cd578381015161047b8161017d565b92610489604051948561015a565b818452604082840101116101cd576104a7916040868501910161022f565b61052360ff6000956105316044602486015195015194604051948591898301977f42441339000000000000000000000000000000000000000000000000000000008952339160248501916040919493606084019573ffffffffffffffffffffffffffffffffffffffff9283809216865216602085015216910152565b03601f19810185528461015a565b161561053f575b5050505090565b93610585939281928273ffffffffffffffffffffffffffffffffffffffff61059e985193165af190610578610572610371565b926103a1565b8082518301019101610406565b73ffffffffffffffffffffffffffffffffffffffff1690565b6105e38173ffffffffffffffffffffffffffffffffffffffff167fffffffffffffffffffffffff00000000000000000000000000000000000000006001541617600155565b3880808061053856fea264697066735822122045e1d38fbea0b291550a3236ee91722727ded6aaa611c60884c3a3ae058fb8be64736f6c63430008180033","opcodes":"PUSH1 0x80 DUP1 PUSH1 0x40 MSTORE CALLVALUE PUSH2 0x16 JUMPI PUSH2 0x622 SWAP1 DUP2 PUSH2 0x1C DUP3 CODECOPY RETURN JUMPDEST PUSH1 0x0 DUP1 REVERT INVALID PUSH1 0x80 PUSH1 0x40 MSTORE PUSH1 0x4 CALLDATASIZE LT ISZERO PUSH2 0x1B JUMPI JUMPDEST CALLDATASIZE ISZERO PUSH2 0x19 JUMPI PUSH1 0x0 DUP1 REVERT JUMPDEST STOP JUMPDEST PUSH1 0x0 DUP1 CALLDATALOAD PUSH1 0xE0 SHR SWAP1 DUP2 PUSH4 0x17610FCF EQ PUSH2 0x5E JUMPI POP DUP1 PUSH4 0x47AF954D EQ PUSH2 0x59 JUMPI DUP1 PUSH4 0x518AFFCC EQ PUSH2 0x54 JUMPI PUSH4 0x91C3BE84 SUB PUSH2 0xE JUMPI PUSH2 0x28B JUMP JUMPDEST PUSH2 0x1D2 JUMP JUMPDEST PUSH2 0x199 JUMP JUMPDEST CALLVALUE PUSH2 0x107 JUMPI PUSH1 0x20 PUSH1 0x3 NOT CALLDATASIZE ADD SLT PUSH2 0x107 JUMPI PUSH1 0x4 CALLDATALOAD PUSH8 0xFFFFFFFFFFFFFFFF DUP2 GT PUSH2 0x103 JUMPI CALLDATASIZE PUSH1 0x23 DUP3 ADD SLT ISZERO PUSH2 0x103 JUMPI DUP1 PUSH1 0x4 ADD CALLDATALOAD PUSH2 0x9A DUP2 PUSH2 0x17D JUMP JUMPDEST SWAP2 PUSH2 0xA8 PUSH1 0x40 MLOAD SWAP4 DUP5 PUSH2 0x15A JUMP JUMPDEST DUP2 DUP4 MSTORE CALLDATASIZE PUSH1 0x24 DUP4 DUP4 ADD ADD GT PUSH2 0xFF JUMPI SWAP3 PUSH1 0x20 DUP3 PUSH2 0xD4 SWAP5 SWAP4 PUSH1 0x24 PUSH2 0xFB SWAP8 ADD DUP4 DUP7 ADD CALLDATACOPY DUP4 ADD ADD MSTORE PUSH2 0x41B JUMP JUMPDEST PUSH1 0x40 MLOAD PUSH20 0xFFFFFFFFFFFFFFFFFFFFFFFFFFFFFFFFFFFFFFFF SWAP1 SWAP2 AND DUP2 MSTORE SWAP1 DUP2 SWAP1 PUSH1 0x20 DUP3 ADD SWAP1 JUMP JUMPDEST SUB SWAP1 RETURN JUMPDEST DUP4 DUP1 REVERT JUMPDEST POP DUP1 REVERT JUMPDEST DUP1 REVERT JUMPDEST PUSH32 0x4E487B7100000000000000000000000000000000000000000000000000000000 PUSH1 0x0 MSTORE PUSH1 0x41 PUSH1 0x4 MSTORE PUSH1 0x24 PUSH1 0x0 REVERT JUMPDEST PUSH1 0x80 DUP2 ADD SWAP1 DUP2 LT PUSH8 0xFFFFFFFFFFFFFFFF DUP3 GT OR PUSH2 0x155 JUMPI PUSH1 0x40 MSTORE JUMP JUMPDEST PUSH2 0x10A JUMP JUMPDEST SWAP1 PUSH1 0x1F PUSH1 0x1F NOT SWAP2 ADD AND DUP2 ADD SWAP1 DUP2 LT PUSH8 0xFFFFFFFFFFFFFFFF DUP3 GT OR PUSH2 0x155 JUMPI PUSH1 0x40 MSTORE JUMP JUMPDEST PUSH8 0xFFFFFFFFFFFFFFFF DUP2 GT PUSH2 0x155 JUMPI PUSH1 0x1F ADD PUSH1 0x1F NOT AND PUSH1 0x20 ADD SWAP1 JUMP JUMPDEST CALLVALUE PUSH2 0x1CD JUMPI PUSH1 0x0 PUSH1 0x3 NOT CALLDATASIZE ADD SLT PUSH2 0x1CD JUMPI PUSH1 0x20 PUSH20 0xFFFFFFFFFFFFFFFFFFFFFFFFFFFFFFFFFFFFFFFF PUSH1 0x1 SLOAD AND PUSH1 0x40 MLOAD SWAP1 DUP2 MSTORE RETURN JUMPDEST PUSH1 0x0 DUP1 REVERT JUMPDEST CALLVALUE PUSH2 0x1CD JUMPI PUSH1 0x0 PUSH1 0x3 NOT CALLDATASIZE ADD SLT PUSH2 0x1CD JUMPI PUSH1 0x20 PUSH20 0xFFFFFFFFFFFFFFFFFFFFFFFFFFFFFFFFFFFFFFFF PUSH1 0x0 SLOAD AND PUSH1 0x40 MLOAD SWAP1 DUP2 MSTORE RETURN JUMPDEST PUSH1 0xFF DUP2 AND SUB PUSH2 0x1CD JUMPI JUMP JUMPDEST PUSH20 0xFFFFFFFFFFFFFFFFFFFFFFFFFFFFFFFFFFFFFFFF DUP2 AND SUB PUSH2 0x1CD JUMPI JUMP JUMPDEST PUSH1 0x0 JUMPDEST DUP4 DUP2 LT PUSH2 0x242 JUMPI POP POP PUSH1 0x0 SWAP2 ADD MSTORE JUMP JUMPDEST DUP2 DUP2 ADD MLOAD DUP4 DUP3 ADD MSTORE PUSH1 0x20 ADD PUSH2 0x232 JUMP JUMPDEST SWAP1 PUSH1 0x1F NOT PUSH1 0x1F PUSH1 0x20 SWAP4 PUSH2 0x270 DUP2 MLOAD DUP1 SWAP3 DUP2 DUP8 MSTORE DUP8 DUP1 DUP9 ADD SWAP2 ADD PUSH2 0x22F JUMP JUMPDEST ADD AND ADD ADD SWAP1 JUMP JUMPDEST SWAP1 PUSH1 0x20 PUSH2 0x288 SWAP3 DUP2 DUP2 MSTORE ADD SWAP1 PUSH2 0x252 JUMP JUMPDEST SWAP1 JUMP JUMPDEST CALLVALUE PUSH2 0x1CD JUMPI PUSH1 0x80 PUSH1 0x3 NOT CALLDATASIZE ADD SLT PUSH2 0x1CD JUMPI PUSH2 0xFB PUSH1 0xFF PUSH2 0x365 PUSH1 0x4 CALLDATALOAD PUSH2 0x2B0 DUP2 PUSH2 0x206 JUMP JUMPDEST PUSH2 0x357 PUSH1 0x24 CALLDATALOAD PUSH2 0x2BF DUP2 PUSH2 0x211 JUMP JUMPDEST PUSH1 0x44 CALLDATALOAD SWAP1 PUSH2 0x2CC DUP3 PUSH2 0x211 JUMP JUMPDEST PUSH1 0x64 CALLDATALOAD SWAP1 PUSH2 0x2D9 DUP3 PUSH2 0x211 JUMP JUMPDEST PUSH1 0x40 MLOAD SWAP3 PUSH32 0x133572BA00000000000000000000000000000000000000000000000000000000 PUSH1 0x20 DUP6 ADD MSTORE PUSH20 0xFFFFFFFFFFFFFFFFFFFFFFFFFFFFFFFFFFFFFFFF SWAP3 DUP4 DUP1 SWAP3 AND PUSH1 0x24 DUP7 ADD MSTORE AND PUSH1 0x44 DUP5 ADD MSTORE PUSH1 0x44 DUP4 MSTORE PUSH2 0x335 DUP4 PUSH2 0x139 JUMP JUMPDEST PUSH1 0x40 MLOAD SWAP7 DUP8 SWAP6 AND PUSH1 0x20 DUP7 ADD MSTORE AND PUSH1 0x40 DUP5 ADD MSTORE PUSH1 0x60 DUP1 DUP5 ADD MSTORE PUSH1 0x80 DUP4 ADD SWAP1 PUSH2 0x252 JUMP JUMPDEST SUB PUSH1 0x1F NOT DUP2 ADD DUP4 MSTORE DUP3 PUSH2 0x15A JUMP JUMPDEST PUSH1 0x40 MLOAD SWAP2 DUP3 SWAP2 DUP3 PUSH2 0x277 JUMP JUMPDEST RETURNDATASIZE ISZERO PUSH2 0x39C JUMPI RETURNDATASIZE SWAP1 PUSH2 0x382 DUP3 PUSH2 0x17D JUMP JUMPDEST SWAP2 PUSH2 0x390 PUSH1 0x40 MLOAD SWAP4 DUP5 PUSH2 0x15A JUMP JUMPDEST DUP3 MSTORE RETURNDATASIZE PUSH1 0x0 PUSH1 0x20 DUP5 ADD RETURNDATACOPY JUMP JUMPDEST PUSH1 0x60 SWAP1 JUMP JUMPDEST ISZERO PUSH2 0x3A8 JUMPI JUMP JUMPDEST PUSH1 0x64 PUSH1 0x40 MLOAD PUSH32 0x8C379A000000000000000000000000000000000000000000000000000000000 DUP2 MSTORE PUSH1 0x20 PUSH1 0x4 DUP3 ADD MSTORE PUSH1 0x15 PUSH1 0x24 DUP3 ADD MSTORE PUSH32 0x4C6F772D6C6576656C2063616C6C206661696C65640000000000000000000000 PUSH1 0x44 DUP3 ADD MSTORE REVERT JUMPDEST SWAP1 DUP2 PUSH1 0x20 SWAP2 SUB SLT PUSH2 0x1CD JUMPI MLOAD PUSH2 0x288 DUP2 PUSH2 0x211 JUMP JUMPDEST DUP1 MLOAD PUSH1 0x20 SWAP1 DUP3 ADD SWAP2 PUSH1 0x60 DUP2 DUP4 DUP6 ADD SWAP5 SUB SLT PUSH2 0x1CD JUMPI DUP2 DUP2 ADD MLOAD SWAP3 PUSH2 0x43E DUP5 PUSH2 0x206 JUMP JUMPDEST PUSH1 0x40 DUP3 ADD MLOAD SWAP2 PUSH2 0x44D DUP4 PUSH2 0x211 JUMP JUMPDEST PUSH1 0x60 DUP2 ADD MLOAD SWAP1 PUSH8 0xFFFFFFFFFFFFFFFF DUP3 GT PUSH2 0x1CD JUMPI ADD DUP2 PUSH1 0x3F DUP3 ADD SLT ISZERO PUSH2 0x1CD JUMPI DUP4 DUP2 ADD MLOAD PUSH2 0x47B DUP2 PUSH2 0x17D JUMP JUMPDEST SWAP3 PUSH2 0x489 PUSH1 0x40 MLOAD SWAP5 DUP6 PUSH2 0x15A JUMP JUMPDEST DUP2 DUP5 MSTORE PUSH1 0x40 DUP3 DUP5 ADD ADD GT PUSH2 0x1CD JUMPI PUSH2 0x4A7 SWAP2 PUSH1 0x40 DUP7 DUP6 ADD SWAP2 ADD PUSH2 0x22F JUMP JUMPDEST PUSH2 0x523 PUSH1 0xFF PUSH1 0x0 SWAP6 PUSH2 0x531 PUSH1 0x44 PUSH1 0x24 DUP7 ADD MLOAD SWAP6 ADD MLOAD SWAP5 PUSH1 0x40 MLOAD SWAP5 DUP6 SWAP2 DUP10 DUP4 ADD SWAP8 PUSH32 0x4244133900000000000000000000000000000000000000000000000000000000 DUP10 MSTORE CALLER SWAP2 PUSH1 0x24 DUP6 ADD SWAP2 PUSH1 0x40 SWAP2 SWAP5 SWAP4 PUSH1 0x60 DUP5 ADD SWAP6 PUSH20 0xFFFFFFFFFFFFFFFFFFFFFFFFFFFFFFFFFFFFFFFF SWAP3 DUP4 DUP1 SWAP3 AND DUP7 MSTORE AND PUSH1 0x20 DUP6 ADD MSTORE AND SWAP2 ADD MSTORE JUMP JUMPDEST SUB PUSH1 0x1F NOT DUP2 ADD DUP6 MSTORE DUP5 PUSH2 0x15A JUMP JUMPDEST AND ISZERO PUSH2 0x53F JUMPI JUMPDEST POP POP POP POP SWAP1 JUMP JUMPDEST SWAP4 PUSH2 0x585 SWAP4 SWAP3 DUP2 SWAP3 DUP3 PUSH20 0xFFFFFFFFFFFFFFFFFFFFFFFFFFFFFFFFFFFFFFFF PUSH2 0x59E SWAP9 MLOAD SWAP4 AND GAS CALL SWAP1 PUSH2 0x578 PUSH2 0x572 PUSH2 0x371 JUMP JUMPDEST SWAP3 PUSH2 0x3A1 JUMP JUMPDEST DUP1 DUP3 MLOAD DUP4 ADD ADD SWAP2 ADD PUSH2 0x406 JUMP JUMPDEST PUSH20 0xFFFFFFFFFFFFFFFFFFFFFFFFFFFFFFFFFFFFFFFF AND SWAP1 JUMP JUMPDEST PUSH2 0x5E3 DUP2 PUSH20 0xFFFFFFFFFFFFFFFFFFFFFFFFFFFFFFFFFFFFFFFF AND PUSH32 0xFFFFFFFFFFFFFFFFFFFFFFFF0000000000000000000000000000000000000000 PUSH1 0x1 SLOAD AND OR PUSH1 0x1 SSTORE JUMP JUMPDEST CODESIZE DUP1 DUP1 DUP1 PUSH2 0x538 JUMP INVALID LOG2 PUSH5 0x6970667358 0x22 SLT KECCAK256 GASLIMIT 0xE1 0xD3 DUP16 0xBE LOG0 0xB2 SWAP2 SSTORE EXP ORIGIN CALLDATASIZE 0xEE SWAP2 PUSH19 0x2727DED6AAA611C60884C3A3AE058FB8BE6473 PUSH16 0x6C634300081800330000000000000000 "},"methodIdentifiers":{"AF()":"518affcc","creationAddress()":"47af954d","encodeData(uint8,address,address,address)":"91c3be84","onReceive(bytes)":"17610fcf"}}}}}