{"contracts/AccountNative.sol":{"AccountNative":{"abi":[{"inputs":[{"internalType":"address","name":"_owner","type":"address"},{"internalType":"address","name":"_ccipRouter","type":"address"}],"stateMutability":"nonpayable","type":"constructor"},{"inputs":[{"internalType":"address","name":"router","type":"address"}],"name":"InvalidRouter","type":"error"},{"anonymous":false,"inputs":[{"indexed":false,"internalType":"string","name":"aquarium","type":"string"},{"indexed":false,"internalType":"string","name":"pool","type":"string"}],"name":"AddedStakedPool","type":"event"},{"inputs":[{"internalType":"uint64","name":"_destinationChainSelector","type":"uint64"},{"internalType":"address","name":"_receiver","type":"address"},{"internalType":"address","name":"AAFactory","type":"address"},{"internalType":"address","name":"AAUser","type":"address"},{"internalType":"address","name":"destinationRouter","type":"address"},{"internalType":"address","name":"paymaster","type":"address"}],"name":"AAInitializeDestination","outputs":[{"internalType":"bytes32","name":"messageId","type":"bytes32"}],"stateMutability":"nonpayable","type":"function"},{"inputs":[],"name":"ROUTER02","outputs":[{"internalType":"address","name":"","type":"address"}],"stateMutability":"view","type":"function"},{"inputs":[],"name":"WETH","outputs":[{"internalType":"address","name":"","type":"address"}],"stateMutability":"view","type":"function"},{"inputs":[{"internalType":"string","name":"newAquarium","type":"string"}],"name":"addAquarium","outputs":[],"stateMutability":"nonpayable","type":"function"},{"inputs":[{"internalType":"string","name":"aquarium","type":"string"},{"internalType":"string","name":"newFish","type":"string"}],"name":"addStakedPool","outputs":[],"stateMutability":"nonpayable","type":"function"},{"inputs":[{"components":[{"internalType":"bytes32","name":"messageId","type":"bytes32"},{"internalType":"uint64","name":"sourceChainSelector","type":"uint64"},{"internalType":"bytes","name":"sender","type":"bytes"},{"internalType":"bytes","name":"data","type":"bytes"},{"components":[{"internalType":"address","name":"token","type":"address"},{"internalType":"uint256","name":"amount","type":"uint256"}],"internalType":"struct Client.EVMTokenAmount[]","name":"destTokenAmounts","type":"tuple[]"}],"internalType":"struct Client.Any2EVMMessage","name":"message","type":"tuple"}],"name":"ccipReceive","outputs":[],"stateMutability":"nonpayable","type":"function"},{"inputs":[],"name":"creationAddress","outputs":[{"internalType":"address","name":"","type":"address"}],"stateMutability":"view","type":"function"},{"inputs":[],"name":"getAquariums","outputs":[{"internalType":"string[]","name":"","type":"string[]"}],"stateMutability":"view","type":"function"},{"inputs":[],"name":"getLastReceivedMessageDetails","outputs":[{"internalType":"bytes32","name":"messageId","type":"bytes32"},{"internalType":"string","name":"text","type":"string"},{"internalType":"bytes","name":"textBytes","type":"bytes"}],"stateMutability":"view","type":"function"},{"inputs":[],"name":"getLogicallyConnectedAccounts","outputs":[{"internalType":"address[]","name":"","type":"address[]"}],"stateMutability":"view","type":"function"},{"inputs":[],"name":"getRouter","outputs":[{"internalType":"address","name":"","type":"address"}],"stateMutability":"view","type":"function"},{"inputs":[{"internalType":"string","name":"aquarium","type":"string"}],"name":"getStakedPools","outputs":[{"internalType":"string[]","name":"","type":"string[]"}],"stateMutability":"view","type":"function"},{"inputs":[{"internalType":"uint64","name":"_destinationChainSelector","type":"uint64"},{"internalType":"address","name":"_receiverDestination","type":"address"},{"internalType":"address","name":"_SendToken","type":"address"},{"internalType":"address","name":"token1","type":"address"},{"internalType":"address","name":"token2","type":"address"},{"internalType":"address","name":"token1destination","type":"address"},{"internalType":"address","name":"token2destination","type":"address"},{"internalType":"uint256","name":"initialValue","type":"uint256"},{"internalType":"uint256","name":"deadline","type":"uint256"},{"internalType":"address","name":"paymaster","type":"address"}],"name":"incubate","outputs":[],"stateMutability":"nonpayable","type":"function"},{"inputs":[{"internalType":"uint64","name":"_destinationChainSelector","type":"uint64"},{"internalType":"address","name":"_receiver","type":"address"},{"internalType":"address","name":"token1","type":"address"},{"internalType":"address","name":"token2","type":"address"},{"internalType":"address","name":"paymaster","type":"address"}],"name":"incubateDestination","outputs":[{"internalType":"bytes32","name":"messageId","type":"bytes32"}],"stateMutability":"nonpayable","type":"function"},{"inputs":[],"name":"initAA","outputs":[],"stateMutability":"nonpayable","type":"function"},{"inputs":[{"internalType":"bytes32[2]","name":"aPublicKey","type":"bytes32[2]"}],"name":"initialize","outputs":[],"stateMutability":"nonpayable","type":"function"},{"inputs":[],"name":"initializeAquarium","outputs":[],"stateMutability":"nonpayable","type":"function"},{"inputs":[{"internalType":"bytes32","name":"message","type":"bytes32"},{"internalType":"bytes","name":"signature","type":"bytes"}],"name":"isValidSignature","outputs":[{"internalType":"bytes4","name":"magicValue","type":"bytes4"}],"stateMutability":"view","type":"function"},{"inputs":[],"name":"latestSourceMessage","outputs":[{"internalType":"bytes32","name":"","type":"bytes32"}],"stateMutability":"view","type":"function"},{"inputs":[{"internalType":"address","name":"account","type":"address"}],"name":"logicalConnect","outputs":[],"stateMutability":"nonpayable","type":"function"},{"inputs":[{"internalType":"uint256","name":"","type":"uint256"}],"name":"logicallyConnectedAccounts","outputs":[{"internalType":"address","name":"","type":"address"}],"stateMutability":"view","type":"function"},{"inputs":[],"name":"owner","outputs":[{"internalType":"address","name":"","type":"address"}],"stateMutability":"view","type":"function"},{"inputs":[],"name":"publicKey","outputs":[{"internalType":"bytes32","name":"X","type":"bytes32"},{"internalType":"bytes32","name":"Y","type":"bytes32"}],"stateMutability":"view","type":"function"},{"inputs":[],"name":"salt","outputs":[{"internalType":"uint256","name":"","type":"uint256"}],"stateMutability":"view","type":"function"},{"inputs":[{"internalType":"bytes4","name":"interfaceId","type":"bytes4"}],"name":"supportsInterface","outputs":[{"internalType":"bool","name":"","type":"bool"}],"stateMutability":"pure","type":"function"},{"inputs":[],"name":"uniswapRouter","outputs":[{"internalType":"contract IUniswapV2Router02","name":"","type":"address"}],"stateMutability":"view","type":"function"},{"inputs":[{"components":[{"internalType":"address","name":"sender","type":"address"},{"internalType":"uint256","name":"nonce","type":"uint256"},{"internalType":"bytes","name":"initCode","type":"bytes"},{"internalType":"bytes","name":"callData","type":"bytes"},{"internalType":"uint256","name":"callGasLimit","type":"uint256"},{"internalType":"uint256","name":"verificationGasLimit","type":"uint256"},{"internalType":"uint256","name":"preVerificationGas","type":"uint256"},{"internalType":"uint256","name":"maxFeePerGas","type":"uint256"},{"internalType":"uint256","name":"maxPriorityFeePerGas","type":"uint256"},{"internalType":"bytes","name":"paymasterAndData","type":"bytes"},{"internalType":"bytes","name":"signature","type":"bytes"}],"internalType":"struct UserOperation","name":"userOp","type":"tuple"},{"internalType":"bytes32","name":"userOpHash","type":"bytes32"},{"internalType":"uint256","name":"","type":"uint256"}],"name":"validateUserOp","outputs":[{"internalType":"uint256","name":"validationData","type":"uint256"}],"stateMutability":"nonpayable","type":"function"},{"stateMutability":"payable","type":"receive"}],"evm":{"bytecode":{"linkReferences":{},"object":"60a034620000bf57601f6200319638819003918201601f19168301916001600160401b03831184841017620000c4578084926040948552833981010312620000bf576200005a60206200005283620000da565b9201620000da565b6001600160a01b03919082811615620000a6576080526000600a551660018060a01b031960005416176000556040516130a69081620000f08239608051818181610fdd01526111630152f35b6040516335fdcccd60e21b815260006004820152602490fd5b600080fd5b634e487b7160e01b600052604160045260246000fd5b51906001600160a01b0382168203620000bf5756fe608080604052600436101561001d575b50361561001b57600080fd5b005b60003560e01c90816301ffc9a714611c925750806303d1ef1814611c305780631626ba7e14611bad578063263596a5146119fe57806326e4bcfb146119e057806329639df7146119c85780632d160321146119615780633a871cdd14611913578063449d193f1461187b57806347af954d1461185457806363ffab311461182f578063735de9f714611800578063740f4545146118005780637823d3f3146116bb5780637e54211f1461169f57806385572ffb146111245780638da5cb5b146110fd578063a563794a14611030578063ad5c464814611001578063b0f479a114610fbd578063bfa0b13314610f9f578063c095b5b314610f5e578063c8a10ada14610d58578063e5c01f9514610280578063e8b4a30d1461022d578063ee0e73a1146101f45763ffddc53014610153573861000f565b346101ef5760006003193601126101ef57604051806006549182815260208091019260066000527ff652222313e28459528d920b65115c16c04f3efc82aaedc97be59f3f377c0d3f916000905b8282106101cf576101cb856101b781890382611e56565b604051918291602083526020830190611fc2565b0390f35b83546001600160a01b0316865294850194600193840193909101906101a0565b600080fd5b346101ef5760206003193601126101ef5760043567ffffffffffffffff81116101ef5761022861001b913690600401611f2e565b612444565b346101ef5760406003193601126101ef5767ffffffffffffffff6004358181116101ef5761025f903690600401611f2e565b6024359182116101ef5761027a61001b923690600401611f2e565b9061249a565b346101ef576101406003193601126101ef5761029a611efb565b6102a2611d30565b906102ab611d46565b906102b4611d5c565b916102bd611d72565b926102c6611d88565b60c435946001600160a01b03861686036101ef5761012435926001600160a01b03841684036101ef5760405160008060208301927fd0e30db00000000000000000000000000000000000000000000000000000000084526004815261032a81611de6565b5173fff9976782d46cc05630d1f6ebab18b2324d6b149360e435855af161034f6122d5565b5015610d14576020602491604051928380927f70a082310000000000000000000000000000000000000000000000000000000082523060048301525afa90811561099157600091610ce2575b5060e43511610c9e576040517f70a082310000000000000000000000000000000000000000000000000000000081523060048201526020816024816001600160a01b0386165afa90811561099157600091610c6c575b5060e43511610c285760405163095ea7b360e01b815273139d70e24b8c82539800eeb99510bfb8b09eaf68600482015269021e19e0c9bab2400000602482015260208160448160006001600160a01b0387165af1801561099157610c09575b506040517fdd62ed3e00000000000000000000000000000000000000000000000000000000815230600482015273139d70e24b8c82539800eeb99510bfb8b09eaf6860248201526020816044816001600160a01b0386165afa90811561099157600091610bd7575b5060e43511610b9357604051916104ce83611e3a565b6002835260403660208501376001600160a01b0382166104ed84612305565b526104f783612312565b6001600160a01b0382169052600360e43581020460e43503610a3757600061056893604051809581927f38ed173900000000000000000000000000000000000000000000000000000000835260e43560030260021c600484015284602484015260a0604484015260a4830190611fc2565b30606483015261010435608483015203818373139d70e24b8c82539800eeb99510bfb8b09eaf685af192831561099157600093610ae3575b5060036105ac84612312565b5104906040519063095ea7b360e01b825273139d70e24b8c82539800eeb99510bfb8b09eaf68600483015269021e19e0c9bab2400000602483015260208260448160006001600160a01b0386165af1918215610991576001600160a01b0392610ac4575b5081604051947fe8e33700000000000000000000000000000000000000000000000000000000008652166004850152166024830152600360e435810260021c046044830152606482015260006084820152600060a48201523060c48201526101043560e482015260608161010481600073139d70e24b8c82539800eeb99510bfb8b09eaf685af1801561099157610a99575b5061074090600b54610a4d575b7fb9b2119c2588aabc018c67bf4ad564d7e384e06b256a7a2f87a2e9114bc0147060c060405160408152600b60408201527f6574682d7365706f6c6961000000000000000000000000000000000000000000606082015260806020820152600960808201527f555344432f57455448000000000000000000000000000000000000000000000060a0820152a1612312565b5194858060011b0460021486151715610a37576040519061076082611de6565b6001825260005b60208110610a1257506001600160a01b0390816040519661078788611de6565b169586815260038960011b0460208201526107a184612305565b526107ab83612305565b5081604051946063602087015216604085015216606083015260038660011b046080830152608082526107dd82611e1e565b6001600160a01b0360405197166020880152602087526107fc87611de6565b61081660405161080b81611e02565b622dc6c08152612733565b916040519761082489611e1e565b88526020880152604087015260006060870152608086015260405163095ea7b360e01b81526001600160a01b038216600482015260038560011b0460248201526020816044816000875af18015610991576109e3575b50604051927fb0f479a1000000000000000000000000000000000000000000000000000000008452602084600481305afa928315610991576001600160a01b039660209560009561099d575b5067ffffffffffffffff926000926109238a936040519b8c998a9889967fb344b6ea00000000000000000000000000000000000000000000000000000000885216600487015216602485015260a0604485015260a4840190612173565b90606483015260038960011b0460848301520393165af19182156109915760009261095c575b5060039060011b04600a55600355600080f35b9091506020813d602011610989575b8161097860209383611e56565b810103126101ef5751906003610949565b3d915061096b565b6040513d6000823e3d90fd5b88919550926000926109236109d067ffffffffffffffff968a3d8c116109dc575b6109c88183611e56565b810190612154565b979350509250926108c6565b503d6109be565b610a049060203d602011610a0b575b6109fc8183611e56565b8101906128e5565b508561087a565b503d6109f2565b602090604051610a2181611de6565b6000815260008382015282828601015201610767565b634e487b7160e01b600052601160045260246000fd5b610a94610a58612251565b60405190610a6582611de6565b600982527f555344432f574554480000000000000000000000000000000000000000000000602083015261249a565b6106af565b606090813d8311610abd575b610aaf8183611e56565b810103126101ef57876106a2565b503d610aa5565b610adc9060203d602011610a0b576109fc8183611e56565b508b610610565b9092503d806000833e610af68183611e56565b60208282810103126101ef5781519067ffffffffffffffff82116101ef57808301601f8385010112156101ef578183015191610b318361213c565b93610b3f6040519586611e56565b8385526020850192810160208560051b8484010101116101ef5780820160200192915b60208560051b82840101018410610b7f57505050505091896105a0565b602080809486518152019401939250610b62565b606460405162461bcd60e51b815260206004820152601660248201527f496e73756666696369656e7420616c6c6f77616e6365000000000000000000006044820152fd5b90506020813d602011610c01575b81610bf260209383611e56565b810103126101ef5751896104b8565b3d9150610be5565b610c219060203d602011610a0b576109fc8183611e56565b5088610450565b606460405162461bcd60e51b815260206004820152601b60248201527f496e73756666696369656e7420746f6b656e312062616c616e636500000000006044820152fd5b90506020813d602011610c96575b81610c8760209383611e56565b810103126101ef5751896103f1565b3d9150610c7a565b606460405162461bcd60e51b815260206004820152601960248201527f496e73756666696369656e7420574554482062616c616e6365000000000000006044820152fd5b90506020813d602011610d0c575b81610cfd60209383611e56565b810103126101ef57518961039b565b3d9150610cf0565b606460405162461bcd60e51b815260206004820152601360248201527f57455448204465706f736974206661696c6564000000000000000000000000006044820152fd5b346101ef5760a06003193601126101ef57610d71611efb565b610d79611d30565b610d81611d46565b91610d8a611d5c565b91610d93611d72565b604051610d9f81611e02565b60008152600a54908115610f1a57604051916020976001898501526001600160a01b0397888092166040860152166060840152608083015260808252610de482611e1e565b85604051941687850152868452610dfa84611de6565b610e0960405161080b81611e02565b9160405194610e1786611e1e565b8552878501526040840152600060608401526080830152604051927fb0f479a10000000000000000000000000000000000000000000000000000000084528584600481305afa801561099157610eac958795600092610efa575b5060009192604051978896879586937f6628c6e800000000000000000000000000000000000000000000000000000000855260048501612222565b0393165af190811561099157600091610ecd575b5080600355604051908152f35b90508181813d8311610ef3575b610ee48183611e56565b810103126101ef575182610ec0565b503d610eda565b60009250610f1490873d89116109dc576109c88183611e56565b91610e71565b606460405162461bcd60e51b815260206004820152601e60248201527f53656564207a65726f2c207472616e73666572207365656420666972737400006044820152fd5b346101ef5760206003193601126101ef576004356006548110156101ef576001600160a01b03610f8f602092611f75565b9190546040519260031b1c168152f35b346101ef5760006003193601126101ef576020600154604051908152f35b346101ef5760006003193601126101ef5760206040516001600160a01b037f0000000000000000000000000000000000000000000000000000000000000000168152f35b346101ef5760006003193601126101ef57602060405173fff9976782d46cc05630d1f6ebab18b2324d6b148152f35b346101ef576020806003193601126101ef5760043567ffffffffffffffff81116101ef578161106661108a923690600401611f2e565b611077611072826127b9565b61228a565b8160405193828580945193849201611d9e565b8101600c815203019020805461109f8161213c565b916110ad6040519384611e56565b8183526000908152838120938084015b8383106110d257604051806101cb8782611e79565b60018281926040516110ef816110e8818d6120a6565b0382611e56565b8152019601920191946110bd565b346101ef5760006003193601126101ef5760206001600160a01b0360005416604051908152f35b346101ef57602060031981813601126101ef5760043567ffffffffffffffff918282116101ef5760a09082360301126101ef576001600160a01b0392837f000000000000000000000000000000000000000000000000000000000000000016330361166f5760405161119581611e1e565b826004013581526024948584013585811681036101ef578383015260448401358581116101ef576111cc9060043691870101611f2e565b604083015260648401358581116101ef576111ed9060043691870101611f2e565b93606083019485526084810135908682116101ef5701366023820112156101ef5760048101359061121d8261213c565b9161122b6040519384611e56565b808352888684019160061b830101913683116101ef578901905b828210611632575050506080830152835180518101906060818684019303126101ef57848101519160ff83168093036101ef5761128460408301612770565b916060810151908982116101ef57019080603f830112156101ef57868201516112af92604001612784565b9115611587575b505050516007558151805181019082818184019303126101ef5782810151908582116101ef57019080603f830112156101ef57828201516112f992604001612784565b9182518481116115725761130e60095461206c565b93601f94858111611526575b5083908583116001146114a057611349929160009183611495575b50506000198260011b9260031b1c19161790565b6009555b51938451938411611481575061136460085461206c565b82811161142b575b50809183116001146113aa5750819061139a9360009261139f5750506000198260011b9260031b1c19161790565b600855005b015190508380611335565b90601f1983169360086000527ff3f7a9fe364faab93b216da50a3214154f22a0a2b415b23a84c8169e8b636ee3926000905b86821061141357505083600195106113fa575b505050811b01600855005b015160001960f88460031b161c191690558280806113ef565b806001859682949686015181550195019301906113dc565b6114729060086000527ff3f7a9fe364faab93b216da50a3214154f22a0a2b415b23a84c8169e8b636ee38480870160051c820192858810611478575b0160051c0190612322565b8461136c565b92508192611467565b634e487b7160e01b60005260416004526000fd5b015190508880611335565b90601f1983169160096000527f6e1540171b6c0c960b71a7020d9f60077f6af931a8bbf590da0223dacf75c7af9260005b878282106115105750509084600195949392106114f7575b505050811b0160095561134d565b015160001960f88460031b161c191690558780806114e9565b60018596829396860151815501950193016114d1565b61156c9060096000527f6e1540171b6c0c960b71a7020d9f60077f6af931a8bbf590da0223dacf75c7af8780860160051c820192888710611478570160051c0190612322565b8761131a565b85634e487b7160e01b60005260416004526000fd5b8160009291838588829551940192165af16115a06122d5565b90156115ef5783818051810103126101ef57836115bd9101612770565b167fffffffffffffffffffffffff000000000000000000000000000000000000000060025416176002558580806112b6565b6064846015896040519262461bcd60e51b845260048401528201527f4c6f772d6c6576656c2063616c6c206661696c656400000000000000000000006044820152fd5b6040823603126101ef576040519061164982611de6565b82359086821682036101ef57828992604094528285013583820152815201910190611245565b60246040517fd7f73334000000000000000000000000000000000000000000000000000000008152336004820152fd5b346101ef5760006003193601126101ef5761001b610228612251565b346101ef5760c06003193601126101ef576116d4611efb565b6116dc611d30565b906116e5611d46565b906116ee611d5c565b926116f7611d72565b92611700611d88565b9060405161170d81611e02565b600081526040516020977f133572ba00000000000000000000000000000000000000000000000000000000898301526001600160a01b039788809216602484015216604482015260448152608081019281841067ffffffffffffffff8511176117ea57610de491887fffffffffffffffffffffffffffffffffffffffffffffffffffffffffffffff809286604052600060a08401521660c0820152606060e08201526117bd610100820182611dc1565b037fffffffffffffffffffffffffffffffffffffffffffffffffffffffffffffff60810185520183611e56565b634e487b7160e01b600052604160045260246000fd5b346101ef5760006003193601126101ef57602060405173139d70e24b8c82539800eeb99510bfb8b09eaf688152f35b346101ef5760006003193601126101ef57604060045460055482519182526020820152f35b346101ef5760006003193601126101ef5760206001600160a01b0360025416604051908152f35b346101ef5760006003193601126101ef57600b546118988161213c565b6118a56040519182611e56565b81815260209160208201600b6000527f0175b7a638427703f0dbe7bb9bbf987a2551717b34e79f33b5b1008d1fa01db9936000915b8383106118ef57604051806101cb8782611e79565b6001828192604051611905816110e8818d6120a6565b8152019601920191946118da565b346101ef576003196060813601126101ef576004359067ffffffffffffffff82116101ef576101609082360301126101ef5761195590602435906004016125f5565b50602060405160008152f35b346101ef5760406003193601126101ef5736602312156101ef5760405161198781611de6565b6044813682116101ef576004905b8282106119b8578360208151910151906119b0604051611de6565b600455600555005b8135815260209182019101611995565b346101ef5760006003193601126101ef576000600155005b346101ef5760006003193601126101ef576020600354604051908152f35b346101ef5760006003193601126101ef5760075460405160009160095491611a258361206c565b808252816020958692600196600181169081600014611b8f5750600114611b33575b50611a5492500382611e56565b604051906000938560085491611a698361206c565b8086529260018116908115611b165750600114611abc575b50846101cb85611aae86611a97838c0384611e56565b606060405196879687528601526060850190611dc1565b908382036040850152611dc1565b9190955060086000527ff3f7a9fe364faab93b216da50a3214154f22a0a2b415b23a84c8169e8b636ee3916000925b828410611b0357505050820190930192808583611a81565b8054868501890152928701928101611aeb565b60ff191683870152505090151560051b8301019350808583611a81565b600960009081529150867f6e1540171b6c0c960b71a7020d9f60077f6af931a8bbf590da0223dacf75c7af5b828410611b785750505091611a54928201018692611a47565b805487850187015286945092850192889101611b5f565b60ff19168486015250879390151560051b8301019050611a54611a47565b346101ef5760406003193601126101ef5767ffffffffffffffff6024358181116101ef57366023820112156101ef5780600401359182116101ef5736602483830101116101ef576020916024611c069201600435611fff565b7fffffffff0000000000000000000000000000000000000000000000000000000060405191168152f35b346101ef5760206003193601126101ef576004356001600160a01b03908181168091036101ef57600654680100000000000000008110156117ea57806001611c7b9201600655611f75565b909283549160031b92831b921b1916179055600080f35b346101ef5760206003193601126101ef57600435907fffffffff0000000000000000000000000000000000000000000000000000000082168092036101ef57817f85572ffb0000000000000000000000000000000000000000000000000000000060209314908115611d06575b5015158152f35b7f01ffc9a70000000000000000000000000000000000000000000000000000000091501483611cff565b602435906001600160a01b03821682036101ef57565b604435906001600160a01b03821682036101ef57565b606435906001600160a01b03821682036101ef57565b608435906001600160a01b03821682036101ef57565b60a435906001600160a01b03821682036101ef57565b60005b838110611db15750506000910152565b8181015183820152602001611da1565b90601f19601f602093611ddf81518092818752878088019101611d9e565b0116010190565b6040810190811067ffffffffffffffff8211176117ea57604052565b6020810190811067ffffffffffffffff8211176117ea57604052565b60a0810190811067ffffffffffffffff8211176117ea57604052565b6060810190811067ffffffffffffffff8211176117ea57604052565b90601f601f19910116810190811067ffffffffffffffff8211176117ea57604052565b6020808201906020835283518092526040830192602060408460051b8301019501936000915b848310611eaf5750505050505090565b9091929394958480611eeb837fffffffffffffffffffffffffffffffffffffffffffffffffffffffffffffffc086600196030187528a51611dc1565b9801930193019194939290611e9f565b6004359067ffffffffffffffff821682036101ef57565b67ffffffffffffffff81116117ea57601f01601f191660200190565b81601f820112156101ef57803590611f4582611f12565b92611f536040519485611e56565b828452602083830101116101ef57816000926020809301838601378301015290565b600654811015611fac5760066000527ff652222313e28459528d920b65115c16c04f3efc82aaedc97be59f3f377c0d3f0190600090565b634e487b7160e01b600052603260045260246000fd5b90815180825260208080930193019160005b828110611fe2575050505090565b83516001600160a01b031685529381019392810192600101611fd4565b9061202092916040519060208201526020815261201b81611de6565b6124ea565b612048577fffffffff0000000000000000000000000000000000000000000000000000000090565b7f1626ba7e0000000000000000000000000000000000000000000000000000000090565b90600182811c9216801561209c575b602083101461208657565b634e487b7160e01b600052602260045260246000fd5b91607f169161207b565b8054600093926120b58261206c565b9182825260209360019160018116908160001461211d57506001146120dc575b5050505050565b90939495506000929192528360002092846000945b838610612109575050505001019038808080806120d5565b8054858701830152940193859082016120f1565b60ff19168685015250505090151560051b0101915038808080806120d5565b67ffffffffffffffff81116117ea5760051b60200190565b908160209103126101ef57516001600160a01b03811681036101ef5790565b9190612188835160a0835260a0830190611dc1565b9061219f6020928386015183820385850152611dc1565b60409060408601519383820360408501528080865193848152019501926000905b8382106121f95750505050506080846001600160a01b0360606121f6969701511660608401520151906080818403910152611dc1565b90565b845180516001600160a01b031688528301518784015295860195938201936001909101906121c0565b6001600160a01b036121f6949367ffffffffffffffff6060941683521660208201528160408201520190612173565b6040519061225e82611de6565b600b82527f6574682d7365706f6c69610000000000000000000000000000000000000000006020830152565b1561229157565b606460405162461bcd60e51b815260206004820152601860248201527f417175617269756d20646f6573206e6f742065786973742e00000000000000006044820152fd5b3d15612300573d906122e682611f12565b916122f46040519384611e56565b82523d6000602084013e565b606090565b805115611fac5760200190565b805160011015611fac5760400190565b81811061232d575050565b60008155600101612322565b919091825167ffffffffffffffff81116117ea57612357825461206c565b601f8111612407575b50602080601f83116001146123a2575081906123939394956000926123975750506000198260011b9260031b1c19161790565b9055565b015190503880611335565b90601f19831695846000526020600020926000905b8882106123ef575050836001959697106123d6575b505050811b019055565b015160001960f88460031b161c191690553880806123cc565b806001859682949686015181550195019301906123b7565b61243490836000526020600020601f840160051c8101916020851061243a575b601f0160051c0190612322565b38612360565b9091508190612427565b600b5490680100000000000000008210156117ea576001820180600b55821015611fac5761249891600b6000527f0175b7a638427703f0dbe7bb9bbf987a2551717b34e79f33b5b1008d1fa01db901612339565b565b60206124ac91611077611072826127b9565b8101600c815203019020908154680100000000000000008110156117ea5760018101808455811015611fac5761249892600052602060002001612339565b90918201916020818403126101ef57803567ffffffffffffffff918282116101ef57019060c0828503126101ef576040519060c08201828110828211176117ea5760405282358181116101ef5785612543918501611f2e565b825260208301359081116101ef576121f694612560918401611f2e565b91826020830152604081013580604084015260608201359081606085015260a06080840135938460808701520135938460a08201525194600454956005549761290e565b9035907fffffffffffffffffffffffffffffffffffffffffffffffffffffffffffffffe1813603018212156101ef570180359067ffffffffffffffff82116101ef576020019181360383136101ef57565b6000929161014082019161260983826125a4565b809291501561270a5761261c84826125a4565b1561271f57359160018360f81c146000146127145760071161270a5761264284826125a4565b60079591951161270657612655916125a4565b9290958360071161270357507fffffffffffff000000000000000000000000000000000000000000000000000060017ffffffffffffffffffffffffffffffffffffffffffffffffffffffffffffffff960076126f59899019501957fff0000000000000000000000000000000000000000000000000000000000000060405195166020860152013516602183015260278201526027815261201b81611e3a565b6126fe57600190565b600090565b80fd5b8680fd5b5060019450505050565b506001955050505050565b602487634e487b7160e01b81526032600452fd5b604051907f97a657c9000000000000000000000000000000000000000000000000000000006020830152516024820152602481526121f681611e3a565b51906001600160a01b03821682036101ef57565b9092919261279181611f12565b9161279f6040519384611e56565b8294828452828201116101ef576020612498930190611d9e565b600090600b8054925b8381106127d25750505050600090565b81600052807f0175b7a638427703f0dbe7bb9bbf987a2551717b34e79f33b5b1008d1fa01db9016040805160209081810190600094818154966128148861206c565b92600198878a821691826000146128c8575050600114612887575b50612843925003601f198101835282611e56565b519020915161286e8282019282816128618b87815193849201611d9e565b8101038084520182611e56565b5190201461287f57506001016127c2565b935050505090565b915050600052818480600020886000915b8583106128af57505050612843928201013861282f565b8091929450548385880101520191018590888593612898565b60ff191688526128439580151502850101925038915061282f9050565b908160209103126101ef575180151581036101ef5790565b908151811015611fac570160200190565b9793959496929190918251986020998a8110908115612d78575b50612d695761296e604098848c7f2274797065223a22776562617574686e2e6765742200000000000000000000008c519161296283611de6565b60158352820152612e52565b15612d695761297c90612edb565b60008151600281119081612d07575b5015612c76575060025b8151908103908111610a37578a9291818a6129b08794611f12565b916129bd82519384611e56565b8083526129c981611f12565b93601f19888501950136863760005b828110612b9957505050612a61957f226368616c6c656e6765223a220000000000000000000000000000000000000093612a26612a5c94602e9451968794850152518092602d850190611d9e565b81017f2200000000000000000000000000000000000000000000000000000000000000602d82015203600e810184520182611e56565b612e52565b15612b8c576000612a7f899283895192828480945193849201611d9e565b8101039060025afa15612b81576000612ad588928251612ac5898051809388612ab18184019788815193849201611d9e565b820190898201520387810184520182611e56565b8851928392839251928391611d9e565b8101039060025afa15612b765760005192845195878701948552858701526060860152608085015260a084015260a0835260c083019280841067ffffffffffffffff8511176117ea5760009384935251907394474db941cb2d89f3dbd946aaec40054c30a9cd5afa90612b466122d5565b9115612b605780828051810103126101ef57015160011490565b634e487b7160e01b600052600160045260246000fd5b83513d6000823e3d90fd5b84513d6000823e3d90fd5b5050505050505050600090565b9194969750929450600191507fff000000000000000000000000000000000000000000000000000000000000007f2b0000000000000000000000000000000000000000000000000000000000000081612bf284876128fd565b511603612c175750602d612c0682876128fd565b535b018d9594928794928d926129d8565b7f2f0000000000000000000000000000000000000000000000000000000000000081612c4384876128fd565b511603612c5d5750605f612c5782876128fd565b53612c08565b612c6782856128fd565b511660001a612c5782876128fd565b8151600181119081612c91575b501561299557506001612995565b600019810191508111612cf3577fff00000000000000000000000000000000000000000000000000000000000000612cea7f3d0000000000000000000000000000000000000000000000000000000000000092856128fd565b51161438612c83565b602482634e487b7160e01b81526011600452fd5b600119810191508111612cf3577fff00000000000000000000000000000000000000000000000000000000000000612d607f3d0000000000000000000000000000000000000000000000000000000000000092856128fd565b5116143861298b565b50505050505050505050600090565b90508a1015611fac57612db07fff00000000000000000000000000000000000000000000000000000000000000604086015116612db7565b1538612928565b7f010000000000000000000000000000000000000000000000000000000000000080821603612e3f577f080000000000000000000000000000000000000000000000000000000000000080821603612e10575b50600190565b7f1000000000000000000000000000000000000000000000000000000000000000809116146126fe5738612e0a565b50600090565b91908201809211610a3757565b9190825192815160005b858110612e6e57505050505050600190565b81612e798287612e45565b1015612ed0577fff0000000000000000000000000000000000000000000000000000000000000080612eab83866128fd565b511690612ec1612ebb8489612e45565b876128fd565b511603612ed057600101612e5c565b505050505050600090565b9081511561305b5760405191612ef083611e3a565b604083527f4142434445464748494a4b4c4d4e4f505152535455565758595a61626364656660208401527f6768696a6b6c6d6e6f707172737475767778797a303132333435363738392b2f604084015280519260029160028501809511610a37576003809504928360021b937f3fffffffffffffffffffffffffffffffffffffffffffffffffffffffffffffff811603610a375794612fa7612f9185611f12565b94612f9f6040519687611e56565b808652611f12565b601f1960208601910136823792829183518401976020890192835194600085525b8a811061300e57505050506003939495965052510680600114612ffb57600214612ff0575090565b600019603d91015390565b5060011981603d60001981940153015390565b836004919b989b019a8b51600190603f9082828260121c16870101518453828282600c1c16870101518385015382828260061c168701015187850153168401015185820153019699612fc8565b905060405161306981611e02565b600081529056fea2646970667358221220a12bfd0ba0979f737bdbf92fee2d88649a5ed5ca73f6a37a82b29d4b84e5cffe64736f6c63430008180033","opcodes":"PUSH1 0xA0 CALLVALUE PUSH3 0xBF JUMPI PUSH1 0x1F PUSH3 0x3196 CODESIZE DUP2 SWAP1 SUB SWAP2 DUP3 ADD PUSH1 0x1F NOT AND DUP4 ADD SWAP2 PUSH1 0x1 PUSH1 0x1 PUSH1 0x40 SHL SUB DUP4 GT DUP5 DUP5 LT OR PUSH3 0xC4 JUMPI DUP1 DUP5 SWAP3 PUSH1 0x40 SWAP5 DUP6 MSTORE DUP4 CODECOPY DUP2 ADD SUB SLT PUSH3 0xBF JUMPI PUSH3 0x5A PUSH1 0x20 PUSH3 0x52 DUP4 PUSH3 0xDA JUMP JUMPDEST SWAP3 ADD PUSH3 0xDA JUMP JUMPDEST PUSH1 0x1 PUSH1 0x1 PUSH1 0xA0 SHL SUB SWAP2 SWAP1 DUP3 DUP2 AND ISZERO PUSH3 0xA6 JUMPI PUSH1 0x80 MSTORE PUSH1 0x0 PUSH1 0xA SSTORE AND PUSH1 0x1 DUP1 PUSH1 0xA0 SHL SUB NOT PUSH1 0x0 SLOAD AND OR PUSH1 0x0 SSTORE PUSH1 0x40 MLOAD PUSH2 0x30A6 SWAP1 DUP2 PUSH3 0xF0 DUP3 CODECOPY PUSH1 0x80 MLOAD DUP2 DUP2 DUP2 PUSH2 0xFDD ADD MSTORE PUSH2 0x1163 ADD MSTORE RETURN JUMPDEST PUSH1 0x40 MLOAD PUSH4 0x35FDCCCD PUSH1 0xE2 SHL DUP2 MSTORE PUSH1 0x0 PUSH1 0x4 DUP3 ADD MSTORE PUSH1 0x24 SWAP1 REVERT JUMPDEST PUSH1 0x0 DUP1 REVERT JUMPDEST PUSH4 0x4E487B71 PUSH1 0xE0 SHL PUSH1 0x0 MSTORE PUSH1 0x41 PUSH1 0x4 MSTORE PUSH1 0x24 PUSH1 0x0 REVERT JUMPDEST MLOAD SWAP1 PUSH1 0x1 PUSH1 0x1 PUSH1 0xA0 SHL SUB DUP3 AND DUP3 SUB PUSH3 0xBF JUMPI JUMP INVALID PUSH1 0x80 DUP1 PUSH1 0x40 MSTORE PUSH1 0x4 CALLDATASIZE LT ISZERO PUSH2 0x1D JUMPI JUMPDEST POP CALLDATASIZE ISZERO PUSH2 0x1B JUMPI PUSH1 0x0 DUP1 REVERT JUMPDEST STOP JUMPDEST PUSH1 0x0 CALLDATALOAD PUSH1 0xE0 SHR SWAP1 DUP2 PUSH4 0x1FFC9A7 EQ PUSH2 0x1C92 JUMPI POP DUP1 PUSH4 0x3D1EF18 EQ PUSH2 0x1C30 JUMPI DUP1 PUSH4 0x1626BA7E EQ PUSH2 0x1BAD JUMPI DUP1 PUSH4 0x263596A5 EQ PUSH2 0x19FE JUMPI DUP1 PUSH4 0x26E4BCFB EQ PUSH2 0x19E0 JUMPI DUP1 PUSH4 0x29639DF7 EQ PUSH2 0x19C8 JUMPI DUP1 PUSH4 0x2D160321 EQ PUSH2 0x1961 JUMPI DUP1 PUSH4 0x3A871CDD EQ PUSH2 0x1913 JUMPI DUP1 PUSH4 0x449D193F EQ PUSH2 0x187B JUMPI DUP1 PUSH4 0x47AF954D EQ PUSH2 0x1854 JUMPI DUP1 PUSH4 0x63FFAB31 EQ PUSH2 0x182F JUMPI DUP1 PUSH4 0x735DE9F7 EQ PUSH2 0x1800 JUMPI DUP1 PUSH4 0x740F4545 EQ PUSH2 0x1800 JUMPI DUP1 PUSH4 0x7823D3F3 EQ PUSH2 0x16BB JUMPI DUP1 PUSH4 0x7E54211F EQ PUSH2 0x169F JUMPI DUP1 PUSH4 0x85572FFB EQ PUSH2 0x1124 JUMPI DUP1 PUSH4 0x8DA5CB5B EQ PUSH2 0x10FD JUMPI DUP1 PUSH4 0xA563794A EQ PUSH2 0x1030 JUMPI DUP1 PUSH4 0xAD5C4648 EQ PUSH2 0x1001 JUMPI DUP1 PUSH4 0xB0F479A1 EQ PUSH2 0xFBD JUMPI DUP1 PUSH4 0xBFA0B133 EQ PUSH2 0xF9F JUMPI DUP1 PUSH4 0xC095B5B3 EQ PUSH2 0xF5E JUMPI DUP1 PUSH4 0xC8A10ADA EQ PUSH2 0xD58 JUMPI DUP1 PUSH4 0xE5C01F95 EQ PUSH2 0x280 JUMPI DUP1 PUSH4 0xE8B4A30D EQ PUSH2 0x22D JUMPI DUP1 PUSH4 0xEE0E73A1 EQ PUSH2 0x1F4 JUMPI PUSH4 0xFFDDC530 EQ PUSH2 0x153 JUMPI CODESIZE PUSH2 0xF JUMP JUMPDEST CALLVALUE PUSH2 0x1EF JUMPI PUSH1 0x0 PUSH1 0x3 NOT CALLDATASIZE ADD SLT PUSH2 0x1EF JUMPI PUSH1 0x40 MLOAD DUP1 PUSH1 0x6 SLOAD SWAP2 DUP3 DUP2 MSTORE PUSH1 0x20 DUP1 SWAP2 ADD SWAP3 PUSH1 0x6 PUSH1 0x0 MSTORE PUSH32 0xF652222313E28459528D920B65115C16C04F3EFC82AAEDC97BE59F3F377C0D3F SWAP2 PUSH1 0x0 SWAP1 JUMPDEST DUP3 DUP3 LT PUSH2 0x1CF JUMPI PUSH2 0x1CB DUP6 PUSH2 0x1B7 DUP2 DUP10 SUB DUP3 PUSH2 0x1E56 JUMP JUMPDEST PUSH1 0x40 MLOAD SWAP2 DUP3 SWAP2 PUSH1 0x20 DUP4 MSTORE PUSH1 0x20 DUP4 ADD SWAP1 PUSH2 0x1FC2 JUMP JUMPDEST SUB SWAP1 RETURN JUMPDEST DUP4 SLOAD PUSH1 0x1 PUSH1 0x1 PUSH1 0xA0 SHL SUB AND DUP7 MSTORE SWAP5 DUP6 ADD SWAP5 PUSH1 0x1 SWAP4 DUP5 ADD SWAP4 SWAP1 SWAP2 ADD SWAP1 PUSH2 0x1A0 JUMP JUMPDEST PUSH1 0x0 DUP1 REVERT JUMPDEST CALLVALUE PUSH2 0x1EF JUMPI PUSH1 0x20 PUSH1 0x3 NOT CALLDATASIZE ADD SLT PUSH2 0x1EF JUMPI PUSH1 0x4 CALLDATALOAD PUSH8 0xFFFFFFFFFFFFFFFF DUP2 GT PUSH2 0x1EF JUMPI PUSH2 0x228 PUSH2 0x1B SWAP2 CALLDATASIZE SWAP1 PUSH1 0x4 ADD PUSH2 0x1F2E JUMP JUMPDEST PUSH2 0x2444 JUMP JUMPDEST CALLVALUE PUSH2 0x1EF JUMPI PUSH1 0x40 PUSH1 0x3 NOT CALLDATASIZE ADD SLT PUSH2 0x1EF JUMPI PUSH8 0xFFFFFFFFFFFFFFFF PUSH1 0x4 CALLDATALOAD DUP2 DUP2 GT PUSH2 0x1EF JUMPI PUSH2 0x25F SWAP1 CALLDATASIZE SWAP1 PUSH1 0x4 ADD PUSH2 0x1F2E JUMP JUMPDEST PUSH1 0x24 CALLDATALOAD SWAP2 DUP3 GT PUSH2 0x1EF JUMPI PUSH2 0x27A PUSH2 0x1B SWAP3 CALLDATASIZE SWAP1 PUSH1 0x4 ADD PUSH2 0x1F2E JUMP JUMPDEST SWAP1 PUSH2 0x249A JUMP JUMPDEST CALLVALUE PUSH2 0x1EF JUMPI PUSH2 0x140 PUSH1 0x3 NOT CALLDATASIZE ADD SLT PUSH2 0x1EF JUMPI PUSH2 0x29A PUSH2 0x1EFB JUMP JUMPDEST PUSH2 0x2A2 PUSH2 0x1D30 JUMP JUMPDEST SWAP1 PUSH2 0x2AB PUSH2 0x1D46 JUMP JUMPDEST SWAP1 PUSH2 0x2B4 PUSH2 0x1D5C JUMP JUMPDEST SWAP2 PUSH2 0x2BD PUSH2 0x1D72 JUMP JUMPDEST SWAP3 PUSH2 0x2C6 PUSH2 0x1D88 JUMP JUMPDEST PUSH1 0xC4 CALLDATALOAD SWAP5 PUSH1 0x1 PUSH1 0x1 PUSH1 0xA0 SHL SUB DUP7 AND DUP7 SUB PUSH2 0x1EF JUMPI PUSH2 0x124 CALLDATALOAD SWAP3 PUSH1 0x1 PUSH1 0x1 PUSH1 0xA0 SHL SUB DUP5 AND DUP5 SUB PUSH2 0x1EF JUMPI PUSH1 0x40 MLOAD PUSH1 0x0 DUP1 PUSH1 0x20 DUP4 ADD SWAP3 PUSH32 0xD0E30DB000000000000000000000000000000000000000000000000000000000 DUP5 MSTORE PUSH1 0x4 DUP2 MSTORE PUSH2 0x32A DUP2 PUSH2 0x1DE6 JUMP JUMPDEST MLOAD PUSH20 0xFFF9976782D46CC05630D1F6EBAB18B2324D6B14 SWAP4 PUSH1 0xE4 CALLDATALOAD DUP6 GAS CALL PUSH2 0x34F PUSH2 0x22D5 JUMP JUMPDEST POP ISZERO PUSH2 0xD14 JUMPI PUSH1 0x20 PUSH1 0x24 SWAP2 PUSH1 0x40 MLOAD SWAP3 DUP4 DUP1 SWAP3 PUSH32 0x70A0823100000000000000000000000000000000000000000000000000000000 DUP3 MSTORE ADDRESS PUSH1 0x4 DUP4 ADD MSTORE GAS STATICCALL SWAP1 DUP2 ISZERO PUSH2 0x991 JUMPI PUSH1 0x0 SWAP2 PUSH2 0xCE2 JUMPI JUMPDEST POP PUSH1 0xE4 CALLDATALOAD GT PUSH2 0xC9E JUMPI PUSH1 0x40 MLOAD PUSH32 0x70A0823100000000000000000000000000000000000000000000000000000000 DUP2 MSTORE ADDRESS PUSH1 0x4 DUP3 ADD MSTORE PUSH1 0x20 DUP2 PUSH1 0x24 DUP2 PUSH1 0x1 PUSH1 0x1 PUSH1 0xA0 SHL SUB DUP7 AND GAS STATICCALL SWAP1 DUP2 ISZERO PUSH2 0x991 JUMPI PUSH1 0x0 SWAP2 PUSH2 0xC6C JUMPI JUMPDEST POP PUSH1 0xE4 CALLDATALOAD GT PUSH2 0xC28 JUMPI PUSH1 0x40 MLOAD PUSH4 0x95EA7B3 PUSH1 0xE0 SHL DUP2 MSTORE PUSH20 0x139D70E24B8C82539800EEB99510BFB8B09EAF68 PUSH1 0x4 DUP3 ADD MSTORE PUSH10 0x21E19E0C9BAB2400000 PUSH1 0x24 DUP3 ADD MSTORE PUSH1 0x20 DUP2 PUSH1 0x44 DUP2 PUSH1 0x0 PUSH1 0x1 PUSH1 0x1 PUSH1 0xA0 SHL SUB DUP8 AND GAS CALL DUP1 ISZERO PUSH2 0x991 JUMPI PUSH2 0xC09 JUMPI JUMPDEST POP PUSH1 0x40 MLOAD PUSH32 0xDD62ED3E00000000000000000000000000000000000000000000000000000000 DUP2 MSTORE ADDRESS PUSH1 0x4 DUP3 ADD MSTORE PUSH20 0x139D70E24B8C82539800EEB99510BFB8B09EAF68 PUSH1 0x24 DUP3 ADD MSTORE PUSH1 0x20 DUP2 PUSH1 0x44 DUP2 PUSH1 0x1 PUSH1 0x1 PUSH1 0xA0 SHL SUB DUP7 AND GAS STATICCALL SWAP1 DUP2 ISZERO PUSH2 0x991 JUMPI PUSH1 0x0 SWAP2 PUSH2 0xBD7 JUMPI JUMPDEST POP PUSH1 0xE4 CALLDATALOAD GT PUSH2 0xB93 JUMPI PUSH1 0x40 MLOAD SWAP2 PUSH2 0x4CE DUP4 PUSH2 0x1E3A JUMP JUMPDEST PUSH1 0x2 DUP4 MSTORE PUSH1 0x40 CALLDATASIZE PUSH1 0x20 DUP6 ADD CALLDATACOPY PUSH1 0x1 PUSH1 0x1 PUSH1 0xA0 SHL SUB DUP3 AND PUSH2 0x4ED DUP5 PUSH2 0x2305 JUMP JUMPDEST MSTORE PUSH2 0x4F7 DUP4 PUSH2 0x2312 JUMP JUMPDEST PUSH1 0x1 PUSH1 0x1 PUSH1 0xA0 SHL SUB DUP3 AND SWAP1 MSTORE PUSH1 0x3 PUSH1 0xE4 CALLDATALOAD DUP2 MUL DIV PUSH1 0xE4 CALLDATALOAD SUB PUSH2 0xA37 JUMPI PUSH1 0x0 PUSH2 0x568 SWAP4 PUSH1 0x40 MLOAD DUP1 SWAP6 DUP2 SWAP3 PUSH32 0x38ED173900000000000000000000000000000000000000000000000000000000 DUP4 MSTORE PUSH1 0xE4 CALLDATALOAD PUSH1 0x3 MUL PUSH1 0x2 SHR PUSH1 0x4 DUP5 ADD MSTORE DUP5 PUSH1 0x24 DUP5 ADD MSTORE PUSH1 0xA0 PUSH1 0x44 DUP5 ADD MSTORE PUSH1 0xA4 DUP4 ADD SWAP1 PUSH2 0x1FC2 JUMP JUMPDEST ADDRESS PUSH1 0x64 DUP4 ADD MSTORE PUSH2 0x104 CALLDATALOAD PUSH1 0x84 DUP4 ADD MSTORE SUB DUP2 DUP4 PUSH20 0x139D70E24B8C82539800EEB99510BFB8B09EAF68 GAS CALL SWAP3 DUP4 ISZERO PUSH2 0x991 JUMPI PUSH1 0x0 SWAP4 PUSH2 0xAE3 JUMPI JUMPDEST POP PUSH1 0x3 PUSH2 0x5AC DUP5 PUSH2 0x2312 JUMP JUMPDEST MLOAD DIV SWAP1 PUSH1 0x40 MLOAD SWAP1 PUSH4 0x95EA7B3 PUSH1 0xE0 SHL DUP3 MSTORE PUSH20 0x139D70E24B8C82539800EEB99510BFB8B09EAF68 PUSH1 0x4 DUP4 ADD MSTORE PUSH10 0x21E19E0C9BAB2400000 PUSH1 0x24 DUP4 ADD MSTORE PUSH1 0x20 DUP3 PUSH1 0x44 DUP2 PUSH1 0x0 PUSH1 0x1 PUSH1 0x1 PUSH1 0xA0 SHL SUB DUP7 AND GAS CALL SWAP2 DUP3 ISZERO PUSH2 0x991 JUMPI PUSH1 0x1 PUSH1 0x1 PUSH1 0xA0 SHL SUB SWAP3 PUSH2 0xAC4 JUMPI JUMPDEST POP DUP2 PUSH1 0x40 MLOAD SWAP5 PUSH32 0xE8E3370000000000000000000000000000000000000000000000000000000000 DUP7 MSTORE AND PUSH1 0x4 DUP6 ADD MSTORE AND PUSH1 0x24 DUP4 ADD MSTORE PUSH1 0x3 PUSH1 0xE4 CALLDATALOAD DUP2 MUL PUSH1 0x2 SHR DIV PUSH1 0x44 DUP4 ADD MSTORE PUSH1 0x64 DUP3 ADD MSTORE PUSH1 0x0 PUSH1 0x84 DUP3 ADD MSTORE PUSH1 0x0 PUSH1 0xA4 DUP3 ADD MSTORE ADDRESS PUSH1 0xC4 DUP3 ADD MSTORE PUSH2 0x104 CALLDATALOAD PUSH1 0xE4 DUP3 ADD MSTORE PUSH1 0x60 DUP2 PUSH2 0x104 DUP2 PUSH1 0x0 PUSH20 0x139D70E24B8C82539800EEB99510BFB8B09EAF68 GAS CALL DUP1 ISZERO PUSH2 0x991 JUMPI PUSH2 0xA99 JUMPI JUMPDEST POP PUSH2 0x740 SWAP1 PUSH1 0xB SLOAD PUSH2 0xA4D JUMPI JUMPDEST PUSH32 0xB9B2119C2588AABC018C67BF4AD564D7E384E06B256A7A2F87A2E9114BC01470 PUSH1 0xC0 PUSH1 0x40 MLOAD PUSH1 0x40 DUP2 MSTORE PUSH1 0xB PUSH1 0x40 DUP3 ADD MSTORE PUSH32 0x6574682D7365706F6C6961000000000000000000000000000000000000000000 PUSH1 0x60 DUP3 ADD MSTORE PUSH1 0x80 PUSH1 0x20 DUP3 ADD MSTORE PUSH1 0x9 PUSH1 0x80 DUP3 ADD MSTORE PUSH32 0x555344432F574554480000000000000000000000000000000000000000000000 PUSH1 0xA0 DUP3 ADD MSTORE LOG1 PUSH2 0x2312 JUMP JUMPDEST MLOAD SWAP5 DUP6 DUP1 PUSH1 0x1 SHL DIV PUSH1 0x2 EQ DUP7 ISZERO OR ISZERO PUSH2 0xA37 JUMPI PUSH1 0x40 MLOAD SWAP1 PUSH2 0x760 DUP3 PUSH2 0x1DE6 JUMP JUMPDEST PUSH1 0x1 DUP3 MSTORE PUSH1 0x0 JUMPDEST PUSH1 0x20 DUP2 LT PUSH2 0xA12 JUMPI POP PUSH1 0x1 PUSH1 0x1 PUSH1 0xA0 SHL SUB SWAP1 DUP2 PUSH1 0x40 MLOAD SWAP7 PUSH2 0x787 DUP9 PUSH2 0x1DE6 JUMP JUMPDEST AND SWAP6 DUP7 DUP2 MSTORE PUSH1 0x3 DUP10 PUSH1 0x1 SHL DIV PUSH1 0x20 DUP3 ADD MSTORE PUSH2 0x7A1 DUP5 PUSH2 0x2305 JUMP JUMPDEST MSTORE PUSH2 0x7AB DUP4 PUSH2 0x2305 JUMP JUMPDEST POP DUP2 PUSH1 0x40 MLOAD SWAP5 PUSH1 0x63 PUSH1 0x20 DUP8 ADD MSTORE AND PUSH1 0x40 DUP6 ADD MSTORE AND PUSH1 0x60 DUP4 ADD MSTORE PUSH1 0x3 DUP7 PUSH1 0x1 SHL DIV PUSH1 0x80 DUP4 ADD MSTORE PUSH1 0x80 DUP3 MSTORE PUSH2 0x7DD DUP3 PUSH2 0x1E1E JUMP JUMPDEST PUSH1 0x1 PUSH1 0x1 PUSH1 0xA0 SHL SUB PUSH1 0x40 MLOAD SWAP8 AND PUSH1 0x20 DUP9 ADD MSTORE PUSH1 0x20 DUP8 MSTORE PUSH2 0x7FC DUP8 PUSH2 0x1DE6 JUMP JUMPDEST PUSH2 0x816 PUSH1 0x40 MLOAD PUSH2 0x80B DUP2 PUSH2 0x1E02 JUMP JUMPDEST PUSH3 0x2DC6C0 DUP2 MSTORE PUSH2 0x2733 JUMP JUMPDEST SWAP2 PUSH1 0x40 MLOAD SWAP8 PUSH2 0x824 DUP10 PUSH2 0x1E1E JUMP JUMPDEST DUP9 MSTORE PUSH1 0x20 DUP9 ADD MSTORE PUSH1 0x40 DUP8 ADD MSTORE PUSH1 0x0 PUSH1 0x60 DUP8 ADD MSTORE PUSH1 0x80 DUP7 ADD MSTORE PUSH1 0x40 MLOAD PUSH4 0x95EA7B3 PUSH1 0xE0 SHL DUP2 MSTORE PUSH1 0x1 PUSH1 0x1 PUSH1 0xA0 SHL SUB DUP3 AND PUSH1 0x4 DUP3 ADD MSTORE PUSH1 0x3 DUP6 PUSH1 0x1 SHL DIV PUSH1 0x24 DUP3 ADD MSTORE PUSH1 0x20 DUP2 PUSH1 0x44 DUP2 PUSH1 0x0 DUP8 GAS CALL DUP1 ISZERO PUSH2 0x991 JUMPI PUSH2 0x9E3 JUMPI JUMPDEST POP PUSH1 0x40 MLOAD SWAP3 PUSH32 0xB0F479A100000000000000000000000000000000000000000000000000000000 DUP5 MSTORE PUSH1 0x20 DUP5 PUSH1 0x4 DUP2 ADDRESS GAS STATICCALL SWAP3 DUP4 ISZERO PUSH2 0x991 JUMPI PUSH1 0x1 PUSH1 0x1 PUSH1 0xA0 SHL SUB SWAP7 PUSH1 0x20 SWAP6 PUSH1 0x0 SWAP6 PUSH2 0x99D JUMPI JUMPDEST POP PUSH8 0xFFFFFFFFFFFFFFFF SWAP3 PUSH1 0x0 SWAP3 PUSH2 0x923 DUP11 SWAP4 PUSH1 0x40 MLOAD SWAP12 DUP13 SWAP10 DUP11 SWAP9 DUP10 SWAP7 PUSH32 0xB344B6EA00000000000000000000000000000000000000000000000000000000 DUP9 MSTORE AND PUSH1 0x4 DUP8 ADD MSTORE AND PUSH1 0x24 DUP6 ADD MSTORE PUSH1 0xA0 PUSH1 0x44 DUP6 ADD MSTORE PUSH1 0xA4 DUP5 ADD SWAP1 PUSH2 0x2173 JUMP JUMPDEST SWAP1 PUSH1 0x64 DUP4 ADD MSTORE PUSH1 0x3 DUP10 PUSH1 0x1 SHL DIV PUSH1 0x84 DUP4 ADD MSTORE SUB SWAP4 AND GAS CALL SWAP2 DUP3 ISZERO PUSH2 0x991 JUMPI PUSH1 0x0 SWAP3 PUSH2 0x95C JUMPI JUMPDEST POP PUSH1 0x3 SWAP1 PUSH1 0x1 SHL DIV PUSH1 0xA SSTORE PUSH1 0x3 SSTORE PUSH1 0x0 DUP1 RETURN JUMPDEST SWAP1 SWAP2 POP PUSH1 0x20 DUP2 RETURNDATASIZE PUSH1 0x20 GT PUSH2 0x989 JUMPI JUMPDEST DUP2 PUSH2 0x978 PUSH1 0x20 SWAP4 DUP4 PUSH2 0x1E56 JUMP JUMPDEST DUP2 ADD SUB SLT PUSH2 0x1EF JUMPI MLOAD SWAP1 PUSH1 0x3 PUSH2 0x949 JUMP JUMPDEST RETURNDATASIZE SWAP2 POP PUSH2 0x96B JUMP JUMPDEST PUSH1 0x40 MLOAD RETURNDATASIZE PUSH1 0x0 DUP3 RETURNDATACOPY RETURNDATASIZE SWAP1 REVERT JUMPDEST DUP9 SWAP2 SWAP6 POP SWAP3 PUSH1 0x0 SWAP3 PUSH2 0x923 PUSH2 0x9D0 PUSH8 0xFFFFFFFFFFFFFFFF SWAP7 DUP11 RETURNDATASIZE DUP13 GT PUSH2 0x9DC JUMPI JUMPDEST PUSH2 0x9C8 DUP2 DUP4 PUSH2 0x1E56 JUMP JUMPDEST DUP2 ADD SWAP1 PUSH2 0x2154 JUMP JUMPDEST SWAP8 SWAP4 POP POP SWAP3 POP SWAP3 PUSH2 0x8C6 JUMP JUMPDEST POP RETURNDATASIZE PUSH2 0x9BE JUMP JUMPDEST PUSH2 0xA04 SWAP1 PUSH1 0x20 RETURNDATASIZE PUSH1 0x20 GT PUSH2 0xA0B JUMPI JUMPDEST PUSH2 0x9FC DUP2 DUP4 PUSH2 0x1E56 JUMP JUMPDEST DUP2 ADD SWAP1 PUSH2 0x28E5 JUMP JUMPDEST POP DUP6 PUSH2 0x87A JUMP JUMPDEST POP RETURNDATASIZE PUSH2 0x9F2 JUMP JUMPDEST PUSH1 0x20 SWAP1 PUSH1 0x40 MLOAD PUSH2 0xA21 DUP2 PUSH2 0x1DE6 JUMP JUMPDEST PUSH1 0x0 DUP2 MSTORE PUSH1 0x0 DUP4 DUP3 ADD MSTORE DUP3 DUP3 DUP7 ADD ADD MSTORE ADD PUSH2 0x767 JUMP JUMPDEST PUSH4 0x4E487B71 PUSH1 0xE0 SHL PUSH1 0x0 MSTORE PUSH1 0x11 PUSH1 0x4 MSTORE PUSH1 0x24 PUSH1 0x0 REVERT JUMPDEST PUSH2 0xA94 PUSH2 0xA58 PUSH2 0x2251 JUMP JUMPDEST PUSH1 0x40 MLOAD SWAP1 PUSH2 0xA65 DUP3 PUSH2 0x1DE6 JUMP JUMPDEST PUSH1 0x9 DUP3 MSTORE PUSH32 0x555344432F574554480000000000000000000000000000000000000000000000 PUSH1 0x20 DUP4 ADD MSTORE PUSH2 0x249A JUMP JUMPDEST PUSH2 0x6AF JUMP JUMPDEST PUSH1 0x60 SWAP1 DUP2 RETURNDATASIZE DUP4 GT PUSH2 0xABD JUMPI JUMPDEST PUSH2 0xAAF DUP2 DUP4 PUSH2 0x1E56 JUMP JUMPDEST DUP2 ADD SUB SLT PUSH2 0x1EF JUMPI DUP8 PUSH2 0x6A2 JUMP JUMPDEST POP RETURNDATASIZE PUSH2 0xAA5 JUMP JUMPDEST PUSH2 0xADC SWAP1 PUSH1 0x20 RETURNDATASIZE PUSH1 0x20 GT PUSH2 0xA0B JUMPI PUSH2 0x9FC DUP2 DUP4 PUSH2 0x1E56 JUMP JUMPDEST POP DUP12 PUSH2 0x610 JUMP JUMPDEST SWAP1 SWAP3 POP RETURNDATASIZE DUP1 PUSH1 0x0 DUP4 RETURNDATACOPY PUSH2 0xAF6 DUP2 DUP4 PUSH2 0x1E56 JUMP JUMPDEST PUSH1 0x20 DUP3 DUP3 DUP2 ADD SUB SLT PUSH2 0x1EF JUMPI DUP2 MLOAD SWAP1 PUSH8 0xFFFFFFFFFFFFFFFF DUP3 GT PUSH2 0x1EF JUMPI DUP1 DUP4 ADD PUSH1 0x1F DUP4 DUP6 ADD ADD SLT ISZERO PUSH2 0x1EF JUMPI DUP2 DUP4 ADD MLOAD SWAP2 PUSH2 0xB31 DUP4 PUSH2 0x213C JUMP JUMPDEST SWAP4 PUSH2 0xB3F PUSH1 0x40 MLOAD SWAP6 DUP7 PUSH2 0x1E56 JUMP JUMPDEST DUP4 DUP6 MSTORE PUSH1 0x20 DUP6 ADD SWAP3 DUP2 ADD PUSH1 0x20 DUP6 PUSH1 0x5 SHL DUP5 DUP5 ADD ADD ADD GT PUSH2 0x1EF JUMPI DUP1 DUP3 ADD PUSH1 0x20 ADD SWAP3 SWAP2 JUMPDEST PUSH1 0x20 DUP6 PUSH1 0x5 SHL DUP3 DUP5 ADD ADD ADD DUP5 LT PUSH2 0xB7F JUMPI POP POP POP POP POP SWAP2 DUP10 PUSH2 0x5A0 JUMP JUMPDEST PUSH1 0x20 DUP1 DUP1 SWAP5 DUP7 MLOAD DUP2 MSTORE ADD SWAP5 ADD SWAP4 SWAP3 POP PUSH2 0xB62 JUMP JUMPDEST PUSH1 0x64 PUSH1 0x40 MLOAD PUSH3 0x461BCD PUSH1 0xE5 SHL DUP2 MSTORE PUSH1 0x20 PUSH1 0x4 DUP3 ADD MSTORE PUSH1 0x16 PUSH1 0x24 DUP3 ADD MSTORE PUSH32 0x496E73756666696369656E7420616C6C6F77616E636500000000000000000000 PUSH1 0x44 DUP3 ADD MSTORE REVERT JUMPDEST SWAP1 POP PUSH1 0x20 DUP2 RETURNDATASIZE PUSH1 0x20 GT PUSH2 0xC01 JUMPI JUMPDEST DUP2 PUSH2 0xBF2 PUSH1 0x20 SWAP4 DUP4 PUSH2 0x1E56 JUMP JUMPDEST DUP2 ADD SUB SLT PUSH2 0x1EF JUMPI MLOAD DUP10 PUSH2 0x4B8 JUMP JUMPDEST RETURNDATASIZE SWAP2 POP PUSH2 0xBE5 JUMP JUMPDEST PUSH2 0xC21 SWAP1 PUSH1 0x20 RETURNDATASIZE PUSH1 0x20 GT PUSH2 0xA0B JUMPI PUSH2 0x9FC DUP2 DUP4 PUSH2 0x1E56 JUMP JUMPDEST POP DUP9 PUSH2 0x450 JUMP JUMPDEST PUSH1 0x64 PUSH1 0x40 MLOAD PUSH3 0x461BCD PUSH1 0xE5 SHL DUP2 MSTORE PUSH1 0x20 PUSH1 0x4 DUP3 ADD MSTORE PUSH1 0x1B PUSH1 0x24 DUP3 ADD MSTORE PUSH32 0x496E73756666696369656E7420746F6B656E312062616C616E63650000000000 PUSH1 0x44 DUP3 ADD MSTORE REVERT JUMPDEST SWAP1 POP PUSH1 0x20 DUP2 RETURNDATASIZE PUSH1 0x20 GT PUSH2 0xC96 JUMPI JUMPDEST DUP2 PUSH2 0xC87 PUSH1 0x20 SWAP4 DUP4 PUSH2 0x1E56 JUMP JUMPDEST DUP2 ADD SUB SLT PUSH2 0x1EF JUMPI MLOAD DUP10 PUSH2 0x3F1 JUMP JUMPDEST RETURNDATASIZE SWAP2 POP PUSH2 0xC7A JUMP JUMPDEST PUSH1 0x64 PUSH1 0x40 MLOAD PUSH3 0x461BCD PUSH1 0xE5 SHL DUP2 MSTORE PUSH1 0x20 PUSH1 0x4 DUP3 ADD MSTORE PUSH1 0x19 PUSH1 0x24 DUP3 ADD MSTORE PUSH32 0x496E73756666696369656E7420574554482062616C616E636500000000000000 PUSH1 0x44 DUP3 ADD MSTORE REVERT JUMPDEST SWAP1 POP PUSH1 0x20 DUP2 RETURNDATASIZE PUSH1 0x20 GT PUSH2 0xD0C JUMPI JUMPDEST DUP2 PUSH2 0xCFD PUSH1 0x20 SWAP4 DUP4 PUSH2 0x1E56 JUMP JUMPDEST DUP2 ADD SUB SLT PUSH2 0x1EF JUMPI MLOAD DUP10 PUSH2 0x39B JUMP JUMPDEST RETURNDATASIZE SWAP2 POP PUSH2 0xCF0 JUMP JUMPDEST PUSH1 0x64 PUSH1 0x40 MLOAD PUSH3 0x461BCD PUSH1 0xE5 SHL DUP2 MSTORE PUSH1 0x20 PUSH1 0x4 DUP3 ADD MSTORE PUSH1 0x13 PUSH1 0x24 DUP3 ADD MSTORE PUSH32 0x57455448204465706F736974206661696C656400000000000000000000000000 PUSH1 0x44 DUP3 ADD MSTORE REVERT JUMPDEST CALLVALUE PUSH2 0x1EF JUMPI PUSH1 0xA0 PUSH1 0x3 NOT CALLDATASIZE ADD SLT PUSH2 0x1EF JUMPI PUSH2 0xD71 PUSH2 0x1EFB JUMP JUMPDEST PUSH2 0xD79 PUSH2 0x1D30 JUMP JUMPDEST PUSH2 0xD81 PUSH2 0x1D46 JUMP JUMPDEST SWAP2 PUSH2 0xD8A PUSH2 0x1D5C JUMP JUMPDEST SWAP2 PUSH2 0xD93 PUSH2 0x1D72 JUMP JUMPDEST PUSH1 0x40 MLOAD PUSH2 0xD9F DUP2 PUSH2 0x1E02 JUMP JUMPDEST PUSH1 0x0 DUP2 MSTORE PUSH1 0xA SLOAD SWAP1 DUP2 ISZERO PUSH2 0xF1A JUMPI PUSH1 0x40 MLOAD SWAP2 PUSH1 0x20 SWAP8 PUSH1 0x1 DUP10 DUP6 ADD MSTORE PUSH1 0x1 PUSH1 0x1 PUSH1 0xA0 SHL SUB SWAP8 DUP9 DUP1 SWAP3 AND PUSH1 0x40 DUP7 ADD MSTORE AND PUSH1 0x60 DUP5 ADD MSTORE PUSH1 0x80 DUP4 ADD MSTORE PUSH1 0x80 DUP3 MSTORE PUSH2 0xDE4 DUP3 PUSH2 0x1E1E JUMP JUMPDEST DUP6 PUSH1 0x40 MLOAD SWAP5 AND DUP8 DUP6 ADD MSTORE DUP7 DUP5 MSTORE PUSH2 0xDFA DUP5 PUSH2 0x1DE6 JUMP JUMPDEST PUSH2 0xE09 PUSH1 0x40 MLOAD PUSH2 0x80B DUP2 PUSH2 0x1E02 JUMP JUMPDEST SWAP2 PUSH1 0x40 MLOAD SWAP5 PUSH2 0xE17 DUP7 PUSH2 0x1E1E JUMP JUMPDEST DUP6 MSTORE DUP8 DUP6 ADD MSTORE PUSH1 0x40 DUP5 ADD MSTORE PUSH1 0x0 PUSH1 0x60 DUP5 ADD MSTORE PUSH1 0x80 DUP4 ADD MSTORE PUSH1 0x40 MLOAD SWAP3 PUSH32 0xB0F479A100000000000000000000000000000000000000000000000000000000 DUP5 MSTORE DUP6 DUP5 PUSH1 0x4 DUP2 ADDRESS GAS STATICCALL DUP1 ISZERO PUSH2 0x991 JUMPI PUSH2 0xEAC SWAP6 DUP8 SWAP6 PUSH1 0x0 SWAP3 PUSH2 0xEFA JUMPI JUMPDEST POP PUSH1 0x0 SWAP2 SWAP3 PUSH1 0x40 MLOAD SWAP8 DUP9 SWAP7 DUP8 SWAP6 DUP7 SWAP4 PUSH32 0x6628C6E800000000000000000000000000000000000000000000000000000000 DUP6 MSTORE PUSH1 0x4 DUP6 ADD PUSH2 0x2222 JUMP JUMPDEST SUB SWAP4 AND GAS CALL SWAP1 DUP2 ISZERO PUSH2 0x991 JUMPI PUSH1 0x0 SWAP2 PUSH2 0xECD JUMPI JUMPDEST POP DUP1 PUSH1 0x3 SSTORE PUSH1 0x40 MLOAD SWAP1 DUP2 MSTORE RETURN JUMPDEST SWAP1 POP DUP2 DUP2 DUP2 RETURNDATASIZE DUP4 GT PUSH2 0xEF3 JUMPI JUMPDEST PUSH2 0xEE4 DUP2 DUP4 PUSH2 0x1E56 JUMP JUMPDEST DUP2 ADD SUB SLT PUSH2 0x1EF JUMPI MLOAD DUP3 PUSH2 0xEC0 JUMP JUMPDEST POP RETURNDATASIZE PUSH2 0xEDA JUMP JUMPDEST PUSH1 0x0 SWAP3 POP PUSH2 0xF14 SWAP1 DUP8 RETURNDATASIZE DUP10 GT PUSH2 0x9DC JUMPI PUSH2 0x9C8 DUP2 DUP4 PUSH2 0x1E56 JUMP JUMPDEST SWAP2 PUSH2 0xE71 JUMP JUMPDEST PUSH1 0x64 PUSH1 0x40 MLOAD PUSH3 0x461BCD PUSH1 0xE5 SHL DUP2 MSTORE PUSH1 0x20 PUSH1 0x4 DUP3 ADD MSTORE PUSH1 0x1E PUSH1 0x24 DUP3 ADD MSTORE PUSH32 0x53656564207A65726F2C207472616E7366657220736565642066697273740000 PUSH1 0x44 DUP3 ADD MSTORE REVERT JUMPDEST CALLVALUE PUSH2 0x1EF JUMPI PUSH1 0x20 PUSH1 0x3 NOT CALLDATASIZE ADD SLT PUSH2 0x1EF JUMPI PUSH1 0x4 CALLDATALOAD PUSH1 0x6 SLOAD DUP2 LT ISZERO PUSH2 0x1EF JUMPI PUSH1 0x1 PUSH1 0x1 PUSH1 0xA0 SHL SUB PUSH2 0xF8F PUSH1 0x20 SWAP3 PUSH2 0x1F75 JUMP JUMPDEST SWAP2 SWAP1 SLOAD PUSH1 0x40 MLOAD SWAP3 PUSH1 0x3 SHL SHR AND DUP2 MSTORE RETURN JUMPDEST CALLVALUE PUSH2 0x1EF JUMPI PUSH1 0x0 PUSH1 0x3 NOT CALLDATASIZE ADD SLT PUSH2 0x1EF JUMPI PUSH1 0x20 PUSH1 0x1 SLOAD PUSH1 0x40 MLOAD SWAP1 DUP2 MSTORE RETURN JUMPDEST CALLVALUE PUSH2 0x1EF JUMPI PUSH1 0x0 PUSH1 0x3 NOT CALLDATASIZE ADD SLT PUSH2 0x1EF JUMPI PUSH1 0x20 PUSH1 0x40 MLOAD PUSH1 0x1 PUSH1 0x1 PUSH1 0xA0 SHL SUB PUSH32 0x0 AND DUP2 MSTORE RETURN JUMPDEST CALLVALUE PUSH2 0x1EF JUMPI PUSH1 0x0 PUSH1 0x3 NOT CALLDATASIZE ADD SLT PUSH2 0x1EF JUMPI PUSH1 0x20 PUSH1 0x40 MLOAD PUSH20 0xFFF9976782D46CC05630D1F6EBAB18B2324D6B14 DUP2 MSTORE RETURN JUMPDEST CALLVALUE PUSH2 0x1EF JUMPI PUSH1 0x20 DUP1 PUSH1 0x3 NOT CALLDATASIZE ADD SLT PUSH2 0x1EF JUMPI PUSH1 0x4 CALLDATALOAD PUSH8 0xFFFFFFFFFFFFFFFF DUP2 GT PUSH2 0x1EF JUMPI DUP2 PUSH2 0x1066 PUSH2 0x108A SWAP3 CALLDATASIZE SWAP1 PUSH1 0x4 ADD PUSH2 0x1F2E JUMP JUMPDEST PUSH2 0x1077 PUSH2 0x1072 DUP3 PUSH2 0x27B9 JUMP JUMPDEST PUSH2 0x228A JUMP JUMPDEST DUP2 PUSH1 0x40 MLOAD SWAP4 DUP3 DUP6 DUP1 SWAP5 MLOAD SWAP4 DUP5 SWAP3 ADD PUSH2 0x1D9E JUMP JUMPDEST DUP2 ADD PUSH1 0xC DUP2 MSTORE SUB ADD SWAP1 KECCAK256 DUP1 SLOAD PUSH2 0x109F DUP2 PUSH2 0x213C JUMP JUMPDEST SWAP2 PUSH2 0x10AD PUSH1 0x40 MLOAD SWAP4 DUP5 PUSH2 0x1E56 JUMP JUMPDEST DUP2 DUP4 MSTORE PUSH1 0x0 SWAP1 DUP2 MSTORE DUP4 DUP2 KECCAK256 SWAP4 DUP1 DUP5 ADD JUMPDEST DUP4 DUP4 LT PUSH2 0x10D2 JUMPI PUSH1 0x40 MLOAD DUP1 PUSH2 0x1CB DUP8 DUP3 PUSH2 0x1E79 JUMP JUMPDEST PUSH1 0x1 DUP3 DUP2 SWAP3 PUSH1 0x40 MLOAD PUSH2 0x10EF DUP2 PUSH2 0x10E8 DUP2 DUP14 PUSH2 0x20A6 JUMP JUMPDEST SUB DUP3 PUSH2 0x1E56 JUMP JUMPDEST DUP2 MSTORE ADD SWAP7 ADD SWAP3 ADD SWAP2 SWAP5 PUSH2 0x10BD JUMP JUMPDEST CALLVALUE PUSH2 0x1EF JUMPI PUSH1 0x0 PUSH1 0x3 NOT CALLDATASIZE ADD SLT PUSH2 0x1EF JUMPI PUSH1 0x20 PUSH1 0x1 PUSH1 0x1 PUSH1 0xA0 SHL SUB PUSH1 0x0 SLOAD AND PUSH1 0x40 MLOAD SWAP1 DUP2 MSTORE RETURN JUMPDEST CALLVALUE PUSH2 0x1EF JUMPI PUSH1 0x20 PUSH1 0x3 NOT DUP2 DUP2 CALLDATASIZE ADD SLT PUSH2 0x1EF JUMPI PUSH1 0x4 CALLDATALOAD PUSH8 0xFFFFFFFFFFFFFFFF SWAP2 DUP3 DUP3 GT PUSH2 0x1EF JUMPI PUSH1 0xA0 SWAP1 DUP3 CALLDATASIZE SUB ADD SLT PUSH2 0x1EF JUMPI PUSH1 0x1 PUSH1 0x1 PUSH1 0xA0 SHL SUB SWAP3 DUP4 PUSH32 0x0 AND CALLER SUB PUSH2 0x166F JUMPI PUSH1 0x40 MLOAD PUSH2 0x1195 DUP2 PUSH2 0x1E1E JUMP JUMPDEST DUP3 PUSH1 0x4 ADD CALLDATALOAD DUP2 MSTORE PUSH1 0x24 SWAP5 DUP6 DUP5 ADD CALLDATALOAD DUP6 DUP2 AND DUP2 SUB PUSH2 0x1EF JUMPI DUP4 DUP4 ADD MSTORE PUSH1 0x44 DUP5 ADD CALLDATALOAD DUP6 DUP2 GT PUSH2 0x1EF JUMPI PUSH2 0x11CC SWAP1 PUSH1 0x4 CALLDATASIZE SWAP2 DUP8 ADD ADD PUSH2 0x1F2E JUMP JUMPDEST PUSH1 0x40 DUP4 ADD MSTORE PUSH1 0x64 DUP5 ADD CALLDATALOAD DUP6 DUP2 GT PUSH2 0x1EF JUMPI PUSH2 0x11ED SWAP1 PUSH1 0x4 CALLDATASIZE SWAP2 DUP8 ADD ADD PUSH2 0x1F2E JUMP JUMPDEST SWAP4 PUSH1 0x60 DUP4 ADD SWAP5 DUP6 MSTORE PUSH1 0x84 DUP2 ADD CALLDATALOAD SWAP1 DUP7 DUP3 GT PUSH2 0x1EF JUMPI ADD CALLDATASIZE PUSH1 0x23 DUP3 ADD SLT ISZERO PUSH2 0x1EF JUMPI PUSH1 0x4 DUP2 ADD CALLDATALOAD SWAP1 PUSH2 0x121D DUP3 PUSH2 0x213C JUMP JUMPDEST SWAP2 PUSH2 0x122B PUSH1 0x40 MLOAD SWAP4 DUP5 PUSH2 0x1E56 JUMP JUMPDEST DUP1 DUP4 MSTORE DUP9 DUP7 DUP5 ADD SWAP2 PUSH1 0x6 SHL DUP4 ADD ADD SWAP2 CALLDATASIZE DUP4 GT PUSH2 0x1EF JUMPI DUP10 ADD SWAP1 JUMPDEST DUP3 DUP3 LT PUSH2 0x1632 JUMPI POP POP POP PUSH1 0x80 DUP4 ADD MSTORE DUP4 MLOAD DUP1 MLOAD DUP2 ADD SWAP1 PUSH1 0x60 DUP2 DUP7 DUP5 ADD SWAP4 SUB SLT PUSH2 0x1EF JUMPI DUP5 DUP2 ADD MLOAD SWAP2 PUSH1 0xFF DUP4 AND DUP1 SWAP4 SUB PUSH2 0x1EF JUMPI PUSH2 0x1284 PUSH1 0x40 DUP4 ADD PUSH2 0x2770 JUMP JUMPDEST SWAP2 PUSH1 0x60 DUP2 ADD MLOAD SWAP1 DUP10 DUP3 GT PUSH2 0x1EF JUMPI ADD SWAP1 DUP1 PUSH1 0x3F DUP4 ADD SLT ISZERO PUSH2 0x1EF JUMPI DUP7 DUP3 ADD MLOAD PUSH2 0x12AF SWAP3 PUSH1 0x40 ADD PUSH2 0x2784 JUMP JUMPDEST SWAP2 ISZERO PUSH2 0x1587 JUMPI JUMPDEST POP POP POP MLOAD PUSH1 0x7 SSTORE DUP2 MLOAD DUP1 MLOAD DUP2 ADD SWAP1 DUP3 DUP2 DUP2 DUP5 ADD SWAP4 SUB SLT PUSH2 0x1EF JUMPI DUP3 DUP2 ADD MLOAD SWAP1 DUP6 DUP3 GT PUSH2 0x1EF JUMPI ADD SWAP1 DUP1 PUSH1 0x3F DUP4 ADD SLT ISZERO PUSH2 0x1EF JUMPI DUP3 DUP3 ADD MLOAD PUSH2 0x12F9 SWAP3 PUSH1 0x40 ADD PUSH2 0x2784 JUMP JUMPDEST SWAP2 DUP3 MLOAD DUP5 DUP2 GT PUSH2 0x1572 JUMPI PUSH2 0x130E PUSH1 0x9 SLOAD PUSH2 0x206C JUMP JUMPDEST SWAP4 PUSH1 0x1F SWAP5 DUP6 DUP2 GT PUSH2 0x1526 JUMPI JUMPDEST POP DUP4 SWAP1 DUP6 DUP4 GT PUSH1 0x1 EQ PUSH2 0x14A0 JUMPI PUSH2 0x1349 SWAP3 SWAP2 PUSH1 0x0 SWAP2 DUP4 PUSH2 0x1495 JUMPI JUMPDEST POP POP PUSH1 0x0 NOT DUP3 PUSH1 0x1 SHL SWAP3 PUSH1 0x3 SHL SHR NOT AND OR SWAP1 JUMP JUMPDEST PUSH1 0x9 SSTORE JUMPDEST MLOAD SWAP4 DUP5 MLOAD SWAP4 DUP5 GT PUSH2 0x1481 JUMPI POP PUSH2 0x1364 PUSH1 0x8 SLOAD PUSH2 0x206C JUMP JUMPDEST DUP3 DUP2 GT PUSH2 0x142B JUMPI JUMPDEST POP DUP1 SWAP2 DUP4 GT PUSH1 0x1 EQ PUSH2 0x13AA JUMPI POP DUP2 SWAP1 PUSH2 0x139A SWAP4 PUSH1 0x0 SWAP3 PUSH2 0x139F JUMPI POP POP PUSH1 0x0 NOT DUP3 PUSH1 0x1 SHL SWAP3 PUSH1 0x3 SHL SHR NOT AND OR SWAP1 JUMP JUMPDEST PUSH1 0x8 SSTORE STOP JUMPDEST ADD MLOAD SWAP1 POP DUP4 DUP1 PUSH2 0x1335 JUMP JUMPDEST SWAP1 PUSH1 0x1F NOT DUP4 AND SWAP4 PUSH1 0x8 PUSH1 0x0 MSTORE PUSH32 0xF3F7A9FE364FAAB93B216DA50A3214154F22A0A2B415B23A84C8169E8B636EE3 SWAP3 PUSH1 0x0 SWAP1 JUMPDEST DUP7 DUP3 LT PUSH2 0x1413 JUMPI POP POP DUP4 PUSH1 0x1 SWAP6 LT PUSH2 0x13FA JUMPI JUMPDEST POP POP POP DUP2 SHL ADD PUSH1 0x8 SSTORE STOP JUMPDEST ADD MLOAD PUSH1 0x0 NOT PUSH1 0xF8 DUP5 PUSH1 0x3 SHL AND SHR NOT AND SWAP1 SSTORE DUP3 DUP1 DUP1 PUSH2 0x13EF JUMP JUMPDEST DUP1 PUSH1 0x1 DUP6 SWAP7 DUP3 SWAP5 SWAP7 DUP7 ADD MLOAD DUP2 SSTORE ADD SWAP6 ADD SWAP4 ADD SWAP1 PUSH2 0x13DC JUMP JUMPDEST PUSH2 0x1472 SWAP1 PUSH1 0x8 PUSH1 0x0 MSTORE PUSH32 0xF3F7A9FE364FAAB93B216DA50A3214154F22A0A2B415B23A84C8169E8B636EE3 DUP5 DUP1 DUP8 ADD PUSH1 0x5 SHR DUP3 ADD SWAP3 DUP6 DUP9 LT PUSH2 0x1478 JUMPI JUMPDEST ADD PUSH1 0x5 SHR ADD SWAP1 PUSH2 0x2322 JUMP JUMPDEST DUP5 PUSH2 0x136C JUMP JUMPDEST SWAP3 POP DUP2 SWAP3 PUSH2 0x1467 JUMP JUMPDEST PUSH4 0x4E487B71 PUSH1 0xE0 SHL PUSH1 0x0 MSTORE PUSH1 0x41 PUSH1 0x4 MSTORE PUSH1 0x0 REVERT JUMPDEST ADD MLOAD SWAP1 POP DUP9 DUP1 PUSH2 0x1335 JUMP JUMPDEST SWAP1 PUSH1 0x1F NOT DUP4 AND SWAP2 PUSH1 0x9 PUSH1 0x0 MSTORE PUSH32 0x6E1540171B6C0C960B71A7020D9F60077F6AF931A8BBF590DA0223DACF75C7AF SWAP3 PUSH1 0x0 JUMPDEST DUP8 DUP3 DUP3 LT PUSH2 0x1510 JUMPI POP POP SWAP1 DUP5 PUSH1 0x1 SWAP6 SWAP5 SWAP4 SWAP3 LT PUSH2 0x14F7 JUMPI JUMPDEST POP POP POP DUP2 SHL ADD PUSH1 0x9 SSTORE PUSH2 0x134D JUMP JUMPDEST ADD MLOAD PUSH1 0x0 NOT PUSH1 0xF8 DUP5 PUSH1 0x3 SHL AND SHR NOT AND SWAP1 SSTORE DUP8 DUP1 DUP1 PUSH2 0x14E9 JUMP JUMPDEST PUSH1 0x1 DUP6 SWAP7 DUP3 SWAP4 SWAP7 DUP7 ADD MLOAD DUP2 SSTORE ADD SWAP6 ADD SWAP4 ADD PUSH2 0x14D1 JUMP JUMPDEST PUSH2 0x156C SWAP1 PUSH1 0x9 PUSH1 0x0 MSTORE PUSH32 0x6E1540171B6C0C960B71A7020D9F60077F6AF931A8BBF590DA0223DACF75C7AF DUP8 DUP1 DUP7 ADD PUSH1 0x5 SHR DUP3 ADD SWAP3 DUP9 DUP8 LT PUSH2 0x1478 JUMPI ADD PUSH1 0x5 SHR ADD SWAP1 PUSH2 0x2322 JUMP JUMPDEST DUP8 PUSH2 0x131A JUMP JUMPDEST DUP6 PUSH4 0x4E487B71 PUSH1 0xE0 SHL PUSH1 0x0 MSTORE PUSH1 0x41 PUSH1 0x4 MSTORE PUSH1 0x0 REVERT JUMPDEST DUP2 PUSH1 0x0 SWAP3 SWAP2 DUP4 DUP6 DUP9 DUP3 SWAP6 MLOAD SWAP5 ADD SWAP3 AND GAS CALL PUSH2 0x15A0 PUSH2 0x22D5 JUMP JUMPDEST SWAP1 ISZERO PUSH2 0x15EF JUMPI DUP4 DUP2 DUP1 MLOAD DUP2 ADD SUB SLT PUSH2 0x1EF JUMPI DUP4 PUSH2 0x15BD SWAP2 ADD PUSH2 0x2770 JUMP JUMPDEST AND PUSH32 0xFFFFFFFFFFFFFFFFFFFFFFFF0000000000000000000000000000000000000000 PUSH1 0x2 SLOAD AND OR PUSH1 0x2 SSTORE DUP6 DUP1 DUP1 PUSH2 0x12B6 JUMP JUMPDEST PUSH1 0x64 DUP5 PUSH1 0x15 DUP10 PUSH1 0x40 MLOAD SWAP3 PUSH3 0x461BCD PUSH1 0xE5 SHL DUP5 MSTORE PUSH1 0x4 DUP5 ADD MSTORE DUP3 ADD MSTORE PUSH32 0x4C6F772D6C6576656C2063616C6C206661696C65640000000000000000000000 PUSH1 0x44 DUP3 ADD MSTORE REVERT JUMPDEST PUSH1 0x40 DUP3 CALLDATASIZE SUB SLT PUSH2 0x1EF JUMPI PUSH1 0x40 MLOAD SWAP1 PUSH2 0x1649 DUP3 PUSH2 0x1DE6 JUMP JUMPDEST DUP3 CALLDATALOAD SWAP1 DUP7 DUP3 AND DUP3 SUB PUSH2 0x1EF JUMPI DUP3 DUP10 SWAP3 PUSH1 0x40 SWAP5 MSTORE DUP3 DUP6 ADD CALLDATALOAD DUP4 DUP3 ADD MSTORE DUP2 MSTORE ADD SWAP2 ADD SWAP1 PUSH2 0x1245 JUMP JUMPDEST PUSH1 0x24 PUSH1 0x40 MLOAD PUSH32 0xD7F7333400000000000000000000000000000000000000000000000000000000 DUP2 MSTORE CALLER PUSH1 0x4 DUP3 ADD MSTORE REVERT JUMPDEST CALLVALUE PUSH2 0x1EF JUMPI PUSH1 0x0 PUSH1 0x3 NOT CALLDATASIZE ADD SLT PUSH2 0x1EF JUMPI PUSH2 0x1B PUSH2 0x228 PUSH2 0x2251 JUMP JUMPDEST CALLVALUE PUSH2 0x1EF JUMPI PUSH1 0xC0 PUSH1 0x3 NOT CALLDATASIZE ADD SLT PUSH2 0x1EF JUMPI PUSH2 0x16D4 PUSH2 0x1EFB JUMP JUMPDEST PUSH2 0x16DC PUSH2 0x1D30 JUMP JUMPDEST SWAP1 PUSH2 0x16E5 PUSH2 0x1D46 JUMP JUMPDEST SWAP1 PUSH2 0x16EE PUSH2 0x1D5C JUMP JUMPDEST SWAP3 PUSH2 0x16F7 PUSH2 0x1D72 JUMP JUMPDEST SWAP3 PUSH2 0x1700 PUSH2 0x1D88 JUMP JUMPDEST SWAP1 PUSH1 0x40 MLOAD PUSH2 0x170D DUP2 PUSH2 0x1E02 JUMP JUMPDEST PUSH1 0x0 DUP2 MSTORE PUSH1 0x40 MLOAD PUSH1 0x20 SWAP8 PUSH32 0x133572BA00000000000000000000000000000000000000000000000000000000 DUP10 DUP4 ADD MSTORE PUSH1 0x1 PUSH1 0x1 PUSH1 0xA0 SHL SUB SWAP8 DUP9 DUP1 SWAP3 AND PUSH1 0x24 DUP5 ADD MSTORE AND PUSH1 0x44 DUP3 ADD MSTORE PUSH1 0x44 DUP2 MSTORE PUSH1 0x80 DUP2 ADD SWAP3 DUP2 DUP5 LT PUSH8 0xFFFFFFFFFFFFFFFF DUP6 GT OR PUSH2 0x17EA JUMPI PUSH2 0xDE4 SWAP2 DUP9 PUSH32 0xFFFFFFFFFFFFFFFFFFFFFFFFFFFFFFFFFFFFFFFFFFFFFFFFFFFFFFFFFFFFFF80 SWAP3 DUP7 PUSH1 0x40 MSTORE PUSH1 0x0 PUSH1 0xA0 DUP5 ADD MSTORE AND PUSH1 0xC0 DUP3 ADD MSTORE PUSH1 0x60 PUSH1 0xE0 DUP3 ADD MSTORE PUSH2 0x17BD PUSH2 0x100 DUP3 ADD DUP3 PUSH2 0x1DC1 JUMP JUMPDEST SUB PUSH32 0xFFFFFFFFFFFFFFFFFFFFFFFFFFFFFFFFFFFFFFFFFFFFFFFFFFFFFFFFFFFFFF60 DUP2 ADD DUP6 MSTORE ADD DUP4 PUSH2 0x1E56 JUMP JUMPDEST PUSH4 0x4E487B71 PUSH1 0xE0 SHL PUSH1 0x0 MSTORE PUSH1 0x41 PUSH1 0x4 MSTORE PUSH1 0x24 PUSH1 0x0 REVERT JUMPDEST CALLVALUE PUSH2 0x1EF JUMPI PUSH1 0x0 PUSH1 0x3 NOT CALLDATASIZE ADD SLT PUSH2 0x1EF JUMPI PUSH1 0x20 PUSH1 0x40 MLOAD PUSH20 0x139D70E24B8C82539800EEB99510BFB8B09EAF68 DUP2 MSTORE RETURN JUMPDEST CALLVALUE PUSH2 0x1EF JUMPI PUSH1 0x0 PUSH1 0x3 NOT CALLDATASIZE ADD SLT PUSH2 0x1EF JUMPI PUSH1 0x40 PUSH1 0x4 SLOAD PUSH1 0x5 SLOAD DUP3 MLOAD SWAP2 DUP3 MSTORE PUSH1 0x20 DUP3 ADD MSTORE RETURN JUMPDEST CALLVALUE PUSH2 0x1EF JUMPI PUSH1 0x0 PUSH1 0x3 NOT CALLDATASIZE ADD SLT PUSH2 0x1EF JUMPI PUSH1 0x20 PUSH1 0x1 PUSH1 0x1 PUSH1 0xA0 SHL SUB PUSH1 0x2 SLOAD AND PUSH1 0x40 MLOAD SWAP1 DUP2 MSTORE RETURN JUMPDEST CALLVALUE PUSH2 0x1EF JUMPI PUSH1 0x0 PUSH1 0x3 NOT CALLDATASIZE ADD SLT PUSH2 0x1EF JUMPI PUSH1 0xB SLOAD PUSH2 0x1898 DUP2 PUSH2 0x213C JUMP JUMPDEST PUSH2 0x18A5 PUSH1 0x40 MLOAD SWAP2 DUP3 PUSH2 0x1E56 JUMP JUMPDEST DUP2 DUP2 MSTORE PUSH1 0x20 SWAP2 PUSH1 0x20 DUP3 ADD PUSH1 0xB PUSH1 0x0 MSTORE PUSH32 0x175B7A638427703F0DBE7BB9BBF987A2551717B34E79F33B5B1008D1FA01DB9 SWAP4 PUSH1 0x0 SWAP2 JUMPDEST DUP4 DUP4 LT PUSH2 0x18EF JUMPI PUSH1 0x40 MLOAD DUP1 PUSH2 0x1CB DUP8 DUP3 PUSH2 0x1E79 JUMP JUMPDEST PUSH1 0x1 DUP3 DUP2 SWAP3 PUSH1 0x40 MLOAD PUSH2 0x1905 DUP2 PUSH2 0x10E8 DUP2 DUP14 PUSH2 0x20A6 JUMP JUMPDEST DUP2 MSTORE ADD SWAP7 ADD SWAP3 ADD SWAP2 SWAP5 PUSH2 0x18DA JUMP JUMPDEST CALLVALUE PUSH2 0x1EF JUMPI PUSH1 0x3 NOT PUSH1 0x60 DUP2 CALLDATASIZE ADD SLT PUSH2 0x1EF JUMPI PUSH1 0x4 CALLDATALOAD SWAP1 PUSH8 0xFFFFFFFFFFFFFFFF DUP3 GT PUSH2 0x1EF JUMPI PUSH2 0x160 SWAP1 DUP3 CALLDATASIZE SUB ADD SLT PUSH2 0x1EF JUMPI PUSH2 0x1955 SWAP1 PUSH1 0x24 CALLDATALOAD SWAP1 PUSH1 0x4 ADD PUSH2 0x25F5 JUMP JUMPDEST POP PUSH1 0x20 PUSH1 0x40 MLOAD PUSH1 0x0 DUP2 MSTORE RETURN JUMPDEST CALLVALUE PUSH2 0x1EF JUMPI PUSH1 0x40 PUSH1 0x3 NOT CALLDATASIZE ADD SLT PUSH2 0x1EF JUMPI CALLDATASIZE PUSH1 0x23 SLT ISZERO PUSH2 0x1EF JUMPI PUSH1 0x40 MLOAD PUSH2 0x1987 DUP2 PUSH2 0x1DE6 JUMP JUMPDEST PUSH1 0x44 DUP2 CALLDATASIZE DUP3 GT PUSH2 0x1EF JUMPI PUSH1 0x4 SWAP1 JUMPDEST DUP3 DUP3 LT PUSH2 0x19B8 JUMPI DUP4 PUSH1 0x20 DUP2 MLOAD SWAP2 ADD MLOAD SWAP1 PUSH2 0x19B0 PUSH1 0x40 MLOAD PUSH2 0x1DE6 JUMP JUMPDEST PUSH1 0x4 SSTORE PUSH1 0x5 SSTORE STOP JUMPDEST DUP2 CALLDATALOAD DUP2 MSTORE PUSH1 0x20 SWAP2 DUP3 ADD SWAP2 ADD PUSH2 0x1995 JUMP JUMPDEST CALLVALUE PUSH2 0x1EF JUMPI PUSH1 0x0 PUSH1 0x3 NOT CALLDATASIZE ADD SLT PUSH2 0x1EF JUMPI PUSH1 0x0 PUSH1 0x1 SSTORE STOP JUMPDEST CALLVALUE PUSH2 0x1EF JUMPI PUSH1 0x0 PUSH1 0x3 NOT CALLDATASIZE ADD SLT PUSH2 0x1EF JUMPI PUSH1 0x20 PUSH1 0x3 SLOAD PUSH1 0x40 MLOAD SWAP1 DUP2 MSTORE RETURN JUMPDEST CALLVALUE PUSH2 0x1EF JUMPI PUSH1 0x0 PUSH1 0x3 NOT CALLDATASIZE ADD SLT PUSH2 0x1EF JUMPI PUSH1 0x7 SLOAD PUSH1 0x40 MLOAD PUSH1 0x0 SWAP2 PUSH1 0x9 SLOAD SWAP2 PUSH2 0x1A25 DUP4 PUSH2 0x206C JUMP JUMPDEST DUP1 DUP3 MSTORE DUP2 PUSH1 0x20 SWAP6 DUP7 SWAP3 PUSH1 0x1 SWAP7 PUSH1 0x1 DUP2 AND SWAP1 DUP2 PUSH1 0x0 EQ PUSH2 0x1B8F JUMPI POP PUSH1 0x1 EQ PUSH2 0x1B33 JUMPI JUMPDEST POP PUSH2 0x1A54 SWAP3 POP SUB DUP3 PUSH2 0x1E56 JUMP JUMPDEST PUSH1 0x40 MLOAD SWAP1 PUSH1 0x0 SWAP4 DUP6 PUSH1 0x8 SLOAD SWAP2 PUSH2 0x1A69 DUP4 PUSH2 0x206C JUMP JUMPDEST DUP1 DUP7 MSTORE SWAP3 PUSH1 0x1 DUP2 AND SWAP1 DUP2 ISZERO PUSH2 0x1B16 JUMPI POP PUSH1 0x1 EQ PUSH2 0x1ABC JUMPI JUMPDEST POP DUP5 PUSH2 0x1CB DUP6 PUSH2 0x1AAE DUP7 PUSH2 0x1A97 DUP4 DUP13 SUB DUP5 PUSH2 0x1E56 JUMP JUMPDEST PUSH1 0x60 PUSH1 0x40 MLOAD SWAP7 DUP8 SWAP7 DUP8 MSTORE DUP7 ADD MSTORE PUSH1 0x60 DUP6 ADD SWAP1 PUSH2 0x1DC1 JUMP JUMPDEST SWAP1 DUP4 DUP3 SUB PUSH1 0x40 DUP6 ADD MSTORE PUSH2 0x1DC1 JUMP JUMPDEST SWAP2 SWAP1 SWAP6 POP PUSH1 0x8 PUSH1 0x0 MSTORE PUSH32 0xF3F7A9FE364FAAB93B216DA50A3214154F22A0A2B415B23A84C8169E8B636EE3 SWAP2 PUSH1 0x0 SWAP3 JUMPDEST DUP3 DUP5 LT PUSH2 0x1B03 JUMPI POP POP POP DUP3 ADD SWAP1 SWAP4 ADD SWAP3 DUP1 DUP6 DUP4 PUSH2 0x1A81 JUMP JUMPDEST DUP1 SLOAD DUP7 DUP6 ADD DUP10 ADD MSTORE SWAP3 DUP8 ADD SWAP3 DUP2 ADD PUSH2 0x1AEB JUMP JUMPDEST PUSH1 0xFF NOT AND DUP4 DUP8 ADD MSTORE POP POP SWAP1 ISZERO ISZERO PUSH1 0x5 SHL DUP4 ADD ADD SWAP4 POP DUP1 DUP6 DUP4 PUSH2 0x1A81 JUMP JUMPDEST PUSH1 0x9 PUSH1 0x0 SWAP1 DUP2 MSTORE SWAP2 POP DUP7 PUSH32 0x6E1540171B6C0C960B71A7020D9F60077F6AF931A8BBF590DA0223DACF75C7AF JUMPDEST DUP3 DUP5 LT PUSH2 0x1B78 JUMPI POP POP POP SWAP2 PUSH2 0x1A54 SWAP3 DUP3 ADD ADD DUP7 SWAP3 PUSH2 0x1A47 JUMP JUMPDEST DUP1 SLOAD DUP8 DUP6 ADD DUP8 ADD MSTORE DUP7 SWAP5 POP SWAP3 DUP6 ADD SWAP3 DUP9 SWAP2 ADD PUSH2 0x1B5F JUMP JUMPDEST PUSH1 0xFF NOT AND DUP5 DUP7 ADD MSTORE POP DUP8 SWAP4 SWAP1 ISZERO ISZERO PUSH1 0x5 SHL DUP4 ADD ADD SWAP1 POP PUSH2 0x1A54 PUSH2 0x1A47 JUMP JUMPDEST CALLVALUE PUSH2 0x1EF JUMPI PUSH1 0x40 PUSH1 0x3 NOT CALLDATASIZE ADD SLT PUSH2 0x1EF JUMPI PUSH8 0xFFFFFFFFFFFFFFFF PUSH1 0x24 CALLDATALOAD DUP2 DUP2 GT PUSH2 0x1EF JUMPI CALLDATASIZE PUSH1 0x23 DUP3 ADD SLT ISZERO PUSH2 0x1EF JUMPI DUP1 PUSH1 0x4 ADD CALLDATALOAD SWAP2 DUP3 GT PUSH2 0x1EF JUMPI CALLDATASIZE PUSH1 0x24 DUP4 DUP4 ADD ADD GT PUSH2 0x1EF JUMPI PUSH1 0x20 SWAP2 PUSH1 0x24 PUSH2 0x1C06 SWAP3 ADD PUSH1 0x4 CALLDATALOAD PUSH2 0x1FFF JUMP JUMPDEST PUSH32 0xFFFFFFFF00000000000000000000000000000000000000000000000000000000 PUSH1 0x40 MLOAD SWAP2 AND DUP2 MSTORE RETURN JUMPDEST CALLVALUE PUSH2 0x1EF JUMPI PUSH1 0x20 PUSH1 0x3 NOT CALLDATASIZE ADD SLT PUSH2 0x1EF JUMPI PUSH1 0x4 CALLDATALOAD PUSH1 0x1 PUSH1 0x1 PUSH1 0xA0 SHL SUB SWAP1 DUP2 DUP2 AND DUP1 SWAP2 SUB PUSH2 0x1EF JUMPI PUSH1 0x6 SLOAD PUSH9 0x10000000000000000 DUP2 LT ISZERO PUSH2 0x17EA JUMPI DUP1 PUSH1 0x1 PUSH2 0x1C7B SWAP3 ADD PUSH1 0x6 SSTORE PUSH2 0x1F75 JUMP JUMPDEST SWAP1 SWAP3 DUP4 SLOAD SWAP2 PUSH1 0x3 SHL SWAP3 DUP4 SHL SWAP3 SHL NOT AND OR SWAP1 SSTORE PUSH1 0x0 DUP1 RETURN JUMPDEST CALLVALUE PUSH2 0x1EF JUMPI PUSH1 0x20 PUSH1 0x3 NOT CALLDATASIZE ADD SLT PUSH2 0x1EF JUMPI PUSH1 0x4 CALLDATALOAD SWAP1 PUSH32 0xFFFFFFFF00000000000000000000000000000000000000000000000000000000 DUP3 AND DUP1 SWAP3 SUB PUSH2 0x1EF JUMPI DUP2 PUSH32 0x85572FFB00000000000000000000000000000000000000000000000000000000 PUSH1 0x20 SWAP4 EQ SWAP1 DUP2 ISZERO PUSH2 0x1D06 JUMPI JUMPDEST POP ISZERO ISZERO DUP2 MSTORE RETURN JUMPDEST PUSH32 0x1FFC9A700000000000000000000000000000000000000000000000000000000 SWAP2 POP EQ DUP4 PUSH2 0x1CFF JUMP JUMPDEST PUSH1 0x24 CALLDATALOAD SWAP1 PUSH1 0x1 PUSH1 0x1 PUSH1 0xA0 SHL SUB DUP3 AND DUP3 SUB PUSH2 0x1EF JUMPI JUMP JUMPDEST PUSH1 0x44 CALLDATALOAD SWAP1 PUSH1 0x1 PUSH1 0x1 PUSH1 0xA0 SHL SUB DUP3 AND DUP3 SUB PUSH2 0x1EF JUMPI JUMP JUMPDEST PUSH1 0x64 CALLDATALOAD SWAP1 PUSH1 0x1 PUSH1 0x1 PUSH1 0xA0 SHL SUB DUP3 AND DUP3 SUB PUSH2 0x1EF JUMPI JUMP JUMPDEST PUSH1 0x84 CALLDATALOAD SWAP1 PUSH1 0x1 PUSH1 0x1 PUSH1 0xA0 SHL SUB DUP3 AND DUP3 SUB PUSH2 0x1EF JUMPI JUMP JUMPDEST PUSH1 0xA4 CALLDATALOAD SWAP1 PUSH1 0x1 PUSH1 0x1 PUSH1 0xA0 SHL SUB DUP3 AND DUP3 SUB PUSH2 0x1EF JUMPI JUMP JUMPDEST PUSH1 0x0 JUMPDEST DUP4 DUP2 LT PUSH2 0x1DB1 JUMPI POP POP PUSH1 0x0 SWAP2 ADD MSTORE JUMP JUMPDEST DUP2 DUP2 ADD MLOAD DUP4 DUP3 ADD MSTORE PUSH1 0x20 ADD PUSH2 0x1DA1 JUMP JUMPDEST SWAP1 PUSH1 0x1F NOT PUSH1 0x1F PUSH1 0x20 SWAP4 PUSH2 0x1DDF DUP2 MLOAD DUP1 SWAP3 DUP2 DUP8 MSTORE DUP8 DUP1 DUP9 ADD SWAP2 ADD PUSH2 0x1D9E JUMP JUMPDEST ADD AND ADD ADD SWAP1 JUMP JUMPDEST PUSH1 0x40 DUP2 ADD SWAP1 DUP2 LT PUSH8 0xFFFFFFFFFFFFFFFF DUP3 GT OR PUSH2 0x17EA JUMPI PUSH1 0x40 MSTORE JUMP JUMPDEST PUSH1 0x20 DUP2 ADD SWAP1 DUP2 LT PUSH8 0xFFFFFFFFFFFFFFFF DUP3 GT OR PUSH2 0x17EA JUMPI PUSH1 0x40 MSTORE JUMP JUMPDEST PUSH1 0xA0 DUP2 ADD SWAP1 DUP2 LT PUSH8 0xFFFFFFFFFFFFFFFF DUP3 GT OR PUSH2 0x17EA JUMPI PUSH1 0x40 MSTORE JUMP JUMPDEST PUSH1 0x60 DUP2 ADD SWAP1 DUP2 LT PUSH8 0xFFFFFFFFFFFFFFFF DUP3 GT OR PUSH2 0x17EA JUMPI PUSH1 0x40 MSTORE JUMP JUMPDEST SWAP1 PUSH1 0x1F PUSH1 0x1F NOT SWAP2 ADD AND DUP2 ADD SWAP1 DUP2 LT PUSH8 0xFFFFFFFFFFFFFFFF DUP3 GT OR PUSH2 0x17EA JUMPI PUSH1 0x40 MSTORE JUMP JUMPDEST PUSH1 0x20 DUP1 DUP3 ADD SWAP1 PUSH1 0x20 DUP4 MSTORE DUP4 MLOAD DUP1 SWAP3 MSTORE PUSH1 0x40 DUP4 ADD SWAP3 PUSH1 0x20 PUSH1 0x40 DUP5 PUSH1 0x5 SHL DUP4 ADD ADD SWAP6 ADD SWAP4 PUSH1 0x0 SWAP2 JUMPDEST DUP5 DUP4 LT PUSH2 0x1EAF JUMPI POP POP POP POP POP POP SWAP1 JUMP JUMPDEST SWAP1 SWAP2 SWAP3 SWAP4 SWAP5 SWAP6 DUP5 DUP1 PUSH2 0x1EEB DUP4 PUSH32 0xFFFFFFFFFFFFFFFFFFFFFFFFFFFFFFFFFFFFFFFFFFFFFFFFFFFFFFFFFFFFFFC0 DUP7 PUSH1 0x1 SWAP7 SUB ADD DUP8 MSTORE DUP11 MLOAD PUSH2 0x1DC1 JUMP JUMPDEST SWAP9 ADD SWAP4 ADD SWAP4 ADD SWAP2 SWAP5 SWAP4 SWAP3 SWAP1 PUSH2 0x1E9F JUMP JUMPDEST PUSH1 0x4 CALLDATALOAD SWAP1 PUSH8 0xFFFFFFFFFFFFFFFF DUP3 AND DUP3 SUB PUSH2 0x1EF JUMPI JUMP JUMPDEST PUSH8 0xFFFFFFFFFFFFFFFF DUP2 GT PUSH2 0x17EA JUMPI PUSH1 0x1F ADD PUSH1 0x1F NOT AND PUSH1 0x20 ADD SWAP1 JUMP JUMPDEST DUP2 PUSH1 0x1F DUP3 ADD SLT ISZERO PUSH2 0x1EF JUMPI DUP1 CALLDATALOAD SWAP1 PUSH2 0x1F45 DUP3 PUSH2 0x1F12 JUMP JUMPDEST SWAP3 PUSH2 0x1F53 PUSH1 0x40 MLOAD SWAP5 DUP6 PUSH2 0x1E56 JUMP JUMPDEST DUP3 DUP5 MSTORE PUSH1 0x20 DUP4 DUP4 ADD ADD GT PUSH2 0x1EF JUMPI DUP2 PUSH1 0x0 SWAP3 PUSH1 0x20 DUP1 SWAP4 ADD DUP4 DUP7 ADD CALLDATACOPY DUP4 ADD ADD MSTORE SWAP1 JUMP JUMPDEST PUSH1 0x6 SLOAD DUP2 LT ISZERO PUSH2 0x1FAC JUMPI PUSH1 0x6 PUSH1 0x0 MSTORE PUSH32 0xF652222313E28459528D920B65115C16C04F3EFC82AAEDC97BE59F3F377C0D3F ADD SWAP1 PUSH1 0x0 SWAP1 JUMP JUMPDEST PUSH4 0x4E487B71 PUSH1 0xE0 SHL PUSH1 0x0 MSTORE PUSH1 0x32 PUSH1 0x4 MSTORE PUSH1 0x24 PUSH1 0x0 REVERT JUMPDEST SWAP1 DUP2 MLOAD DUP1 DUP3 MSTORE PUSH1 0x20 DUP1 DUP1 SWAP4 ADD SWAP4 ADD SWAP2 PUSH1 0x0 JUMPDEST DUP3 DUP2 LT PUSH2 0x1FE2 JUMPI POP POP POP POP SWAP1 JUMP JUMPDEST DUP4 MLOAD PUSH1 0x1 PUSH1 0x1 PUSH1 0xA0 SHL SUB AND DUP6 MSTORE SWAP4 DUP2 ADD SWAP4 SWAP3 DUP2 ADD SWAP3 PUSH1 0x1 ADD PUSH2 0x1FD4 JUMP JUMPDEST SWAP1 PUSH2 0x2020 SWAP3 SWAP2 PUSH1 0x40 MLOAD SWAP1 PUSH1 0x20 DUP3 ADD MSTORE PUSH1 0x20 DUP2 MSTORE PUSH2 0x201B DUP2 PUSH2 0x1DE6 JUMP JUMPDEST PUSH2 0x24EA JUMP JUMPDEST PUSH2 0x2048 JUMPI PUSH32 0xFFFFFFFF00000000000000000000000000000000000000000000000000000000 SWAP1 JUMP JUMPDEST PUSH32 0x1626BA7E00000000000000000000000000000000000000000000000000000000 SWAP1 JUMP JUMPDEST SWAP1 PUSH1 0x1 DUP3 DUP2 SHR SWAP3 AND DUP1 ISZERO PUSH2 0x209C JUMPI JUMPDEST PUSH1 0x20 DUP4 LT EQ PUSH2 0x2086 JUMPI JUMP JUMPDEST PUSH4 0x4E487B71 PUSH1 0xE0 SHL PUSH1 0x0 MSTORE PUSH1 0x22 PUSH1 0x4 MSTORE PUSH1 0x24 PUSH1 0x0 REVERT JUMPDEST SWAP2 PUSH1 0x7F AND SWAP2 PUSH2 0x207B JUMP JUMPDEST DUP1 SLOAD PUSH1 0x0 SWAP4 SWAP3 PUSH2 0x20B5 DUP3 PUSH2 0x206C JUMP JUMPDEST SWAP2 DUP3 DUP3 MSTORE PUSH1 0x20 SWAP4 PUSH1 0x1 SWAP2 PUSH1 0x1 DUP2 AND SWAP1 DUP2 PUSH1 0x0 EQ PUSH2 0x211D JUMPI POP PUSH1 0x1 EQ PUSH2 0x20DC JUMPI JUMPDEST POP POP POP POP POP JUMP JUMPDEST SWAP1 SWAP4 SWAP5 SWAP6 POP PUSH1 0x0 SWAP3 SWAP2 SWAP3 MSTORE DUP4 PUSH1 0x0 KECCAK256 SWAP3 DUP5 PUSH1 0x0 SWAP5 JUMPDEST DUP4 DUP7 LT PUSH2 0x2109 JUMPI POP POP POP POP ADD ADD SWAP1 CODESIZE DUP1 DUP1 DUP1 DUP1 PUSH2 0x20D5 JUMP JUMPDEST DUP1 SLOAD DUP6 DUP8 ADD DUP4 ADD MSTORE SWAP5 ADD SWAP4 DUP6 SWAP1 DUP3 ADD PUSH2 0x20F1 JUMP JUMPDEST PUSH1 0xFF NOT AND DUP7 DUP6 ADD MSTORE POP POP POP SWAP1 ISZERO ISZERO PUSH1 0x5 SHL ADD ADD SWAP2 POP CODESIZE DUP1 DUP1 DUP1 DUP1 PUSH2 0x20D5 JUMP JUMPDEST PUSH8 0xFFFFFFFFFFFFFFFF DUP2 GT PUSH2 0x17EA JUMPI PUSH1 0x5 SHL PUSH1 0x20 ADD SWAP1 JUMP JUMPDEST SWAP1 DUP2 PUSH1 0x20 SWAP2 SUB SLT PUSH2 0x1EF JUMPI MLOAD PUSH1 0x1 PUSH1 0x1 PUSH1 0xA0 SHL SUB DUP2 AND DUP2 SUB PUSH2 0x1EF JUMPI SWAP1 JUMP JUMPDEST SWAP2 SWAP1 PUSH2 0x2188 DUP4 MLOAD PUSH1 0xA0 DUP4 MSTORE PUSH1 0xA0 DUP4 ADD SWAP1 PUSH2 0x1DC1 JUMP JUMPDEST SWAP1 PUSH2 0x219F PUSH1 0x20 SWAP3 DUP4 DUP7 ADD MLOAD DUP4 DUP3 SUB DUP6 DUP6 ADD MSTORE PUSH2 0x1DC1 JUMP JUMPDEST PUSH1 0x40 SWAP1 PUSH1 0x40 DUP7 ADD MLOAD SWAP4 DUP4 DUP3 SUB PUSH1 0x40 DUP6 ADD MSTORE DUP1 DUP1 DUP7 MLOAD SWAP4 DUP5 DUP2 MSTORE ADD SWAP6 ADD SWAP3 PUSH1 0x0 SWAP1 JUMPDEST DUP4 DUP3 LT PUSH2 0x21F9 JUMPI POP POP POP POP POP PUSH1 0x80 DUP5 PUSH1 0x1 PUSH1 0x1 PUSH1 0xA0 SHL SUB PUSH1 0x60 PUSH2 0x21F6 SWAP7 SWAP8 ADD MLOAD AND PUSH1 0x60 DUP5 ADD MSTORE ADD MLOAD SWAP1 PUSH1 0x80 DUP2 DUP5 SUB SWAP2 ADD MSTORE PUSH2 0x1DC1 JUMP JUMPDEST SWAP1 JUMP JUMPDEST DUP5 MLOAD DUP1 MLOAD PUSH1 0x1 PUSH1 0x1 PUSH1 0xA0 SHL SUB AND DUP9 MSTORE DUP4 ADD MLOAD DUP8 DUP5 ADD MSTORE SWAP6 DUP7 ADD SWAP6 SWAP4 DUP3 ADD SWAP4 PUSH1 0x1 SWAP1 SWAP2 ADD SWAP1 PUSH2 0x21C0 JUMP JUMPDEST PUSH1 0x1 PUSH1 0x1 PUSH1 0xA0 SHL SUB PUSH2 0x21F6 SWAP5 SWAP4 PUSH8 0xFFFFFFFFFFFFFFFF PUSH1 0x60 SWAP5 AND DUP4 MSTORE AND PUSH1 0x20 DUP3 ADD MSTORE DUP2 PUSH1 0x40 DUP3 ADD MSTORE ADD SWAP1 PUSH2 0x2173 JUMP JUMPDEST PUSH1 0x40 MLOAD SWAP1 PUSH2 0x225E DUP3 PUSH2 0x1DE6 JUMP JUMPDEST PUSH1 0xB DUP3 MSTORE PUSH32 0x6574682D7365706F6C6961000000000000000000000000000000000000000000 PUSH1 0x20 DUP4 ADD MSTORE JUMP JUMPDEST ISZERO PUSH2 0x2291 JUMPI JUMP JUMPDEST PUSH1 0x64 PUSH1 0x40 MLOAD PUSH3 0x461BCD PUSH1 0xE5 SHL DUP2 MSTORE PUSH1 0x20 PUSH1 0x4 DUP3 ADD MSTORE PUSH1 0x18 PUSH1 0x24 DUP3 ADD MSTORE PUSH32 0x417175617269756D20646F6573206E6F742065786973742E0000000000000000 PUSH1 0x44 DUP3 ADD MSTORE REVERT JUMPDEST RETURNDATASIZE ISZERO PUSH2 0x2300 JUMPI RETURNDATASIZE SWAP1 PUSH2 0x22E6 DUP3 PUSH2 0x1F12 JUMP JUMPDEST SWAP2 PUSH2 0x22F4 PUSH1 0x40 MLOAD SWAP4 DUP5 PUSH2 0x1E56 JUMP JUMPDEST DUP3 MSTORE RETURNDATASIZE PUSH1 0x0 PUSH1 0x20 DUP5 ADD RETURNDATACOPY JUMP JUMPDEST PUSH1 0x60 SWAP1 JUMP JUMPDEST DUP1 MLOAD ISZERO PUSH2 0x1FAC JUMPI PUSH1 0x20 ADD SWAP1 JUMP JUMPDEST DUP1 MLOAD PUSH1 0x1 LT ISZERO PUSH2 0x1FAC JUMPI PUSH1 0x40 ADD SWAP1 JUMP JUMPDEST DUP2 DUP2 LT PUSH2 0x232D JUMPI POP POP JUMP JUMPDEST PUSH1 0x0 DUP2 SSTORE PUSH1 0x1 ADD PUSH2 0x2322 JUMP JUMPDEST SWAP2 SWAP1 SWAP2 DUP3 MLOAD PUSH8 0xFFFFFFFFFFFFFFFF DUP2 GT PUSH2 0x17EA JUMPI PUSH2 0x2357 DUP3 SLOAD PUSH2 0x206C JUMP JUMPDEST PUSH1 0x1F DUP2 GT PUSH2 0x2407 JUMPI JUMPDEST POP PUSH1 0x20 DUP1 PUSH1 0x1F DUP4 GT PUSH1 0x1 EQ PUSH2 0x23A2 JUMPI POP DUP2 SWAP1 PUSH2 0x2393 SWAP4 SWAP5 SWAP6 PUSH1 0x0 SWAP3 PUSH2 0x2397 JUMPI POP POP PUSH1 0x0 NOT DUP3 PUSH1 0x1 SHL SWAP3 PUSH1 0x3 SHL SHR NOT AND OR SWAP1 JUMP JUMPDEST SWAP1 SSTORE JUMP JUMPDEST ADD MLOAD SWAP1 POP CODESIZE DUP1 PUSH2 0x1335 JUMP JUMPDEST SWAP1 PUSH1 0x1F NOT DUP4 AND SWAP6 DUP5 PUSH1 0x0 MSTORE PUSH1 0x20 PUSH1 0x0 KECCAK256 SWAP3 PUSH1 0x0 SWAP1 JUMPDEST DUP9 DUP3 LT PUSH2 0x23EF JUMPI POP POP DUP4 PUSH1 0x1 SWAP6 SWAP7 SWAP8 LT PUSH2 0x23D6 JUMPI JUMPDEST POP POP POP DUP2 SHL ADD SWAP1 SSTORE JUMP JUMPDEST ADD MLOAD PUSH1 0x0 NOT PUSH1 0xF8 DUP5 PUSH1 0x3 SHL AND SHR NOT AND SWAP1 SSTORE CODESIZE DUP1 DUP1 PUSH2 0x23CC JUMP JUMPDEST DUP1 PUSH1 0x1 DUP6 SWAP7 DUP3 SWAP5 SWAP7 DUP7 ADD MLOAD DUP2 SSTORE ADD SWAP6 ADD SWAP4 ADD SWAP1 PUSH2 0x23B7 JUMP JUMPDEST PUSH2 0x2434 SWAP1 DUP4 PUSH1 0x0 MSTORE PUSH1 0x20 PUSH1 0x0 KECCAK256 PUSH1 0x1F DUP5 ADD PUSH1 0x5 SHR DUP2 ADD SWAP2 PUSH1 0x20 DUP6 LT PUSH2 0x243A JUMPI JUMPDEST PUSH1 0x1F ADD PUSH1 0x5 SHR ADD SWAP1 PUSH2 0x2322 JUMP JUMPDEST CODESIZE PUSH2 0x2360 JUMP JUMPDEST SWAP1 SWAP2 POP DUP2 SWAP1 PUSH2 0x2427 JUMP JUMPDEST PUSH1 0xB SLOAD SWAP1 PUSH9 0x10000000000000000 DUP3 LT ISZERO PUSH2 0x17EA JUMPI PUSH1 0x1 DUP3 ADD DUP1 PUSH1 0xB SSTORE DUP3 LT ISZERO PUSH2 0x1FAC JUMPI PUSH2 0x2498 SWAP2 PUSH1 0xB PUSH1 0x0 MSTORE PUSH32 0x175B7A638427703F0DBE7BB9BBF987A2551717B34E79F33B5B1008D1FA01DB9 ADD PUSH2 0x2339 JUMP JUMPDEST JUMP JUMPDEST PUSH1 0x20 PUSH2 0x24AC SWAP2 PUSH2 0x1077 PUSH2 0x1072 DUP3 PUSH2 0x27B9 JUMP JUMPDEST DUP2 ADD PUSH1 0xC DUP2 MSTORE SUB ADD SWAP1 KECCAK256 SWAP1 DUP2 SLOAD PUSH9 0x10000000000000000 DUP2 LT ISZERO PUSH2 0x17EA JUMPI PUSH1 0x1 DUP2 ADD DUP1 DUP5 SSTORE DUP2 LT ISZERO PUSH2 0x1FAC JUMPI PUSH2 0x2498 SWAP3 PUSH1 0x0 MSTORE PUSH1 0x20 PUSH1 0x0 KECCAK256 ADD PUSH2 0x2339 JUMP JUMPDEST SWAP1 SWAP2 DUP3 ADD SWAP2 PUSH1 0x20 DUP2 DUP5 SUB SLT PUSH2 0x1EF JUMPI DUP1 CALLDATALOAD PUSH8 0xFFFFFFFFFFFFFFFF SWAP2 DUP3 DUP3 GT PUSH2 0x1EF JUMPI ADD SWAP1 PUSH1 0xC0 DUP3 DUP6 SUB SLT PUSH2 0x1EF JUMPI PUSH1 0x40 MLOAD SWAP1 PUSH1 0xC0 DUP3 ADD DUP3 DUP2 LT DUP3 DUP3 GT OR PUSH2 0x17EA JUMPI PUSH1 0x40 MSTORE DUP3 CALLDATALOAD DUP2 DUP2 GT PUSH2 0x1EF JUMPI DUP6 PUSH2 0x2543 SWAP2 DUP6 ADD PUSH2 0x1F2E JUMP JUMPDEST DUP3 MSTORE PUSH1 0x20 DUP4 ADD CALLDATALOAD SWAP1 DUP2 GT PUSH2 0x1EF JUMPI PUSH2 0x21F6 SWAP5 PUSH2 0x2560 SWAP2 DUP5 ADD PUSH2 0x1F2E JUMP JUMPDEST SWAP2 DUP3 PUSH1 0x20 DUP4 ADD MSTORE PUSH1 0x40 DUP2 ADD CALLDATALOAD DUP1 PUSH1 0x40 DUP5 ADD MSTORE PUSH1 0x60 DUP3 ADD CALLDATALOAD SWAP1 DUP2 PUSH1 0x60 DUP6 ADD MSTORE PUSH1 0xA0 PUSH1 0x80 DUP5 ADD CALLDATALOAD SWAP4 DUP5 PUSH1 0x80 DUP8 ADD MSTORE ADD CALLDATALOAD SWAP4 DUP5 PUSH1 0xA0 DUP3 ADD MSTORE MLOAD SWAP5 PUSH1 0x4 SLOAD SWAP6 PUSH1 0x5 SLOAD SWAP8 PUSH2 0x290E JUMP JUMPDEST SWAP1 CALLDATALOAD SWAP1 PUSH32 0xFFFFFFFFFFFFFFFFFFFFFFFFFFFFFFFFFFFFFFFFFFFFFFFFFFFFFFFFFFFFFFE1 DUP2 CALLDATASIZE SUB ADD DUP3 SLT ISZERO PUSH2 0x1EF JUMPI ADD DUP1 CALLDATALOAD SWAP1 PUSH8 0xFFFFFFFFFFFFFFFF DUP3 GT PUSH2 0x1EF JUMPI PUSH1 0x20 ADD SWAP2 DUP2 CALLDATASIZE SUB DUP4 SGT PUSH2 0x1EF JUMPI JUMP JUMPDEST PUSH1 0x0 SWAP3 SWAP2 PUSH2 0x140 DUP3 ADD SWAP2 PUSH2 0x2609 DUP4 DUP3 PUSH2 0x25A4 JUMP JUMPDEST DUP1 SWAP3 SWAP2 POP ISZERO PUSH2 0x270A JUMPI PUSH2 0x261C DUP5 DUP3 PUSH2 0x25A4 JUMP JUMPDEST ISZERO PUSH2 0x271F JUMPI CALLDATALOAD SWAP2 PUSH1 0x1 DUP4 PUSH1 0xF8 SHR EQ PUSH1 0x0 EQ PUSH2 0x2714 JUMPI PUSH1 0x7 GT PUSH2 0x270A JUMPI PUSH2 0x2642 DUP5 DUP3 PUSH2 0x25A4 JUMP JUMPDEST PUSH1 0x7 SWAP6 SWAP2 SWAP6 GT PUSH2 0x2706 JUMPI PUSH2 0x2655 SWAP2 PUSH2 0x25A4 JUMP JUMPDEST SWAP3 SWAP1 SWAP6 DUP4 PUSH1 0x7 GT PUSH2 0x2703 JUMPI POP PUSH32 0xFFFFFFFFFFFF0000000000000000000000000000000000000000000000000000 PUSH1 0x1 PUSH32 0xFFFFFFFFFFFFFFFFFFFFFFFFFFFFFFFFFFFFFFFFFFFFFFFFFFFFFFFFFFFFFFF9 PUSH1 0x7 PUSH2 0x26F5 SWAP9 SWAP10 ADD SWAP6 ADD SWAP6 PUSH32 0xFF00000000000000000000000000000000000000000000000000000000000000 PUSH1 0x40 MLOAD SWAP6 AND PUSH1 0x20 DUP7 ADD MSTORE ADD CALLDATALOAD AND PUSH1 0x21 DUP4 ADD MSTORE PUSH1 0x27 DUP3 ADD MSTORE PUSH1 0x27 DUP2 MSTORE PUSH2 0x201B DUP2 PUSH2 0x1E3A JUMP JUMPDEST PUSH2 0x26FE JUMPI PUSH1 0x1 SWAP1 JUMP JUMPDEST PUSH1 0x0 SWAP1 JUMP JUMPDEST DUP1 REVERT JUMPDEST DUP7 DUP1 REVERT JUMPDEST POP PUSH1 0x1 SWAP5 POP POP POP POP JUMP JUMPDEST POP PUSH1 0x1 SWAP6 POP POP POP POP POP JUMP JUMPDEST PUSH1 0x24 DUP8 PUSH4 0x4E487B71 PUSH1 0xE0 SHL DUP2 MSTORE PUSH1 0x32 PUSH1 0x4 MSTORE REVERT JUMPDEST PUSH1 0x40 MLOAD SWAP1 PUSH32 0x97A657C900000000000000000000000000000000000000000000000000000000 PUSH1 0x20 DUP4 ADD MSTORE MLOAD PUSH1 0x24 DUP3 ADD MSTORE PUSH1 0x24 DUP2 MSTORE PUSH2 0x21F6 DUP2 PUSH2 0x1E3A JUMP JUMPDEST MLOAD SWAP1 PUSH1 0x1 PUSH1 0x1 PUSH1 0xA0 SHL SUB DUP3 AND DUP3 SUB PUSH2 0x1EF JUMPI JUMP JUMPDEST SWAP1 SWAP3 SWAP2 SWAP3 PUSH2 0x2791 DUP2 PUSH2 0x1F12 JUMP JUMPDEST SWAP2 PUSH2 0x279F PUSH1 0x40 MLOAD SWAP4 DUP5 PUSH2 0x1E56 JUMP JUMPDEST DUP3 SWAP5 DUP3 DUP5 MSTORE DUP3 DUP3 ADD GT PUSH2 0x1EF JUMPI PUSH1 0x20 PUSH2 0x2498 SWAP4 ADD SWAP1 PUSH2 0x1D9E JUMP JUMPDEST PUSH1 0x0 SWAP1 PUSH1 0xB DUP1 SLOAD SWAP3 JUMPDEST DUP4 DUP2 LT PUSH2 0x27D2 JUMPI POP POP POP POP PUSH1 0x0 SWAP1 JUMP JUMPDEST DUP2 PUSH1 0x0 MSTORE DUP1 PUSH32 0x175B7A638427703F0DBE7BB9BBF987A2551717B34E79F33B5B1008D1FA01DB9 ADD PUSH1 0x40 DUP1 MLOAD PUSH1 0x20 SWAP1 DUP2 DUP2 ADD SWAP1 PUSH1 0x0 SWAP5 DUP2 DUP2 SLOAD SWAP7 PUSH2 0x2814 DUP9 PUSH2 0x206C JUMP JUMPDEST SWAP3 PUSH1 0x1 SWAP9 DUP8 DUP11 DUP3 AND SWAP2 DUP3 PUSH1 0x0 EQ PUSH2 0x28C8 JUMPI POP POP PUSH1 0x1 EQ PUSH2 0x2887 JUMPI JUMPDEST POP PUSH2 0x2843 SWAP3 POP SUB PUSH1 0x1F NOT DUP2 ADD DUP4 MSTORE DUP3 PUSH2 0x1E56 JUMP JUMPDEST MLOAD SWAP1 KECCAK256 SWAP2 MLOAD PUSH2 0x286E DUP3 DUP3 ADD SWAP3 DUP3 DUP2 PUSH2 0x2861 DUP12 DUP8 DUP2 MLOAD SWAP4 DUP5 SWAP3 ADD PUSH2 0x1D9E JUMP JUMPDEST DUP2 ADD SUB DUP1 DUP5 MSTORE ADD DUP3 PUSH2 0x1E56 JUMP JUMPDEST MLOAD SWAP1 KECCAK256 EQ PUSH2 0x287F JUMPI POP PUSH1 0x1 ADD PUSH2 0x27C2 JUMP JUMPDEST SWAP4 POP POP POP POP SWAP1 JUMP JUMPDEST SWAP2 POP POP PUSH1 0x0 MSTORE DUP2 DUP5 DUP1 PUSH1 0x0 KECCAK256 DUP9 PUSH1 0x0 SWAP2 JUMPDEST DUP6 DUP4 LT PUSH2 0x28AF JUMPI POP POP POP PUSH2 0x2843 SWAP3 DUP3 ADD ADD CODESIZE PUSH2 0x282F JUMP JUMPDEST DUP1 SWAP2 SWAP3 SWAP5 POP SLOAD DUP4 DUP6 DUP9 ADD ADD MSTORE ADD SWAP2 ADD DUP6 SWAP1 DUP9 DUP6 SWAP4 PUSH2 0x2898 JUMP JUMPDEST PUSH1 0xFF NOT AND DUP9 MSTORE PUSH2 0x2843 SWAP6 DUP1 ISZERO ISZERO MUL DUP6 ADD ADD SWAP3 POP CODESIZE SWAP2 POP PUSH2 0x282F SWAP1 POP JUMP JUMPDEST SWAP1 DUP2 PUSH1 0x20 SWAP2 SUB SLT PUSH2 0x1EF JUMPI MLOAD DUP1 ISZERO ISZERO DUP2 SUB PUSH2 0x1EF JUMPI SWAP1 JUMP JUMPDEST SWAP1 DUP2 MLOAD DUP2 LT ISZERO PUSH2 0x1FAC JUMPI ADD PUSH1 0x20 ADD SWAP1 JUMP JUMPDEST SWAP8 SWAP4 SWAP6 SWAP5 SWAP7 SWAP3 SWAP2 SWAP1 SWAP2 DUP3 MLOAD SWAP9 PUSH1 0x20 SWAP10 DUP11 DUP2 LT SWAP1 DUP2 ISZERO PUSH2 0x2D78 JUMPI JUMPDEST POP PUSH2 0x2D69 JUMPI PUSH2 0x296E PUSH1 0x40 SWAP9 DUP5 DUP13 PUSH32 0x2274797065223A22776562617574686E2E676574220000000000000000000000 DUP13 MLOAD SWAP2 PUSH2 0x2962 DUP4 PUSH2 0x1DE6 JUMP JUMPDEST PUSH1 0x15 DUP4 MSTORE DUP3 ADD MSTORE PUSH2 0x2E52 JUMP JUMPDEST ISZERO PUSH2 0x2D69 JUMPI PUSH2 0x297C SWAP1 PUSH2 0x2EDB JUMP JUMPDEST PUSH1 0x0 DUP2 MLOAD PUSH1 0x2 DUP2 GT SWAP1 DUP2 PUSH2 0x2D07 JUMPI JUMPDEST POP ISZERO PUSH2 0x2C76 JUMPI POP PUSH1 0x2 JUMPDEST DUP2 MLOAD SWAP1 DUP2 SUB SWAP1 DUP2 GT PUSH2 0xA37 JUMPI DUP11 SWAP3 SWAP2 DUP2 DUP11 PUSH2 0x29B0 DUP8 SWAP5 PUSH2 0x1F12 JUMP JUMPDEST SWAP2 PUSH2 0x29BD DUP3 MLOAD SWAP4 DUP5 PUSH2 0x1E56 JUMP JUMPDEST DUP1 DUP4 MSTORE PUSH2 0x29C9 DUP2 PUSH2 0x1F12 JUMP JUMPDEST SWAP4 PUSH1 0x1F NOT DUP9 DUP6 ADD SWAP6 ADD CALLDATASIZE DUP7 CALLDATACOPY PUSH1 0x0 JUMPDEST DUP3 DUP2 LT PUSH2 0x2B99 JUMPI POP POP POP PUSH2 0x2A61 SWAP6 PUSH32 0x226368616C6C656E6765223A2200000000000000000000000000000000000000 SWAP4 PUSH2 0x2A26 PUSH2 0x2A5C SWAP5 PUSH1 0x2E SWAP5 MLOAD SWAP7 DUP8 SWAP5 DUP6 ADD MSTORE MLOAD DUP1 SWAP3 PUSH1 0x2D DUP6 ADD SWAP1 PUSH2 0x1D9E JUMP JUMPDEST DUP2 ADD PUSH32 0x2200000000000000000000000000000000000000000000000000000000000000 PUSH1 0x2D DUP3 ADD MSTORE SUB PUSH1 0xE DUP2 ADD DUP5 MSTORE ADD DUP3 PUSH2 0x1E56 JUMP JUMPDEST PUSH2 0x2E52 JUMP JUMPDEST ISZERO PUSH2 0x2B8C JUMPI PUSH1 0x0 PUSH2 0x2A7F DUP10 SWAP3 DUP4 DUP10 MLOAD SWAP3 DUP3 DUP5 DUP1 SWAP5 MLOAD SWAP4 DUP5 SWAP3 ADD PUSH2 0x1D9E JUMP JUMPDEST DUP2 ADD SUB SWAP1 PUSH1 0x2 GAS STATICCALL ISZERO PUSH2 0x2B81 JUMPI PUSH1 0x0 PUSH2 0x2AD5 DUP9 SWAP3 DUP3 MLOAD PUSH2 0x2AC5 DUP10 DUP1 MLOAD DUP1 SWAP4 DUP9 PUSH2 0x2AB1 DUP2 DUP5 ADD SWAP8 DUP9 DUP2 MLOAD SWAP4 DUP5 SWAP3 ADD PUSH2 0x1D9E JUMP JUMPDEST DUP3 ADD SWAP1 DUP10 DUP3 ADD MSTORE SUB DUP8 DUP2 ADD DUP5 MSTORE ADD DUP3 PUSH2 0x1E56 JUMP JUMPDEST DUP9 MLOAD SWAP3 DUP4 SWAP3 DUP4 SWAP3 MLOAD SWAP3 DUP4 SWAP2 PUSH2 0x1D9E JUMP JUMPDEST DUP2 ADD SUB SWAP1 PUSH1 0x2 GAS STATICCALL ISZERO PUSH2 0x2B76 JUMPI PUSH1 0x0 MLOAD SWAP3 DUP5 MLOAD SWAP6 DUP8 DUP8 ADD SWAP5 DUP6 MSTORE DUP6 DUP8 ADD MSTORE PUSH1 0x60 DUP7 ADD MSTORE PUSH1 0x80 DUP6 ADD MSTORE PUSH1 0xA0 DUP5 ADD MSTORE PUSH1 0xA0 DUP4 MSTORE PUSH1 0xC0 DUP4 ADD SWAP3 DUP1 DUP5 LT PUSH8 0xFFFFFFFFFFFFFFFF DUP6 GT OR PUSH2 0x17EA JUMPI PUSH1 0x0 SWAP4 DUP5 SWAP4 MSTORE MLOAD SWAP1 PUSH20 0x94474DB941CB2D89F3DBD946AAEC40054C30A9CD GAS STATICCALL SWAP1 PUSH2 0x2B46 PUSH2 0x22D5 JUMP JUMPDEST SWAP2 ISZERO PUSH2 0x2B60 JUMPI DUP1 DUP3 DUP1 MLOAD DUP2 ADD SUB SLT PUSH2 0x1EF JUMPI ADD MLOAD PUSH1 0x1 EQ SWAP1 JUMP JUMPDEST PUSH4 0x4E487B71 PUSH1 0xE0 SHL PUSH1 0x0 MSTORE PUSH1 0x1 PUSH1 0x4 MSTORE PUSH1 0x24 PUSH1 0x0 REVERT JUMPDEST DUP4 MLOAD RETURNDATASIZE PUSH1 0x0 DUP3 RETURNDATACOPY RETURNDATASIZE SWAP1 REVERT JUMPDEST DUP5 MLOAD RETURNDATASIZE PUSH1 0x0 DUP3 RETURNDATACOPY RETURNDATASIZE SWAP1 REVERT JUMPDEST POP POP POP POP POP POP POP POP PUSH1 0x0 SWAP1 JUMP JUMPDEST SWAP2 SWAP5 SWAP7 SWAP8 POP SWAP3 SWAP5 POP PUSH1 0x1 SWAP2 POP PUSH32 0xFF00000000000000000000000000000000000000000000000000000000000000 PUSH32 0x2B00000000000000000000000000000000000000000000000000000000000000 DUP2 PUSH2 0x2BF2 DUP5 DUP8 PUSH2 0x28FD JUMP JUMPDEST MLOAD AND SUB PUSH2 0x2C17 JUMPI POP PUSH1 0x2D PUSH2 0x2C06 DUP3 DUP8 PUSH2 0x28FD JUMP JUMPDEST MSTORE8 JUMPDEST ADD DUP14 SWAP6 SWAP5 SWAP3 DUP8 SWAP5 SWAP3 DUP14 SWAP3 PUSH2 0x29D8 JUMP JUMPDEST PUSH32 0x2F00000000000000000000000000000000000000000000000000000000000000 DUP2 PUSH2 0x2C43 DUP5 DUP8 PUSH2 0x28FD JUMP JUMPDEST MLOAD AND SUB PUSH2 0x2C5D JUMPI POP PUSH1 0x5F PUSH2 0x2C57 DUP3 DUP8 PUSH2 0x28FD JUMP JUMPDEST MSTORE8 PUSH2 0x2C08 JUMP JUMPDEST PUSH2 0x2C67 DUP3 DUP6 PUSH2 0x28FD JUMP JUMPDEST MLOAD AND PUSH1 0x0 BYTE PUSH2 0x2C57 DUP3 DUP8 PUSH2 0x28FD JUMP JUMPDEST DUP2 MLOAD PUSH1 0x1 DUP2 GT SWAP1 DUP2 PUSH2 0x2C91 JUMPI JUMPDEST POP ISZERO PUSH2 0x2995 JUMPI POP PUSH1 0x1 PUSH2 0x2995 JUMP JUMPDEST PUSH1 0x0 NOT DUP2 ADD SWAP2 POP DUP2 GT PUSH2 0x2CF3 JUMPI PUSH32 0xFF00000000000000000000000000000000000000000000000000000000000000 PUSH2 0x2CEA PUSH32 0x3D00000000000000000000000000000000000000000000000000000000000000 SWAP3 DUP6 PUSH2 0x28FD JUMP JUMPDEST MLOAD AND EQ CODESIZE PUSH2 0x2C83 JUMP JUMPDEST PUSH1 0x24 DUP3 PUSH4 0x4E487B71 PUSH1 0xE0 SHL DUP2 MSTORE PUSH1 0x11 PUSH1 0x4 MSTORE REVERT JUMPDEST PUSH1 0x1 NOT DUP2 ADD SWAP2 POP DUP2 GT PUSH2 0x2CF3 JUMPI PUSH32 0xFF00000000000000000000000000000000000000000000000000000000000000 PUSH2 0x2D60 PUSH32 0x3D00000000000000000000000000000000000000000000000000000000000000 SWAP3 DUP6 PUSH2 0x28FD JUMP JUMPDEST MLOAD AND EQ CODESIZE PUSH2 0x298B JUMP JUMPDEST POP POP POP POP POP POP POP POP POP POP PUSH1 0x0 SWAP1 JUMP JUMPDEST SWAP1 POP DUP11 LT ISZERO PUSH2 0x1FAC JUMPI PUSH2 0x2DB0 PUSH32 0xFF00000000000000000000000000000000000000000000000000000000000000 PUSH1 0x40 DUP7 ADD MLOAD AND PUSH2 0x2DB7 JUMP JUMPDEST ISZERO CODESIZE PUSH2 0x2928 JUMP JUMPDEST PUSH32 0x100000000000000000000000000000000000000000000000000000000000000 DUP1 DUP3 AND SUB PUSH2 0x2E3F JUMPI PUSH32 0x800000000000000000000000000000000000000000000000000000000000000 DUP1 DUP3 AND SUB PUSH2 0x2E10 JUMPI JUMPDEST POP PUSH1 0x1 SWAP1 JUMP JUMPDEST PUSH32 0x1000000000000000000000000000000000000000000000000000000000000000 DUP1 SWAP2 AND EQ PUSH2 0x26FE JUMPI CODESIZE PUSH2 0x2E0A JUMP JUMPDEST POP PUSH1 0x0 SWAP1 JUMP JUMPDEST SWAP2 SWAP1 DUP3 ADD DUP1 SWAP3 GT PUSH2 0xA37 JUMPI JUMP JUMPDEST SWAP2 SWAP1 DUP3 MLOAD SWAP3 DUP2 MLOAD PUSH1 0x0 JUMPDEST DUP6 DUP2 LT PUSH2 0x2E6E JUMPI POP POP POP POP POP POP PUSH1 0x1 SWAP1 JUMP JUMPDEST DUP2 PUSH2 0x2E79 DUP3 DUP8 PUSH2 0x2E45 JUMP JUMPDEST LT ISZERO PUSH2 0x2ED0 JUMPI PUSH32 0xFF00000000000000000000000000000000000000000000000000000000000000 DUP1 PUSH2 0x2EAB DUP4 DUP7 PUSH2 0x28FD JUMP JUMPDEST MLOAD AND SWAP1 PUSH2 0x2EC1 PUSH2 0x2EBB DUP5 DUP10 PUSH2 0x2E45 JUMP JUMPDEST DUP8 PUSH2 0x28FD JUMP JUMPDEST MLOAD AND SUB PUSH2 0x2ED0 JUMPI PUSH1 0x1 ADD PUSH2 0x2E5C JUMP JUMPDEST POP POP POP POP POP POP PUSH1 0x0 SWAP1 JUMP JUMPDEST SWAP1 DUP2 MLOAD ISZERO PUSH2 0x305B JUMPI PUSH1 0x40 MLOAD SWAP2 PUSH2 0x2EF0 DUP4 PUSH2 0x1E3A JUMP JUMPDEST PUSH1 0x40 DUP4 MSTORE PUSH32 0x4142434445464748494A4B4C4D4E4F505152535455565758595A616263646566 PUSH1 0x20 DUP5 ADD MSTORE PUSH32 0x6768696A6B6C6D6E6F707172737475767778797A303132333435363738392B2F PUSH1 0x40 DUP5 ADD MSTORE DUP1 MLOAD SWAP3 PUSH1 0x2 SWAP2 PUSH1 0x2 DUP6 ADD DUP1 SWAP6 GT PUSH2 0xA37 JUMPI PUSH1 0x3 DUP1 SWAP6 DIV SWAP3 DUP4 PUSH1 0x2 SHL SWAP4 PUSH32 0x3FFFFFFFFFFFFFFFFFFFFFFFFFFFFFFFFFFFFFFFFFFFFFFFFFFFFFFFFFFFFFFF DUP2 AND SUB PUSH2 0xA37 JUMPI SWAP5 PUSH2 0x2FA7 PUSH2 0x2F91 DUP6 PUSH2 0x1F12 JUMP JUMPDEST SWAP5 PUSH2 0x2F9F PUSH1 0x40 MLOAD SWAP7 DUP8 PUSH2 0x1E56 JUMP JUMPDEST DUP1 DUP7 MSTORE PUSH2 0x1F12 JUMP JUMPDEST PUSH1 0x1F NOT PUSH1 0x20 DUP7 ADD SWAP2 ADD CALLDATASIZE DUP3 CALLDATACOPY SWAP3 DUP3 SWAP2 DUP4 MLOAD DUP5 ADD SWAP8 PUSH1 0x20 DUP10 ADD SWAP3 DUP4 MLOAD SWAP5 PUSH1 0x0 DUP6 MSTORE JUMPDEST DUP11 DUP2 LT PUSH2 0x300E JUMPI POP POP POP POP PUSH1 0x3 SWAP4 SWAP5 SWAP6 SWAP7 POP MSTORE MLOAD MOD DUP1 PUSH1 0x1 EQ PUSH2 0x2FFB JUMPI PUSH1 0x2 EQ PUSH2 0x2FF0 JUMPI POP SWAP1 JUMP JUMPDEST PUSH1 0x0 NOT PUSH1 0x3D SWAP2 ADD MSTORE8 SWAP1 JUMP JUMPDEST POP PUSH1 0x1 NOT DUP2 PUSH1 0x3D PUSH1 0x0 NOT DUP2 SWAP5 ADD MSTORE8 ADD MSTORE8 SWAP1 JUMP JUMPDEST DUP4 PUSH1 0x4 SWAP2 SWAP12 SWAP9 SWAP12 ADD SWAP11 DUP12 MLOAD PUSH1 0x1 SWAP1 PUSH1 0x3F SWAP1 DUP3 DUP3 DUP3 PUSH1 0x12 SHR AND DUP8 ADD ADD MLOAD DUP5 MSTORE8 DUP3 DUP3 DUP3 PUSH1 0xC SHR AND DUP8 ADD ADD MLOAD DUP4 DUP6 ADD MSTORE8 DUP3 DUP3 DUP3 PUSH1 0x6 SHR AND DUP8 ADD ADD MLOAD DUP8 DUP6 ADD MSTORE8 AND DUP5 ADD ADD MLOAD DUP6 DUP3 ADD MSTORE8 ADD SWAP7 SWAP10 PUSH2 0x2FC8 JUMP JUMPDEST SWAP1 POP PUSH1 0x40 MLOAD PUSH2 0x3069 DUP2 PUSH2 0x1E02 JUMP JUMPDEST PUSH1 0x0 DUP2 MSTORE SWAP1 JUMP INVALID LOG2 PUSH5 0x6970667358 0x22 SLT KECCAK256 LOG1 0x2B REVERT SIGNEXTEND LOG0 SWAP8 SWAP16 PUSH20 0x7BDBF92FEE2D88649A5ED5CA73F6A37A82B29D4B DUP5 0xE5 0xCF INVALID PUSH5 0x736F6C6343 STOP ADDMOD XOR STOP CALLER "},"methodIdentifiers":{"AAInitializeDestination(uint64,address,address,address,address,address)":"7823d3f3","ROUTER02()":"740f4545","WETH()":"ad5c4648","addAquarium(string)":"ee0e73a1","addStakedPool(string,string)":"e8b4a30d","ccipReceive((bytes32,uint64,bytes,bytes,(address,uint256)[]))":"85572ffb","creationAddress()":"47af954d","getAquariums()":"449d193f","getLastReceivedMessageDetails()":"263596a5","getLogicallyConnectedAccounts()":"ffddc530","getRouter()":"b0f479a1","getStakedPools(string)":"a563794a","incubate(uint64,address,address,address,address,address,address,uint256,uint256,address)":"e5c01f95","incubateDestination(uint64,address,address,address,address)":"c8a10ada","initAA()":"29639df7","initialize(bytes32[2])":"2d160321","initializeAquarium()":"7e54211f","isValidSignature(bytes32,bytes)":"1626ba7e","latestSourceMessage()":"26e4bcfb","logicalConnect(address)":"03d1ef18","logicallyConnectedAccounts(uint256)":"c095b5b3","owner()":"8da5cb5b","publicKey()":"63ffab31","salt()":"bfa0b133","supportsInterface(bytes4)":"01ffc9a7","uniswapRouter()":"735de9f7","validateUserOp((address,uint256,bytes,bytes,uint256,uint256,uint256,uint256,uint256,bytes,bytes),bytes32,uint256)":"3a871cdd"}}}}}