{"contracts/Paymaster.sol":{"Paymaster":{"abi":[{"anonymous":false,"inputs":[{"indexed":true,"internalType":"address","name":"account","type":"address"},{"indexed":false,"internalType":"uint256","name":"totalDeposit","type":"uint256"}],"name":"Deposited","type":"event"},{"anonymous":false,"inputs":[{"indexed":true,"internalType":"address","name":"account","type":"address"},{"indexed":false,"internalType":"uint256","name":"totalStaked","type":"uint256"},{"indexed":false,"internalType":"uint256","name":"unstakeDelaySec","type":"uint256"}],"name":"StakeLocked","type":"event"},{"anonymous":false,"inputs":[{"indexed":true,"internalType":"address","name":"account","type":"address"},{"indexed":false,"internalType":"uint256","name":"withdrawTime","type":"uint256"}],"name":"StakeUnlocked","type":"event"},{"anonymous":false,"inputs":[{"indexed":true,"internalType":"address","name":"account","type":"address"},{"indexed":false,"internalType":"address","name":"withdrawAddress","type":"address"},{"indexed":false,"internalType":"uint256","name":"amount","type":"uint256"}],"name":"StakeWithdrawn","type":"event"},{"anonymous":false,"inputs":[{"indexed":true,"internalType":"address","name":"account","type":"address"},{"indexed":false,"internalType":"address","name":"withdrawAddress","type":"address"},{"indexed":false,"internalType":"uint256","name":"amount","type":"uint256"}],"name":"Withdrawn","type":"event"},{"inputs":[{"internalType":"uint32","name":"unstakeDelaySec","type":"uint32"}],"name":"addStake","outputs":[],"stateMutability":"payable","type":"function"},{"inputs":[{"internalType":"address","name":"account","type":"address"}],"name":"balanceOf","outputs":[{"internalType":"uint256","name":"","type":"uint256"}],"stateMutability":"view","type":"function"},{"inputs":[{"internalType":"uint64","name":"_destinationChainSelector","type":"uint64"},{"internalType":"address","name":"_sourceRouter","type":"address"},{"components":[{"internalType":"bytes","name":"receiver","type":"bytes"},{"internalType":"bytes","name":"data","type":"bytes"},{"components":[{"internalType":"address","name":"token","type":"address"},{"internalType":"uint256","name":"amount","type":"uint256"}],"internalType":"struct Client.EVMTokenAmount[]","name":"tokenAmounts","type":"tuple[]"},{"internalType":"address","name":"feeToken","type":"address"},{"internalType":"bytes","name":"extraArgs","type":"bytes"}],"internalType":"struct Client.EVM2AnyMessage","name":"evm2AnyMessage","type":"tuple"}],"name":"ccipFeeOnBehalf","outputs":[{"internalType":"bytes32","name":"messageId","type":"bytes32"}],"stateMutability":"nonpayable","type":"function"},{"inputs":[{"internalType":"uint64","name":"_destinationChainSelector","type":"uint64"},{"internalType":"address","name":"_sourceRouter","type":"address"},{"components":[{"internalType":"bytes","name":"receiver","type":"bytes"},{"internalType":"bytes","name":"data","type":"bytes"},{"components":[{"internalType":"address","name":"token","type":"address"},{"internalType":"uint256","name":"amount","type":"uint256"}],"internalType":"struct Client.EVMTokenAmount[]","name":"tokenAmounts","type":"tuple[]"},{"internalType":"address","name":"feeToken","type":"address"},{"internalType":"bytes","name":"extraArgs","type":"bytes"}],"internalType":"struct Client.EVM2AnyMessage","name":"evm2AnyMessage","type":"tuple"},{"internalType":"address","name":"token","type":"address"},{"internalType":"uint256","name":"amount","type":"uint256"}],"name":"ccipFeeOnBehalfToken","outputs":[{"internalType":"bytes32","name":"messageId","type":"bytes32"}],"stateMutability":"nonpayable","type":"function"},{"inputs":[{"internalType":"address","name":"account","type":"address"}],"name":"depositTo","outputs":[],"stateMutability":"payable","type":"function"},{"inputs":[{"internalType":"address","name":"","type":"address"}],"name":"deposits","outputs":[{"internalType":"uint112","name":"deposit","type":"uint112"},{"internalType":"bool","name":"staked","type":"bool"},{"internalType":"uint112","name":"stake","type":"uint112"},{"internalType":"uint32","name":"unstakeDelaySec","type":"uint32"},{"internalType":"uint48","name":"withdrawTime","type":"uint48"}],"stateMutability":"view","type":"function"},{"inputs":[{"internalType":"address","name":"account","type":"address"}],"name":"getDepositInfo","outputs":[{"components":[{"internalType":"uint112","name":"deposit","type":"uint112"},{"internalType":"bool","name":"staked","type":"bool"},{"internalType":"uint112","name":"stake","type":"uint112"},{"internalType":"uint32","name":"unstakeDelaySec","type":"uint32"},{"internalType":"uint48","name":"withdrawTime","type":"uint48"}],"internalType":"struct IStakeManager.DepositInfo","name":"info","type":"tuple"}],"stateMutability":"view","type":"function"},{"inputs":[{"internalType":"enum IPaymaster.PostOpMode","name":"mode","type":"uint8"},{"internalType":"bytes","name":"context","type":"bytes"},{"internalType":"uint256","name":"actualGasCost","type":"uint256"}],"name":"postOp","outputs":[],"stateMutability":"nonpayable","type":"function"},{"inputs":[],"name":"unlockStake","outputs":[],"stateMutability":"nonpayable","type":"function"},{"inputs":[{"components":[{"internalType":"address","name":"sender","type":"address"},{"internalType":"uint256","name":"nonce","type":"uint256"},{"internalType":"bytes","name":"initCode","type":"bytes"},{"internalType":"bytes","name":"callData","type":"bytes"},{"internalType":"uint256","name":"callGasLimit","type":"uint256"},{"internalType":"uint256","name":"verificationGasLimit","type":"uint256"},{"internalType":"uint256","name":"preVerificationGas","type":"uint256"},{"internalType":"uint256","name":"maxFeePerGas","type":"uint256"},{"internalType":"uint256","name":"maxPriorityFeePerGas","type":"uint256"},{"internalType":"bytes","name":"paymasterAndData","type":"bytes"},{"internalType":"bytes","name":"signature","type":"bytes"}],"internalType":"struct UserOperation","name":"","type":"tuple"},{"internalType":"bytes32","name":"","type":"bytes32"},{"internalType":"uint256","name":"","type":"uint256"}],"name":"validatePaymasterUserOp","outputs":[{"internalType":"bytes","name":"context","type":"bytes"},{"internalType":"uint256","name":"validationData","type":"uint256"}],"stateMutability":"pure","type":"function"},{"inputs":[{"internalType":"address payable","name":"withdrawAddress","type":"address"}],"name":"withdrawStake","outputs":[],"stateMutability":"nonpayable","type":"function"},{"inputs":[{"internalType":"address payable","name":"withdrawAddress","type":"address"},{"internalType":"uint256","name":"withdrawAmount","type":"uint256"}],"name":"withdrawTo","outputs":[],"stateMutability":"nonpayable","type":"function"},{"stateMutability":"payable","type":"receive"}],"evm":{"bytecode":{"linkReferences":{},"object":"6080806040523461001657611402908161001c8239f35b600080fdfe608060408181526004918236101561002b575b505050361561002057600080fd5b610029336112f9565b005b600092833560e01c9182630396cb6014610c6157508163205c287814610b055781635287ce1214610a2b5781636628c6e8146108c957816370a0823114610883578163a9a234091461082e578163b344b6ea1461055e578163b760faf91461053e578163bb9fe6bf146103da578163c23a5cea146101c7578163f465c77e14610144575063fc7e286d146100bf5780610012565b346101405760206003193601126101405765ffffffffffff8160a0936001600160a01b036100eb610f0f565b168152806020522080549260016dffffffffffffffffffffffffffff92015491815194818116865260ff8160701c161515602087015260781c169084015263ffffffff8116606084015260201c166080820152f35b5080fd5b8284346101c4576003196060813601126101405767ffffffffffffffff9084358281116101c0579061016091360301126101405782519360208501918211858310176101ad575082528083526101a3825193838594855284019061115f565b9060208301520390f35b826041602492634e487b7160e01b835252fd5b8380fd5b80fd5b919050346103d657602090816003193601126101c0576101e5610f0f565b338552848352818520908154916dffffffffffffffffffffffffffff8360781c169283156103945760018201805465ffffffffffff81891c168015610352574210610310577fffffffffffffffffffffffffffffffffffffffffffff000000000000000000001690557fffffff0000000000000000000000000000ffffffffffffffffffffffffffffff16905582516001600160a01b038281168252602082018490528793849384938493919033907fb7c918e0e249f999e965cafeb6c664271b3f4317d296461500e71da39f0cbda390604090a2165af16102c56111c2565b50156102cf578380f35b60649350519162461bcd60e51b8352820152601860248201527f6661696c656420746f207769746864726177207374616b6500000000000000006044820152fd5b6064898989519162461bcd60e51b8352820152601b60248201527f5374616b65207769746864726177616c206973206e6f742064756500000000006044820152fd5b60648a8a8a519162461bcd60e51b8352820152601d60248201527f6d7573742063616c6c20756e6c6f636b5374616b6528292066697273740000006044820152fd5b6064878787519162461bcd60e51b8352820152601460248201527f4e6f207374616b6520746f2077697468647261770000000000000000000000006044820152fd5b8280fd5b919050346103d657826003193601126103d6573383528260205280832090600182019163ffffffff8354169283156104fb5760ff825460701c16156104b85765ffffffffffff9384421601948486116104a55750805469ffffffffffff000000001916602086901b69ffffffffffff00000000161790557fffffffffffffffffffffffffffffffffff00ffffffffffffffffffffffffffff815416905551911681527ffa9b3c14cc825c412c9ed81b3ba365a5b459439403f18829e572ed53a4180f0a60203392a280f35b866011602492634e487b7160e01b835252fd5b606485602085519162461bcd60e51b8352820152601160248201527f616c726561647920756e7374616b696e670000000000000000000000000000006044820152fd5b606485602085519162461bcd60e51b8352820152600a60248201527f6e6f74207374616b6564000000000000000000000000000000000000000000006044820152fd5b8360206003193601126101c45761055b610556610f0f565b6112f9565b80f35b8383346101405760a060031936011261014057610579610f54565b610581610f2a565b9360443567ffffffffffffffff811161082a576105a19036908301611023565b916064356001600160a01b03808216809203610826576084359716928551917f20487ded0000000000000000000000000000000000000000000000000000000083526020988984806105f68a898884016111f2565b0381895afa93841561081c5789946107e9575b504784116107995787517f23b872dd00000000000000000000000000000000000000000000000000000000815233848201523060248201528160448201528a816064818d875af1801561078f578b928b9492604492610772575b508a5194859384927f095ea7b30000000000000000000000000000000000000000000000000000000084528b8985015260248401525af180156107685791899593916106e497959361073b575b508751968795869485937f96f4e9f900000000000000000000000000000000000000000000000000000000855284016111f2565b03925af19283156107305780936106fe575b505051908152f35b909192508382813d8311610729575b6107178183610f9d565b810103126101c45750519083806106f6565b503d61070d565b8251903d90823e3d90fd5b61075a90873d8911610761575b6107528183610f9d565b8101906112e1565b508a6106b0565b503d610748565b87513d8a823e3d90fd5b61078890853d8711610761576107528183610f9d565b508d610663565b89513d8c823e3d90fd5b6107e583895191829162461bcd60e51b8352820160609060208152601260208201527f4e6f7420656e6f7567682062616c616e6365000000000000000000000000000060408201520190565b0390fd5b9093508981813d8311610815575b6108018183610f9d565b810103126108115751928a610609565b8880fd5b503d6107f7565b88513d8b823e3d90fd5b8680fd5b8480fd5b83903461014057606060031936011261014057600381351015610140576024359067ffffffffffffffff908183116101c057366023840112156101c0578201359081116103d657369101602401116101c45780f35b505034610140576020600319360112610140576dffffffffffffffffffffffffffff816020936001600160a01b036108b9610f0f565b1681528085522054169051908152f35b838334610140576060600319360112610140576108e4610f54565b6108ec610f2a565b9060443567ffffffffffffffff811161082a576109146001600160a01b039136908801611023565b92169083517f20487ded00000000000000000000000000000000000000000000000000000000815260209687828061094f88878684016111f2565b0381875afa918215610a215787926109f2575b504782116109a657918793916106e495938751968795869485937f96f4e9f900000000000000000000000000000000000000000000000000000000855284016111f2565b6107e590865191829162461bcd60e51b8352820160609060208152601260208201527f4e6f7420656e6f7567682062616c616e6365000000000000000000000000000060408201520190565b9091508781813d8311610a1a575b610a0a8183610f9d565b8101031261082657519088610962565b503d610a00565b86513d89823e3d90fd5b505034610140576020806003193601126103d6576080908260a0946001600160a01b03610a56610f0f565b82868551610a6381610f6b565b828152828882015282878201528260608201520152168152808352208351610a8a81610f6b565b8154946dffffffffffffffffffffffffffff8087169687845260018685019560ff8360701c1615158752838587019360781c16835201549563ffffffff956060860195878916875265ffffffffffff998a910198831c1688528451998a52511515908901525116908601525116606084015251166080820152f35b919050346103d657806003193601126103d657610b20610f0f565b602435903385528460205282852080546dffffffffffffffffffffffffffff808216808611610c1e57858103908111610c0b57166dffffffffffffffffffffffffffff199190911617905582516001600160a01b038281168252602082018490528693849384938493919033907fd1c19fbcd4551a5edfb66d43d2e337c04837afda3482b42bdf569a8fccdae5fb90604090a2165af1610bbe6111c2565b5015610bc8578280f35b906020606492519162461bcd60e51b8352820152601260248201527f6661696c656420746f20776974686472617700000000000000000000000000006044820152fd5b60248960118a634e487b7160e01b835252fd5b606488602089519162461bcd60e51b8352820152601960248201527f576974686472617720616d6f756e7420746f6f206c61726765000000000000006044820152fd5b8482856020806003193601126101c05782359063ffffffff95868316809303610f0b57338652858252838620908315610ecb5750866001820154168310610e895754956dffffffffffffffffffffffffffff96610cc334898360781c1661119f565b958615610e4757888711610e0557509665ffffffffffff87610df79360017fa5ae833d0bb1dcd632d98a8b70973e8516812898e19bf27b70071ebc8dc52c01999a9b858a5191610d1283610f6b565b1681528781018281528c878c84019116815260608301978b89528c6080850197808952338152808d52209351167fffffff00000000000000000000000000000000000000000000000000000000007cffffffffffffffffffffffffffff0000000000000000000000000000006eff000000000000000000000000000086549551151560701b16935160781b1693161717178155019351167fffffffffffffffffffffffffffffffffffffffffffffffffffffffff00000000845416178355511669ffffffffffff000000001969ffffffffffff0000000083549260201b169116179055565b82519485528401523392a280f35b6064908487519162461bcd60e51b8352820152600e60248201527f7374616b65206f766572666c6f770000000000000000000000000000000000006044820152fd5b6064908487519162461bcd60e51b8352820152601260248201527f6e6f207374616b652073706563696669656400000000000000000000000000006044820152fd5b6064858386519162461bcd60e51b8352820152601c60248201527f63616e6e6f7420646563726561736520756e7374616b652074696d65000000006044820152fd5b80838762461bcd60e51b60649452820152601a60248201527f6d757374207370656369667920756e7374616b652064656c61790000000000006044820152fd5b8580fd5b600435906001600160a01b0382168203610f2557565b600080fd5b602435906001600160a01b0382168203610f2557565b35906001600160a01b0382168203610f2557565b6004359067ffffffffffffffff82168203610f2557565b60a0810190811067ffffffffffffffff821117610f8757604052565b634e487b7160e01b600052604160045260246000fd5b90601f601f19910116810190811067ffffffffffffffff821117610f8757604052565b67ffffffffffffffff8111610f8757601f01601f191660200190565b81601f82011215610f2557803590610ff382610fc0565b926110016040519485610f9d565b82845260208383010111610f2557816000926020809301838601378301015290565b91909160a081840312610f2557604080519161103e83610f6b565b829481359267ffffffffffffffff93848111610f255782611060918501610fdc565b855260209081840135858111610f25578361107c918601610fdc565b8287015280840135858111610f2557840183601f82011215610f2557803592868411610f87578251936110b4828260051b0186610f9d565b808552818086019160061b84010192868411610f25578201905b83821061110b57505050508501526110e860608301610f40565b60608501526080820135928311610f25576080926111069201610fdc565b910152565b8482880312610f2557845190858201908282108b83111761114a5786928592845261113585610f40565b815282850135838201528152019101906110ce565b60246000634e487b7160e01b81526041600452fd5b919082519283825260005b84811061118b575050601f19601f8460006020809697860101520116010190565b60208183018101518483018201520161116a565b919082018092116111ac57565b634e487b7160e01b600052601160045260246000fd5b3d156111ed573d906111d382610fc0565b916111e16040519384610f9d565b82523d6000602084013e565b606090565b9092919267ffffffffffffffff604091168252602091604083820152611224855160a0604084015260e083019061115f565b9161125e84870151937fffffffffffffffffffffffffffffffffffffffffffffffffffffffffffffffc0948585830301606086015261115f565b604087015194848483030160808501528080875193848152019601926000905b8382106112b857505050505060c06080866001600160a01b0360606112b5989901511660a08501520151928285030191015261115f565b90565b845180516001600160a01b0316895283015188840152968701969382019360019091019061127e565b90816020910312610f2557518015158103610f255790565b6001600160a01b031660008181528060205260408120908154906dffffffffffffffffffffffffffff9061132f3483851661119f565b90828211611388577f2da466a7b24304f47e87fa2e1e5a81b9831ce54fec19055ce277ca2f39ba42c4946020946dffffffffffffffffffffffffffff1985604095169116179055858152808452205416604051908152a2565b606460405162461bcd60e51b815260206004820152601060248201527f6465706f736974206f766572666c6f77000000000000000000000000000000006044820152fdfea26469706673582212201d3d80da49bf26391c156f793384fbcf3702acdd4bd5452e24566475742e87ae64736f6c63430008180033","opcodes":"PUSH1 0x80 DUP1 PUSH1 0x40 MSTORE CALLVALUE PUSH2 0x16 JUMPI PUSH2 0x1402 SWAP1 DUP2 PUSH2 0x1C DUP3 CODECOPY RETURN JUMPDEST PUSH1 0x0 DUP1 REVERT INVALID PUSH1 0x80 PUSH1 0x40 DUP2 DUP2 MSTORE PUSH1 0x4 SWAP2 DUP3 CALLDATASIZE LT ISZERO PUSH2 0x2B JUMPI JUMPDEST POP POP POP CALLDATASIZE ISZERO PUSH2 0x20 JUMPI PUSH1 0x0 DUP1 REVERT JUMPDEST PUSH2 0x29 CALLER PUSH2 0x12F9 JUMP JUMPDEST STOP JUMPDEST PUSH1 0x0 SWAP3 DUP4 CALLDATALOAD PUSH1 0xE0 SHR SWAP2 DUP3 PUSH4 0x396CB60 EQ PUSH2 0xC61 JUMPI POP DUP2 PUSH4 0x205C2878 EQ PUSH2 0xB05 JUMPI DUP2 PUSH4 0x5287CE12 EQ PUSH2 0xA2B JUMPI DUP2 PUSH4 0x6628C6E8 EQ PUSH2 0x8C9 JUMPI DUP2 PUSH4 0x70A08231 EQ PUSH2 0x883 JUMPI DUP2 PUSH4 0xA9A23409 EQ PUSH2 0x82E JUMPI DUP2 PUSH4 0xB344B6EA EQ PUSH2 0x55E JUMPI DUP2 PUSH4 0xB760FAF9 EQ PUSH2 0x53E JUMPI DUP2 PUSH4 0xBB9FE6BF EQ PUSH2 0x3DA JUMPI DUP2 PUSH4 0xC23A5CEA EQ PUSH2 0x1C7 JUMPI DUP2 PUSH4 0xF465C77E EQ PUSH2 0x144 JUMPI POP PUSH4 0xFC7E286D EQ PUSH2 0xBF JUMPI DUP1 PUSH2 0x12 JUMP JUMPDEST CALLVALUE PUSH2 0x140 JUMPI PUSH1 0x20 PUSH1 0x3 NOT CALLDATASIZE ADD SLT PUSH2 0x140 JUMPI PUSH6 0xFFFFFFFFFFFF DUP2 PUSH1 0xA0 SWAP4 PUSH1 0x1 PUSH1 0x1 PUSH1 0xA0 SHL SUB PUSH2 0xEB PUSH2 0xF0F JUMP JUMPDEST AND DUP2 MSTORE DUP1 PUSH1 0x20 MSTORE KECCAK256 DUP1 SLOAD SWAP3 PUSH1 0x1 PUSH14 0xFFFFFFFFFFFFFFFFFFFFFFFFFFFF SWAP3 ADD SLOAD SWAP2 DUP2 MLOAD SWAP5 DUP2 DUP2 AND DUP7 MSTORE PUSH1 0xFF DUP2 PUSH1 0x70 SHR AND ISZERO ISZERO PUSH1 0x20 DUP8 ADD MSTORE PUSH1 0x78 SHR AND SWAP1 DUP5 ADD MSTORE PUSH4 0xFFFFFFFF DUP2 AND PUSH1 0x60 DUP5 ADD MSTORE PUSH1 0x20 SHR AND PUSH1 0x80 DUP3 ADD MSTORE RETURN JUMPDEST POP DUP1 REVERT JUMPDEST DUP3 DUP5 CALLVALUE PUSH2 0x1C4 JUMPI PUSH1 0x3 NOT PUSH1 0x60 DUP2 CALLDATASIZE ADD SLT PUSH2 0x140 JUMPI PUSH8 0xFFFFFFFFFFFFFFFF SWAP1 DUP5 CALLDATALOAD DUP3 DUP2 GT PUSH2 0x1C0 JUMPI SWAP1 PUSH2 0x160 SWAP2 CALLDATASIZE SUB ADD SLT PUSH2 0x140 JUMPI DUP3 MLOAD SWAP4 PUSH1 0x20 DUP6 ADD SWAP2 DUP3 GT DUP6 DUP4 LT OR PUSH2 0x1AD JUMPI POP DUP3 MSTORE DUP1 DUP4 MSTORE PUSH2 0x1A3 DUP3 MLOAD SWAP4 DUP4 DUP6 SWAP5 DUP6 MSTORE DUP5 ADD SWAP1 PUSH2 0x115F JUMP JUMPDEST SWAP1 PUSH1 0x20 DUP4 ADD MSTORE SUB SWAP1 RETURN JUMPDEST DUP3 PUSH1 0x41 PUSH1 0x24 SWAP3 PUSH4 0x4E487B71 PUSH1 0xE0 SHL DUP4 MSTORE MSTORE REVERT JUMPDEST DUP4 DUP1 REVERT JUMPDEST DUP1 REVERT JUMPDEST SWAP2 SWAP1 POP CALLVALUE PUSH2 0x3D6 JUMPI PUSH1 0x20 SWAP1 DUP2 PUSH1 0x3 NOT CALLDATASIZE ADD SLT PUSH2 0x1C0 JUMPI PUSH2 0x1E5 PUSH2 0xF0F JUMP JUMPDEST CALLER DUP6 MSTORE DUP5 DUP4 MSTORE DUP2 DUP6 KECCAK256 SWAP1 DUP2 SLOAD SWAP2 PUSH14 0xFFFFFFFFFFFFFFFFFFFFFFFFFFFF DUP4 PUSH1 0x78 SHR AND SWAP3 DUP4 ISZERO PUSH2 0x394 JUMPI PUSH1 0x1 DUP3 ADD DUP1 SLOAD PUSH6 0xFFFFFFFFFFFF DUP2 DUP10 SHR AND DUP1 ISZERO PUSH2 0x352 JUMPI TIMESTAMP LT PUSH2 0x310 JUMPI PUSH32 0xFFFFFFFFFFFFFFFFFFFFFFFFFFFFFFFFFFFFFFFFFFFF00000000000000000000 AND SWAP1 SSTORE PUSH32 0xFFFFFF0000000000000000000000000000FFFFFFFFFFFFFFFFFFFFFFFFFFFFFF AND SWAP1 SSTORE DUP3 MLOAD PUSH1 0x1 PUSH1 0x1 PUSH1 0xA0 SHL SUB DUP3 DUP2 AND DUP3 MSTORE PUSH1 0x20 DUP3 ADD DUP5 SWAP1 MSTORE DUP8 SWAP4 DUP5 SWAP4 DUP5 SWAP4 DUP5 SWAP4 SWAP2 SWAP1 CALLER SWAP1 PUSH32 0xB7C918E0E249F999E965CAFEB6C664271B3F4317D296461500E71DA39F0CBDA3 SWAP1 PUSH1 0x40 SWAP1 LOG2 AND GAS CALL PUSH2 0x2C5 PUSH2 0x11C2 JUMP JUMPDEST POP ISZERO PUSH2 0x2CF JUMPI DUP4 DUP1 RETURN JUMPDEST PUSH1 0x64 SWAP4 POP MLOAD SWAP2 PUSH3 0x461BCD PUSH1 0xE5 SHL DUP4 MSTORE DUP3 ADD MSTORE PUSH1 0x18 PUSH1 0x24 DUP3 ADD MSTORE PUSH32 0x6661696C656420746F207769746864726177207374616B650000000000000000 PUSH1 0x44 DUP3 ADD MSTORE REVERT JUMPDEST PUSH1 0x64 DUP10 DUP10 DUP10 MLOAD SWAP2 PUSH3 0x461BCD PUSH1 0xE5 SHL DUP4 MSTORE DUP3 ADD MSTORE PUSH1 0x1B PUSH1 0x24 DUP3 ADD MSTORE PUSH32 0x5374616B65207769746864726177616C206973206E6F74206475650000000000 PUSH1 0x44 DUP3 ADD MSTORE REVERT JUMPDEST PUSH1 0x64 DUP11 DUP11 DUP11 MLOAD SWAP2 PUSH3 0x461BCD PUSH1 0xE5 SHL DUP4 MSTORE DUP3 ADD MSTORE PUSH1 0x1D PUSH1 0x24 DUP3 ADD MSTORE PUSH32 0x6D7573742063616C6C20756E6C6F636B5374616B652829206669727374000000 PUSH1 0x44 DUP3 ADD MSTORE REVERT JUMPDEST PUSH1 0x64 DUP8 DUP8 DUP8 MLOAD SWAP2 PUSH3 0x461BCD PUSH1 0xE5 SHL DUP4 MSTORE DUP3 ADD MSTORE PUSH1 0x14 PUSH1 0x24 DUP3 ADD MSTORE PUSH32 0x4E6F207374616B6520746F207769746864726177000000000000000000000000 PUSH1 0x44 DUP3 ADD MSTORE REVERT JUMPDEST DUP3 DUP1 REVERT JUMPDEST SWAP2 SWAP1 POP CALLVALUE PUSH2 0x3D6 JUMPI DUP3 PUSH1 0x3 NOT CALLDATASIZE ADD SLT PUSH2 0x3D6 JUMPI CALLER DUP4 MSTORE DUP3 PUSH1 0x20 MSTORE DUP1 DUP4 KECCAK256 SWAP1 PUSH1 0x1 DUP3 ADD SWAP2 PUSH4 0xFFFFFFFF DUP4 SLOAD AND SWAP3 DUP4 ISZERO PUSH2 0x4FB JUMPI PUSH1 0xFF DUP3 SLOAD PUSH1 0x70 SHR AND ISZERO PUSH2 0x4B8 JUMPI PUSH6 0xFFFFFFFFFFFF SWAP4 DUP5 TIMESTAMP AND ADD SWAP5 DUP5 DUP7 GT PUSH2 0x4A5 JUMPI POP DUP1 SLOAD PUSH10 0xFFFFFFFFFFFF00000000 NOT AND PUSH1 0x20 DUP7 SWAP1 SHL PUSH10 0xFFFFFFFFFFFF00000000 AND OR SWAP1 SSTORE PUSH32 0xFFFFFFFFFFFFFFFFFFFFFFFFFFFFFFFFFF00FFFFFFFFFFFFFFFFFFFFFFFFFFFF DUP2 SLOAD AND SWAP1 SSTORE MLOAD SWAP2 AND DUP2 MSTORE PUSH32 0xFA9B3C14CC825C412C9ED81B3BA365A5B459439403F18829E572ED53A4180F0A PUSH1 0x20 CALLER SWAP3 LOG2 DUP1 RETURN JUMPDEST DUP7 PUSH1 0x11 PUSH1 0x24 SWAP3 PUSH4 0x4E487B71 PUSH1 0xE0 SHL DUP4 MSTORE MSTORE REVERT JUMPDEST PUSH1 0x64 DUP6 PUSH1 0x20 DUP6 MLOAD SWAP2 PUSH3 0x461BCD PUSH1 0xE5 SHL DUP4 MSTORE DUP3 ADD MSTORE PUSH1 0x11 PUSH1 0x24 DUP3 ADD MSTORE PUSH32 0x616C726561647920756E7374616B696E67000000000000000000000000000000 PUSH1 0x44 DUP3 ADD MSTORE REVERT JUMPDEST PUSH1 0x64 DUP6 PUSH1 0x20 DUP6 MLOAD SWAP2 PUSH3 0x461BCD PUSH1 0xE5 SHL DUP4 MSTORE DUP3 ADD MSTORE PUSH1 0xA PUSH1 0x24 DUP3 ADD MSTORE PUSH32 0x6E6F74207374616B656400000000000000000000000000000000000000000000 PUSH1 0x44 DUP3 ADD MSTORE REVERT JUMPDEST DUP4 PUSH1 0x20 PUSH1 0x3 NOT CALLDATASIZE ADD SLT PUSH2 0x1C4 JUMPI PUSH2 0x55B PUSH2 0x556 PUSH2 0xF0F JUMP JUMPDEST PUSH2 0x12F9 JUMP JUMPDEST DUP1 RETURN JUMPDEST DUP4 DUP4 CALLVALUE PUSH2 0x140 JUMPI PUSH1 0xA0 PUSH1 0x3 NOT CALLDATASIZE ADD SLT PUSH2 0x140 JUMPI PUSH2 0x579 PUSH2 0xF54 JUMP JUMPDEST PUSH2 0x581 PUSH2 0xF2A JUMP JUMPDEST SWAP4 PUSH1 0x44 CALLDATALOAD PUSH8 0xFFFFFFFFFFFFFFFF DUP2 GT PUSH2 0x82A JUMPI PUSH2 0x5A1 SWAP1 CALLDATASIZE SWAP1 DUP4 ADD PUSH2 0x1023 JUMP JUMPDEST SWAP2 PUSH1 0x64 CALLDATALOAD PUSH1 0x1 PUSH1 0x1 PUSH1 0xA0 SHL SUB DUP1 DUP3 AND DUP1 SWAP3 SUB PUSH2 0x826 JUMPI PUSH1 0x84 CALLDATALOAD SWAP8 AND SWAP3 DUP6 MLOAD SWAP2 PUSH32 0x20487DED00000000000000000000000000000000000000000000000000000000 DUP4 MSTORE PUSH1 0x20 SWAP9 DUP10 DUP5 DUP1 PUSH2 0x5F6 DUP11 DUP10 DUP9 DUP5 ADD PUSH2 0x11F2 JUMP JUMPDEST SUB DUP2 DUP10 GAS STATICCALL SWAP4 DUP5 ISZERO PUSH2 0x81C JUMPI DUP10 SWAP5 PUSH2 0x7E9 JUMPI JUMPDEST POP SELFBALANCE DUP5 GT PUSH2 0x799 JUMPI DUP8 MLOAD PUSH32 0x23B872DD00000000000000000000000000000000000000000000000000000000 DUP2 MSTORE CALLER DUP5 DUP3 ADD MSTORE ADDRESS PUSH1 0x24 DUP3 ADD MSTORE DUP2 PUSH1 0x44 DUP3 ADD MSTORE DUP11 DUP2 PUSH1 0x64 DUP2 DUP14 DUP8 GAS CALL DUP1 ISZERO PUSH2 0x78F JUMPI DUP12 SWAP3 DUP12 SWAP5 SWAP3 PUSH1 0x44 SWAP3 PUSH2 0x772 JUMPI JUMPDEST POP DUP11 MLOAD SWAP5 DUP6 SWAP4 DUP5 SWAP3 PUSH32 0x95EA7B300000000000000000000000000000000000000000000000000000000 DUP5 MSTORE DUP12 DUP10 DUP6 ADD MSTORE PUSH1 0x24 DUP5 ADD MSTORE GAS CALL DUP1 ISZERO PUSH2 0x768 JUMPI SWAP2 DUP10 SWAP6 SWAP4 SWAP2 PUSH2 0x6E4 SWAP8 SWAP6 SWAP4 PUSH2 0x73B JUMPI JUMPDEST POP DUP8 MLOAD SWAP7 DUP8 SWAP6 DUP7 SWAP5 DUP6 SWAP4 PUSH32 0x96F4E9F900000000000000000000000000000000000000000000000000000000 DUP6 MSTORE DUP5 ADD PUSH2 0x11F2 JUMP JUMPDEST SUB SWAP3 GAS CALL SWAP3 DUP4 ISZERO PUSH2 0x730 JUMPI DUP1 SWAP4 PUSH2 0x6FE JUMPI JUMPDEST POP POP MLOAD SWAP1 DUP2 MSTORE RETURN JUMPDEST SWAP1 SWAP2 SWAP3 POP DUP4 DUP3 DUP2 RETURNDATASIZE DUP4 GT PUSH2 0x729 JUMPI JUMPDEST PUSH2 0x717 DUP2 DUP4 PUSH2 0xF9D JUMP JUMPDEST DUP2 ADD SUB SLT PUSH2 0x1C4 JUMPI POP MLOAD SWAP1 DUP4 DUP1 PUSH2 0x6F6 JUMP JUMPDEST POP RETURNDATASIZE PUSH2 0x70D JUMP JUMPDEST DUP3 MLOAD SWAP1 RETURNDATASIZE SWAP1 DUP3 RETURNDATACOPY RETURNDATASIZE SWAP1 REVERT JUMPDEST PUSH2 0x75A SWAP1 DUP8 RETURNDATASIZE DUP10 GT PUSH2 0x761 JUMPI JUMPDEST PUSH2 0x752 DUP2 DUP4 PUSH2 0xF9D JUMP JUMPDEST DUP2 ADD SWAP1 PUSH2 0x12E1 JUMP JUMPDEST POP DUP11 PUSH2 0x6B0 JUMP JUMPDEST POP RETURNDATASIZE PUSH2 0x748 JUMP JUMPDEST DUP8 MLOAD RETURNDATASIZE DUP11 DUP3 RETURNDATACOPY RETURNDATASIZE SWAP1 REVERT JUMPDEST PUSH2 0x788 SWAP1 DUP6 RETURNDATASIZE DUP8 GT PUSH2 0x761 JUMPI PUSH2 0x752 DUP2 DUP4 PUSH2 0xF9D JUMP JUMPDEST POP DUP14 PUSH2 0x663 JUMP JUMPDEST DUP10 MLOAD RETURNDATASIZE DUP13 DUP3 RETURNDATACOPY RETURNDATASIZE SWAP1 REVERT JUMPDEST PUSH2 0x7E5 DUP4 DUP10 MLOAD SWAP2 DUP3 SWAP2 PUSH3 0x461BCD PUSH1 0xE5 SHL DUP4 MSTORE DUP3 ADD PUSH1 0x60 SWAP1 PUSH1 0x20 DUP2 MSTORE PUSH1 0x12 PUSH1 0x20 DUP3 ADD MSTORE PUSH32 0x4E6F7420656E6F7567682062616C616E63650000000000000000000000000000 PUSH1 0x40 DUP3 ADD MSTORE ADD SWAP1 JUMP JUMPDEST SUB SWAP1 REVERT JUMPDEST SWAP1 SWAP4 POP DUP10 DUP2 DUP2 RETURNDATASIZE DUP4 GT PUSH2 0x815 JUMPI JUMPDEST PUSH2 0x801 DUP2 DUP4 PUSH2 0xF9D JUMP JUMPDEST DUP2 ADD SUB SLT PUSH2 0x811 JUMPI MLOAD SWAP3 DUP11 PUSH2 0x609 JUMP JUMPDEST DUP9 DUP1 REVERT JUMPDEST POP RETURNDATASIZE PUSH2 0x7F7 JUMP JUMPDEST DUP9 MLOAD RETURNDATASIZE DUP12 DUP3 RETURNDATACOPY RETURNDATASIZE SWAP1 REVERT JUMPDEST DUP7 DUP1 REVERT JUMPDEST DUP5 DUP1 REVERT JUMPDEST DUP4 SWAP1 CALLVALUE PUSH2 0x140 JUMPI PUSH1 0x60 PUSH1 0x3 NOT CALLDATASIZE ADD SLT PUSH2 0x140 JUMPI PUSH1 0x3 DUP2 CALLDATALOAD LT ISZERO PUSH2 0x140 JUMPI PUSH1 0x24 CALLDATALOAD SWAP1 PUSH8 0xFFFFFFFFFFFFFFFF SWAP1 DUP2 DUP4 GT PUSH2 0x1C0 JUMPI CALLDATASIZE PUSH1 0x23 DUP5 ADD SLT ISZERO PUSH2 0x1C0 JUMPI DUP3 ADD CALLDATALOAD SWAP1 DUP2 GT PUSH2 0x3D6 JUMPI CALLDATASIZE SWAP2 ADD PUSH1 0x24 ADD GT PUSH2 0x1C4 JUMPI DUP1 RETURN JUMPDEST POP POP CALLVALUE PUSH2 0x140 JUMPI PUSH1 0x20 PUSH1 0x3 NOT CALLDATASIZE ADD SLT PUSH2 0x140 JUMPI PUSH14 0xFFFFFFFFFFFFFFFFFFFFFFFFFFFF DUP2 PUSH1 0x20 SWAP4 PUSH1 0x1 PUSH1 0x1 PUSH1 0xA0 SHL SUB PUSH2 0x8B9 PUSH2 0xF0F JUMP JUMPDEST AND DUP2 MSTORE DUP1 DUP6 MSTORE KECCAK256 SLOAD AND SWAP1 MLOAD SWAP1 DUP2 MSTORE RETURN JUMPDEST DUP4 DUP4 CALLVALUE PUSH2 0x140 JUMPI PUSH1 0x60 PUSH1 0x3 NOT CALLDATASIZE ADD SLT PUSH2 0x140 JUMPI PUSH2 0x8E4 PUSH2 0xF54 JUMP JUMPDEST PUSH2 0x8EC PUSH2 0xF2A JUMP JUMPDEST SWAP1 PUSH1 0x44 CALLDATALOAD PUSH8 0xFFFFFFFFFFFFFFFF DUP2 GT PUSH2 0x82A JUMPI PUSH2 0x914 PUSH1 0x1 PUSH1 0x1 PUSH1 0xA0 SHL SUB SWAP2 CALLDATASIZE SWAP1 DUP9 ADD PUSH2 0x1023 JUMP JUMPDEST SWAP3 AND SWAP1 DUP4 MLOAD PUSH32 0x20487DED00000000000000000000000000000000000000000000000000000000 DUP2 MSTORE PUSH1 0x20 SWAP7 DUP8 DUP3 DUP1 PUSH2 0x94F DUP9 DUP8 DUP7 DUP5 ADD PUSH2 0x11F2 JUMP JUMPDEST SUB DUP2 DUP8 GAS STATICCALL SWAP2 DUP3 ISZERO PUSH2 0xA21 JUMPI DUP8 SWAP3 PUSH2 0x9F2 JUMPI JUMPDEST POP SELFBALANCE DUP3 GT PUSH2 0x9A6 JUMPI SWAP2 DUP8 SWAP4 SWAP2 PUSH2 0x6E4 SWAP6 SWAP4 DUP8 MLOAD SWAP7 DUP8 SWAP6 DUP7 SWAP5 DUP6 SWAP4 PUSH32 0x96F4E9F900000000000000000000000000000000000000000000000000000000 DUP6 MSTORE DUP5 ADD PUSH2 0x11F2 JUMP JUMPDEST PUSH2 0x7E5 SWAP1 DUP7 MLOAD SWAP2 DUP3 SWAP2 PUSH3 0x461BCD PUSH1 0xE5 SHL DUP4 MSTORE DUP3 ADD PUSH1 0x60 SWAP1 PUSH1 0x20 DUP2 MSTORE PUSH1 0x12 PUSH1 0x20 DUP3 ADD MSTORE PUSH32 0x4E6F7420656E6F7567682062616C616E63650000000000000000000000000000 PUSH1 0x40 DUP3 ADD MSTORE ADD SWAP1 JUMP JUMPDEST SWAP1 SWAP2 POP DUP8 DUP2 DUP2 RETURNDATASIZE DUP4 GT PUSH2 0xA1A JUMPI JUMPDEST PUSH2 0xA0A DUP2 DUP4 PUSH2 0xF9D JUMP JUMPDEST DUP2 ADD SUB SLT PUSH2 0x826 JUMPI MLOAD SWAP1 DUP9 PUSH2 0x962 JUMP JUMPDEST POP RETURNDATASIZE PUSH2 0xA00 JUMP JUMPDEST DUP7 MLOAD RETURNDATASIZE DUP10 DUP3 RETURNDATACOPY RETURNDATASIZE SWAP1 REVERT JUMPDEST POP POP CALLVALUE PUSH2 0x140 JUMPI PUSH1 0x20 DUP1 PUSH1 0x3 NOT CALLDATASIZE ADD SLT PUSH2 0x3D6 JUMPI PUSH1 0x80 SWAP1 DUP3 PUSH1 0xA0 SWAP5 PUSH1 0x1 PUSH1 0x1 PUSH1 0xA0 SHL SUB PUSH2 0xA56 PUSH2 0xF0F JUMP JUMPDEST DUP3 DUP7 DUP6 MLOAD PUSH2 0xA63 DUP2 PUSH2 0xF6B JUMP JUMPDEST DUP3 DUP2 MSTORE DUP3 DUP9 DUP3 ADD MSTORE DUP3 DUP8 DUP3 ADD MSTORE DUP3 PUSH1 0x60 DUP3 ADD MSTORE ADD MSTORE AND DUP2 MSTORE DUP1 DUP4 MSTORE KECCAK256 DUP4 MLOAD PUSH2 0xA8A DUP2 PUSH2 0xF6B JUMP JUMPDEST DUP2 SLOAD SWAP5 PUSH14 0xFFFFFFFFFFFFFFFFFFFFFFFFFFFF DUP1 DUP8 AND SWAP7 DUP8 DUP5 MSTORE PUSH1 0x1 DUP7 DUP6 ADD SWAP6 PUSH1 0xFF DUP4 PUSH1 0x70 SHR AND ISZERO ISZERO DUP8 MSTORE DUP4 DUP6 DUP8 ADD SWAP4 PUSH1 0x78 SHR AND DUP4 MSTORE ADD SLOAD SWAP6 PUSH4 0xFFFFFFFF SWAP6 PUSH1 0x60 DUP7 ADD SWAP6 DUP8 DUP10 AND DUP8 MSTORE PUSH6 0xFFFFFFFFFFFF SWAP10 DUP11 SWAP2 ADD SWAP9 DUP4 SHR AND DUP9 MSTORE DUP5 MLOAD SWAP10 DUP11 MSTORE MLOAD ISZERO ISZERO SWAP1 DUP10 ADD MSTORE MLOAD AND SWAP1 DUP7 ADD MSTORE MLOAD AND PUSH1 0x60 DUP5 ADD MSTORE MLOAD AND PUSH1 0x80 DUP3 ADD MSTORE RETURN JUMPDEST SWAP2 SWAP1 POP CALLVALUE PUSH2 0x3D6 JUMPI DUP1 PUSH1 0x3 NOT CALLDATASIZE ADD SLT PUSH2 0x3D6 JUMPI PUSH2 0xB20 PUSH2 0xF0F JUMP JUMPDEST PUSH1 0x24 CALLDATALOAD SWAP1 CALLER DUP6 MSTORE DUP5 PUSH1 0x20 MSTORE DUP3 DUP6 KECCAK256 DUP1 SLOAD PUSH14 0xFFFFFFFFFFFFFFFFFFFFFFFFFFFF DUP1 DUP3 AND DUP1 DUP7 GT PUSH2 0xC1E JUMPI DUP6 DUP2 SUB SWAP1 DUP2 GT PUSH2 0xC0B JUMPI AND PUSH14 0xFFFFFFFFFFFFFFFFFFFFFFFFFFFF NOT SWAP2 SWAP1 SWAP2 AND OR SWAP1 SSTORE DUP3 MLOAD PUSH1 0x1 PUSH1 0x1 PUSH1 0xA0 SHL SUB DUP3 DUP2 AND DUP3 MSTORE PUSH1 0x20 DUP3 ADD DUP5 SWAP1 MSTORE DUP7 SWAP4 DUP5 SWAP4 DUP5 SWAP4 DUP5 SWAP4 SWAP2 SWAP1 CALLER SWAP1 PUSH32 0xD1C19FBCD4551A5EDFB66D43D2E337C04837AFDA3482B42BDF569A8FCCDAE5FB SWAP1 PUSH1 0x40 SWAP1 LOG2 AND GAS CALL PUSH2 0xBBE PUSH2 0x11C2 JUMP JUMPDEST POP ISZERO PUSH2 0xBC8 JUMPI DUP3 DUP1 RETURN JUMPDEST SWAP1 PUSH1 0x20 PUSH1 0x64 SWAP3 MLOAD SWAP2 PUSH3 0x461BCD PUSH1 0xE5 SHL DUP4 MSTORE DUP3 ADD MSTORE PUSH1 0x12 PUSH1 0x24 DUP3 ADD MSTORE PUSH32 0x6661696C656420746F2077697468647261770000000000000000000000000000 PUSH1 0x44 DUP3 ADD MSTORE REVERT JUMPDEST PUSH1 0x24 DUP10 PUSH1 0x11 DUP11 PUSH4 0x4E487B71 PUSH1 0xE0 SHL DUP4 MSTORE MSTORE REVERT JUMPDEST PUSH1 0x64 DUP9 PUSH1 0x20 DUP10 MLOAD SWAP2 PUSH3 0x461BCD PUSH1 0xE5 SHL DUP4 MSTORE DUP3 ADD MSTORE PUSH1 0x19 PUSH1 0x24 DUP3 ADD MSTORE PUSH32 0x576974686472617720616D6F756E7420746F6F206C6172676500000000000000 PUSH1 0x44 DUP3 ADD MSTORE REVERT JUMPDEST DUP5 DUP3 DUP6 PUSH1 0x20 DUP1 PUSH1 0x3 NOT CALLDATASIZE ADD SLT PUSH2 0x1C0 JUMPI DUP3 CALLDATALOAD SWAP1 PUSH4 0xFFFFFFFF SWAP6 DUP7 DUP4 AND DUP1 SWAP4 SUB PUSH2 0xF0B JUMPI CALLER DUP7 MSTORE DUP6 DUP3 MSTORE DUP4 DUP7 KECCAK256 SWAP1 DUP4 ISZERO PUSH2 0xECB JUMPI POP DUP7 PUSH1 0x1 DUP3 ADD SLOAD AND DUP4 LT PUSH2 0xE89 JUMPI SLOAD SWAP6 PUSH14 0xFFFFFFFFFFFFFFFFFFFFFFFFFFFF SWAP7 PUSH2 0xCC3 CALLVALUE DUP10 DUP4 PUSH1 0x78 SHR AND PUSH2 0x119F JUMP JUMPDEST SWAP6 DUP7 ISZERO PUSH2 0xE47 JUMPI DUP9 DUP8 GT PUSH2 0xE05 JUMPI POP SWAP7 PUSH6 0xFFFFFFFFFFFF DUP8 PUSH2 0xDF7 SWAP4 PUSH1 0x1 PUSH32 0xA5AE833D0BB1DCD632D98A8B70973E8516812898E19BF27B70071EBC8DC52C01 SWAP10 SWAP11 SWAP12 DUP6 DUP11 MLOAD SWAP2 PUSH2 0xD12 DUP4 PUSH2 0xF6B JUMP JUMPDEST AND DUP2 MSTORE DUP8 DUP2 ADD DUP3 DUP2 MSTORE DUP13 DUP8 DUP13 DUP5 ADD SWAP2 AND DUP2 MSTORE PUSH1 0x60 DUP4 ADD SWAP8 DUP12 DUP10 MSTORE DUP13 PUSH1 0x80 DUP6 ADD SWAP8 DUP1 DUP10 MSTORE CALLER DUP2 MSTORE DUP1 DUP14 MSTORE KECCAK256 SWAP4 MLOAD AND PUSH32 0xFFFFFF0000000000000000000000000000000000000000000000000000000000 PUSH29 0xFFFFFFFFFFFFFFFFFFFFFFFFFFFF000000000000000000000000000000 PUSH15 0xFF0000000000000000000000000000 DUP7 SLOAD SWAP6 MLOAD ISZERO ISZERO PUSH1 0x70 SHL AND SWAP4 MLOAD PUSH1 0x78 SHL AND SWAP4 AND OR OR OR DUP2 SSTORE ADD SWAP4 MLOAD AND PUSH32 0xFFFFFFFFFFFFFFFFFFFFFFFFFFFFFFFFFFFFFFFFFFFFFFFFFFFFFFFF00000000 DUP5 SLOAD AND OR DUP4 SSTORE MLOAD AND PUSH10 0xFFFFFFFFFFFF00000000 NOT PUSH10 0xFFFFFFFFFFFF00000000 DUP4 SLOAD SWAP3 PUSH1 0x20 SHL AND SWAP2 AND OR SWAP1 SSTORE JUMP JUMPDEST DUP3 MLOAD SWAP5 DUP6 MSTORE DUP5 ADD MSTORE CALLER SWAP3 LOG2 DUP1 RETURN JUMPDEST PUSH1 0x64 SWAP1 DUP5 DUP8 MLOAD SWAP2 PUSH3 0x461BCD PUSH1 0xE5 SHL DUP4 MSTORE DUP3 ADD MSTORE PUSH1 0xE PUSH1 0x24 DUP3 ADD MSTORE PUSH32 0x7374616B65206F766572666C6F77000000000000000000000000000000000000 PUSH1 0x44 DUP3 ADD MSTORE REVERT JUMPDEST PUSH1 0x64 SWAP1 DUP5 DUP8 MLOAD SWAP2 PUSH3 0x461BCD PUSH1 0xE5 SHL DUP4 MSTORE DUP3 ADD MSTORE PUSH1 0x12 PUSH1 0x24 DUP3 ADD MSTORE PUSH32 0x6E6F207374616B65207370656369666965640000000000000000000000000000 PUSH1 0x44 DUP3 ADD MSTORE REVERT JUMPDEST PUSH1 0x64 DUP6 DUP4 DUP7 MLOAD SWAP2 PUSH3 0x461BCD PUSH1 0xE5 SHL DUP4 MSTORE DUP3 ADD MSTORE PUSH1 0x1C PUSH1 0x24 DUP3 ADD MSTORE PUSH32 0x63616E6E6F7420646563726561736520756E7374616B652074696D6500000000 PUSH1 0x44 DUP3 ADD MSTORE REVERT JUMPDEST DUP1 DUP4 DUP8 PUSH3 0x461BCD PUSH1 0xE5 SHL PUSH1 0x64 SWAP5 MSTORE DUP3 ADD MSTORE PUSH1 0x1A PUSH1 0x24 DUP3 ADD MSTORE PUSH32 0x6D757374207370656369667920756E7374616B652064656C6179000000000000 PUSH1 0x44 DUP3 ADD MSTORE REVERT JUMPDEST DUP6 DUP1 REVERT JUMPDEST PUSH1 0x4 CALLDATALOAD SWAP1 PUSH1 0x1 PUSH1 0x1 PUSH1 0xA0 SHL SUB DUP3 AND DUP3 SUB PUSH2 0xF25 JUMPI JUMP JUMPDEST PUSH1 0x0 DUP1 REVERT JUMPDEST PUSH1 0x24 CALLDATALOAD SWAP1 PUSH1 0x1 PUSH1 0x1 PUSH1 0xA0 SHL SUB DUP3 AND DUP3 SUB PUSH2 0xF25 JUMPI JUMP JUMPDEST CALLDATALOAD SWAP1 PUSH1 0x1 PUSH1 0x1 PUSH1 0xA0 SHL SUB DUP3 AND DUP3 SUB PUSH2 0xF25 JUMPI JUMP JUMPDEST PUSH1 0x4 CALLDATALOAD SWAP1 PUSH8 0xFFFFFFFFFFFFFFFF DUP3 AND DUP3 SUB PUSH2 0xF25 JUMPI JUMP JUMPDEST PUSH1 0xA0 DUP2 ADD SWAP1 DUP2 LT PUSH8 0xFFFFFFFFFFFFFFFF DUP3 GT OR PUSH2 0xF87 JUMPI PUSH1 0x40 MSTORE JUMP JUMPDEST PUSH4 0x4E487B71 PUSH1 0xE0 SHL PUSH1 0x0 MSTORE PUSH1 0x41 PUSH1 0x4 MSTORE PUSH1 0x24 PUSH1 0x0 REVERT JUMPDEST SWAP1 PUSH1 0x1F PUSH1 0x1F NOT SWAP2 ADD AND DUP2 ADD SWAP1 DUP2 LT PUSH8 0xFFFFFFFFFFFFFFFF DUP3 GT OR PUSH2 0xF87 JUMPI PUSH1 0x40 MSTORE JUMP JUMPDEST PUSH8 0xFFFFFFFFFFFFFFFF DUP2 GT PUSH2 0xF87 JUMPI PUSH1 0x1F ADD PUSH1 0x1F NOT AND PUSH1 0x20 ADD SWAP1 JUMP JUMPDEST DUP2 PUSH1 0x1F DUP3 ADD SLT ISZERO PUSH2 0xF25 JUMPI DUP1 CALLDATALOAD SWAP1 PUSH2 0xFF3 DUP3 PUSH2 0xFC0 JUMP JUMPDEST SWAP3 PUSH2 0x1001 PUSH1 0x40 MLOAD SWAP5 DUP6 PUSH2 0xF9D JUMP JUMPDEST DUP3 DUP5 MSTORE PUSH1 0x20 DUP4 DUP4 ADD ADD GT PUSH2 0xF25 JUMPI DUP2 PUSH1 0x0 SWAP3 PUSH1 0x20 DUP1 SWAP4 ADD DUP4 DUP7 ADD CALLDATACOPY DUP4 ADD ADD MSTORE SWAP1 JUMP JUMPDEST SWAP2 SWAP1 SWAP2 PUSH1 0xA0 DUP2 DUP5 SUB SLT PUSH2 0xF25 JUMPI PUSH1 0x40 DUP1 MLOAD SWAP2 PUSH2 0x103E DUP4 PUSH2 0xF6B JUMP JUMPDEST DUP3 SWAP5 DUP2 CALLDATALOAD SWAP3 PUSH8 0xFFFFFFFFFFFFFFFF SWAP4 DUP5 DUP2 GT PUSH2 0xF25 JUMPI DUP3 PUSH2 0x1060 SWAP2 DUP6 ADD PUSH2 0xFDC JUMP JUMPDEST DUP6 MSTORE PUSH1 0x20 SWAP1 DUP2 DUP5 ADD CALLDATALOAD DUP6 DUP2 GT PUSH2 0xF25 JUMPI DUP4 PUSH2 0x107C SWAP2 DUP7 ADD PUSH2 0xFDC JUMP JUMPDEST DUP3 DUP8 ADD MSTORE DUP1 DUP5 ADD CALLDATALOAD DUP6 DUP2 GT PUSH2 0xF25 JUMPI DUP5 ADD DUP4 PUSH1 0x1F DUP3 ADD SLT ISZERO PUSH2 0xF25 JUMPI DUP1 CALLDATALOAD SWAP3 DUP7 DUP5 GT PUSH2 0xF87 JUMPI DUP3 MLOAD SWAP4 PUSH2 0x10B4 DUP3 DUP3 PUSH1 0x5 SHL ADD DUP7 PUSH2 0xF9D JUMP JUMPDEST DUP1 DUP6 MSTORE DUP2 DUP1 DUP7 ADD SWAP2 PUSH1 0x6 SHL DUP5 ADD ADD SWAP3 DUP7 DUP5 GT PUSH2 0xF25 JUMPI DUP3 ADD SWAP1 JUMPDEST DUP4 DUP3 LT PUSH2 0x110B JUMPI POP POP POP POP DUP6 ADD MSTORE PUSH2 0x10E8 PUSH1 0x60 DUP4 ADD PUSH2 0xF40 JUMP JUMPDEST PUSH1 0x60 DUP6 ADD MSTORE PUSH1 0x80 DUP3 ADD CALLDATALOAD SWAP3 DUP4 GT PUSH2 0xF25 JUMPI PUSH1 0x80 SWAP3 PUSH2 0x1106 SWAP3 ADD PUSH2 0xFDC JUMP JUMPDEST SWAP2 ADD MSTORE JUMP JUMPDEST DUP5 DUP3 DUP9 SUB SLT PUSH2 0xF25 JUMPI DUP5 MLOAD SWAP1 DUP6 DUP3 ADD SWAP1 DUP3 DUP3 LT DUP12 DUP4 GT OR PUSH2 0x114A JUMPI DUP7 SWAP3 DUP6 SWAP3 DUP5 MSTORE PUSH2 0x1135 DUP6 PUSH2 0xF40 JUMP JUMPDEST DUP2 MSTORE DUP3 DUP6 ADD CALLDATALOAD DUP4 DUP3 ADD MSTORE DUP2 MSTORE ADD SWAP2 ADD SWAP1 PUSH2 0x10CE JUMP JUMPDEST PUSH1 0x24 PUSH1 0x0 PUSH4 0x4E487B71 PUSH1 0xE0 SHL DUP2 MSTORE PUSH1 0x41 PUSH1 0x4 MSTORE REVERT JUMPDEST SWAP2 SWAP1 DUP3 MLOAD SWAP3 DUP4 DUP3 MSTORE PUSH1 0x0 JUMPDEST DUP5 DUP2 LT PUSH2 0x118B JUMPI POP POP PUSH1 0x1F NOT PUSH1 0x1F DUP5 PUSH1 0x0 PUSH1 0x20 DUP1 SWAP7 SWAP8 DUP7 ADD ADD MSTORE ADD AND ADD ADD SWAP1 JUMP JUMPDEST PUSH1 0x20 DUP2 DUP4 ADD DUP2 ADD MLOAD DUP5 DUP4 ADD DUP3 ADD MSTORE ADD PUSH2 0x116A JUMP JUMPDEST SWAP2 SWAP1 DUP3 ADD DUP1 SWAP3 GT PUSH2 0x11AC JUMPI JUMP JUMPDEST PUSH4 0x4E487B71 PUSH1 0xE0 SHL PUSH1 0x0 MSTORE PUSH1 0x11 PUSH1 0x4 MSTORE PUSH1 0x24 PUSH1 0x0 REVERT JUMPDEST RETURNDATASIZE ISZERO PUSH2 0x11ED JUMPI RETURNDATASIZE SWAP1 PUSH2 0x11D3 DUP3 PUSH2 0xFC0 JUMP JUMPDEST SWAP2 PUSH2 0x11E1 PUSH1 0x40 MLOAD SWAP4 DUP5 PUSH2 0xF9D JUMP JUMPDEST DUP3 MSTORE RETURNDATASIZE PUSH1 0x0 PUSH1 0x20 DUP5 ADD RETURNDATACOPY JUMP JUMPDEST PUSH1 0x60 SWAP1 JUMP JUMPDEST SWAP1 SWAP3 SWAP2 SWAP3 PUSH8 0xFFFFFFFFFFFFFFFF PUSH1 0x40 SWAP2 AND DUP3 MSTORE PUSH1 0x20 SWAP2 PUSH1 0x40 DUP4 DUP3 ADD MSTORE PUSH2 0x1224 DUP6 MLOAD PUSH1 0xA0 PUSH1 0x40 DUP5 ADD MSTORE PUSH1 0xE0 DUP4 ADD SWAP1 PUSH2 0x115F JUMP JUMPDEST SWAP2 PUSH2 0x125E DUP5 DUP8 ADD MLOAD SWAP4 PUSH32 0xFFFFFFFFFFFFFFFFFFFFFFFFFFFFFFFFFFFFFFFFFFFFFFFFFFFFFFFFFFFFFFC0 SWAP5 DUP6 DUP6 DUP4 SUB ADD PUSH1 0x60 DUP7 ADD MSTORE PUSH2 0x115F JUMP JUMPDEST PUSH1 0x40 DUP8 ADD MLOAD SWAP5 DUP5 DUP5 DUP4 SUB ADD PUSH1 0x80 DUP6 ADD MSTORE DUP1 DUP1 DUP8 MLOAD SWAP4 DUP5 DUP2 MSTORE ADD SWAP7 ADD SWAP3 PUSH1 0x0 SWAP1 JUMPDEST DUP4 DUP3 LT PUSH2 0x12B8 JUMPI POP POP POP POP POP PUSH1 0xC0 PUSH1 0x80 DUP7 PUSH1 0x1 PUSH1 0x1 PUSH1 0xA0 SHL SUB PUSH1 0x60 PUSH2 0x12B5 SWAP9 SWAP10 ADD MLOAD AND PUSH1 0xA0 DUP6 ADD MSTORE ADD MLOAD SWAP3 DUP3 DUP6 SUB ADD SWAP2 ADD MSTORE PUSH2 0x115F JUMP JUMPDEST SWAP1 JUMP JUMPDEST DUP5 MLOAD DUP1 MLOAD PUSH1 0x1 PUSH1 0x1 PUSH1 0xA0 SHL SUB AND DUP10 MSTORE DUP4 ADD MLOAD DUP9 DUP5 ADD MSTORE SWAP7 DUP8 ADD SWAP7 SWAP4 DUP3 ADD SWAP4 PUSH1 0x1 SWAP1 SWAP2 ADD SWAP1 PUSH2 0x127E JUMP JUMPDEST SWAP1 DUP2 PUSH1 0x20 SWAP2 SUB SLT PUSH2 0xF25 JUMPI MLOAD DUP1 ISZERO ISZERO DUP2 SUB PUSH2 0xF25 JUMPI SWAP1 JUMP JUMPDEST PUSH1 0x1 PUSH1 0x1 PUSH1 0xA0 SHL SUB AND PUSH1 0x0 DUP2 DUP2 MSTORE DUP1 PUSH1 0x20 MSTORE PUSH1 0x40 DUP2 KECCAK256 SWAP1 DUP2 SLOAD SWAP1 PUSH14 0xFFFFFFFFFFFFFFFFFFFFFFFFFFFF SWAP1 PUSH2 0x132F CALLVALUE DUP4 DUP6 AND PUSH2 0x119F JUMP JUMPDEST SWAP1 DUP3 DUP3 GT PUSH2 0x1388 JUMPI PUSH32 0x2DA466A7B24304F47E87FA2E1E5A81B9831CE54FEC19055CE277CA2F39BA42C4 SWAP5 PUSH1 0x20 SWAP5 PUSH14 0xFFFFFFFFFFFFFFFFFFFFFFFFFFFF NOT DUP6 PUSH1 0x40 SWAP6 AND SWAP2 AND OR SWAP1 SSTORE DUP6 DUP2 MSTORE DUP1 DUP5 MSTORE KECCAK256 SLOAD AND PUSH1 0x40 MLOAD SWAP1 DUP2 MSTORE LOG2 JUMP JUMPDEST PUSH1 0x64 PUSH1 0x40 MLOAD PUSH3 0x461BCD PUSH1 0xE5 SHL DUP2 MSTORE PUSH1 0x20 PUSH1 0x4 DUP3 ADD MSTORE PUSH1 0x10 PUSH1 0x24 DUP3 ADD MSTORE PUSH32 0x6465706F736974206F766572666C6F7700000000000000000000000000000000 PUSH1 0x44 DUP3 ADD MSTORE REVERT INVALID LOG2 PUSH5 0x6970667358 0x22 SLT KECCAK256 SAR RETURNDATASIZE DUP1 0xDA BLOBHASH 0xBF 0x26 CODECOPY SHR ISZERO PUSH16 0x793384FBCF3702ACDD4BD5452E245664 PUSH22 0x742E87AE64736F6C6343000818003300000000000000 "},"methodIdentifiers":{"addStake(uint32)":"0396cb60","balanceOf(address)":"70a08231","ccipFeeOnBehalf(uint64,address,(bytes,bytes,(address,uint256)[],address,bytes))":"6628c6e8","ccipFeeOnBehalfToken(uint64,address,(bytes,bytes,(address,uint256)[],address,bytes),address,uint256)":"b344b6ea","depositTo(address)":"b760faf9","deposits(address)":"fc7e286d","getDepositInfo(address)":"5287ce12","postOp(uint8,bytes,uint256)":"a9a23409","unlockStake()":"bb9fe6bf","validatePaymasterUserOp((address,uint256,bytes,bytes,uint256,uint256,uint256,uint256,uint256,bytes,bytes),bytes32,uint256)":"f465c77e","withdrawStake(address)":"c23a5cea","withdrawTo(address,uint256)":"205c2878"}}}}}