{"contracts/AccountFactory.sol":{"AccountFactory":{"abi":[{"inputs":[{"internalType":"address","name":"_ccipRouter","type":"address"}],"stateMutability":"nonpayable","type":"constructor"},{"inputs":[],"name":"SALT","outputs":[{"internalType":"bytes32","name":"","type":"bytes32"}],"stateMutability":"view","type":"function"},{"inputs":[],"name":"accountImplementation","outputs":[{"internalType":"contract AccountNative","name":"","type":"address"}],"stateMutability":"view","type":"function"},{"inputs":[{"internalType":"bytes32[2]","name":"publicKey","type":"bytes32[2]"}],"name":"createAccount","outputs":[{"internalType":"contract AccountNative","name":"","type":"address"}],"stateMutability":"payable","type":"function"},{"inputs":[{"internalType":"bytes32[2]","name":"publicKey","type":"bytes32[2]"}],"name":"getCounterfactualAddress","outputs":[{"internalType":"address","name":"","type":"address"}],"stateMutability":"view","type":"function"},{"inputs":[{"internalType":"string","name":"id","type":"string"}],"name":"getUser","outputs":[{"components":[{"internalType":"string","name":"id","type":"string"},{"internalType":"bytes32[2]","name":"publicKey","type":"bytes32[2]"},{"internalType":"address","name":"account","type":"address"}],"internalType":"struct User","name":"","type":"tuple"}],"stateMutability":"view","type":"function"},{"inputs":[{"internalType":"string","name":"id","type":"string"},{"internalType":"bytes32[2]","name":"publicKey","type":"bytes32[2]"}],"name":"saveUser","outputs":[],"stateMutability":"nonpayable","type":"function"},{"inputs":[{"internalType":"string","name":"id","type":"string"}],"name":"users","outputs":[{"internalType":"string","name":"id","type":"string"},{"internalType":"address","name":"account","type":"address"}],"stateMutability":"view","type":"function"}],"evm":{"bytecode":{"linkReferences":{},"object":"60a0346100d2576001600160401b0390601f613f0e38819003918201601f1916830191848311848410176100bc578084926020946040528339810103126100d257516001600160a01b038116908190036100d25760405191612fd790818401908111848210176100bc576040928492610f37843933825260208201520301906000f080156100b057608052604051610e5f90816100d882396080518181816105e5015281816109bb0152610ac90152f35b6040513d6000823e3d90fd5b634e487b7160e01b600052604160045260246000fd5b600080fdfe604060808152600490813610156200001657600080fd5b600091823560e01c908162ab22e5146200060957816311464fbe14620005c35781632b45576314620002da57816331feb6711462000189578163689e1c0314620000f157508063ba9a91a514620000b55763d8cd1ecc146200007757600080fd5b34620000b15780600319360112620000b1576020906001600160a01b03620000a9620000a336620006ab565b62000a0c565b915191168152f35b5080fd5b5034620000b15781600319360112620000b157602090517fa4fb38cf4b0bf210f043c7762dde92916dbaf2d16f82c7b9414def8a49fa55c38152f35b83915034620000b1576020600319360112620000b157803567ffffffffffffffff81116200018557916200012f6020926200014394369101620006f8565b908285519483868095519384920162000754565b820190815203019020906001600160a01b0360036200016284620007dd565b930154166200017b825193838594855284019062000779565b9060208301520390f35b8280fd5b90508234620002d75760209182600319360112620000b157803567ffffffffffffffff811162000185576200020684620001c981948894369101620006f8565b85848051620001d88162000637565b606081528151620001e9816200066a565b823682378582015201528184519382858094519384920162000754565b810186815203019020918151916200021e8362000637565b6200022984620007dd565b8352600194815192839587600182019784905b60028210620002c35750505084959650620002596003956200066a565b8187019586526001600160a01b039485910154169280870193845262000290815197838952516080848a015260a089019062000779565b9551929087015b60028210620002af5784518616608089015287870388f35b835181529282019290880190820162000297565b89548152988201989082019084016200023c565b80fd5b90503462000185576060600319360112620001855767ffffffffffffffff908035828111620005bf57620003129036908301620006f8565b903660431215620005bf5783516200032a816200066a565b60648136821162000598576024905b828210620005ae575050508451937fd8cd1ecc0000000000000000000000000000000000000000000000000000000085526020928386806200037e86858301620008ad565b0381305afa958615620005a45788966200055a575b50620003d384885196620003a78862000637565b808852818801958652818a89019a6001600160a01b03809b168c52519382858094519384920162000754565b81018b81520301902094519081519283116200054757508190620003f88654620007a0565b601f8111620004f4575b508490601f83116001146200048e57899262000482575b50506000198260011b9260031b1c19161783555b51855b600281106200046c575050506003019151167fffffffffffffffffffffffff000000000000000000000000000000000000000082541617905580f35b6001908383519301928282870101550162000430565b01519050388062000419565b868a52858a2092601f19168a5b87828210620004dd575050908460019594939210620004c3575b505050811b0183556200042d565b015160001960f88460031b161c19169055388080620004b5565b60018596829396860151815501950193016200049b565b909150858952848920601f840160051c8101918685106200053c575b90601f859493920160051c01905b8181106200052d575062000402565b8a81558493506001016200051e565b909150819062000510565b886041602492634e487b7160e01b835252fd5b9095508381813d83116200059c575b62000575818362000687565b810103126200059857516001600160a01b03811681036200059857943862000393565b8780fd5b503d62000569565b87513d8a823e3d90fd5b813581526020918201910162000339565b8480fd5b505034620000b15781600319360112620000b157602090516001600160a01b037f0000000000000000000000000000000000000000000000000000000000000000168152f35b505080600319360112620000b1576020906001600160a01b03620000a96200063136620006ab565b62000902565b6060810190811067ffffffffffffffff8211176200065457604052565b634e487b7160e01b600052604160045260246000fd5b6040810190811067ffffffffffffffff8211176200065457604052565b90601f601f19910116810190811067ffffffffffffffff8211176200065457604052565b8060231215620006f35760405190620006c4826200066a565b81604491604411620006f3576004905b828210620006e25750505090565b8135815260209182019101620006d4565b600080fd5b81601f82011215620006f35780359067ffffffffffffffff8211620006545760405192620007316020601f19601f860116018562000687565b82845260208383010111620006f357816000926020809301838601378301015290565b60005b838110620007685750506000910152565b818101518382015260200162000757565b90601f19601f602093620007998151809281875287808801910162000754565b0116010190565b90600182811c92168015620007d2575b6020831014620007bc57565b634e487b7160e01b600052602260045260246000fd5b91607f1691620007b0565b90604051918260008254620007f281620007a0565b908184526020946001916001811690816000146200086a575060011462000827575b505050620008259250038362000687565b565b600090815285812095935091905b8183106200085157505062000825935082010138808062000814565b8554888401850152948501948794509183019162000835565b915050620008259593507fffffffffffffffffffffffffffffffffffffffffffffffffffffffffffffff0091501682840152151560051b82010138808062000814565b6040810192916000915b60028310620008c557505050565b600190825181526020809101920192019190620008b7565b6040906001600160a01b03620008ff9493168152816020820152019062000779565b90565b6200090d8162000a0c565b803b620009fe57506200095c6200096b6001600160a01b03926040519283917f2d16032100000000000000000000000000000000000000000000000000000000602084015260248301620008ad565b03601f19810183528262000687565b6040516102de8082019082821067ffffffffffffffff83111762000654577fa4fb38cf4b0bf210f043c7762dde92916dbaf2d16f82c7b9414def8a49fa55c3938392620009e29262000b4c8539867f00000000000000000000000000000000000000000000000000000000000000001690620008dd565b03906000f58015620009f2571690565b6040513d6000823e3d90fd5b6001600160a01b0391501690565b600b6055917fa4fb38cf4b0bf210f043c7762dde92916dbaf2d16f82c7b9414def8a49fa55c36102de60209062000b2662000b338360409662000a9a88519162000a598488018462000687565b8683528383019662000b4c883989519182917f2d160321000000000000000000000000000000000000000000000000000000008684015260248301620008ad565b0362000aaf601f199182810184528362000687565b62000afd8a51918262000af0878201956001600160a01b037f00000000000000000000000000000000000000000000000000000000000000001687620008dd565b0390810183528262000687565b895195869362000b16868601998a925192839162000754565b8401915180938684019062000754565b0103808452018262000687565b5190208351938401528201523081520160ff8153209056fe60806040526102de8038038061001481610194565b92833981019060408183031261018f5780516001600160a01b03811680820361018f5760208381015190936001600160401b03821161018f570184601f8201121561018f5780519061006d610068836101cf565b610194565b9582875285838301011161018f57849060005b83811061017b57505060009186010152813b15610163577f360894a13ba1a3210667c828492db98dca3e2076cc3735a920a3ca505d382bbc80546001600160a01b03191682179055604051907fbc7cd75a20ee27fd9adebab32041f755214dbc6bffa90cc0225b39da2e5c2d3b600080a28351156101455750600080848461012c96519101845af4903d1561013c573d61011c610068826101cf565b908152600081943d92013e6101ea565b505b6040516090908161024e8239f35b606092506101ea565b9250505034610154575061012e565b63b398979f60e01b8152600490fd5b60249060405190634c9c8ce360e01b82526004820152fd5b818101830151888201840152869201610080565b600080fd5b6040519190601f01601f191682016001600160401b038111838210176101b957604052565b634e487b7160e01b600052604160045260246000fd5b6001600160401b0381116101b957601f01601f191660200190565b9061021157508051156101ff57805190602001fd5b604051630a12f52160e11b8152600490fd5b81511580610244575b610222575090565b604051639996b31560e01b81526001600160a01b039091166004820152602490fd5b50803b1561021a56fe608060405273ffffffffffffffffffffffffffffffffffffffff7f360894a13ba1a3210667c828492db98dca3e2076cc3735a920a3ca505d382bbc54166000808092368280378136915af43d82803e156056573d90f35b3d90fdfea26469706673582212209a21b2f901831fe048ea166473ab8a5d06b5169741b36cb9c5f215d2aa0ed78864736f6c63430008180033a264697066735822122085d982ccdf2f3eba971c0c387a833a5c52a1b32e62d072e099ff97551912721264736f6c6343000818003360a034620003385762002fd790601f19601f6001600160401b03388590038281018416850190828211868310176200033d57808691604098899485528339810103126200033857620000518462000353565b9262000061602080960162000353565b6001600160a01b03939084811615620003205760805260009586600955875193818501858110828211176200030c576060860181811083821117620002f8578a52600b81526a6574682d7365706f6c696160a81b8a8701528552600a549460019586600a558087106200027e575b509290600a89528289209189945b8786106200015f578b8b8b8b73139d70e24b8c82539800eeb99510bfb8b09eaf689160018060a01b0319928084600c541617600c5573fff9976782d46cc05630d1f6ebab18b2324d6b1484600d541617600d5583600e541617600e55169082541617905551612c189081620003bf8239608051818181610c620152610dcc0152f35b80519081518481116200026a57899187918e6200017d895462000368565b8781116200022f575b508390878311600114620001cb5790859683620001bf575b5050600019600383901b1c191690841b1787555b01940195019492620000dd565b0151905038806200019e565b908c83168a8352858320925b818110620002175750908697848895949310620001fd575b505050811b018755620001b2565b015160001960f88460031b161c19169055388080620001ef565b8289015184558f978d979401939283019201620001d7565b62000259908a835285832060058a808701821c83019389881062000260575b01901c0190620003a5565b3862000186565b935082936200024e565b634e487b7160e01b8d52604160045260248dfd5b600a8a528680858c2092830192015b8281106200029d575050620000cf565b8b620002aa825462000368565b80620002bc575b50500187906200028d565b888111600114620002d3575081555b8b38620002b1565b828252620002ee89898420920160051c8201858301620003a5565b81835555620002cb565b634e487b7160e01b8a52604160045260248afd5b634e487b7160e01b89526041600452602489fd5b87516335fdcccd60e21b815260006004820152602490fd5b600080fd5b634e487b7160e01b600052604160045260246000fd5b51906001600160a01b03821682036200033857565b90600182811c921680156200039a575b60208310146200038457565b634e487b7160e01b600052602260045260246000fd5b91607f169162000378565b818110620003b1575050565b60008155600101620003a556fe608080604052600436101561001d575b50361561001b57600080fd5b005b60003560e01c90816301ffc9a71461196b575080631626ba7e146118e85780631cff79cd14611803578063263596a51461165457806326e4bcfb1461163657806329639df71461161e5780632d160321146115b75780633a871cdd14611569578063449d193f146114d157806347af954d146114aa57806363ffab3114611485578063735de9f71461145e578063740f4545146114375780637823d3f31461130857806385572ffb14610d8d5780638da5cb5b14610d66578063a563794a14610cad578063ad5c464814610c86578063b0f479a114610c42578063bfa0b13314610c24578063c8a10ada14610a1e578063e5c01f951461029b578063e8b4a30d146101e85763ee0e73a114610132573861000f565b346101e35760206003193601126101e35760043567ffffffffffffffff81116101e357610163903690600401611b26565b600a5490680100000000000000008210156101cd576001820180600a558210156101b75761001b91600a6000527fc65a7bb8d6351c1cf70c95a316cc6a92839c986682d98bc35f958f4883f9d2a801611f4f565b634e487b7160e01b600052603260045260246000fd5b634e487b7160e01b600052604160045260246000fd5b600080fd5b346101e35760406003193601126101e35767ffffffffffffffff6004358181116101e35761021a903690600401611b26565b906024359081116101e357602061023861025d923690600401611b26565b9261024a6102458261232b565b611ed0565b8160405193828580945193849201611b6d565b8101600b815203019020908154680100000000000000008110156101cd57600181018084558110156101b75761001b92600052602060002001611f4f565b346101e3576101406003193601126101e3576102b5611c37565b6102bd611a09565b906102c6611a1f565b906102cf611a35565b916102d8611a4b565b6102e0611a61565b60c435946001600160a01b03861686036101e35761012435926001600160a01b03841684036101e3576000806001600160a01b03600d541660405160208101907fd0e30db00000000000000000000000000000000000000000000000000000000082526004815261035081611a77565b519160e435905af1610360611cbb565b50156109da576001600160a01b03600e54166040519063095ea7b360e01b8252600482015269021e19e0c9bab2400000602482015260208160448160006001600160a01b0388165af180156107e3576109bb575b50604051916103c283611acb565b6002835260403660208501376001600160a01b0381166103e184611f1b565b526103eb83611f28565b6001600160a01b0383169052600360e43581020460e43503610889576001600160a01b03600e541660405180947f38ed173900000000000000000000000000000000000000000000000000000000825260a4820160e43560030260021c60048401526000602484015260a060448401528151809152602060c4840192019060005b818110610999575050509181600081819530606483015261010435608483015203925af19283156107e3576000936108e9575b5060036104ab84611f28565b51046001600160a01b03600e54166040519063095ea7b360e01b8252600482015269021e19e0c9bab2400000602482015260208160448160006001600160a01b0389165af19283156107e35760006001600160a01b0393610104936060966108ca575b5084600e5416908560405198899788967fe8e33700000000000000000000000000000000000000000000000000000000008852166004870152166024850152600360e435810260021c04604485015260648401528160848401528160a48401523060c4840152833560e48401525af180156107e35761089f575b5061059290611f28565b5194858060011b046002148615171561088957604051906105b282611a77565b6001825260005b6020811061086457506001600160a01b039081604051966105d988611a77565b169586815260038960011b0460208201526105f384611f1b565b526105fd83611f1b565b5081604051946063602087015216604085015216606083015260038660011b0460808301526080825261062f82611aaf565b6001600160a01b03604051971660208801526020875261064e87611a77565b61066860405161065d81611a93565b622dc6c081526122a3565b916040519761067689611aaf565b88526020880152604087015260006060870152608086015260405163095ea7b360e01b81526001600160a01b038216600482015260038560011b0460248201526020816044816000875af180156107e357610835575b50604051927fb0f479a1000000000000000000000000000000000000000000000000000000008452602084600481305afa9283156107e3576001600160a01b03966020956000956107ef575b5067ffffffffffffffff926000926107758a936040519b8c998a9889967fb344b6ea00000000000000000000000000000000000000000000000000000000885216600487015216602485015260a0604485015260a4840190611df2565b90606483015260038960011b0460848301520393165af19182156107e3576000926107ae575b5060039060011b04600955600355600080f35b9091506020813d6020116107db575b816107ca60209383611ae7565b810103126101e3575190600361079b565b3d91506107bd565b6040513d6000823e3d90fd5b889195509260009261077561082267ffffffffffffffff968a3d8c1161082e575b61081a8183611ae7565b810190611dd3565b97935050925092610718565b503d610810565b6108569060203d60201161085d575b61084e8183611ae7565b810190612457565b50856106cc565b503d610844565b60209060405161087381611a77565b60008152600083820152828286010152016105b9565b634e487b7160e01b600052601160045260246000fd5b606090813d83116108c3575b6108b58183611ae7565b810103126101e35787610588565b503d6108ab565b6108e29060203d60201161085d5761084e8183611ae7565b508e61050e565b9092503d806000833e6108fc8183611ae7565b60208282810103126101e35781519067ffffffffffffffff82116101e357808301601f8385010112156101e357818301519161093783611dbb565b936109456040519586611ae7565b8385526020850192810160208560051b8484010101116101e35780820160200192915b60208560051b82840101018410610985575050505050918961049f565b602080809486518152019401939250610968565b82516001600160a01b031684528894506020938401939092019160010161046c565b6109d39060203d60201161085d5761084e8183611ae7565b50886103b4565b606460405162461bcd60e51b815260206004820152601360248201527f57455448204465706f736974206661696c6564000000000000000000000000006044820152fd5b346101e35760a06003193601126101e357610a37611c37565b610a3f611a09565b610a47611a1f565b91610a50611a35565b91610a59611a4b565b604051610a6581611a93565b60008152600954908115610be057604051916020976001898501526001600160a01b0397888092166040860152166060840152608083015260808252610aaa82611aaf565b85604051941687850152868452610ac084611a77565b610acf60405161065d81611a93565b9160405194610add86611aaf565b8552878501526040840152600060608401526080830152604051927fb0f479a10000000000000000000000000000000000000000000000000000000084528584600481305afa80156107e357610b72958795600092610bc0575b5060009192604051978896879586937f6628c6e800000000000000000000000000000000000000000000000000000000855260048501611ea1565b0393165af19081156107e357600091610b93575b5080600355604051908152f35b90508181813d8311610bb9575b610baa8183611ae7565b810103126101e3575182610b86565b503d610ba0565b60009250610bda90873d891161082e5761081a8183611ae7565b91610b37565b606460405162461bcd60e51b815260206004820152601e60248201527f53656564207a65726f2c207472616e73666572207365656420666972737400006044820152fd5b346101e35760006003193601126101e3576020600154604051908152f35b346101e35760006003193601126101e35760206040516001600160a01b037f0000000000000000000000000000000000000000000000000000000000000000168152f35b346101e35760006003193601126101e35760206001600160a01b03600d5416604051908152f35b346101e3576020806003193601126101e35760043567ffffffffffffffff81116101e35781610ce3610cef923690600401611b26565b61024a6102458261232b565b8101600b8152030190208054610d0481611dbb565b91610d126040519384611ae7565b8183526000908152838120938084015b838310610d3b5760405180610d378782611bb5565b0390f35b6001828192604051610d5881610d51818d611d25565b0382611ae7565b815201960192019194610d22565b346101e35760006003193601126101e35760206001600160a01b0360005416604051908152f35b346101e357602060031981813601126101e35760043567ffffffffffffffff918282116101e35760a09082360301126101e3576001600160a01b0392837f00000000000000000000000000000000000000000000000000000000000000001633036112d857604051610dfe81611aaf565b826004013581526024948584013585811681036101e3578383015260448401358581116101e357610e359060043691870101611b26565b604083015260648401358581116101e357610e569060043691870101611b26565b93606083019485526084810135908682116101e35701366023820112156101e357600481013590610e8682611dbb565b91610e946040519384611ae7565b808352888684019160061b830101913683116101e3578901905b82821061129b575050506080830152835180518101906060818684019303126101e357848101519160ff83168093036101e357610eed604083016122e0565b916060810151908982116101e357019080603f830112156101e35786820151610f18926040016122f4565b91156111f0575b505050516006558151805181019082818184019303126101e35782810151908582116101e357019080603f830112156101e35782820151610f62926040016122f4565b9182518481116111db57610f77600854611ceb565b93601f9485811161118f575b50839085831160011461110957610fb29291600091836110fe575b50506000198260011b9260031b1c19161790565b6008555b519384519384116110ea5750610fcd600754611ceb565b828111611094575b508091831160011461101357508190611003936000926110085750506000198260011b9260031b1c19161790565b600755005b015190508380610f9e565b90601f1983169360076000527fa66cc928b5edb82af9bd49922954155ab7b0942694bea4ce44661d9a8736c688926000905b86821061107c5750508360019510611063575b505050811b01600755005b015160001960f88460031b161c19169055828080611058565b80600185968294968601518155019501930190611045565b6110db9060076000527fa66cc928b5edb82af9bd49922954155ab7b0942694bea4ce44661d9a8736c6888480870160051c8201928588106110e1575b0160051c0190611f38565b84610fd5565b925081926110d0565b634e487b7160e01b60005260416004526000fd5b015190508880610f9e565b90601f1983169160086000527ff3f7a9fe364faab93b216da50a3214154f22a0a2b415b23a84c8169e8b636ee39260005b87828210611179575050908460019594939210611160575b505050811b01600855610fb6565b015160001960f88460031b161c19169055878080611152565b600185968293968601518155019501930161113a565b6111d59060086000527ff3f7a9fe364faab93b216da50a3214154f22a0a2b415b23a84c8169e8b636ee38780860160051c8201928887106110e1570160051c0190611f38565b87610f83565b85634e487b7160e01b60005260416004526000fd5b8160009291838588829551940192165af1611209611cbb565b90156112585783818051810103126101e3578361122691016122e0565b167fffffffffffffffffffffffff00000000000000000000000000000000000000006002541617600255858080610f1f565b6064846015896040519262461bcd60e51b845260048401528201527f4c6f772d6c6576656c2063616c6c206661696c656400000000000000000000006044820152fd5b6040823603126101e357604051906112b282611a77565b82359086821682036101e357828992604094528285013583820152815201910190610eae565b60246040517fd7f73334000000000000000000000000000000000000000000000000000000008152336004820152fd5b346101e35760c06003193601126101e357611321611c37565b611329611a09565b90611332611a1f565b9061133b611a35565b92611344611a4b565b9261134d611a61565b9060405161135a81611a93565b600081526040516020977f133572ba00000000000000000000000000000000000000000000000000000000898301526001600160a01b039788809216602484015216604482015260448152608081019281841067ffffffffffffffff8511176101cd57610aaa91887fffffffffffffffffffffffffffffffffffffffffffffffffffffffffffffff809286604052600060a08401521660c0820152606060e082015261140a610100820182611b90565b037fffffffffffffffffffffffffffffffffffffffffffffffffffffffffffffff60810185520183611ae7565b346101e35760006003193601126101e35760206001600160a01b03600c5416604051908152f35b346101e35760006003193601126101e35760206001600160a01b03600e5416604051908152f35b346101e35760006003193601126101e357604060045460055482519182526020820152f35b346101e35760006003193601126101e35760206001600160a01b0360025416604051908152f35b346101e35760006003193601126101e357600a546114ee81611dbb565b6114fb6040519182611ae7565b81815260209160208201600a6000527fc65a7bb8d6351c1cf70c95a316cc6a92839c986682d98bc35f958f4883f9d2a8936000915b8383106115455760405180610d378782611bb5565b600182819260405161155b81610d51818d611d25565b815201960192019194611530565b346101e3576003196060813601126101e3576004359067ffffffffffffffff82116101e3576101609082360301126101e3576115ab9060243590600401612165565b50602060405160008152f35b346101e35760406003193601126101e35736602312156101e3576040516115dd81611a77565b6044813682116101e3576004905b82821061160e57836020815191015190611606604051611a77565b600455600555005b81358152602091820191016115eb565b346101e35760006003193601126101e3576000600155005b346101e35760006003193601126101e3576020600354604051908152f35b346101e35760006003193601126101e3576006546040516000916008549161167b83611ceb565b8082528160209586926001966001811690816000146117e55750600114611789575b506116aa92500382611ae7565b6040519060009385600754916116bf83611ceb565b808652926001811690811561176c5750600114611712575b5084610d3785611704866116ed838c0384611ae7565b606060405196879687528601526060850190611b90565b908382036040850152611b90565b9190955060076000527fa66cc928b5edb82af9bd49922954155ab7b0942694bea4ce44661d9a8736c688916000925b828410611759575050508201909301928085836116d7565b8054868501890152928701928101611741565b60ff191683870152505090151560051b83010193508085836116d7565b600860009081529150867ff3f7a9fe364faab93b216da50a3214154f22a0a2b415b23a84c8169e8b636ee35b8284106117ce57505050916116aa92820101869261169d565b8054878501870152869450928501928891016117b5565b60ff19168486015250879390151560051b83010190506116aa61169d565b60406003193601126101e3576004356001600160a01b03811681036101e35760243567ffffffffffffffff81116101e35760009161184683923690600401611b26565b9082602083519301915af1611859611cbb565b90156118a45761189f7f582326e533af48b16567b0565a82550442e225cf8491cb9ae2a29e1f96935e7c9160405191829160018352604060208401526040830190611b90565b0390a1005b606460405162461bcd60e51b815260206004820152600b60248201527f43616c6c206661696c65640000000000000000000000000000000000000000006044820152fd5b346101e35760406003193601126101e35767ffffffffffffffff6024358181116101e357366023820112156101e35780600401359182116101e35736602483830101116101e35760209160246119419201600435611c4e565b7fffffffff0000000000000000000000000000000000000000000000000000000060405191168152f35b346101e35760206003193601126101e357600435907fffffffff0000000000000000000000000000000000000000000000000000000082168092036101e357817f85572ffb00000000000000000000000000000000000000000000000000000000602093149081156119df575b5015158152f35b7f01ffc9a700000000000000000000000000000000000000000000000000000000915014836119d8565b602435906001600160a01b03821682036101e357565b604435906001600160a01b03821682036101e357565b606435906001600160a01b03821682036101e357565b608435906001600160a01b03821682036101e357565b60a435906001600160a01b03821682036101e357565b6040810190811067ffffffffffffffff8211176101cd57604052565b6020810190811067ffffffffffffffff8211176101cd57604052565b60a0810190811067ffffffffffffffff8211176101cd57604052565b6060810190811067ffffffffffffffff8211176101cd57604052565b90601f601f19910116810190811067ffffffffffffffff8211176101cd57604052565b67ffffffffffffffff81116101cd57601f01601f191660200190565b81601f820112156101e357803590611b3d82611b0a565b92611b4b6040519485611ae7565b828452602083830101116101e357816000926020809301838601378301015290565b60005b838110611b805750506000910152565b8181015183820152602001611b70565b90601f19601f602093611bae81518092818752878088019101611b6d565b0116010190565b6020808201906020835283518092526040830192602060408460051b8301019501936000915b848310611beb5750505050505090565b9091929394958480611c27837fffffffffffffffffffffffffffffffffffffffffffffffffffffffffffffffc086600196030187528a51611b90565b9801930193019194939290611bdb565b6004359067ffffffffffffffff821682036101e357565b90611c6f929160405190602082015260208152611c6a81611a77565b61205a565b611c97577fffffffff0000000000000000000000000000000000000000000000000000000090565b7f1626ba7e0000000000000000000000000000000000000000000000000000000090565b3d15611ce6573d90611ccc82611b0a565b91611cda6040519384611ae7565b82523d6000602084013e565b606090565b90600182811c92168015611d1b575b6020831014611d0557565b634e487b7160e01b600052602260045260246000fd5b91607f1691611cfa565b805460009392611d3482611ceb565b91828252602093600191600181169081600014611d9c5750600114611d5b575b5050505050565b90939495506000929192528360002092846000945b838610611d8857505050500101903880808080611d54565b805485870183015294019385908201611d70565b60ff19168685015250505090151560051b010191503880808080611d54565b67ffffffffffffffff81116101cd5760051b60200190565b908160209103126101e357516001600160a01b03811681036101e35790565b9190611e07835160a0835260a0830190611b90565b90611e1e6020928386015183820385850152611b90565b60409060408601519383820360408501528080865193848152019501926000905b838210611e785750505050506080846001600160a01b036060611e75969701511660608401520151906080818403910152611b90565b90565b845180516001600160a01b03168852830151878401529586019593820193600190910190611e3f565b6001600160a01b03611e75949367ffffffffffffffff6060941683521660208201528160408201520190611df2565b15611ed757565b606460405162461bcd60e51b815260206004820152601860248201527f417175617269756d20646f6573206e6f742065786973742e00000000000000006044820152fd5b8051156101b75760200190565b8051600110156101b75760400190565b818110611f43575050565b60008155600101611f38565b919091825167ffffffffffffffff81116101cd57611f6d8254611ceb565b601f811161201d575b50602080601f8311600114611fb857508190611fa9939495600092611fad5750506000198260011b9260031b1c19161790565b9055565b015190503880610f9e565b90601f19831695846000526020600020926000905b88821061200557505083600195969710611fec575b505050811b019055565b015160001960f88460031b161c19169055388080611fe2565b80600185968294968601518155019501930190611fcd565b61204a90836000526020600020601f840160051c81019160208510612050575b601f0160051c0190611f38565b38611f76565b909150819061203d565b90918201916020818403126101e357803567ffffffffffffffff918282116101e357019060c0828503126101e3576040519060c08201828110828211176101cd5760405282358181116101e357856120b3918501611b26565b825260208301359081116101e357611e75946120d0918401611b26565b91826020830152604081013580604084015260608201359081606085015260a06080840135938460808701520135938460a082015251946004549560055497612480565b9035907fffffffffffffffffffffffffffffffffffffffffffffffffffffffffffffffe1813603018212156101e3570180359067ffffffffffffffff82116101e3576020019181360383136101e357565b600092916101408201916121798382612114565b809291501561227a5761218c8482612114565b1561228f57359160018360f81c146000146122845760071161227a576121b28482612114565b600795919511612276576121c591612114565b9290958360071161227357507fffffffffffff000000000000000000000000000000000000000000000000000060017ffffffffffffffffffffffffffffffffffffffffffffffffffffffffffffffff960076122659899019501957fff00000000000000000000000000000000000000000000000000000000000000604051951660208601520135166021830152602782015260278152611c6a81611acb565b61226e57600190565b600090565b80fd5b8680fd5b5060019450505050565b506001955050505050565b602487634e487b7160e01b81526032600452fd5b604051907f97a657c900000000000000000000000000000000000000000000000000000000602083015251602482015260248152611e7581611acb565b51906001600160a01b03821682036101e357565b9092919261230181611b0a565b9161230f6040519384611ae7565b8294828452828201116101e3576020612329930190611b6d565b565b600090600a8054925b8381106123445750505050600090565b81600052807fc65a7bb8d6351c1cf70c95a316cc6a92839c986682d98bc35f958f4883f9d2a80160408051602090818101906000948181549661238688611ceb565b92600198878a8216918260001461243a5750506001146123f9575b506123b5925003601f198101835282611ae7565b51902091516123e08282019282816123d38b87815193849201611b6d565b8101038084520182611ae7565b519020146123f15750600101612334565b935050505090565b915050600052818480600020886000915b858310612421575050506123b592820101386123a1565b809192945054838588010152019101859088859361240a565b60ff191688526123b5958015150285010192503891506123a19050565b908160209103126101e3575180151581036101e35790565b9081518110156101b7570160200190565b9793959496929190918251986020998a81109081156128ea575b506128db576124e0604098848c7f2274797065223a22776562617574686e2e6765742200000000000000000000008c51916124d483611a77565b601583528201526129c4565b156128db576124ee90612a4d565b60008151600281119081612879575b50156127e8575060025b8151908103908111610889578a9291818a6125228794611b0a565b9161252f82519384611ae7565b80835261253b81611b0a565b93601f19888501950136863760005b82811061270b575050506125d3957f226368616c6c656e6765223a2200000000000000000000000000000000000000936125986125ce94602e9451968794850152518092602d850190611b6d565b81017f2200000000000000000000000000000000000000000000000000000000000000602d82015203600e810184520182611ae7565b6129c4565b156126fe5760006125f1899283895192828480945193849201611b6d565b8101039060025afa156126f3576000612647889282516126378980518093886126238184019788815193849201611b6d565b820190898201520387810184520182611ae7565b8851928392839251928391611b6d565b8101039060025afa156126e85760005192845195878701948552858701526060860152608085015260a084015260a0835260c083019280841067ffffffffffffffff8511176101cd5760009384935251907394474db941cb2d89f3dbd946aaec40054c30a9cd5afa906126b8611cbb565b91156126d25780828051810103126101e357015160011490565b634e487b7160e01b600052600160045260246000fd5b83513d6000823e3d90fd5b84513d6000823e3d90fd5b5050505050505050600090565b9194969750929450600191507fff000000000000000000000000000000000000000000000000000000000000007f2b0000000000000000000000000000000000000000000000000000000000000081612764848761246f565b5116036127895750602d612778828761246f565b535b018d9594928794928d9261254a565b7f2f00000000000000000000000000000000000000000000000000000000000000816127b5848761246f565b5116036127cf5750605f6127c9828761246f565b5361277a565b6127d9828561246f565b511660001a6127c9828761246f565b8151600181119081612803575b501561250757506001612507565b600019810191508111612865577fff0000000000000000000000000000000000000000000000000000000000000061285c7f3d00000000000000000000000000000000000000000000000000000000000000928561246f565b511614386127f5565b602482634e487b7160e01b81526011600452fd5b600119810191508111612865577fff000000000000000000000000000000000000000000000000000000000000006128d27f3d00000000000000000000000000000000000000000000000000000000000000928561246f565b511614386124fd565b50505050505050505050600090565b90508a10156101b7576129227fff00000000000000000000000000000000000000000000000000000000000000604086015116612929565b153861249a565b7f0100000000000000000000000000000000000000000000000000000000000000808216036129b1577f080000000000000000000000000000000000000000000000000000000000000080821603612982575b50600190565b7f10000000000000000000000000000000000000000000000000000000000000008091161461226e573861297c565b50600090565b9190820180921161088957565b9190825192815160005b8581106129e057505050505050600190565b816129eb82876129b7565b1015612a42577fff0000000000000000000000000000000000000000000000000000000000000080612a1d838661246f565b511690612a33612a2d84896129b7565b8761246f565b511603612a42576001016129ce565b505050505050600090565b90815115612bcd5760405191612a6283611acb565b604083527f4142434445464748494a4b4c4d4e4f505152535455565758595a61626364656660208401527f6768696a6b6c6d6e6f707172737475767778797a303132333435363738392b2f604084015280519260029160028501809511610889576003809504928360021b937f3fffffffffffffffffffffffffffffffffffffffffffffffffffffffffffffff8116036108895794612b19612b0385611b0a565b94612b116040519687611ae7565b808652611b0a565b601f1960208601910136823792829183518401976020890192835194600085525b8a8110612b8057505050506003939495965052510680600114612b6d57600214612b62575090565b600019603d91015390565b5060011981603d60001981940153015390565b836004919b989b019a8b51600190603f9082828260121c16870101518453828282600c1c16870101518385015382828260061c168701015187850153168401015185820153019699612b3a565b9050604051612bdb81611a93565b600081529056fea264697066735822122083ae06e5a800bff2ba8b7355afe897c33ae54b69485baeefa1c4e07a5a8f3e9f64736f6c63430008180033","opcodes":"PUSH1 0xA0 CALLVALUE PUSH2 0xD2 JUMPI PUSH1 0x1 PUSH1 0x1 PUSH1 0x40 SHL SUB SWAP1 PUSH1 0x1F PUSH2 0x3F0E CODESIZE DUP2 SWAP1 SUB SWAP2 DUP3 ADD PUSH1 0x1F NOT AND DUP4 ADD SWAP2 DUP5 DUP4 GT DUP5 DUP5 LT OR PUSH2 0xBC JUMPI DUP1 DUP5 SWAP3 PUSH1 0x20 SWAP5 PUSH1 0x40 MSTORE DUP4 CODECOPY DUP2 ADD SUB SLT PUSH2 0xD2 JUMPI MLOAD PUSH1 0x1 PUSH1 0x1 PUSH1 0xA0 SHL SUB DUP2 AND SWAP1 DUP2 SWAP1 SUB PUSH2 0xD2 JUMPI PUSH1 0x40 MLOAD SWAP2 PUSH2 0x2FD7 SWAP1 DUP2 DUP5 ADD SWAP1 DUP2 GT DUP5 DUP3 LT OR PUSH2 0xBC JUMPI PUSH1 0x40 SWAP3 DUP5 SWAP3 PUSH2 0xF37 DUP5 CODECOPY CALLER DUP3 MSTORE PUSH1 0x20 DUP3 ADD MSTORE SUB ADD SWAP1 PUSH1 0x0 CREATE DUP1 ISZERO PUSH2 0xB0 JUMPI PUSH1 0x80 MSTORE PUSH1 0x40 MLOAD PUSH2 0xE5F SWAP1 DUP2 PUSH2 0xD8 DUP3 CODECOPY PUSH1 0x80 MLOAD DUP2 DUP2 DUP2 PUSH2 0x5E5 ADD MSTORE DUP2 DUP2 PUSH2 0x9BB ADD MSTORE PUSH2 0xAC9 ADD MSTORE RETURN JUMPDEST PUSH1 0x40 MLOAD RETURNDATASIZE PUSH1 0x0 DUP3 RETURNDATACOPY RETURNDATASIZE SWAP1 REVERT JUMPDEST PUSH4 0x4E487B71 PUSH1 0xE0 SHL PUSH1 0x0 MSTORE PUSH1 0x41 PUSH1 0x4 MSTORE PUSH1 0x24 PUSH1 0x0 REVERT JUMPDEST PUSH1 0x0 DUP1 REVERT INVALID PUSH1 0x40 PUSH1 0x80 DUP2 MSTORE PUSH1 0x4 SWAP1 DUP2 CALLDATASIZE LT ISZERO PUSH3 0x16 JUMPI PUSH1 0x0 DUP1 REVERT JUMPDEST PUSH1 0x0 SWAP2 DUP3 CALLDATALOAD PUSH1 0xE0 SHR SWAP1 DUP2 PUSH3 0xAB22E5 EQ PUSH3 0x609 JUMPI DUP2 PUSH4 0x11464FBE EQ PUSH3 0x5C3 JUMPI DUP2 PUSH4 0x2B455763 EQ PUSH3 0x2DA JUMPI DUP2 PUSH4 0x31FEB671 EQ PUSH3 0x189 JUMPI DUP2 PUSH4 0x689E1C03 EQ PUSH3 0xF1 JUMPI POP DUP1 PUSH4 0xBA9A91A5 EQ PUSH3 0xB5 JUMPI PUSH4 0xD8CD1ECC EQ PUSH3 0x77 JUMPI PUSH1 0x0 DUP1 REVERT JUMPDEST CALLVALUE PUSH3 0xB1 JUMPI DUP1 PUSH1 0x3 NOT CALLDATASIZE ADD SLT PUSH3 0xB1 JUMPI PUSH1 0x20 SWAP1 PUSH1 0x1 PUSH1 0x1 PUSH1 0xA0 SHL SUB PUSH3 0xA9 PUSH3 0xA3 CALLDATASIZE PUSH3 0x6AB JUMP JUMPDEST PUSH3 0xA0C JUMP JUMPDEST SWAP2 MLOAD SWAP2 AND DUP2 MSTORE RETURN JUMPDEST POP DUP1 REVERT JUMPDEST POP CALLVALUE PUSH3 0xB1 JUMPI DUP2 PUSH1 0x3 NOT CALLDATASIZE ADD SLT PUSH3 0xB1 JUMPI PUSH1 0x20 SWAP1 MLOAD PUSH32 0xA4FB38CF4B0BF210F043C7762DDE92916DBAF2D16F82C7B9414DEF8A49FA55C3 DUP2 MSTORE RETURN JUMPDEST DUP4 SWAP2 POP CALLVALUE PUSH3 0xB1 JUMPI PUSH1 0x20 PUSH1 0x3 NOT CALLDATASIZE ADD SLT PUSH3 0xB1 JUMPI DUP1 CALLDATALOAD PUSH8 0xFFFFFFFFFFFFFFFF DUP2 GT PUSH3 0x185 JUMPI SWAP2 PUSH3 0x12F PUSH1 0x20 SWAP3 PUSH3 0x143 SWAP5 CALLDATASIZE SWAP2 ADD PUSH3 0x6F8 JUMP JUMPDEST SWAP1 DUP3 DUP6 MLOAD SWAP5 DUP4 DUP7 DUP1 SWAP6 MLOAD SWAP4 DUP5 SWAP3 ADD PUSH3 0x754 JUMP JUMPDEST DUP3 ADD SWAP1 DUP2 MSTORE SUB ADD SWAP1 KECCAK256 SWAP1 PUSH1 0x1 PUSH1 0x1 PUSH1 0xA0 SHL SUB PUSH1 0x3 PUSH3 0x162 DUP5 PUSH3 0x7DD JUMP JUMPDEST SWAP4 ADD SLOAD AND PUSH3 0x17B DUP3 MLOAD SWAP4 DUP4 DUP6 SWAP5 DUP6 MSTORE DUP5 ADD SWAP1 PUSH3 0x779 JUMP JUMPDEST SWAP1 PUSH1 0x20 DUP4 ADD MSTORE SUB SWAP1 RETURN JUMPDEST DUP3 DUP1 REVERT JUMPDEST SWAP1 POP DUP3 CALLVALUE PUSH3 0x2D7 JUMPI PUSH1 0x20 SWAP2 DUP3 PUSH1 0x3 NOT CALLDATASIZE ADD SLT PUSH3 0xB1 JUMPI DUP1 CALLDATALOAD PUSH8 0xFFFFFFFFFFFFFFFF DUP2 GT PUSH3 0x185 JUMPI PUSH3 0x206 DUP5 PUSH3 0x1C9 DUP2 SWAP5 DUP9 SWAP5 CALLDATASIZE SWAP2 ADD PUSH3 0x6F8 JUMP JUMPDEST DUP6 DUP5 DUP1 MLOAD PUSH3 0x1D8 DUP2 PUSH3 0x637 JUMP JUMPDEST PUSH1 0x60 DUP2 MSTORE DUP2 MLOAD PUSH3 0x1E9 DUP2 PUSH3 0x66A JUMP JUMPDEST DUP3 CALLDATASIZE DUP3 CALLDATACOPY DUP6 DUP3 ADD MSTORE ADD MSTORE DUP2 DUP5 MLOAD SWAP4 DUP3 DUP6 DUP1 SWAP5 MLOAD SWAP4 DUP5 SWAP3 ADD PUSH3 0x754 JUMP JUMPDEST DUP2 ADD DUP7 DUP2 MSTORE SUB ADD SWAP1 KECCAK256 SWAP2 DUP2 MLOAD SWAP2 PUSH3 0x21E DUP4 PUSH3 0x637 JUMP JUMPDEST PUSH3 0x229 DUP5 PUSH3 0x7DD JUMP JUMPDEST DUP4 MSTORE PUSH1 0x1 SWAP5 DUP2 MLOAD SWAP3 DUP4 SWAP6 DUP8 PUSH1 0x1 DUP3 ADD SWAP8 DUP5 SWAP1 JUMPDEST PUSH1 0x2 DUP3 LT PUSH3 0x2C3 JUMPI POP POP POP DUP5 SWAP6 SWAP7 POP PUSH3 0x259 PUSH1 0x3 SWAP6 PUSH3 0x66A JUMP JUMPDEST DUP2 DUP8 ADD SWAP6 DUP7 MSTORE PUSH1 0x1 PUSH1 0x1 PUSH1 0xA0 SHL SUB SWAP5 DUP6 SWAP2 ADD SLOAD AND SWAP3 DUP1 DUP8 ADD SWAP4 DUP5 MSTORE PUSH3 0x290 DUP2 MLOAD SWAP8 DUP4 DUP10 MSTORE MLOAD PUSH1 0x80 DUP5 DUP11 ADD MSTORE PUSH1 0xA0 DUP10 ADD SWAP1 PUSH3 0x779 JUMP JUMPDEST SWAP6 MLOAD SWAP3 SWAP1 DUP8 ADD JUMPDEST PUSH1 0x2 DUP3 LT PUSH3 0x2AF JUMPI DUP5 MLOAD DUP7 AND PUSH1 0x80 DUP10 ADD MSTORE DUP8 DUP8 SUB DUP9 RETURN JUMPDEST DUP4 MLOAD DUP2 MSTORE SWAP3 DUP3 ADD SWAP3 SWAP1 DUP9 ADD SWAP1 DUP3 ADD PUSH3 0x297 JUMP JUMPDEST DUP10 SLOAD DUP2 MSTORE SWAP9 DUP3 ADD SWAP9 SWAP1 DUP3 ADD SWAP1 DUP5 ADD PUSH3 0x23C JUMP JUMPDEST DUP1 REVERT JUMPDEST SWAP1 POP CALLVALUE PUSH3 0x185 JUMPI PUSH1 0x60 PUSH1 0x3 NOT CALLDATASIZE ADD SLT PUSH3 0x185 JUMPI PUSH8 0xFFFFFFFFFFFFFFFF SWAP1 DUP1 CALLDATALOAD DUP3 DUP2 GT PUSH3 0x5BF JUMPI PUSH3 0x312 SWAP1 CALLDATASIZE SWAP1 DUP4 ADD PUSH3 0x6F8 JUMP JUMPDEST SWAP1 CALLDATASIZE PUSH1 0x43 SLT ISZERO PUSH3 0x5BF JUMPI DUP4 MLOAD PUSH3 0x32A DUP2 PUSH3 0x66A JUMP JUMPDEST PUSH1 0x64 DUP2 CALLDATASIZE DUP3 GT PUSH3 0x598 JUMPI PUSH1 0x24 SWAP1 JUMPDEST DUP3 DUP3 LT PUSH3 0x5AE JUMPI POP POP POP DUP5 MLOAD SWAP4 PUSH32 0xD8CD1ECC00000000000000000000000000000000000000000000000000000000 DUP6 MSTORE PUSH1 0x20 SWAP3 DUP4 DUP7 DUP1 PUSH3 0x37E DUP7 DUP6 DUP4 ADD PUSH3 0x8AD JUMP JUMPDEST SUB DUP2 ADDRESS GAS STATICCALL SWAP6 DUP7 ISZERO PUSH3 0x5A4 JUMPI DUP9 SWAP7 PUSH3 0x55A JUMPI JUMPDEST POP PUSH3 0x3D3 DUP5 DUP9 MLOAD SWAP7 PUSH3 0x3A7 DUP9 PUSH3 0x637 JUMP JUMPDEST DUP1 DUP9 MSTORE DUP2 DUP9 ADD SWAP6 DUP7 MSTORE DUP2 DUP11 DUP10 ADD SWAP11 PUSH1 0x1 PUSH1 0x1 PUSH1 0xA0 SHL SUB DUP1 SWAP12 AND DUP13 MSTORE MLOAD SWAP4 DUP3 DUP6 DUP1 SWAP5 MLOAD SWAP4 DUP5 SWAP3 ADD PUSH3 0x754 JUMP JUMPDEST DUP2 ADD DUP12 DUP2 MSTORE SUB ADD SWAP1 KECCAK256 SWAP5 MLOAD SWAP1 DUP2 MLOAD SWAP3 DUP4 GT PUSH3 0x547 JUMPI POP DUP2 SWAP1 PUSH3 0x3F8 DUP7 SLOAD PUSH3 0x7A0 JUMP JUMPDEST PUSH1 0x1F DUP2 GT PUSH3 0x4F4 JUMPI JUMPDEST POP DUP5 SWAP1 PUSH1 0x1F DUP4 GT PUSH1 0x1 EQ PUSH3 0x48E JUMPI DUP10 SWAP3 PUSH3 0x482 JUMPI JUMPDEST POP POP PUSH1 0x0 NOT DUP3 PUSH1 0x1 SHL SWAP3 PUSH1 0x3 SHL SHR NOT AND OR DUP4 SSTORE JUMPDEST MLOAD DUP6 JUMPDEST PUSH1 0x2 DUP2 LT PUSH3 0x46C JUMPI POP POP POP PUSH1 0x3 ADD SWAP2 MLOAD AND PUSH32 0xFFFFFFFFFFFFFFFFFFFFFFFF0000000000000000000000000000000000000000 DUP3 SLOAD AND OR SWAP1 SSTORE DUP1 RETURN JUMPDEST PUSH1 0x1 SWAP1 DUP4 DUP4 MLOAD SWAP4 ADD SWAP3 DUP3 DUP3 DUP8 ADD ADD SSTORE ADD PUSH3 0x430 JUMP JUMPDEST ADD MLOAD SWAP1 POP CODESIZE DUP1 PUSH3 0x419 JUMP JUMPDEST DUP7 DUP11 MSTORE DUP6 DUP11 KECCAK256 SWAP3 PUSH1 0x1F NOT AND DUP11 JUMPDEST DUP8 DUP3 DUP3 LT PUSH3 0x4DD JUMPI POP POP SWAP1 DUP5 PUSH1 0x1 SWAP6 SWAP5 SWAP4 SWAP3 LT PUSH3 0x4C3 JUMPI JUMPDEST POP POP POP DUP2 SHL ADD DUP4 SSTORE PUSH3 0x42D JUMP JUMPDEST ADD MLOAD PUSH1 0x0 NOT PUSH1 0xF8 DUP5 PUSH1 0x3 SHL AND SHR NOT AND SWAP1 SSTORE CODESIZE DUP1 DUP1 PUSH3 0x4B5 JUMP JUMPDEST PUSH1 0x1 DUP6 SWAP7 DUP3 SWAP4 SWAP7 DUP7 ADD MLOAD DUP2 SSTORE ADD SWAP6 ADD SWAP4 ADD PUSH3 0x49B JUMP JUMPDEST SWAP1 SWAP2 POP DUP6 DUP10 MSTORE DUP5 DUP10 KECCAK256 PUSH1 0x1F DUP5 ADD PUSH1 0x5 SHR DUP2 ADD SWAP2 DUP7 DUP6 LT PUSH3 0x53C JUMPI JUMPDEST SWAP1 PUSH1 0x1F DUP6 SWAP5 SWAP4 SWAP3 ADD PUSH1 0x5 SHR ADD SWAP1 JUMPDEST DUP2 DUP2 LT PUSH3 0x52D JUMPI POP PUSH3 0x402 JUMP JUMPDEST DUP11 DUP2 SSTORE DUP5 SWAP4 POP PUSH1 0x1 ADD PUSH3 0x51E JUMP JUMPDEST SWAP1 SWAP2 POP DUP2 SWAP1 PUSH3 0x510 JUMP JUMPDEST DUP9 PUSH1 0x41 PUSH1 0x24 SWAP3 PUSH4 0x4E487B71 PUSH1 0xE0 SHL DUP4 MSTORE MSTORE REVERT JUMPDEST SWAP1 SWAP6 POP DUP4 DUP2 DUP2 RETURNDATASIZE DUP4 GT PUSH3 0x59C JUMPI JUMPDEST PUSH3 0x575 DUP2 DUP4 PUSH3 0x687 JUMP JUMPDEST DUP2 ADD SUB SLT PUSH3 0x598 JUMPI MLOAD PUSH1 0x1 PUSH1 0x1 PUSH1 0xA0 SHL SUB DUP2 AND DUP2 SUB PUSH3 0x598 JUMPI SWAP5 CODESIZE PUSH3 0x393 JUMP JUMPDEST DUP8 DUP1 REVERT JUMPDEST POP RETURNDATASIZE PUSH3 0x569 JUMP JUMPDEST DUP8 MLOAD RETURNDATASIZE DUP11 DUP3 RETURNDATACOPY RETURNDATASIZE SWAP1 REVERT JUMPDEST DUP2 CALLDATALOAD DUP2 MSTORE PUSH1 0x20 SWAP2 DUP3 ADD SWAP2 ADD PUSH3 0x339 JUMP JUMPDEST DUP5 DUP1 REVERT JUMPDEST POP POP CALLVALUE PUSH3 0xB1 JUMPI DUP2 PUSH1 0x3 NOT CALLDATASIZE ADD SLT PUSH3 0xB1 JUMPI PUSH1 0x20 SWAP1 MLOAD PUSH1 0x1 PUSH1 0x1 PUSH1 0xA0 SHL SUB PUSH32 0x0 AND DUP2 MSTORE RETURN JUMPDEST POP POP DUP1 PUSH1 0x3 NOT CALLDATASIZE ADD SLT PUSH3 0xB1 JUMPI PUSH1 0x20 SWAP1 PUSH1 0x1 PUSH1 0x1 PUSH1 0xA0 SHL SUB PUSH3 0xA9 PUSH3 0x631 CALLDATASIZE PUSH3 0x6AB JUMP JUMPDEST PUSH3 0x902 JUMP JUMPDEST PUSH1 0x60 DUP2 ADD SWAP1 DUP2 LT PUSH8 0xFFFFFFFFFFFFFFFF DUP3 GT OR PUSH3 0x654 JUMPI PUSH1 0x40 MSTORE JUMP JUMPDEST PUSH4 0x4E487B71 PUSH1 0xE0 SHL PUSH1 0x0 MSTORE PUSH1 0x41 PUSH1 0x4 MSTORE PUSH1 0x24 PUSH1 0x0 REVERT JUMPDEST PUSH1 0x40 DUP2 ADD SWAP1 DUP2 LT PUSH8 0xFFFFFFFFFFFFFFFF DUP3 GT OR PUSH3 0x654 JUMPI PUSH1 0x40 MSTORE JUMP JUMPDEST SWAP1 PUSH1 0x1F PUSH1 0x1F NOT SWAP2 ADD AND DUP2 ADD SWAP1 DUP2 LT PUSH8 0xFFFFFFFFFFFFFFFF DUP3 GT OR PUSH3 0x654 JUMPI PUSH1 0x40 MSTORE JUMP JUMPDEST DUP1 PUSH1 0x23 SLT ISZERO PUSH3 0x6F3 JUMPI PUSH1 0x40 MLOAD SWAP1 PUSH3 0x6C4 DUP3 PUSH3 0x66A JUMP JUMPDEST DUP2 PUSH1 0x44 SWAP2 PUSH1 0x44 GT PUSH3 0x6F3 JUMPI PUSH1 0x4 SWAP1 JUMPDEST DUP3 DUP3 LT PUSH3 0x6E2 JUMPI POP POP POP SWAP1 JUMP JUMPDEST DUP2 CALLDATALOAD DUP2 MSTORE PUSH1 0x20 SWAP2 DUP3 ADD SWAP2 ADD PUSH3 0x6D4 JUMP JUMPDEST PUSH1 0x0 DUP1 REVERT JUMPDEST DUP2 PUSH1 0x1F DUP3 ADD SLT ISZERO PUSH3 0x6F3 JUMPI DUP1 CALLDATALOAD SWAP1 PUSH8 0xFFFFFFFFFFFFFFFF DUP3 GT PUSH3 0x654 JUMPI PUSH1 0x40 MLOAD SWAP3 PUSH3 0x731 PUSH1 0x20 PUSH1 0x1F NOT PUSH1 0x1F DUP7 ADD AND ADD DUP6 PUSH3 0x687 JUMP JUMPDEST DUP3 DUP5 MSTORE PUSH1 0x20 DUP4 DUP4 ADD ADD GT PUSH3 0x6F3 JUMPI DUP2 PUSH1 0x0 SWAP3 PUSH1 0x20 DUP1 SWAP4 ADD DUP4 DUP7 ADD CALLDATACOPY DUP4 ADD ADD MSTORE SWAP1 JUMP JUMPDEST PUSH1 0x0 JUMPDEST DUP4 DUP2 LT PUSH3 0x768 JUMPI POP POP PUSH1 0x0 SWAP2 ADD MSTORE JUMP JUMPDEST DUP2 DUP2 ADD MLOAD DUP4 DUP3 ADD MSTORE PUSH1 0x20 ADD PUSH3 0x757 JUMP JUMPDEST SWAP1 PUSH1 0x1F NOT PUSH1 0x1F PUSH1 0x20 SWAP4 PUSH3 0x799 DUP2 MLOAD DUP1 SWAP3 DUP2 DUP8 MSTORE DUP8 DUP1 DUP9 ADD SWAP2 ADD PUSH3 0x754 JUMP JUMPDEST ADD AND ADD ADD SWAP1 JUMP JUMPDEST SWAP1 PUSH1 0x1 DUP3 DUP2 SHR SWAP3 AND DUP1 ISZERO PUSH3 0x7D2 JUMPI JUMPDEST PUSH1 0x20 DUP4 LT EQ PUSH3 0x7BC JUMPI JUMP JUMPDEST PUSH4 0x4E487B71 PUSH1 0xE0 SHL PUSH1 0x0 MSTORE PUSH1 0x22 PUSH1 0x4 MSTORE PUSH1 0x24 PUSH1 0x0 REVERT JUMPDEST SWAP2 PUSH1 0x7F AND SWAP2 PUSH3 0x7B0 JUMP JUMPDEST SWAP1 PUSH1 0x40 MLOAD SWAP2 DUP3 PUSH1 0x0 DUP3 SLOAD PUSH3 0x7F2 DUP2 PUSH3 0x7A0 JUMP JUMPDEST SWAP1 DUP2 DUP5 MSTORE PUSH1 0x20 SWAP5 PUSH1 0x1 SWAP2 PUSH1 0x1 DUP2 AND SWAP1 DUP2 PUSH1 0x0 EQ PUSH3 0x86A JUMPI POP PUSH1 0x1 EQ PUSH3 0x827 JUMPI JUMPDEST POP POP POP PUSH3 0x825 SWAP3 POP SUB DUP4 PUSH3 0x687 JUMP JUMPDEST JUMP JUMPDEST PUSH1 0x0 SWAP1 DUP2 MSTORE DUP6 DUP2 KECCAK256 SWAP6 SWAP4 POP SWAP2 SWAP1 JUMPDEST DUP2 DUP4 LT PUSH3 0x851 JUMPI POP POP PUSH3 0x825 SWAP4 POP DUP3 ADD ADD CODESIZE DUP1 DUP1 PUSH3 0x814 JUMP JUMPDEST DUP6 SLOAD DUP9 DUP5 ADD DUP6 ADD MSTORE SWAP5 DUP6 ADD SWAP5 DUP8 SWAP5 POP SWAP2 DUP4 ADD SWAP2 PUSH3 0x835 JUMP JUMPDEST SWAP2 POP POP PUSH3 0x825 SWAP6 SWAP4 POP PUSH32 0xFFFFFFFFFFFFFFFFFFFFFFFFFFFFFFFFFFFFFFFFFFFFFFFFFFFFFFFFFFFFFF00 SWAP2 POP AND DUP3 DUP5 ADD MSTORE ISZERO ISZERO PUSH1 0x5 SHL DUP3 ADD ADD CODESIZE DUP1 DUP1 PUSH3 0x814 JUMP JUMPDEST PUSH1 0x40 DUP2 ADD SWAP3 SWAP2 PUSH1 0x0 SWAP2 JUMPDEST PUSH1 0x2 DUP4 LT PUSH3 0x8C5 JUMPI POP POP POP JUMP JUMPDEST PUSH1 0x1 SWAP1 DUP3 MLOAD DUP2 MSTORE PUSH1 0x20 DUP1 SWAP2 ADD SWAP3 ADD SWAP3 ADD SWAP2 SWAP1 PUSH3 0x8B7 JUMP JUMPDEST PUSH1 0x40 SWAP1 PUSH1 0x1 PUSH1 0x1 PUSH1 0xA0 SHL SUB PUSH3 0x8FF SWAP5 SWAP4 AND DUP2 MSTORE DUP2 PUSH1 0x20 DUP3 ADD MSTORE ADD SWAP1 PUSH3 0x779 JUMP JUMPDEST SWAP1 JUMP JUMPDEST PUSH3 0x90D DUP2 PUSH3 0xA0C JUMP JUMPDEST DUP1 EXTCODESIZE PUSH3 0x9FE JUMPI POP PUSH3 0x95C PUSH3 0x96B PUSH1 0x1 PUSH1 0x1 PUSH1 0xA0 SHL SUB SWAP3 PUSH1 0x40 MLOAD SWAP3 DUP4 SWAP2 PUSH32 0x2D16032100000000000000000000000000000000000000000000000000000000 PUSH1 0x20 DUP5 ADD MSTORE PUSH1 0x24 DUP4 ADD PUSH3 0x8AD JUMP JUMPDEST SUB PUSH1 0x1F NOT DUP2 ADD DUP4 MSTORE DUP3 PUSH3 0x687 JUMP JUMPDEST PUSH1 0x40 MLOAD PUSH2 0x2DE DUP1 DUP3 ADD SWAP1 DUP3 DUP3 LT PUSH8 0xFFFFFFFFFFFFFFFF DUP4 GT OR PUSH3 0x654 JUMPI PUSH32 0xA4FB38CF4B0BF210F043C7762DDE92916DBAF2D16F82C7B9414DEF8A49FA55C3 SWAP4 DUP4 SWAP3 PUSH3 0x9E2 SWAP3 PUSH3 0xB4C DUP6 CODECOPY DUP7 PUSH32 0x0 AND SWAP1 PUSH3 0x8DD JUMP JUMPDEST SUB SWAP1 PUSH1 0x0 CREATE2 DUP1 ISZERO PUSH3 0x9F2 JUMPI AND SWAP1 JUMP JUMPDEST PUSH1 0x40 MLOAD RETURNDATASIZE PUSH1 0x0 DUP3 RETURNDATACOPY RETURNDATASIZE SWAP1 REVERT JUMPDEST PUSH1 0x1 PUSH1 0x1 PUSH1 0xA0 SHL SUB SWAP2 POP AND SWAP1 JUMP JUMPDEST PUSH1 0xB PUSH1 0x55 SWAP2 PUSH32 0xA4FB38CF4B0BF210F043C7762DDE92916DBAF2D16F82C7B9414DEF8A49FA55C3 PUSH2 0x2DE PUSH1 0x20 SWAP1 PUSH3 0xB26 PUSH3 0xB33 DUP4 PUSH1 0x40 SWAP7 PUSH3 0xA9A DUP9 MLOAD SWAP2 PUSH3 0xA59 DUP5 DUP9 ADD DUP5 PUSH3 0x687 JUMP JUMPDEST DUP7 DUP4 MSTORE DUP4 DUP4 ADD SWAP7 PUSH3 0xB4C DUP9 CODECOPY DUP10 MLOAD SWAP2 DUP3 SWAP2 PUSH32 0x2D16032100000000000000000000000000000000000000000000000000000000 DUP7 DUP5 ADD MSTORE PUSH1 0x24 DUP4 ADD PUSH3 0x8AD JUMP JUMPDEST SUB PUSH3 0xAAF PUSH1 0x1F NOT SWAP2 DUP3 DUP2 ADD DUP5 MSTORE DUP4 PUSH3 0x687 JUMP JUMPDEST PUSH3 0xAFD DUP11 MLOAD SWAP2 DUP3 PUSH3 0xAF0 DUP8 DUP3 ADD SWAP6 PUSH1 0x1 PUSH1 0x1 PUSH1 0xA0 SHL SUB PUSH32 0x0 AND DUP8 PUSH3 0x8DD JUMP JUMPDEST SUB SWAP1 DUP2 ADD DUP4 MSTORE DUP3 PUSH3 0x687 JUMP JUMPDEST DUP10 MLOAD SWAP6 DUP7 SWAP4 PUSH3 0xB16 DUP7 DUP7 ADD SWAP10 DUP11 SWAP3 MLOAD SWAP3 DUP4 SWAP2 PUSH3 0x754 JUMP JUMPDEST DUP5 ADD SWAP2 MLOAD DUP1 SWAP4 DUP7 DUP5 ADD SWAP1 PUSH3 0x754 JUMP JUMPDEST ADD SUB DUP1 DUP5 MSTORE ADD DUP3 PUSH3 0x687 JUMP JUMPDEST MLOAD SWAP1 KECCAK256 DUP4 MLOAD SWAP4 DUP5 ADD MSTORE DUP3 ADD MSTORE ADDRESS DUP2 MSTORE ADD PUSH1 0xFF DUP2 MSTORE8 KECCAK256 SWAP1 JUMP INVALID PUSH1 0x80 PUSH1 0x40 MSTORE PUSH2 0x2DE DUP1 CODESIZE SUB DUP1 PUSH2 0x14 DUP2 PUSH2 0x194 JUMP JUMPDEST SWAP3 DUP4 CODECOPY DUP2 ADD SWAP1 PUSH1 0x40 DUP2 DUP4 SUB SLT PUSH2 0x18F JUMPI DUP1 MLOAD PUSH1 0x1 PUSH1 0x1 PUSH1 0xA0 SHL SUB DUP2 AND DUP1 DUP3 SUB PUSH2 0x18F JUMPI PUSH1 0x20 DUP4 DUP2 ADD MLOAD SWAP1 SWAP4 PUSH1 0x1 PUSH1 0x1 PUSH1 0x40 SHL SUB DUP3 GT PUSH2 0x18F JUMPI ADD DUP5 PUSH1 0x1F DUP3 ADD SLT ISZERO PUSH2 0x18F JUMPI DUP1 MLOAD SWAP1 PUSH2 0x6D PUSH2 0x68 DUP4 PUSH2 0x1CF JUMP JUMPDEST PUSH2 0x194 JUMP JUMPDEST SWAP6 DUP3 DUP8 MSTORE DUP6 DUP4 DUP4 ADD ADD GT PUSH2 0x18F JUMPI DUP5 SWAP1 PUSH1 0x0 JUMPDEST DUP4 DUP2 LT PUSH2 0x17B JUMPI POP POP PUSH1 0x0 SWAP2 DUP7 ADD ADD MSTORE DUP2 EXTCODESIZE ISZERO PUSH2 0x163 JUMPI PUSH32 0x360894A13BA1A3210667C828492DB98DCA3E2076CC3735A920A3CA505D382BBC DUP1 SLOAD PUSH1 0x1 PUSH1 0x1 PUSH1 0xA0 SHL SUB NOT AND DUP3 OR SWAP1 SSTORE PUSH1 0x40 MLOAD SWAP1 PUSH32 0xBC7CD75A20EE27FD9ADEBAB32041F755214DBC6BFFA90CC0225B39DA2E5C2D3B PUSH1 0x0 DUP1 LOG2 DUP4 MLOAD ISZERO PUSH2 0x145 JUMPI POP PUSH1 0x0 DUP1 DUP5 DUP5 PUSH2 0x12C SWAP7 MLOAD SWAP2 ADD DUP5 GAS DELEGATECALL SWAP1 RETURNDATASIZE ISZERO PUSH2 0x13C JUMPI RETURNDATASIZE PUSH2 0x11C PUSH2 0x68 DUP3 PUSH2 0x1CF JUMP JUMPDEST SWAP1 DUP2 MSTORE PUSH1 0x0 DUP2 SWAP5 RETURNDATASIZE SWAP3 ADD RETURNDATACOPY PUSH2 0x1EA JUMP JUMPDEST POP JUMPDEST PUSH1 0x40 MLOAD PUSH1 0x90 SWAP1 DUP2 PUSH2 0x24E DUP3 CODECOPY RETURN JUMPDEST PUSH1 0x60 SWAP3 POP PUSH2 0x1EA JUMP JUMPDEST SWAP3 POP POP POP CALLVALUE PUSH2 0x154 JUMPI POP PUSH2 0x12E JUMP JUMPDEST PUSH4 0xB398979F PUSH1 0xE0 SHL DUP2 MSTORE PUSH1 0x4 SWAP1 REVERT JUMPDEST PUSH1 0x24 SWAP1 PUSH1 0x40 MLOAD SWAP1 PUSH4 0x4C9C8CE3 PUSH1 0xE0 SHL DUP3 MSTORE PUSH1 0x4 DUP3 ADD MSTORE REVERT JUMPDEST DUP2 DUP2 ADD DUP4 ADD MLOAD DUP9 DUP3 ADD DUP5 ADD MSTORE DUP7 SWAP3 ADD PUSH2 0x80 JUMP JUMPDEST PUSH1 0x0 DUP1 REVERT JUMPDEST PUSH1 0x40 MLOAD SWAP2 SWAP1 PUSH1 0x1F ADD PUSH1 0x1F NOT AND DUP3 ADD PUSH1 0x1 PUSH1 0x1 PUSH1 0x40 SHL SUB DUP2 GT DUP4 DUP3 LT OR PUSH2 0x1B9 JUMPI PUSH1 0x40 MSTORE JUMP JUMPDEST PUSH4 0x4E487B71 PUSH1 0xE0 SHL PUSH1 0x0 MSTORE PUSH1 0x41 PUSH1 0x4 MSTORE PUSH1 0x24 PUSH1 0x0 REVERT JUMPDEST PUSH1 0x1 PUSH1 0x1 PUSH1 0x40 SHL SUB DUP2 GT PUSH2 0x1B9 JUMPI PUSH1 0x1F ADD PUSH1 0x1F NOT AND PUSH1 0x20 ADD SWAP1 JUMP JUMPDEST SWAP1 PUSH2 0x211 JUMPI POP DUP1 MLOAD ISZERO PUSH2 0x1FF JUMPI DUP1 MLOAD SWAP1 PUSH1 0x20 ADD REVERT JUMPDEST PUSH1 0x40 MLOAD PUSH4 0xA12F521 PUSH1 0xE1 SHL DUP2 MSTORE PUSH1 0x4 SWAP1 REVERT JUMPDEST DUP2 MLOAD ISZERO DUP1 PUSH2 0x244 JUMPI JUMPDEST PUSH2 0x222 JUMPI POP SWAP1 JUMP JUMPDEST PUSH1 0x40 MLOAD PUSH4 0x9996B315 PUSH1 0xE0 SHL DUP2 MSTORE PUSH1 0x1 PUSH1 0x1 PUSH1 0xA0 SHL SUB SWAP1 SWAP2 AND PUSH1 0x4 DUP3 ADD MSTORE PUSH1 0x24 SWAP1 REVERT JUMPDEST POP DUP1 EXTCODESIZE ISZERO PUSH2 0x21A JUMP INVALID PUSH1 0x80 PUSH1 0x40 MSTORE PUSH20 0xFFFFFFFFFFFFFFFFFFFFFFFFFFFFFFFFFFFFFFFF PUSH32 0x360894A13BA1A3210667C828492DB98DCA3E2076CC3735A920A3CA505D382BBC SLOAD AND PUSH1 0x0 DUP1 DUP1 SWAP3 CALLDATASIZE DUP3 DUP1 CALLDATACOPY DUP2 CALLDATASIZE SWAP2 GAS DELEGATECALL RETURNDATASIZE DUP3 DUP1 RETURNDATACOPY ISZERO PUSH1 0x56 JUMPI RETURNDATASIZE SWAP1 RETURN JUMPDEST RETURNDATASIZE SWAP1 REVERT INVALID LOG2 PUSH5 0x6970667358 0x22 SLT KECCAK256 SWAP11 0x21 0xB2 0xF9 ADD DUP4 0x1F 0xE0 BASEFEE 0xEA AND PUSH5 0x73AB8A5D06 0xB5 AND SWAP8 COINBASE 0xB3 PUSH13 0xB9C5F215D2AA0ED78864736F6C PUSH4 0x43000818 STOP CALLER LOG2 PUSH5 0x6970667358 0x22 SLT KECCAK256 DUP6 0xD9 DUP3 0xCC 0xDF 0x2F RETURNDATACOPY 0xBA SWAP8 SHR 0xC CODESIZE PUSH27 0x833A5C52A1B32E62D072E099FF97551912721264736F6C63430008 XOR STOP CALLER PUSH1 0xA0 CALLVALUE PUSH3 0x338 JUMPI PUSH3 0x2FD7 SWAP1 PUSH1 0x1F NOT PUSH1 0x1F PUSH1 0x1 PUSH1 0x1 PUSH1 0x40 SHL SUB CODESIZE DUP6 SWAP1 SUB DUP3 DUP2 ADD DUP5 AND DUP6 ADD SWAP1 DUP3 DUP3 GT DUP7 DUP4 LT OR PUSH3 0x33D JUMPI DUP1 DUP7 SWAP2 PUSH1 0x40 SWAP9 DUP10 SWAP5 DUP6 MSTORE DUP4 CODECOPY DUP2 ADD SUB SLT PUSH3 0x338 JUMPI PUSH3 0x51 DUP5 PUSH3 0x353 JUMP JUMPDEST SWAP3 PUSH3 0x61 PUSH1 0x20 DUP1 SWAP7 ADD PUSH3 0x353 JUMP JUMPDEST PUSH1 0x1 PUSH1 0x1 PUSH1 0xA0 SHL SUB SWAP4 SWAP1 DUP5 DUP2 AND ISZERO PUSH3 0x320 JUMPI PUSH1 0x80 MSTORE PUSH1 0x0 SWAP6 DUP7 PUSH1 0x9 SSTORE DUP8 MLOAD SWAP4 DUP2 DUP6 ADD DUP6 DUP2 LT DUP3 DUP3 GT OR PUSH3 0x30C JUMPI PUSH1 0x60 DUP7 ADD DUP2 DUP2 LT DUP4 DUP3 GT OR PUSH3 0x2F8 JUMPI DUP11 MSTORE PUSH1 0xB DUP2 MSTORE PUSH11 0x6574682D7365706F6C6961 PUSH1 0xA8 SHL DUP11 DUP8 ADD MSTORE DUP6 MSTORE PUSH1 0xA SLOAD SWAP5 PUSH1 0x1 SWAP6 DUP7 PUSH1 0xA SSTORE DUP1 DUP8 LT PUSH3 0x27E JUMPI JUMPDEST POP SWAP3 SWAP1 PUSH1 0xA DUP10 MSTORE DUP3 DUP10 KECCAK256 SWAP2 DUP10 SWAP5 JUMPDEST DUP8 DUP7 LT PUSH3 0x15F JUMPI DUP12 DUP12 DUP12 DUP12 PUSH20 0x139D70E24B8C82539800EEB99510BFB8B09EAF68 SWAP2 PUSH1 0x1 DUP1 PUSH1 0xA0 SHL SUB NOT SWAP3 DUP1 DUP5 PUSH1 0xC SLOAD AND OR PUSH1 0xC SSTORE PUSH20 0xFFF9976782D46CC05630D1F6EBAB18B2324D6B14 DUP5 PUSH1 0xD SLOAD AND OR PUSH1 0xD SSTORE DUP4 PUSH1 0xE SLOAD AND OR PUSH1 0xE SSTORE AND SWAP1 DUP3 SLOAD AND OR SWAP1 SSTORE MLOAD PUSH2 0x2C18 SWAP1 DUP2 PUSH3 0x3BF DUP3 CODECOPY PUSH1 0x80 MLOAD DUP2 DUP2 DUP2 PUSH2 0xC62 ADD MSTORE PUSH2 0xDCC ADD MSTORE RETURN JUMPDEST DUP1 MLOAD SWAP1 DUP2 MLOAD DUP5 DUP2 GT PUSH3 0x26A JUMPI DUP10 SWAP2 DUP8 SWAP2 DUP15 PUSH3 0x17D DUP10 SLOAD PUSH3 0x368 JUMP JUMPDEST DUP8 DUP2 GT PUSH3 0x22F JUMPI JUMPDEST POP DUP4 SWAP1 DUP8 DUP4 GT PUSH1 0x1 EQ PUSH3 0x1CB JUMPI SWAP1 DUP6 SWAP7 DUP4 PUSH3 0x1BF JUMPI JUMPDEST POP POP PUSH1 0x0 NOT PUSH1 0x3 DUP4 SWAP1 SHL SHR NOT AND SWAP1 DUP5 SHL OR DUP8 SSTORE JUMPDEST ADD SWAP5 ADD SWAP6 ADD SWAP5 SWAP3 PUSH3 0xDD JUMP JUMPDEST ADD MLOAD SWAP1 POP CODESIZE DUP1 PUSH3 0x19E JUMP JUMPDEST SWAP1 DUP13 DUP4 AND DUP11 DUP4 MSTORE DUP6 DUP4 KECCAK256 SWAP3 JUMPDEST DUP2 DUP2 LT PUSH3 0x217 JUMPI POP SWAP1 DUP7 SWAP8 DUP5 DUP9 SWAP6 SWAP5 SWAP4 LT PUSH3 0x1FD JUMPI JUMPDEST POP POP POP DUP2 SHL ADD DUP8 SSTORE PUSH3 0x1B2 JUMP JUMPDEST ADD MLOAD PUSH1 0x0 NOT PUSH1 0xF8 DUP5 PUSH1 0x3 SHL AND SHR NOT AND SWAP1 SSTORE CODESIZE DUP1 DUP1 PUSH3 0x1EF JUMP JUMPDEST DUP3 DUP10 ADD MLOAD DUP5 SSTORE DUP16 SWAP8 DUP14 SWAP8 SWAP5 ADD SWAP4 SWAP3 DUP4 ADD SWAP3 ADD PUSH3 0x1D7 JUMP JUMPDEST PUSH3 0x259 SWAP1 DUP11 DUP4 MSTORE DUP6 DUP4 KECCAK256 PUSH1 0x5 DUP11 DUP1 DUP8 ADD DUP3 SHR DUP4 ADD SWAP4 DUP10 DUP9 LT PUSH3 0x260 JUMPI JUMPDEST ADD SWAP1 SHR ADD SWAP1 PUSH3 0x3A5 JUMP JUMPDEST CODESIZE PUSH3 0x186 JUMP JUMPDEST SWAP4 POP DUP3 SWAP4 PUSH3 0x24E JUMP JUMPDEST PUSH4 0x4E487B71 PUSH1 0xE0 SHL DUP14 MSTORE PUSH1 0x41 PUSH1 0x4 MSTORE PUSH1 0x24 DUP14 REVERT JUMPDEST PUSH1 0xA DUP11 MSTORE DUP7 DUP1 DUP6 DUP13 KECCAK256 SWAP3 DUP4 ADD SWAP3 ADD JUMPDEST DUP3 DUP2 LT PUSH3 0x29D JUMPI POP POP PUSH3 0xCF JUMP JUMPDEST DUP12 PUSH3 0x2AA DUP3 SLOAD PUSH3 0x368 JUMP JUMPDEST DUP1 PUSH3 0x2BC JUMPI JUMPDEST POP POP ADD DUP8 SWAP1 PUSH3 0x28D JUMP JUMPDEST DUP9 DUP2 GT PUSH1 0x1 EQ PUSH3 0x2D3 JUMPI POP DUP2 SSTORE JUMPDEST DUP12 CODESIZE PUSH3 0x2B1 JUMP JUMPDEST DUP3 DUP3 MSTORE PUSH3 0x2EE DUP10 DUP10 DUP5 KECCAK256 SWAP3 ADD PUSH1 0x5 SHR DUP3 ADD DUP6 DUP4 ADD PUSH3 0x3A5 JUMP JUMPDEST DUP2 DUP4 SSTORE SSTORE PUSH3 0x2CB JUMP JUMPDEST PUSH4 0x4E487B71 PUSH1 0xE0 SHL DUP11 MSTORE PUSH1 0x41 PUSH1 0x4 MSTORE PUSH1 0x24 DUP11 REVERT JUMPDEST PUSH4 0x4E487B71 PUSH1 0xE0 SHL DUP10 MSTORE PUSH1 0x41 PUSH1 0x4 MSTORE PUSH1 0x24 DUP10 REVERT JUMPDEST DUP8 MLOAD PUSH4 0x35FDCCCD PUSH1 0xE2 SHL DUP2 MSTORE PUSH1 0x0 PUSH1 0x4 DUP3 ADD MSTORE PUSH1 0x24 SWAP1 REVERT JUMPDEST PUSH1 0x0 DUP1 REVERT JUMPDEST PUSH4 0x4E487B71 PUSH1 0xE0 SHL PUSH1 0x0 MSTORE PUSH1 0x41 PUSH1 0x4 MSTORE PUSH1 0x24 PUSH1 0x0 REVERT JUMPDEST MLOAD SWAP1 PUSH1 0x1 PUSH1 0x1 PUSH1 0xA0 SHL SUB DUP3 AND DUP3 SUB PUSH3 0x338 JUMPI JUMP JUMPDEST SWAP1 PUSH1 0x1 DUP3 DUP2 SHR SWAP3 AND DUP1 ISZERO PUSH3 0x39A JUMPI JUMPDEST PUSH1 0x20 DUP4 LT EQ PUSH3 0x384 JUMPI JUMP JUMPDEST PUSH4 0x4E487B71 PUSH1 0xE0 SHL PUSH1 0x0 MSTORE PUSH1 0x22 PUSH1 0x4 MSTORE PUSH1 0x24 PUSH1 0x0 REVERT JUMPDEST SWAP2 PUSH1 0x7F AND SWAP2 PUSH3 0x378 JUMP JUMPDEST DUP2 DUP2 LT PUSH3 0x3B1 JUMPI POP POP JUMP JUMPDEST PUSH1 0x0 DUP2 SSTORE PUSH1 0x1 ADD PUSH3 0x3A5 JUMP INVALID PUSH1 0x80 DUP1 PUSH1 0x40 MSTORE PUSH1 0x4 CALLDATASIZE LT ISZERO PUSH2 0x1D JUMPI JUMPDEST POP CALLDATASIZE ISZERO PUSH2 0x1B JUMPI PUSH1 0x0 DUP1 REVERT JUMPDEST STOP JUMPDEST PUSH1 0x0 CALLDATALOAD PUSH1 0xE0 SHR SWAP1 DUP2 PUSH4 0x1FFC9A7 EQ PUSH2 0x196B JUMPI POP DUP1 PUSH4 0x1626BA7E EQ PUSH2 0x18E8 JUMPI DUP1 PUSH4 0x1CFF79CD EQ PUSH2 0x1803 JUMPI DUP1 PUSH4 0x263596A5 EQ PUSH2 0x1654 JUMPI DUP1 PUSH4 0x26E4BCFB EQ PUSH2 0x1636 JUMPI DUP1 PUSH4 0x29639DF7 EQ PUSH2 0x161E JUMPI DUP1 PUSH4 0x2D160321 EQ PUSH2 0x15B7 JUMPI DUP1 PUSH4 0x3A871CDD EQ PUSH2 0x1569 JUMPI DUP1 PUSH4 0x449D193F EQ PUSH2 0x14D1 JUMPI DUP1 PUSH4 0x47AF954D EQ PUSH2 0x14AA JUMPI DUP1 PUSH4 0x63FFAB31 EQ PUSH2 0x1485 JUMPI DUP1 PUSH4 0x735DE9F7 EQ PUSH2 0x145E JUMPI DUP1 PUSH4 0x740F4545 EQ PUSH2 0x1437 JUMPI DUP1 PUSH4 0x7823D3F3 EQ PUSH2 0x1308 JUMPI DUP1 PUSH4 0x85572FFB EQ PUSH2 0xD8D JUMPI DUP1 PUSH4 0x8DA5CB5B EQ PUSH2 0xD66 JUMPI DUP1 PUSH4 0xA563794A EQ PUSH2 0xCAD JUMPI DUP1 PUSH4 0xAD5C4648 EQ PUSH2 0xC86 JUMPI DUP1 PUSH4 0xB0F479A1 EQ PUSH2 0xC42 JUMPI DUP1 PUSH4 0xBFA0B133 EQ PUSH2 0xC24 JUMPI DUP1 PUSH4 0xC8A10ADA EQ PUSH2 0xA1E JUMPI DUP1 PUSH4 0xE5C01F95 EQ PUSH2 0x29B JUMPI DUP1 PUSH4 0xE8B4A30D EQ PUSH2 0x1E8 JUMPI PUSH4 0xEE0E73A1 EQ PUSH2 0x132 JUMPI CODESIZE PUSH2 0xF JUMP JUMPDEST CALLVALUE PUSH2 0x1E3 JUMPI PUSH1 0x20 PUSH1 0x3 NOT CALLDATASIZE ADD SLT PUSH2 0x1E3 JUMPI PUSH1 0x4 CALLDATALOAD PUSH8 0xFFFFFFFFFFFFFFFF DUP2 GT PUSH2 0x1E3 JUMPI PUSH2 0x163 SWAP1 CALLDATASIZE SWAP1 PUSH1 0x4 ADD PUSH2 0x1B26 JUMP JUMPDEST PUSH1 0xA SLOAD SWAP1 PUSH9 0x10000000000000000 DUP3 LT ISZERO PUSH2 0x1CD JUMPI PUSH1 0x1 DUP3 ADD DUP1 PUSH1 0xA SSTORE DUP3 LT ISZERO PUSH2 0x1B7 JUMPI PUSH2 0x1B SWAP2 PUSH1 0xA PUSH1 0x0 MSTORE PUSH32 0xC65A7BB8D6351C1CF70C95A316CC6A92839C986682D98BC35F958F4883F9D2A8 ADD PUSH2 0x1F4F JUMP JUMPDEST PUSH4 0x4E487B71 PUSH1 0xE0 SHL PUSH1 0x0 MSTORE PUSH1 0x32 PUSH1 0x4 MSTORE PUSH1 0x24 PUSH1 0x0 REVERT JUMPDEST PUSH4 0x4E487B71 PUSH1 0xE0 SHL PUSH1 0x0 MSTORE PUSH1 0x41 PUSH1 0x4 MSTORE PUSH1 0x24 PUSH1 0x0 REVERT JUMPDEST PUSH1 0x0 DUP1 REVERT JUMPDEST CALLVALUE PUSH2 0x1E3 JUMPI PUSH1 0x40 PUSH1 0x3 NOT CALLDATASIZE ADD SLT PUSH2 0x1E3 JUMPI PUSH8 0xFFFFFFFFFFFFFFFF PUSH1 0x4 CALLDATALOAD DUP2 DUP2 GT PUSH2 0x1E3 JUMPI PUSH2 0x21A SWAP1 CALLDATASIZE SWAP1 PUSH1 0x4 ADD PUSH2 0x1B26 JUMP JUMPDEST SWAP1 PUSH1 0x24 CALLDATALOAD SWAP1 DUP2 GT PUSH2 0x1E3 JUMPI PUSH1 0x20 PUSH2 0x238 PUSH2 0x25D SWAP3 CALLDATASIZE SWAP1 PUSH1 0x4 ADD PUSH2 0x1B26 JUMP JUMPDEST SWAP3 PUSH2 0x24A PUSH2 0x245 DUP3 PUSH2 0x232B JUMP JUMPDEST PUSH2 0x1ED0 JUMP JUMPDEST DUP2 PUSH1 0x40 MLOAD SWAP4 DUP3 DUP6 DUP1 SWAP5 MLOAD SWAP4 DUP5 SWAP3 ADD PUSH2 0x1B6D JUMP JUMPDEST DUP2 ADD PUSH1 0xB DUP2 MSTORE SUB ADD SWAP1 KECCAK256 SWAP1 DUP2 SLOAD PUSH9 0x10000000000000000 DUP2 LT ISZERO PUSH2 0x1CD JUMPI PUSH1 0x1 DUP2 ADD DUP1 DUP5 SSTORE DUP2 LT ISZERO PUSH2 0x1B7 JUMPI PUSH2 0x1B SWAP3 PUSH1 0x0 MSTORE PUSH1 0x20 PUSH1 0x0 KECCAK256 ADD PUSH2 0x1F4F JUMP JUMPDEST CALLVALUE PUSH2 0x1E3 JUMPI PUSH2 0x140 PUSH1 0x3 NOT CALLDATASIZE ADD SLT PUSH2 0x1E3 JUMPI PUSH2 0x2B5 PUSH2 0x1C37 JUMP JUMPDEST PUSH2 0x2BD PUSH2 0x1A09 JUMP JUMPDEST SWAP1 PUSH2 0x2C6 PUSH2 0x1A1F JUMP JUMPDEST SWAP1 PUSH2 0x2CF PUSH2 0x1A35 JUMP JUMPDEST SWAP2 PUSH2 0x2D8 PUSH2 0x1A4B JUMP JUMPDEST PUSH2 0x2E0 PUSH2 0x1A61 JUMP JUMPDEST PUSH1 0xC4 CALLDATALOAD SWAP5 PUSH1 0x1 PUSH1 0x1 PUSH1 0xA0 SHL SUB DUP7 AND DUP7 SUB PUSH2 0x1E3 JUMPI PUSH2 0x124 CALLDATALOAD SWAP3 PUSH1 0x1 PUSH1 0x1 PUSH1 0xA0 SHL SUB DUP5 AND DUP5 SUB PUSH2 0x1E3 JUMPI PUSH1 0x0 DUP1 PUSH1 0x1 PUSH1 0x1 PUSH1 0xA0 SHL SUB PUSH1 0xD SLOAD AND PUSH1 0x40 MLOAD PUSH1 0x20 DUP2 ADD SWAP1 PUSH32 0xD0E30DB000000000000000000000000000000000000000000000000000000000 DUP3 MSTORE PUSH1 0x4 DUP2 MSTORE PUSH2 0x350 DUP2 PUSH2 0x1A77 JUMP JUMPDEST MLOAD SWAP2 PUSH1 0xE4 CALLDATALOAD SWAP1 GAS CALL PUSH2 0x360 PUSH2 0x1CBB JUMP JUMPDEST POP ISZERO PUSH2 0x9DA JUMPI PUSH1 0x1 PUSH1 0x1 PUSH1 0xA0 SHL SUB PUSH1 0xE SLOAD AND PUSH1 0x40 MLOAD SWAP1 PUSH4 0x95EA7B3 PUSH1 0xE0 SHL DUP3 MSTORE PUSH1 0x4 DUP3 ADD MSTORE PUSH10 0x21E19E0C9BAB2400000 PUSH1 0x24 DUP3 ADD MSTORE PUSH1 0x20 DUP2 PUSH1 0x44 DUP2 PUSH1 0x0 PUSH1 0x1 PUSH1 0x1 PUSH1 0xA0 SHL SUB DUP9 AND GAS CALL DUP1 ISZERO PUSH2 0x7E3 JUMPI PUSH2 0x9BB JUMPI JUMPDEST POP PUSH1 0x40 MLOAD SWAP2 PUSH2 0x3C2 DUP4 PUSH2 0x1ACB JUMP JUMPDEST PUSH1 0x2 DUP4 MSTORE PUSH1 0x40 CALLDATASIZE PUSH1 0x20 DUP6 ADD CALLDATACOPY PUSH1 0x1 PUSH1 0x1 PUSH1 0xA0 SHL SUB DUP2 AND PUSH2 0x3E1 DUP5 PUSH2 0x1F1B JUMP JUMPDEST MSTORE PUSH2 0x3EB DUP4 PUSH2 0x1F28 JUMP JUMPDEST PUSH1 0x1 PUSH1 0x1 PUSH1 0xA0 SHL SUB DUP4 AND SWAP1 MSTORE PUSH1 0x3 PUSH1 0xE4 CALLDATALOAD DUP2 MUL DIV PUSH1 0xE4 CALLDATALOAD SUB PUSH2 0x889 JUMPI PUSH1 0x1 PUSH1 0x1 PUSH1 0xA0 SHL SUB PUSH1 0xE SLOAD AND PUSH1 0x40 MLOAD DUP1 SWAP5 PUSH32 0x38ED173900000000000000000000000000000000000000000000000000000000 DUP3 MSTORE PUSH1 0xA4 DUP3 ADD PUSH1 0xE4 CALLDATALOAD PUSH1 0x3 MUL PUSH1 0x2 SHR PUSH1 0x4 DUP5 ADD MSTORE PUSH1 0x0 PUSH1 0x24 DUP5 ADD MSTORE PUSH1 0xA0 PUSH1 0x44 DUP5 ADD MSTORE DUP2 MLOAD DUP1 SWAP2 MSTORE PUSH1 0x20 PUSH1 0xC4 DUP5 ADD SWAP3 ADD SWAP1 PUSH1 0x0 JUMPDEST DUP2 DUP2 LT PUSH2 0x999 JUMPI POP POP POP SWAP2 DUP2 PUSH1 0x0 DUP2 DUP2 SWAP6 ADDRESS PUSH1 0x64 DUP4 ADD MSTORE PUSH2 0x104 CALLDATALOAD PUSH1 0x84 DUP4 ADD MSTORE SUB SWAP3 GAS CALL SWAP3 DUP4 ISZERO PUSH2 0x7E3 JUMPI PUSH1 0x0 SWAP4 PUSH2 0x8E9 JUMPI JUMPDEST POP PUSH1 0x3 PUSH2 0x4AB DUP5 PUSH2 0x1F28 JUMP JUMPDEST MLOAD DIV PUSH1 0x1 PUSH1 0x1 PUSH1 0xA0 SHL SUB PUSH1 0xE SLOAD AND PUSH1 0x40 MLOAD SWAP1 PUSH4 0x95EA7B3 PUSH1 0xE0 SHL DUP3 MSTORE PUSH1 0x4 DUP3 ADD MSTORE PUSH10 0x21E19E0C9BAB2400000 PUSH1 0x24 DUP3 ADD MSTORE PUSH1 0x20 DUP2 PUSH1 0x44 DUP2 PUSH1 0x0 PUSH1 0x1 PUSH1 0x1 PUSH1 0xA0 SHL SUB DUP10 AND GAS CALL SWAP3 DUP4 ISZERO PUSH2 0x7E3 JUMPI PUSH1 0x0 PUSH1 0x1 PUSH1 0x1 PUSH1 0xA0 SHL SUB SWAP4 PUSH2 0x104 SWAP4 PUSH1 0x60 SWAP7 PUSH2 0x8CA JUMPI JUMPDEST POP DUP5 PUSH1 0xE SLOAD AND SWAP1 DUP6 PUSH1 0x40 MLOAD SWAP9 DUP10 SWAP8 DUP9 SWAP7 PUSH32 0xE8E3370000000000000000000000000000000000000000000000000000000000 DUP9 MSTORE AND PUSH1 0x4 DUP8 ADD MSTORE AND PUSH1 0x24 DUP6 ADD MSTORE PUSH1 0x3 PUSH1 0xE4 CALLDATALOAD DUP2 MUL PUSH1 0x2 SHR DIV PUSH1 0x44 DUP6 ADD MSTORE PUSH1 0x64 DUP5 ADD MSTORE DUP2 PUSH1 0x84 DUP5 ADD MSTORE DUP2 PUSH1 0xA4 DUP5 ADD MSTORE ADDRESS PUSH1 0xC4 DUP5 ADD MSTORE DUP4 CALLDATALOAD PUSH1 0xE4 DUP5 ADD MSTORE GAS CALL DUP1 ISZERO PUSH2 0x7E3 JUMPI PUSH2 0x89F JUMPI JUMPDEST POP PUSH2 0x592 SWAP1 PUSH2 0x1F28 JUMP JUMPDEST MLOAD SWAP5 DUP6 DUP1 PUSH1 0x1 SHL DIV PUSH1 0x2 EQ DUP7 ISZERO OR ISZERO PUSH2 0x889 JUMPI PUSH1 0x40 MLOAD SWAP1 PUSH2 0x5B2 DUP3 PUSH2 0x1A77 JUMP JUMPDEST PUSH1 0x1 DUP3 MSTORE PUSH1 0x0 JUMPDEST PUSH1 0x20 DUP2 LT PUSH2 0x864 JUMPI POP PUSH1 0x1 PUSH1 0x1 PUSH1 0xA0 SHL SUB SWAP1 DUP2 PUSH1 0x40 MLOAD SWAP7 PUSH2 0x5D9 DUP9 PUSH2 0x1A77 JUMP JUMPDEST AND SWAP6 DUP7 DUP2 MSTORE PUSH1 0x3 DUP10 PUSH1 0x1 SHL DIV PUSH1 0x20 DUP3 ADD MSTORE PUSH2 0x5F3 DUP5 PUSH2 0x1F1B JUMP JUMPDEST MSTORE PUSH2 0x5FD DUP4 PUSH2 0x1F1B JUMP JUMPDEST POP DUP2 PUSH1 0x40 MLOAD SWAP5 PUSH1 0x63 PUSH1 0x20 DUP8 ADD MSTORE AND PUSH1 0x40 DUP6 ADD MSTORE AND PUSH1 0x60 DUP4 ADD MSTORE PUSH1 0x3 DUP7 PUSH1 0x1 SHL DIV PUSH1 0x80 DUP4 ADD MSTORE PUSH1 0x80 DUP3 MSTORE PUSH2 0x62F DUP3 PUSH2 0x1AAF JUMP JUMPDEST PUSH1 0x1 PUSH1 0x1 PUSH1 0xA0 SHL SUB PUSH1 0x40 MLOAD SWAP8 AND PUSH1 0x20 DUP9 ADD MSTORE PUSH1 0x20 DUP8 MSTORE PUSH2 0x64E DUP8 PUSH2 0x1A77 JUMP JUMPDEST PUSH2 0x668 PUSH1 0x40 MLOAD PUSH2 0x65D DUP2 PUSH2 0x1A93 JUMP JUMPDEST PUSH3 0x2DC6C0 DUP2 MSTORE PUSH2 0x22A3 JUMP JUMPDEST SWAP2 PUSH1 0x40 MLOAD SWAP8 PUSH2 0x676 DUP10 PUSH2 0x1AAF JUMP JUMPDEST DUP9 MSTORE PUSH1 0x20 DUP9 ADD MSTORE PUSH1 0x40 DUP8 ADD MSTORE PUSH1 0x0 PUSH1 0x60 DUP8 ADD MSTORE PUSH1 0x80 DUP7 ADD MSTORE PUSH1 0x40 MLOAD PUSH4 0x95EA7B3 PUSH1 0xE0 SHL DUP2 MSTORE PUSH1 0x1 PUSH1 0x1 PUSH1 0xA0 SHL SUB DUP3 AND PUSH1 0x4 DUP3 ADD MSTORE PUSH1 0x3 DUP6 PUSH1 0x1 SHL DIV PUSH1 0x24 DUP3 ADD MSTORE PUSH1 0x20 DUP2 PUSH1 0x44 DUP2 PUSH1 0x0 DUP8 GAS CALL DUP1 ISZERO PUSH2 0x7E3 JUMPI PUSH2 0x835 JUMPI JUMPDEST POP PUSH1 0x40 MLOAD SWAP3 PUSH32 0xB0F479A100000000000000000000000000000000000000000000000000000000 DUP5 MSTORE PUSH1 0x20 DUP5 PUSH1 0x4 DUP2 ADDRESS GAS STATICCALL SWAP3 DUP4 ISZERO PUSH2 0x7E3 JUMPI PUSH1 0x1 PUSH1 0x1 PUSH1 0xA0 SHL SUB SWAP7 PUSH1 0x20 SWAP6 PUSH1 0x0 SWAP6 PUSH2 0x7EF JUMPI JUMPDEST POP PUSH8 0xFFFFFFFFFFFFFFFF SWAP3 PUSH1 0x0 SWAP3 PUSH2 0x775 DUP11 SWAP4 PUSH1 0x40 MLOAD SWAP12 DUP13 SWAP10 DUP11 SWAP9 DUP10 SWAP7 PUSH32 0xB344B6EA00000000000000000000000000000000000000000000000000000000 DUP9 MSTORE AND PUSH1 0x4 DUP8 ADD MSTORE AND PUSH1 0x24 DUP6 ADD MSTORE PUSH1 0xA0 PUSH1 0x44 DUP6 ADD MSTORE PUSH1 0xA4 DUP5 ADD SWAP1 PUSH2 0x1DF2 JUMP JUMPDEST SWAP1 PUSH1 0x64 DUP4 ADD MSTORE PUSH1 0x3 DUP10 PUSH1 0x1 SHL DIV PUSH1 0x84 DUP4 ADD MSTORE SUB SWAP4 AND GAS CALL SWAP2 DUP3 ISZERO PUSH2 0x7E3 JUMPI PUSH1 0x0 SWAP3 PUSH2 0x7AE JUMPI JUMPDEST POP PUSH1 0x3 SWAP1 PUSH1 0x1 SHL DIV PUSH1 0x9 SSTORE PUSH1 0x3 SSTORE PUSH1 0x0 DUP1 RETURN JUMPDEST SWAP1 SWAP2 POP PUSH1 0x20 DUP2 RETURNDATASIZE PUSH1 0x20 GT PUSH2 0x7DB JUMPI JUMPDEST DUP2 PUSH2 0x7CA PUSH1 0x20 SWAP4 DUP4 PUSH2 0x1AE7 JUMP JUMPDEST DUP2 ADD SUB SLT PUSH2 0x1E3 JUMPI MLOAD SWAP1 PUSH1 0x3 PUSH2 0x79B JUMP JUMPDEST RETURNDATASIZE SWAP2 POP PUSH2 0x7BD JUMP JUMPDEST PUSH1 0x40 MLOAD RETURNDATASIZE PUSH1 0x0 DUP3 RETURNDATACOPY RETURNDATASIZE SWAP1 REVERT JUMPDEST DUP9 SWAP2 SWAP6 POP SWAP3 PUSH1 0x0 SWAP3 PUSH2 0x775 PUSH2 0x822 PUSH8 0xFFFFFFFFFFFFFFFF SWAP7 DUP11 RETURNDATASIZE DUP13 GT PUSH2 0x82E JUMPI JUMPDEST PUSH2 0x81A DUP2 DUP4 PUSH2 0x1AE7 JUMP JUMPDEST DUP2 ADD SWAP1 PUSH2 0x1DD3 JUMP JUMPDEST SWAP8 SWAP4 POP POP SWAP3 POP SWAP3 PUSH2 0x718 JUMP JUMPDEST POP RETURNDATASIZE PUSH2 0x810 JUMP JUMPDEST PUSH2 0x856 SWAP1 PUSH1 0x20 RETURNDATASIZE PUSH1 0x20 GT PUSH2 0x85D JUMPI JUMPDEST PUSH2 0x84E DUP2 DUP4 PUSH2 0x1AE7 JUMP JUMPDEST DUP2 ADD SWAP1 PUSH2 0x2457 JUMP JUMPDEST POP DUP6 PUSH2 0x6CC JUMP JUMPDEST POP RETURNDATASIZE PUSH2 0x844 JUMP JUMPDEST PUSH1 0x20 SWAP1 PUSH1 0x40 MLOAD PUSH2 0x873 DUP2 PUSH2 0x1A77 JUMP JUMPDEST PUSH1 0x0 DUP2 MSTORE PUSH1 0x0 DUP4 DUP3 ADD MSTORE DUP3 DUP3 DUP7 ADD ADD MSTORE ADD PUSH2 0x5B9 JUMP JUMPDEST PUSH4 0x4E487B71 PUSH1 0xE0 SHL PUSH1 0x0 MSTORE PUSH1 0x11 PUSH1 0x4 MSTORE PUSH1 0x24 PUSH1 0x0 REVERT JUMPDEST PUSH1 0x60 SWAP1 DUP2 RETURNDATASIZE DUP4 GT PUSH2 0x8C3 JUMPI JUMPDEST PUSH2 0x8B5 DUP2 DUP4 PUSH2 0x1AE7 JUMP JUMPDEST DUP2 ADD SUB SLT PUSH2 0x1E3 JUMPI DUP8 PUSH2 0x588 JUMP JUMPDEST POP RETURNDATASIZE PUSH2 0x8AB JUMP JUMPDEST PUSH2 0x8E2 SWAP1 PUSH1 0x20 RETURNDATASIZE PUSH1 0x20 GT PUSH2 0x85D JUMPI PUSH2 0x84E DUP2 DUP4 PUSH2 0x1AE7 JUMP JUMPDEST POP DUP15 PUSH2 0x50E JUMP JUMPDEST SWAP1 SWAP3 POP RETURNDATASIZE DUP1 PUSH1 0x0 DUP4 RETURNDATACOPY PUSH2 0x8FC DUP2 DUP4 PUSH2 0x1AE7 JUMP JUMPDEST PUSH1 0x20 DUP3 DUP3 DUP2 ADD SUB SLT PUSH2 0x1E3 JUMPI DUP2 MLOAD SWAP1 PUSH8 0xFFFFFFFFFFFFFFFF DUP3 GT PUSH2 0x1E3 JUMPI DUP1 DUP4 ADD PUSH1 0x1F DUP4 DUP6 ADD ADD SLT ISZERO PUSH2 0x1E3 JUMPI DUP2 DUP4 ADD MLOAD SWAP2 PUSH2 0x937 DUP4 PUSH2 0x1DBB JUMP JUMPDEST SWAP4 PUSH2 0x945 PUSH1 0x40 MLOAD SWAP6 DUP7 PUSH2 0x1AE7 JUMP JUMPDEST DUP4 DUP6 MSTORE PUSH1 0x20 DUP6 ADD SWAP3 DUP2 ADD PUSH1 0x20 DUP6 PUSH1 0x5 SHL DUP5 DUP5 ADD ADD ADD GT PUSH2 0x1E3 JUMPI DUP1 DUP3 ADD PUSH1 0x20 ADD SWAP3 SWAP2 JUMPDEST PUSH1 0x20 DUP6 PUSH1 0x5 SHL DUP3 DUP5 ADD ADD ADD DUP5 LT PUSH2 0x985 JUMPI POP POP POP POP POP SWAP2 DUP10 PUSH2 0x49F JUMP JUMPDEST PUSH1 0x20 DUP1 DUP1 SWAP5 DUP7 MLOAD DUP2 MSTORE ADD SWAP5 ADD SWAP4 SWAP3 POP PUSH2 0x968 JUMP JUMPDEST DUP3 MLOAD PUSH1 0x1 PUSH1 0x1 PUSH1 0xA0 SHL SUB AND DUP5 MSTORE DUP9 SWAP5 POP PUSH1 0x20 SWAP4 DUP5 ADD SWAP4 SWAP1 SWAP3 ADD SWAP2 PUSH1 0x1 ADD PUSH2 0x46C JUMP JUMPDEST PUSH2 0x9D3 SWAP1 PUSH1 0x20 RETURNDATASIZE PUSH1 0x20 GT PUSH2 0x85D JUMPI PUSH2 0x84E DUP2 DUP4 PUSH2 0x1AE7 JUMP JUMPDEST POP DUP9 PUSH2 0x3B4 JUMP JUMPDEST PUSH1 0x64 PUSH1 0x40 MLOAD PUSH3 0x461BCD PUSH1 0xE5 SHL DUP2 MSTORE PUSH1 0x20 PUSH1 0x4 DUP3 ADD MSTORE PUSH1 0x13 PUSH1 0x24 DUP3 ADD MSTORE PUSH32 0x57455448204465706F736974206661696C656400000000000000000000000000 PUSH1 0x44 DUP3 ADD MSTORE REVERT JUMPDEST CALLVALUE PUSH2 0x1E3 JUMPI PUSH1 0xA0 PUSH1 0x3 NOT CALLDATASIZE ADD SLT PUSH2 0x1E3 JUMPI PUSH2 0xA37 PUSH2 0x1C37 JUMP JUMPDEST PUSH2 0xA3F PUSH2 0x1A09 JUMP JUMPDEST PUSH2 0xA47 PUSH2 0x1A1F JUMP JUMPDEST SWAP2 PUSH2 0xA50 PUSH2 0x1A35 JUMP JUMPDEST SWAP2 PUSH2 0xA59 PUSH2 0x1A4B JUMP JUMPDEST PUSH1 0x40 MLOAD PUSH2 0xA65 DUP2 PUSH2 0x1A93 JUMP JUMPDEST PUSH1 0x0 DUP2 MSTORE PUSH1 0x9 SLOAD SWAP1 DUP2 ISZERO PUSH2 0xBE0 JUMPI PUSH1 0x40 MLOAD SWAP2 PUSH1 0x20 SWAP8 PUSH1 0x1 DUP10 DUP6 ADD MSTORE PUSH1 0x1 PUSH1 0x1 PUSH1 0xA0 SHL SUB SWAP8 DUP9 DUP1 SWAP3 AND PUSH1 0x40 DUP7 ADD MSTORE AND PUSH1 0x60 DUP5 ADD MSTORE PUSH1 0x80 DUP4 ADD MSTORE PUSH1 0x80 DUP3 MSTORE PUSH2 0xAAA DUP3 PUSH2 0x1AAF JUMP JUMPDEST DUP6 PUSH1 0x40 MLOAD SWAP5 AND DUP8 DUP6 ADD MSTORE DUP7 DUP5 MSTORE PUSH2 0xAC0 DUP5 PUSH2 0x1A77 JUMP JUMPDEST PUSH2 0xACF PUSH1 0x40 MLOAD PUSH2 0x65D DUP2 PUSH2 0x1A93 JUMP JUMPDEST SWAP2 PUSH1 0x40 MLOAD SWAP5 PUSH2 0xADD DUP7 PUSH2 0x1AAF JUMP JUMPDEST DUP6 MSTORE DUP8 DUP6 ADD MSTORE PUSH1 0x40 DUP5 ADD MSTORE PUSH1 0x0 PUSH1 0x60 DUP5 ADD MSTORE PUSH1 0x80 DUP4 ADD MSTORE PUSH1 0x40 MLOAD SWAP3 PUSH32 0xB0F479A100000000000000000000000000000000000000000000000000000000 DUP5 MSTORE DUP6 DUP5 PUSH1 0x4 DUP2 ADDRESS GAS STATICCALL DUP1 ISZERO PUSH2 0x7E3 JUMPI PUSH2 0xB72 SWAP6 DUP8 SWAP6 PUSH1 0x0 SWAP3 PUSH2 0xBC0 JUMPI JUMPDEST POP PUSH1 0x0 SWAP2 SWAP3 PUSH1 0x40 MLOAD SWAP8 DUP9 SWAP7 DUP8 SWAP6 DUP7 SWAP4 PUSH32 0x6628C6E800000000000000000000000000000000000000000000000000000000 DUP6 MSTORE PUSH1 0x4 DUP6 ADD PUSH2 0x1EA1 JUMP JUMPDEST SUB SWAP4 AND GAS CALL SWAP1 DUP2 ISZERO PUSH2 0x7E3 JUMPI PUSH1 0x0 SWAP2 PUSH2 0xB93 JUMPI JUMPDEST POP DUP1 PUSH1 0x3 SSTORE PUSH1 0x40 MLOAD SWAP1 DUP2 MSTORE RETURN JUMPDEST SWAP1 POP DUP2 DUP2 DUP2 RETURNDATASIZE DUP4 GT PUSH2 0xBB9 JUMPI JUMPDEST PUSH2 0xBAA DUP2 DUP4 PUSH2 0x1AE7 JUMP JUMPDEST DUP2 ADD SUB SLT PUSH2 0x1E3 JUMPI MLOAD DUP3 PUSH2 0xB86 JUMP JUMPDEST POP RETURNDATASIZE PUSH2 0xBA0 JUMP JUMPDEST PUSH1 0x0 SWAP3 POP PUSH2 0xBDA SWAP1 DUP8 RETURNDATASIZE DUP10 GT PUSH2 0x82E JUMPI PUSH2 0x81A DUP2 DUP4 PUSH2 0x1AE7 JUMP JUMPDEST SWAP2 PUSH2 0xB37 JUMP JUMPDEST PUSH1 0x64 PUSH1 0x40 MLOAD PUSH3 0x461BCD PUSH1 0xE5 SHL DUP2 MSTORE PUSH1 0x20 PUSH1 0x4 DUP3 ADD MSTORE PUSH1 0x1E PUSH1 0x24 DUP3 ADD MSTORE PUSH32 0x53656564207A65726F2C207472616E7366657220736565642066697273740000 PUSH1 0x44 DUP3 ADD MSTORE REVERT JUMPDEST CALLVALUE PUSH2 0x1E3 JUMPI PUSH1 0x0 PUSH1 0x3 NOT CALLDATASIZE ADD SLT PUSH2 0x1E3 JUMPI PUSH1 0x20 PUSH1 0x1 SLOAD PUSH1 0x40 MLOAD SWAP1 DUP2 MSTORE RETURN JUMPDEST CALLVALUE PUSH2 0x1E3 JUMPI PUSH1 0x0 PUSH1 0x3 NOT CALLDATASIZE ADD SLT PUSH2 0x1E3 JUMPI PUSH1 0x20 PUSH1 0x40 MLOAD PUSH1 0x1 PUSH1 0x1 PUSH1 0xA0 SHL SUB PUSH32 0x0 AND DUP2 MSTORE RETURN JUMPDEST CALLVALUE PUSH2 0x1E3 JUMPI PUSH1 0x0 PUSH1 0x3 NOT CALLDATASIZE ADD SLT PUSH2 0x1E3 JUMPI PUSH1 0x20 PUSH1 0x1 PUSH1 0x1 PUSH1 0xA0 SHL SUB PUSH1 0xD SLOAD AND PUSH1 0x40 MLOAD SWAP1 DUP2 MSTORE RETURN JUMPDEST CALLVALUE PUSH2 0x1E3 JUMPI PUSH1 0x20 DUP1 PUSH1 0x3 NOT CALLDATASIZE ADD SLT PUSH2 0x1E3 JUMPI PUSH1 0x4 CALLDATALOAD PUSH8 0xFFFFFFFFFFFFFFFF DUP2 GT PUSH2 0x1E3 JUMPI DUP2 PUSH2 0xCE3 PUSH2 0xCEF SWAP3 CALLDATASIZE SWAP1 PUSH1 0x4 ADD PUSH2 0x1B26 JUMP JUMPDEST PUSH2 0x24A PUSH2 0x245 DUP3 PUSH2 0x232B JUMP JUMPDEST DUP2 ADD PUSH1 0xB DUP2 MSTORE SUB ADD SWAP1 KECCAK256 DUP1 SLOAD PUSH2 0xD04 DUP2 PUSH2 0x1DBB JUMP JUMPDEST SWAP2 PUSH2 0xD12 PUSH1 0x40 MLOAD SWAP4 DUP5 PUSH2 0x1AE7 JUMP JUMPDEST DUP2 DUP4 MSTORE PUSH1 0x0 SWAP1 DUP2 MSTORE DUP4 DUP2 KECCAK256 SWAP4 DUP1 DUP5 ADD JUMPDEST DUP4 DUP4 LT PUSH2 0xD3B JUMPI PUSH1 0x40 MLOAD DUP1 PUSH2 0xD37 DUP8 DUP3 PUSH2 0x1BB5 JUMP JUMPDEST SUB SWAP1 RETURN JUMPDEST PUSH1 0x1 DUP3 DUP2 SWAP3 PUSH1 0x40 MLOAD PUSH2 0xD58 DUP2 PUSH2 0xD51 DUP2 DUP14 PUSH2 0x1D25 JUMP JUMPDEST SUB DUP3 PUSH2 0x1AE7 JUMP JUMPDEST DUP2 MSTORE ADD SWAP7 ADD SWAP3 ADD SWAP2 SWAP5 PUSH2 0xD22 JUMP JUMPDEST CALLVALUE PUSH2 0x1E3 JUMPI PUSH1 0x0 PUSH1 0x3 NOT CALLDATASIZE ADD SLT PUSH2 0x1E3 JUMPI PUSH1 0x20 PUSH1 0x1 PUSH1 0x1 PUSH1 0xA0 SHL SUB PUSH1 0x0 SLOAD AND PUSH1 0x40 MLOAD SWAP1 DUP2 MSTORE RETURN JUMPDEST CALLVALUE PUSH2 0x1E3 JUMPI PUSH1 0x20 PUSH1 0x3 NOT DUP2 DUP2 CALLDATASIZE ADD SLT PUSH2 0x1E3 JUMPI PUSH1 0x4 CALLDATALOAD PUSH8 0xFFFFFFFFFFFFFFFF SWAP2 DUP3 DUP3 GT PUSH2 0x1E3 JUMPI PUSH1 0xA0 SWAP1 DUP3 CALLDATASIZE SUB ADD SLT PUSH2 0x1E3 JUMPI PUSH1 0x1 PUSH1 0x1 PUSH1 0xA0 SHL SUB SWAP3 DUP4 PUSH32 0x0 AND CALLER SUB PUSH2 0x12D8 JUMPI PUSH1 0x40 MLOAD PUSH2 0xDFE DUP2 PUSH2 0x1AAF JUMP JUMPDEST DUP3 PUSH1 0x4 ADD CALLDATALOAD DUP2 MSTORE PUSH1 0x24 SWAP5 DUP6 DUP5 ADD CALLDATALOAD DUP6 DUP2 AND DUP2 SUB PUSH2 0x1E3 JUMPI DUP4 DUP4 ADD MSTORE PUSH1 0x44 DUP5 ADD CALLDATALOAD DUP6 DUP2 GT PUSH2 0x1E3 JUMPI PUSH2 0xE35 SWAP1 PUSH1 0x4 CALLDATASIZE SWAP2 DUP8 ADD ADD PUSH2 0x1B26 JUMP JUMPDEST PUSH1 0x40 DUP4 ADD MSTORE PUSH1 0x64 DUP5 ADD CALLDATALOAD DUP6 DUP2 GT PUSH2 0x1E3 JUMPI PUSH2 0xE56 SWAP1 PUSH1 0x4 CALLDATASIZE SWAP2 DUP8 ADD ADD PUSH2 0x1B26 JUMP JUMPDEST SWAP4 PUSH1 0x60 DUP4 ADD SWAP5 DUP6 MSTORE PUSH1 0x84 DUP2 ADD CALLDATALOAD SWAP1 DUP7 DUP3 GT PUSH2 0x1E3 JUMPI ADD CALLDATASIZE PUSH1 0x23 DUP3 ADD SLT ISZERO PUSH2 0x1E3 JUMPI PUSH1 0x4 DUP2 ADD CALLDATALOAD SWAP1 PUSH2 0xE86 DUP3 PUSH2 0x1DBB JUMP JUMPDEST SWAP2 PUSH2 0xE94 PUSH1 0x40 MLOAD SWAP4 DUP5 PUSH2 0x1AE7 JUMP JUMPDEST DUP1 DUP4 MSTORE DUP9 DUP7 DUP5 ADD SWAP2 PUSH1 0x6 SHL DUP4 ADD ADD SWAP2 CALLDATASIZE DUP4 GT PUSH2 0x1E3 JUMPI DUP10 ADD SWAP1 JUMPDEST DUP3 DUP3 LT PUSH2 0x129B JUMPI POP POP POP PUSH1 0x80 DUP4 ADD MSTORE DUP4 MLOAD DUP1 MLOAD DUP2 ADD SWAP1 PUSH1 0x60 DUP2 DUP7 DUP5 ADD SWAP4 SUB SLT PUSH2 0x1E3 JUMPI DUP5 DUP2 ADD MLOAD SWAP2 PUSH1 0xFF DUP4 AND DUP1 SWAP4 SUB PUSH2 0x1E3 JUMPI PUSH2 0xEED PUSH1 0x40 DUP4 ADD PUSH2 0x22E0 JUMP JUMPDEST SWAP2 PUSH1 0x60 DUP2 ADD MLOAD SWAP1 DUP10 DUP3 GT PUSH2 0x1E3 JUMPI ADD SWAP1 DUP1 PUSH1 0x3F DUP4 ADD SLT ISZERO PUSH2 0x1E3 JUMPI DUP7 DUP3 ADD MLOAD PUSH2 0xF18 SWAP3 PUSH1 0x40 ADD PUSH2 0x22F4 JUMP JUMPDEST SWAP2 ISZERO PUSH2 0x11F0 JUMPI JUMPDEST POP POP POP MLOAD PUSH1 0x6 SSTORE DUP2 MLOAD DUP1 MLOAD DUP2 ADD SWAP1 DUP3 DUP2 DUP2 DUP5 ADD SWAP4 SUB SLT PUSH2 0x1E3 JUMPI DUP3 DUP2 ADD MLOAD SWAP1 DUP6 DUP3 GT PUSH2 0x1E3 JUMPI ADD SWAP1 DUP1 PUSH1 0x3F DUP4 ADD SLT ISZERO PUSH2 0x1E3 JUMPI DUP3 DUP3 ADD MLOAD PUSH2 0xF62 SWAP3 PUSH1 0x40 ADD PUSH2 0x22F4 JUMP JUMPDEST SWAP2 DUP3 MLOAD DUP5 DUP2 GT PUSH2 0x11DB JUMPI PUSH2 0xF77 PUSH1 0x8 SLOAD PUSH2 0x1CEB JUMP JUMPDEST SWAP4 PUSH1 0x1F SWAP5 DUP6 DUP2 GT PUSH2 0x118F JUMPI JUMPDEST POP DUP4 SWAP1 DUP6 DUP4 GT PUSH1 0x1 EQ PUSH2 0x1109 JUMPI PUSH2 0xFB2 SWAP3 SWAP2 PUSH1 0x0 SWAP2 DUP4 PUSH2 0x10FE JUMPI JUMPDEST POP POP PUSH1 0x0 NOT DUP3 PUSH1 0x1 SHL SWAP3 PUSH1 0x3 SHL SHR NOT AND OR SWAP1 JUMP JUMPDEST PUSH1 0x8 SSTORE JUMPDEST MLOAD SWAP4 DUP5 MLOAD SWAP4 DUP5 GT PUSH2 0x10EA JUMPI POP PUSH2 0xFCD PUSH1 0x7 SLOAD PUSH2 0x1CEB JUMP JUMPDEST DUP3 DUP2 GT PUSH2 0x1094 JUMPI JUMPDEST POP DUP1 SWAP2 DUP4 GT PUSH1 0x1 EQ PUSH2 0x1013 JUMPI POP DUP2 SWAP1 PUSH2 0x1003 SWAP4 PUSH1 0x0 SWAP3 PUSH2 0x1008 JUMPI POP POP PUSH1 0x0 NOT DUP3 PUSH1 0x1 SHL SWAP3 PUSH1 0x3 SHL SHR NOT AND OR SWAP1 JUMP JUMPDEST PUSH1 0x7 SSTORE STOP JUMPDEST ADD MLOAD SWAP1 POP DUP4 DUP1 PUSH2 0xF9E JUMP JUMPDEST SWAP1 PUSH1 0x1F NOT DUP4 AND SWAP4 PUSH1 0x7 PUSH1 0x0 MSTORE PUSH32 0xA66CC928B5EDB82AF9BD49922954155AB7B0942694BEA4CE44661D9A8736C688 SWAP3 PUSH1 0x0 SWAP1 JUMPDEST DUP7 DUP3 LT PUSH2 0x107C JUMPI POP POP DUP4 PUSH1 0x1 SWAP6 LT PUSH2 0x1063 JUMPI JUMPDEST POP POP POP DUP2 SHL ADD PUSH1 0x7 SSTORE STOP JUMPDEST ADD MLOAD PUSH1 0x0 NOT PUSH1 0xF8 DUP5 PUSH1 0x3 SHL AND SHR NOT AND SWAP1 SSTORE DUP3 DUP1 DUP1 PUSH2 0x1058 JUMP JUMPDEST DUP1 PUSH1 0x1 DUP6 SWAP7 DUP3 SWAP5 SWAP7 DUP7 ADD MLOAD DUP2 SSTORE ADD SWAP6 ADD SWAP4 ADD SWAP1 PUSH2 0x1045 JUMP JUMPDEST PUSH2 0x10DB SWAP1 PUSH1 0x7 PUSH1 0x0 MSTORE PUSH32 0xA66CC928B5EDB82AF9BD49922954155AB7B0942694BEA4CE44661D9A8736C688 DUP5 DUP1 DUP8 ADD PUSH1 0x5 SHR DUP3 ADD SWAP3 DUP6 DUP9 LT PUSH2 0x10E1 JUMPI JUMPDEST ADD PUSH1 0x5 SHR ADD SWAP1 PUSH2 0x1F38 JUMP JUMPDEST DUP5 PUSH2 0xFD5 JUMP JUMPDEST SWAP3 POP DUP2 SWAP3 PUSH2 0x10D0 JUMP JUMPDEST PUSH4 0x4E487B71 PUSH1 0xE0 SHL PUSH1 0x0 MSTORE PUSH1 0x41 PUSH1 0x4 MSTORE PUSH1 0x0 REVERT JUMPDEST ADD MLOAD SWAP1 POP DUP9 DUP1 PUSH2 0xF9E JUMP JUMPDEST SWAP1 PUSH1 0x1F NOT DUP4 AND SWAP2 PUSH1 0x8 PUSH1 0x0 MSTORE PUSH32 0xF3F7A9FE364FAAB93B216DA50A3214154F22A0A2B415B23A84C8169E8B636EE3 SWAP3 PUSH1 0x0 JUMPDEST DUP8 DUP3 DUP3 LT PUSH2 0x1179 JUMPI POP POP SWAP1 DUP5 PUSH1 0x1 SWAP6 SWAP5 SWAP4 SWAP3 LT PUSH2 0x1160 JUMPI JUMPDEST POP POP POP DUP2 SHL ADD PUSH1 0x8 SSTORE PUSH2 0xFB6 JUMP JUMPDEST ADD MLOAD PUSH1 0x0 NOT PUSH1 0xF8 DUP5 PUSH1 0x3 SHL AND SHR NOT AND SWAP1 SSTORE DUP8 DUP1 DUP1 PUSH2 0x1152 JUMP JUMPDEST PUSH1 0x1 DUP6 SWAP7 DUP3 SWAP4 SWAP7 DUP7 ADD MLOAD DUP2 SSTORE ADD SWAP6 ADD SWAP4 ADD PUSH2 0x113A JUMP JUMPDEST PUSH2 0x11D5 SWAP1 PUSH1 0x8 PUSH1 0x0 MSTORE PUSH32 0xF3F7A9FE364FAAB93B216DA50A3214154F22A0A2B415B23A84C8169E8B636EE3 DUP8 DUP1 DUP7 ADD PUSH1 0x5 SHR DUP3 ADD SWAP3 DUP9 DUP8 LT PUSH2 0x10E1 JUMPI ADD PUSH1 0x5 SHR ADD SWAP1 PUSH2 0x1F38 JUMP JUMPDEST DUP8 PUSH2 0xF83 JUMP JUMPDEST DUP6 PUSH4 0x4E487B71 PUSH1 0xE0 SHL PUSH1 0x0 MSTORE PUSH1 0x41 PUSH1 0x4 MSTORE PUSH1 0x0 REVERT JUMPDEST DUP2 PUSH1 0x0 SWAP3 SWAP2 DUP4 DUP6 DUP9 DUP3 SWAP6 MLOAD SWAP5 ADD SWAP3 AND GAS CALL PUSH2 0x1209 PUSH2 0x1CBB JUMP JUMPDEST SWAP1 ISZERO PUSH2 0x1258 JUMPI DUP4 DUP2 DUP1 MLOAD DUP2 ADD SUB SLT PUSH2 0x1E3 JUMPI DUP4 PUSH2 0x1226 SWAP2 ADD PUSH2 0x22E0 JUMP JUMPDEST AND PUSH32 0xFFFFFFFFFFFFFFFFFFFFFFFF0000000000000000000000000000000000000000 PUSH1 0x2 SLOAD AND OR PUSH1 0x2 SSTORE DUP6 DUP1 DUP1 PUSH2 0xF1F JUMP JUMPDEST PUSH1 0x64 DUP5 PUSH1 0x15 DUP10 PUSH1 0x40 MLOAD SWAP3 PUSH3 0x461BCD PUSH1 0xE5 SHL DUP5 MSTORE PUSH1 0x4 DUP5 ADD MSTORE DUP3 ADD MSTORE PUSH32 0x4C6F772D6C6576656C2063616C6C206661696C65640000000000000000000000 PUSH1 0x44 DUP3 ADD MSTORE REVERT JUMPDEST PUSH1 0x40 DUP3 CALLDATASIZE SUB SLT PUSH2 0x1E3 JUMPI PUSH1 0x40 MLOAD SWAP1 PUSH2 0x12B2 DUP3 PUSH2 0x1A77 JUMP JUMPDEST DUP3 CALLDATALOAD SWAP1 DUP7 DUP3 AND DUP3 SUB PUSH2 0x1E3 JUMPI DUP3 DUP10 SWAP3 PUSH1 0x40 SWAP5 MSTORE DUP3 DUP6 ADD CALLDATALOAD DUP4 DUP3 ADD MSTORE DUP2 MSTORE ADD SWAP2 ADD SWAP1 PUSH2 0xEAE JUMP JUMPDEST PUSH1 0x24 PUSH1 0x40 MLOAD PUSH32 0xD7F7333400000000000000000000000000000000000000000000000000000000 DUP2 MSTORE CALLER PUSH1 0x4 DUP3 ADD MSTORE REVERT JUMPDEST CALLVALUE PUSH2 0x1E3 JUMPI PUSH1 0xC0 PUSH1 0x3 NOT CALLDATASIZE ADD SLT PUSH2 0x1E3 JUMPI PUSH2 0x1321 PUSH2 0x1C37 JUMP JUMPDEST PUSH2 0x1329 PUSH2 0x1A09 JUMP JUMPDEST SWAP1 PUSH2 0x1332 PUSH2 0x1A1F JUMP JUMPDEST SWAP1 PUSH2 0x133B PUSH2 0x1A35 JUMP JUMPDEST SWAP3 PUSH2 0x1344 PUSH2 0x1A4B JUMP JUMPDEST SWAP3 PUSH2 0x134D PUSH2 0x1A61 JUMP JUMPDEST SWAP1 PUSH1 0x40 MLOAD PUSH2 0x135A DUP2 PUSH2 0x1A93 JUMP JUMPDEST PUSH1 0x0 DUP2 MSTORE PUSH1 0x40 MLOAD PUSH1 0x20 SWAP8 PUSH32 0x133572BA00000000000000000000000000000000000000000000000000000000 DUP10 DUP4 ADD MSTORE PUSH1 0x1 PUSH1 0x1 PUSH1 0xA0 SHL SUB SWAP8 DUP9 DUP1 SWAP3 AND PUSH1 0x24 DUP5 ADD MSTORE AND PUSH1 0x44 DUP3 ADD MSTORE PUSH1 0x44 DUP2 MSTORE PUSH1 0x80 DUP2 ADD SWAP3 DUP2 DUP5 LT PUSH8 0xFFFFFFFFFFFFFFFF DUP6 GT OR PUSH2 0x1CD JUMPI PUSH2 0xAAA SWAP2 DUP9 PUSH32 0xFFFFFFFFFFFFFFFFFFFFFFFFFFFFFFFFFFFFFFFFFFFFFFFFFFFFFFFFFFFFFF80 SWAP3 DUP7 PUSH1 0x40 MSTORE PUSH1 0x0 PUSH1 0xA0 DUP5 ADD MSTORE AND PUSH1 0xC0 DUP3 ADD MSTORE PUSH1 0x60 PUSH1 0xE0 DUP3 ADD MSTORE PUSH2 0x140A PUSH2 0x100 DUP3 ADD DUP3 PUSH2 0x1B90 JUMP JUMPDEST SUB PUSH32 0xFFFFFFFFFFFFFFFFFFFFFFFFFFFFFFFFFFFFFFFFFFFFFFFFFFFFFFFFFFFFFF60 DUP2 ADD DUP6 MSTORE ADD DUP4 PUSH2 0x1AE7 JUMP JUMPDEST CALLVALUE PUSH2 0x1E3 JUMPI PUSH1 0x0 PUSH1 0x3 NOT CALLDATASIZE ADD SLT PUSH2 0x1E3 JUMPI PUSH1 0x20 PUSH1 0x1 PUSH1 0x1 PUSH1 0xA0 SHL SUB PUSH1 0xC SLOAD AND PUSH1 0x40 MLOAD SWAP1 DUP2 MSTORE RETURN JUMPDEST CALLVALUE PUSH2 0x1E3 JUMPI PUSH1 0x0 PUSH1 0x3 NOT CALLDATASIZE ADD SLT PUSH2 0x1E3 JUMPI PUSH1 0x20 PUSH1 0x1 PUSH1 0x1 PUSH1 0xA0 SHL SUB PUSH1 0xE SLOAD AND PUSH1 0x40 MLOAD SWAP1 DUP2 MSTORE RETURN JUMPDEST CALLVALUE PUSH2 0x1E3 JUMPI PUSH1 0x0 PUSH1 0x3 NOT CALLDATASIZE ADD SLT PUSH2 0x1E3 JUMPI PUSH1 0x40 PUSH1 0x4 SLOAD PUSH1 0x5 SLOAD DUP3 MLOAD SWAP2 DUP3 MSTORE PUSH1 0x20 DUP3 ADD MSTORE RETURN JUMPDEST CALLVALUE PUSH2 0x1E3 JUMPI PUSH1 0x0 PUSH1 0x3 NOT CALLDATASIZE ADD SLT PUSH2 0x1E3 JUMPI PUSH1 0x20 PUSH1 0x1 PUSH1 0x1 PUSH1 0xA0 SHL SUB PUSH1 0x2 SLOAD AND PUSH1 0x40 MLOAD SWAP1 DUP2 MSTORE RETURN JUMPDEST CALLVALUE PUSH2 0x1E3 JUMPI PUSH1 0x0 PUSH1 0x3 NOT CALLDATASIZE ADD SLT PUSH2 0x1E3 JUMPI PUSH1 0xA SLOAD PUSH2 0x14EE DUP2 PUSH2 0x1DBB JUMP JUMPDEST PUSH2 0x14FB PUSH1 0x40 MLOAD SWAP2 DUP3 PUSH2 0x1AE7 JUMP JUMPDEST DUP2 DUP2 MSTORE PUSH1 0x20 SWAP2 PUSH1 0x20 DUP3 ADD PUSH1 0xA PUSH1 0x0 MSTORE PUSH32 0xC65A7BB8D6351C1CF70C95A316CC6A92839C986682D98BC35F958F4883F9D2A8 SWAP4 PUSH1 0x0 SWAP2 JUMPDEST DUP4 DUP4 LT PUSH2 0x1545 JUMPI PUSH1 0x40 MLOAD DUP1 PUSH2 0xD37 DUP8 DUP3 PUSH2 0x1BB5 JUMP JUMPDEST PUSH1 0x1 DUP3 DUP2 SWAP3 PUSH1 0x40 MLOAD PUSH2 0x155B DUP2 PUSH2 0xD51 DUP2 DUP14 PUSH2 0x1D25 JUMP JUMPDEST DUP2 MSTORE ADD SWAP7 ADD SWAP3 ADD SWAP2 SWAP5 PUSH2 0x1530 JUMP JUMPDEST CALLVALUE PUSH2 0x1E3 JUMPI PUSH1 0x3 NOT PUSH1 0x60 DUP2 CALLDATASIZE ADD SLT PUSH2 0x1E3 JUMPI PUSH1 0x4 CALLDATALOAD SWAP1 PUSH8 0xFFFFFFFFFFFFFFFF DUP3 GT PUSH2 0x1E3 JUMPI PUSH2 0x160 SWAP1 DUP3 CALLDATASIZE SUB ADD SLT PUSH2 0x1E3 JUMPI PUSH2 0x15AB SWAP1 PUSH1 0x24 CALLDATALOAD SWAP1 PUSH1 0x4 ADD PUSH2 0x2165 JUMP JUMPDEST POP PUSH1 0x20 PUSH1 0x40 MLOAD PUSH1 0x0 DUP2 MSTORE RETURN JUMPDEST CALLVALUE PUSH2 0x1E3 JUMPI PUSH1 0x40 PUSH1 0x3 NOT CALLDATASIZE ADD SLT PUSH2 0x1E3 JUMPI CALLDATASIZE PUSH1 0x23 SLT ISZERO PUSH2 0x1E3 JUMPI PUSH1 0x40 MLOAD PUSH2 0x15DD DUP2 PUSH2 0x1A77 JUMP JUMPDEST PUSH1 0x44 DUP2 CALLDATASIZE DUP3 GT PUSH2 0x1E3 JUMPI PUSH1 0x4 SWAP1 JUMPDEST DUP3 DUP3 LT PUSH2 0x160E JUMPI DUP4 PUSH1 0x20 DUP2 MLOAD SWAP2 ADD MLOAD SWAP1 PUSH2 0x1606 PUSH1 0x40 MLOAD PUSH2 0x1A77 JUMP JUMPDEST PUSH1 0x4 SSTORE PUSH1 0x5 SSTORE STOP JUMPDEST DUP2 CALLDATALOAD DUP2 MSTORE PUSH1 0x20 SWAP2 DUP3 ADD SWAP2 ADD PUSH2 0x15EB JUMP JUMPDEST CALLVALUE PUSH2 0x1E3 JUMPI PUSH1 0x0 PUSH1 0x3 NOT CALLDATASIZE ADD SLT PUSH2 0x1E3 JUMPI PUSH1 0x0 PUSH1 0x1 SSTORE STOP JUMPDEST CALLVALUE PUSH2 0x1E3 JUMPI PUSH1 0x0 PUSH1 0x3 NOT CALLDATASIZE ADD SLT PUSH2 0x1E3 JUMPI PUSH1 0x20 PUSH1 0x3 SLOAD PUSH1 0x40 MLOAD SWAP1 DUP2 MSTORE RETURN JUMPDEST CALLVALUE PUSH2 0x1E3 JUMPI PUSH1 0x0 PUSH1 0x3 NOT CALLDATASIZE ADD SLT PUSH2 0x1E3 JUMPI PUSH1 0x6 SLOAD PUSH1 0x40 MLOAD PUSH1 0x0 SWAP2 PUSH1 0x8 SLOAD SWAP2 PUSH2 0x167B DUP4 PUSH2 0x1CEB JUMP JUMPDEST DUP1 DUP3 MSTORE DUP2 PUSH1 0x20 SWAP6 DUP7 SWAP3 PUSH1 0x1 SWAP7 PUSH1 0x1 DUP2 AND SWAP1 DUP2 PUSH1 0x0 EQ PUSH2 0x17E5 JUMPI POP PUSH1 0x1 EQ PUSH2 0x1789 JUMPI JUMPDEST POP PUSH2 0x16AA SWAP3 POP SUB DUP3 PUSH2 0x1AE7 JUMP JUMPDEST PUSH1 0x40 MLOAD SWAP1 PUSH1 0x0 SWAP4 DUP6 PUSH1 0x7 SLOAD SWAP2 PUSH2 0x16BF DUP4 PUSH2 0x1CEB JUMP JUMPDEST DUP1 DUP7 MSTORE SWAP3 PUSH1 0x1 DUP2 AND SWAP1 DUP2 ISZERO PUSH2 0x176C JUMPI POP PUSH1 0x1 EQ PUSH2 0x1712 JUMPI JUMPDEST POP DUP5 PUSH2 0xD37 DUP6 PUSH2 0x1704 DUP7 PUSH2 0x16ED DUP4 DUP13 SUB DUP5 PUSH2 0x1AE7 JUMP JUMPDEST PUSH1 0x60 PUSH1 0x40 MLOAD SWAP7 DUP8 SWAP7 DUP8 MSTORE DUP7 ADD MSTORE PUSH1 0x60 DUP6 ADD SWAP1 PUSH2 0x1B90 JUMP JUMPDEST SWAP1 DUP4 DUP3 SUB PUSH1 0x40 DUP6 ADD MSTORE PUSH2 0x1B90 JUMP JUMPDEST SWAP2 SWAP1 SWAP6 POP PUSH1 0x7 PUSH1 0x0 MSTORE PUSH32 0xA66CC928B5EDB82AF9BD49922954155AB7B0942694BEA4CE44661D9A8736C688 SWAP2 PUSH1 0x0 SWAP3 JUMPDEST DUP3 DUP5 LT PUSH2 0x1759 JUMPI POP POP POP DUP3 ADD SWAP1 SWAP4 ADD SWAP3 DUP1 DUP6 DUP4 PUSH2 0x16D7 JUMP JUMPDEST DUP1 SLOAD DUP7 DUP6 ADD DUP10 ADD MSTORE SWAP3 DUP8 ADD SWAP3 DUP2 ADD PUSH2 0x1741 JUMP JUMPDEST PUSH1 0xFF NOT AND DUP4 DUP8 ADD MSTORE POP POP SWAP1 ISZERO ISZERO PUSH1 0x5 SHL DUP4 ADD ADD SWAP4 POP DUP1 DUP6 DUP4 PUSH2 0x16D7 JUMP JUMPDEST PUSH1 0x8 PUSH1 0x0 SWAP1 DUP2 MSTORE SWAP2 POP DUP7 PUSH32 0xF3F7A9FE364FAAB93B216DA50A3214154F22A0A2B415B23A84C8169E8B636EE3 JUMPDEST DUP3 DUP5 LT PUSH2 0x17CE JUMPI POP POP POP SWAP2 PUSH2 0x16AA SWAP3 DUP3 ADD ADD DUP7 SWAP3 PUSH2 0x169D JUMP JUMPDEST DUP1 SLOAD DUP8 DUP6 ADD DUP8 ADD MSTORE DUP7 SWAP5 POP SWAP3 DUP6 ADD SWAP3 DUP9 SWAP2 ADD PUSH2 0x17B5 JUMP JUMPDEST PUSH1 0xFF NOT AND DUP5 DUP7 ADD MSTORE POP DUP8 SWAP4 SWAP1 ISZERO ISZERO PUSH1 0x5 SHL DUP4 ADD ADD SWAP1 POP PUSH2 0x16AA PUSH2 0x169D JUMP JUMPDEST PUSH1 0x40 PUSH1 0x3 NOT CALLDATASIZE ADD SLT PUSH2 0x1E3 JUMPI PUSH1 0x4 CALLDATALOAD PUSH1 0x1 PUSH1 0x1 PUSH1 0xA0 SHL SUB DUP2 AND DUP2 SUB PUSH2 0x1E3 JUMPI PUSH1 0x24 CALLDATALOAD PUSH8 0xFFFFFFFFFFFFFFFF DUP2 GT PUSH2 0x1E3 JUMPI PUSH1 0x0 SWAP2 PUSH2 0x1846 DUP4 SWAP3 CALLDATASIZE SWAP1 PUSH1 0x4 ADD PUSH2 0x1B26 JUMP JUMPDEST SWAP1 DUP3 PUSH1 0x20 DUP4 MLOAD SWAP4 ADD SWAP2 GAS CALL PUSH2 0x1859 PUSH2 0x1CBB JUMP JUMPDEST SWAP1 ISZERO PUSH2 0x18A4 JUMPI PUSH2 0x189F PUSH32 0x582326E533AF48B16567B0565A82550442E225CF8491CB9AE2A29E1F96935E7C SWAP2 PUSH1 0x40 MLOAD SWAP2 DUP3 SWAP2 PUSH1 0x1 DUP4 MSTORE PUSH1 0x40 PUSH1 0x20 DUP5 ADD MSTORE PUSH1 0x40 DUP4 ADD SWAP1 PUSH2 0x1B90 JUMP JUMPDEST SUB SWAP1 LOG1 STOP JUMPDEST PUSH1 0x64 PUSH1 0x40 MLOAD PUSH3 0x461BCD PUSH1 0xE5 SHL DUP2 MSTORE PUSH1 0x20 PUSH1 0x4 DUP3 ADD MSTORE PUSH1 0xB PUSH1 0x24 DUP3 ADD MSTORE PUSH32 0x43616C6C206661696C6564000000000000000000000000000000000000000000 PUSH1 0x44 DUP3 ADD MSTORE REVERT JUMPDEST CALLVALUE PUSH2 0x1E3 JUMPI PUSH1 0x40 PUSH1 0x3 NOT CALLDATASIZE ADD SLT PUSH2 0x1E3 JUMPI PUSH8 0xFFFFFFFFFFFFFFFF PUSH1 0x24 CALLDATALOAD DUP2 DUP2 GT PUSH2 0x1E3 JUMPI CALLDATASIZE PUSH1 0x23 DUP3 ADD SLT ISZERO PUSH2 0x1E3 JUMPI DUP1 PUSH1 0x4 ADD CALLDATALOAD SWAP2 DUP3 GT PUSH2 0x1E3 JUMPI CALLDATASIZE PUSH1 0x24 DUP4 DUP4 ADD ADD GT PUSH2 0x1E3 JUMPI PUSH1 0x20 SWAP2 PUSH1 0x24 PUSH2 0x1941 SWAP3 ADD PUSH1 0x4 CALLDATALOAD PUSH2 0x1C4E JUMP JUMPDEST PUSH32 0xFFFFFFFF00000000000000000000000000000000000000000000000000000000 PUSH1 0x40 MLOAD SWAP2 AND DUP2 MSTORE RETURN JUMPDEST CALLVALUE PUSH2 0x1E3 JUMPI PUSH1 0x20 PUSH1 0x3 NOT CALLDATASIZE ADD SLT PUSH2 0x1E3 JUMPI PUSH1 0x4 CALLDATALOAD SWAP1 PUSH32 0xFFFFFFFF00000000000000000000000000000000000000000000000000000000 DUP3 AND DUP1 SWAP3 SUB PUSH2 0x1E3 JUMPI DUP2 PUSH32 0x85572FFB00000000000000000000000000000000000000000000000000000000 PUSH1 0x20 SWAP4 EQ SWAP1 DUP2 ISZERO PUSH2 0x19DF JUMPI JUMPDEST POP ISZERO ISZERO DUP2 MSTORE RETURN JUMPDEST PUSH32 0x1FFC9A700000000000000000000000000000000000000000000000000000000 SWAP2 POP EQ DUP4 PUSH2 0x19D8 JUMP JUMPDEST PUSH1 0x24 CALLDATALOAD SWAP1 PUSH1 0x1 PUSH1 0x1 PUSH1 0xA0 SHL SUB DUP3 AND DUP3 SUB PUSH2 0x1E3 JUMPI JUMP JUMPDEST PUSH1 0x44 CALLDATALOAD SWAP1 PUSH1 0x1 PUSH1 0x1 PUSH1 0xA0 SHL SUB DUP3 AND DUP3 SUB PUSH2 0x1E3 JUMPI JUMP JUMPDEST PUSH1 0x64 CALLDATALOAD SWAP1 PUSH1 0x1 PUSH1 0x1 PUSH1 0xA0 SHL SUB DUP3 AND DUP3 SUB PUSH2 0x1E3 JUMPI JUMP JUMPDEST PUSH1 0x84 CALLDATALOAD SWAP1 PUSH1 0x1 PUSH1 0x1 PUSH1 0xA0 SHL SUB DUP3 AND DUP3 SUB PUSH2 0x1E3 JUMPI JUMP JUMPDEST PUSH1 0xA4 CALLDATALOAD SWAP1 PUSH1 0x1 PUSH1 0x1 PUSH1 0xA0 SHL SUB DUP3 AND DUP3 SUB PUSH2 0x1E3 JUMPI JUMP JUMPDEST PUSH1 0x40 DUP2 ADD SWAP1 DUP2 LT PUSH8 0xFFFFFFFFFFFFFFFF DUP3 GT OR PUSH2 0x1CD JUMPI PUSH1 0x40 MSTORE JUMP JUMPDEST PUSH1 0x20 DUP2 ADD SWAP1 DUP2 LT PUSH8 0xFFFFFFFFFFFFFFFF DUP3 GT OR PUSH2 0x1CD JUMPI PUSH1 0x40 MSTORE JUMP JUMPDEST PUSH1 0xA0 DUP2 ADD SWAP1 DUP2 LT PUSH8 0xFFFFFFFFFFFFFFFF DUP3 GT OR PUSH2 0x1CD JUMPI PUSH1 0x40 MSTORE JUMP JUMPDEST PUSH1 0x60 DUP2 ADD SWAP1 DUP2 LT PUSH8 0xFFFFFFFFFFFFFFFF DUP3 GT OR PUSH2 0x1CD JUMPI PUSH1 0x40 MSTORE JUMP JUMPDEST SWAP1 PUSH1 0x1F PUSH1 0x1F NOT SWAP2 ADD AND DUP2 ADD SWAP1 DUP2 LT PUSH8 0xFFFFFFFFFFFFFFFF DUP3 GT OR PUSH2 0x1CD JUMPI PUSH1 0x40 MSTORE JUMP JUMPDEST PUSH8 0xFFFFFFFFFFFFFFFF DUP2 GT PUSH2 0x1CD JUMPI PUSH1 0x1F ADD PUSH1 0x1F NOT AND PUSH1 0x20 ADD SWAP1 JUMP JUMPDEST DUP2 PUSH1 0x1F DUP3 ADD SLT ISZERO PUSH2 0x1E3 JUMPI DUP1 CALLDATALOAD SWAP1 PUSH2 0x1B3D DUP3 PUSH2 0x1B0A JUMP JUMPDEST SWAP3 PUSH2 0x1B4B PUSH1 0x40 MLOAD SWAP5 DUP6 PUSH2 0x1AE7 JUMP JUMPDEST DUP3 DUP5 MSTORE PUSH1 0x20 DUP4 DUP4 ADD ADD GT PUSH2 0x1E3 JUMPI DUP2 PUSH1 0x0 SWAP3 PUSH1 0x20 DUP1 SWAP4 ADD DUP4 DUP7 ADD CALLDATACOPY DUP4 ADD ADD MSTORE SWAP1 JUMP JUMPDEST PUSH1 0x0 JUMPDEST DUP4 DUP2 LT PUSH2 0x1B80 JUMPI POP POP PUSH1 0x0 SWAP2 ADD MSTORE JUMP JUMPDEST DUP2 DUP2 ADD MLOAD DUP4 DUP3 ADD MSTORE PUSH1 0x20 ADD PUSH2 0x1B70 JUMP JUMPDEST SWAP1 PUSH1 0x1F NOT PUSH1 0x1F PUSH1 0x20 SWAP4 PUSH2 0x1BAE DUP2 MLOAD DUP1 SWAP3 DUP2 DUP8 MSTORE DUP8 DUP1 DUP9 ADD SWAP2 ADD PUSH2 0x1B6D JUMP JUMPDEST ADD AND ADD ADD SWAP1 JUMP JUMPDEST PUSH1 0x20 DUP1 DUP3 ADD SWAP1 PUSH1 0x20 DUP4 MSTORE DUP4 MLOAD DUP1 SWAP3 MSTORE PUSH1 0x40 DUP4 ADD SWAP3 PUSH1 0x20 PUSH1 0x40 DUP5 PUSH1 0x5 SHL DUP4 ADD ADD SWAP6 ADD SWAP4 PUSH1 0x0 SWAP2 JUMPDEST DUP5 DUP4 LT PUSH2 0x1BEB JUMPI POP POP POP POP POP POP SWAP1 JUMP JUMPDEST SWAP1 SWAP2 SWAP3 SWAP4 SWAP5 SWAP6 DUP5 DUP1 PUSH2 0x1C27 DUP4 PUSH32 0xFFFFFFFFFFFFFFFFFFFFFFFFFFFFFFFFFFFFFFFFFFFFFFFFFFFFFFFFFFFFFFC0 DUP7 PUSH1 0x1 SWAP7 SUB ADD DUP8 MSTORE DUP11 MLOAD PUSH2 0x1B90 JUMP JUMPDEST SWAP9 ADD SWAP4 ADD SWAP4 ADD SWAP2 SWAP5 SWAP4 SWAP3 SWAP1 PUSH2 0x1BDB JUMP JUMPDEST PUSH1 0x4 CALLDATALOAD SWAP1 PUSH8 0xFFFFFFFFFFFFFFFF DUP3 AND DUP3 SUB PUSH2 0x1E3 JUMPI JUMP JUMPDEST SWAP1 PUSH2 0x1C6F SWAP3 SWAP2 PUSH1 0x40 MLOAD SWAP1 PUSH1 0x20 DUP3 ADD MSTORE PUSH1 0x20 DUP2 MSTORE PUSH2 0x1C6A DUP2 PUSH2 0x1A77 JUMP JUMPDEST PUSH2 0x205A JUMP JUMPDEST PUSH2 0x1C97 JUMPI PUSH32 0xFFFFFFFF00000000000000000000000000000000000000000000000000000000 SWAP1 JUMP JUMPDEST PUSH32 0x1626BA7E00000000000000000000000000000000000000000000000000000000 SWAP1 JUMP JUMPDEST RETURNDATASIZE ISZERO PUSH2 0x1CE6 JUMPI RETURNDATASIZE SWAP1 PUSH2 0x1CCC DUP3 PUSH2 0x1B0A JUMP JUMPDEST SWAP2 PUSH2 0x1CDA PUSH1 0x40 MLOAD SWAP4 DUP5 PUSH2 0x1AE7 JUMP JUMPDEST DUP3 MSTORE RETURNDATASIZE PUSH1 0x0 PUSH1 0x20 DUP5 ADD RETURNDATACOPY JUMP JUMPDEST PUSH1 0x60 SWAP1 JUMP JUMPDEST SWAP1 PUSH1 0x1 DUP3 DUP2 SHR SWAP3 AND DUP1 ISZERO PUSH2 0x1D1B JUMPI JUMPDEST PUSH1 0x20 DUP4 LT EQ PUSH2 0x1D05 JUMPI JUMP JUMPDEST PUSH4 0x4E487B71 PUSH1 0xE0 SHL PUSH1 0x0 MSTORE PUSH1 0x22 PUSH1 0x4 MSTORE PUSH1 0x24 PUSH1 0x0 REVERT JUMPDEST SWAP2 PUSH1 0x7F AND SWAP2 PUSH2 0x1CFA JUMP JUMPDEST DUP1 SLOAD PUSH1 0x0 SWAP4 SWAP3 PUSH2 0x1D34 DUP3 PUSH2 0x1CEB JUMP JUMPDEST SWAP2 DUP3 DUP3 MSTORE PUSH1 0x20 SWAP4 PUSH1 0x1 SWAP2 PUSH1 0x1 DUP2 AND SWAP1 DUP2 PUSH1 0x0 EQ PUSH2 0x1D9C JUMPI POP PUSH1 0x1 EQ PUSH2 0x1D5B JUMPI JUMPDEST POP POP POP POP POP JUMP JUMPDEST SWAP1 SWAP4 SWAP5 SWAP6 POP PUSH1 0x0 SWAP3 SWAP2 SWAP3 MSTORE DUP4 PUSH1 0x0 KECCAK256 SWAP3 DUP5 PUSH1 0x0 SWAP5 JUMPDEST DUP4 DUP7 LT PUSH2 0x1D88 JUMPI POP POP POP POP ADD ADD SWAP1 CODESIZE DUP1 DUP1 DUP1 DUP1 PUSH2 0x1D54 JUMP JUMPDEST DUP1 SLOAD DUP6 DUP8 ADD DUP4 ADD MSTORE SWAP5 ADD SWAP4 DUP6 SWAP1 DUP3 ADD PUSH2 0x1D70 JUMP JUMPDEST PUSH1 0xFF NOT AND DUP7 DUP6 ADD MSTORE POP POP POP SWAP1 ISZERO ISZERO PUSH1 0x5 SHL ADD ADD SWAP2 POP CODESIZE DUP1 DUP1 DUP1 DUP1 PUSH2 0x1D54 JUMP JUMPDEST PUSH8 0xFFFFFFFFFFFFFFFF DUP2 GT PUSH2 0x1CD JUMPI PUSH1 0x5 SHL PUSH1 0x20 ADD SWAP1 JUMP JUMPDEST SWAP1 DUP2 PUSH1 0x20 SWAP2 SUB SLT PUSH2 0x1E3 JUMPI MLOAD PUSH1 0x1 PUSH1 0x1 PUSH1 0xA0 SHL SUB DUP2 AND DUP2 SUB PUSH2 0x1E3 JUMPI SWAP1 JUMP JUMPDEST SWAP2 SWAP1 PUSH2 0x1E07 DUP4 MLOAD PUSH1 0xA0 DUP4 MSTORE PUSH1 0xA0 DUP4 ADD SWAP1 PUSH2 0x1B90 JUMP JUMPDEST SWAP1 PUSH2 0x1E1E PUSH1 0x20 SWAP3 DUP4 DUP7 ADD MLOAD DUP4 DUP3 SUB DUP6 DUP6 ADD MSTORE PUSH2 0x1B90 JUMP JUMPDEST PUSH1 0x40 SWAP1 PUSH1 0x40 DUP7 ADD MLOAD SWAP4 DUP4 DUP3 SUB PUSH1 0x40 DUP6 ADD MSTORE DUP1 DUP1 DUP7 MLOAD SWAP4 DUP5 DUP2 MSTORE ADD SWAP6 ADD SWAP3 PUSH1 0x0 SWAP1 JUMPDEST DUP4 DUP3 LT PUSH2 0x1E78 JUMPI POP POP POP POP POP PUSH1 0x80 DUP5 PUSH1 0x1 PUSH1 0x1 PUSH1 0xA0 SHL SUB PUSH1 0x60 PUSH2 0x1E75 SWAP7 SWAP8 ADD MLOAD AND PUSH1 0x60 DUP5 ADD MSTORE ADD MLOAD SWAP1 PUSH1 0x80 DUP2 DUP5 SUB SWAP2 ADD MSTORE PUSH2 0x1B90 JUMP JUMPDEST SWAP1 JUMP JUMPDEST DUP5 MLOAD DUP1 MLOAD PUSH1 0x1 PUSH1 0x1 PUSH1 0xA0 SHL SUB AND DUP9 MSTORE DUP4 ADD MLOAD DUP8 DUP5 ADD MSTORE SWAP6 DUP7 ADD SWAP6 SWAP4 DUP3 ADD SWAP4 PUSH1 0x1 SWAP1 SWAP2 ADD SWAP1 PUSH2 0x1E3F JUMP JUMPDEST PUSH1 0x1 PUSH1 0x1 PUSH1 0xA0 SHL SUB PUSH2 0x1E75 SWAP5 SWAP4 PUSH8 0xFFFFFFFFFFFFFFFF PUSH1 0x60 SWAP5 AND DUP4 MSTORE AND PUSH1 0x20 DUP3 ADD MSTORE DUP2 PUSH1 0x40 DUP3 ADD MSTORE ADD SWAP1 PUSH2 0x1DF2 JUMP JUMPDEST ISZERO PUSH2 0x1ED7 JUMPI JUMP JUMPDEST PUSH1 0x64 PUSH1 0x40 MLOAD PUSH3 0x461BCD PUSH1 0xE5 SHL DUP2 MSTORE PUSH1 0x20 PUSH1 0x4 DUP3 ADD MSTORE PUSH1 0x18 PUSH1 0x24 DUP3 ADD MSTORE PUSH32 0x417175617269756D20646F6573206E6F742065786973742E0000000000000000 PUSH1 0x44 DUP3 ADD MSTORE REVERT JUMPDEST DUP1 MLOAD ISZERO PUSH2 0x1B7 JUMPI PUSH1 0x20 ADD SWAP1 JUMP JUMPDEST DUP1 MLOAD PUSH1 0x1 LT ISZERO PUSH2 0x1B7 JUMPI PUSH1 0x40 ADD SWAP1 JUMP JUMPDEST DUP2 DUP2 LT PUSH2 0x1F43 JUMPI POP POP JUMP JUMPDEST PUSH1 0x0 DUP2 SSTORE PUSH1 0x1 ADD PUSH2 0x1F38 JUMP JUMPDEST SWAP2 SWAP1 SWAP2 DUP3 MLOAD PUSH8 0xFFFFFFFFFFFFFFFF DUP2 GT PUSH2 0x1CD JUMPI PUSH2 0x1F6D DUP3 SLOAD PUSH2 0x1CEB JUMP JUMPDEST PUSH1 0x1F DUP2 GT PUSH2 0x201D JUMPI JUMPDEST POP PUSH1 0x20 DUP1 PUSH1 0x1F DUP4 GT PUSH1 0x1 EQ PUSH2 0x1FB8 JUMPI POP DUP2 SWAP1 PUSH2 0x1FA9 SWAP4 SWAP5 SWAP6 PUSH1 0x0 SWAP3 PUSH2 0x1FAD JUMPI POP POP PUSH1 0x0 NOT DUP3 PUSH1 0x1 SHL SWAP3 PUSH1 0x3 SHL SHR NOT AND OR SWAP1 JUMP JUMPDEST SWAP1 SSTORE JUMP JUMPDEST ADD MLOAD SWAP1 POP CODESIZE DUP1 PUSH2 0xF9E JUMP JUMPDEST SWAP1 PUSH1 0x1F NOT DUP4 AND SWAP6 DUP5 PUSH1 0x0 MSTORE PUSH1 0x20 PUSH1 0x0 KECCAK256 SWAP3 PUSH1 0x0 SWAP1 JUMPDEST DUP9 DUP3 LT PUSH2 0x2005 JUMPI POP POP DUP4 PUSH1 0x1 SWAP6 SWAP7 SWAP8 LT PUSH2 0x1FEC JUMPI JUMPDEST POP POP POP DUP2 SHL ADD SWAP1 SSTORE JUMP JUMPDEST ADD MLOAD PUSH1 0x0 NOT PUSH1 0xF8 DUP5 PUSH1 0x3 SHL AND SHR NOT AND SWAP1 SSTORE CODESIZE DUP1 DUP1 PUSH2 0x1FE2 JUMP JUMPDEST DUP1 PUSH1 0x1 DUP6 SWAP7 DUP3 SWAP5 SWAP7 DUP7 ADD MLOAD DUP2 SSTORE ADD SWAP6 ADD SWAP4 ADD SWAP1 PUSH2 0x1FCD JUMP JUMPDEST PUSH2 0x204A SWAP1 DUP4 PUSH1 0x0 MSTORE PUSH1 0x20 PUSH1 0x0 KECCAK256 PUSH1 0x1F DUP5 ADD PUSH1 0x5 SHR DUP2 ADD SWAP2 PUSH1 0x20 DUP6 LT PUSH2 0x2050 JUMPI JUMPDEST PUSH1 0x1F ADD PUSH1 0x5 SHR ADD SWAP1 PUSH2 0x1F38 JUMP JUMPDEST CODESIZE PUSH2 0x1F76 JUMP JUMPDEST SWAP1 SWAP2 POP DUP2 SWAP1 PUSH2 0x203D JUMP JUMPDEST SWAP1 SWAP2 DUP3 ADD SWAP2 PUSH1 0x20 DUP2 DUP5 SUB SLT PUSH2 0x1E3 JUMPI DUP1 CALLDATALOAD PUSH8 0xFFFFFFFFFFFFFFFF SWAP2 DUP3 DUP3 GT PUSH2 0x1E3 JUMPI ADD SWAP1 PUSH1 0xC0 DUP3 DUP6 SUB SLT PUSH2 0x1E3 JUMPI PUSH1 0x40 MLOAD SWAP1 PUSH1 0xC0 DUP3 ADD DUP3 DUP2 LT DUP3 DUP3 GT OR PUSH2 0x1CD JUMPI PUSH1 0x40 MSTORE DUP3 CALLDATALOAD DUP2 DUP2 GT PUSH2 0x1E3 JUMPI DUP6 PUSH2 0x20B3 SWAP2 DUP6 ADD PUSH2 0x1B26 JUMP JUMPDEST DUP3 MSTORE PUSH1 0x20 DUP4 ADD CALLDATALOAD SWAP1 DUP2 GT PUSH2 0x1E3 JUMPI PUSH2 0x1E75 SWAP5 PUSH2 0x20D0 SWAP2 DUP5 ADD PUSH2 0x1B26 JUMP JUMPDEST SWAP2 DUP3 PUSH1 0x20 DUP4 ADD MSTORE PUSH1 0x40 DUP2 ADD CALLDATALOAD DUP1 PUSH1 0x40 DUP5 ADD MSTORE PUSH1 0x60 DUP3 ADD CALLDATALOAD SWAP1 DUP2 PUSH1 0x60 DUP6 ADD MSTORE PUSH1 0xA0 PUSH1 0x80 DUP5 ADD CALLDATALOAD SWAP4 DUP5 PUSH1 0x80 DUP8 ADD MSTORE ADD CALLDATALOAD SWAP4 DUP5 PUSH1 0xA0 DUP3 ADD MSTORE MLOAD SWAP5 PUSH1 0x4 SLOAD SWAP6 PUSH1 0x5 SLOAD SWAP8 PUSH2 0x2480 JUMP JUMPDEST SWAP1 CALLDATALOAD SWAP1 PUSH32 0xFFFFFFFFFFFFFFFFFFFFFFFFFFFFFFFFFFFFFFFFFFFFFFFFFFFFFFFFFFFFFFE1 DUP2 CALLDATASIZE SUB ADD DUP3 SLT ISZERO PUSH2 0x1E3 JUMPI ADD DUP1 CALLDATALOAD SWAP1 PUSH8 0xFFFFFFFFFFFFFFFF DUP3 GT PUSH2 0x1E3 JUMPI PUSH1 0x20 ADD SWAP2 DUP2 CALLDATASIZE SUB DUP4 SGT PUSH2 0x1E3 JUMPI JUMP JUMPDEST PUSH1 0x0 SWAP3 SWAP2 PUSH2 0x140 DUP3 ADD SWAP2 PUSH2 0x2179 DUP4 DUP3 PUSH2 0x2114 JUMP JUMPDEST DUP1 SWAP3 SWAP2 POP ISZERO PUSH2 0x227A JUMPI PUSH2 0x218C DUP5 DUP3 PUSH2 0x2114 JUMP JUMPDEST ISZERO PUSH2 0x228F JUMPI CALLDATALOAD SWAP2 PUSH1 0x1 DUP4 PUSH1 0xF8 SHR EQ PUSH1 0x0 EQ PUSH2 0x2284 JUMPI PUSH1 0x7 GT PUSH2 0x227A JUMPI PUSH2 0x21B2 DUP5 DUP3 PUSH2 0x2114 JUMP JUMPDEST PUSH1 0x7 SWAP6 SWAP2 SWAP6 GT PUSH2 0x2276 JUMPI PUSH2 0x21C5 SWAP2 PUSH2 0x2114 JUMP JUMPDEST SWAP3 SWAP1 SWAP6 DUP4 PUSH1 0x7 GT PUSH2 0x2273 JUMPI POP PUSH32 0xFFFFFFFFFFFF0000000000000000000000000000000000000000000000000000 PUSH1 0x1 PUSH32 0xFFFFFFFFFFFFFFFFFFFFFFFFFFFFFFFFFFFFFFFFFFFFFFFFFFFFFFFFFFFFFFF9 PUSH1 0x7 PUSH2 0x2265 SWAP9 SWAP10 ADD SWAP6 ADD SWAP6 PUSH32 0xFF00000000000000000000000000000000000000000000000000000000000000 PUSH1 0x40 MLOAD SWAP6 AND PUSH1 0x20 DUP7 ADD MSTORE ADD CALLDATALOAD AND PUSH1 0x21 DUP4 ADD MSTORE PUSH1 0x27 DUP3 ADD MSTORE PUSH1 0x27 DUP2 MSTORE PUSH2 0x1C6A DUP2 PUSH2 0x1ACB JUMP JUMPDEST PUSH2 0x226E JUMPI PUSH1 0x1 SWAP1 JUMP JUMPDEST PUSH1 0x0 SWAP1 JUMP JUMPDEST DUP1 REVERT JUMPDEST DUP7 DUP1 REVERT JUMPDEST POP PUSH1 0x1 SWAP5 POP POP POP POP JUMP JUMPDEST POP PUSH1 0x1 SWAP6 POP POP POP POP POP JUMP JUMPDEST PUSH1 0x24 DUP8 PUSH4 0x4E487B71 PUSH1 0xE0 SHL DUP2 MSTORE PUSH1 0x32 PUSH1 0x4 MSTORE REVERT JUMPDEST PUSH1 0x40 MLOAD SWAP1 PUSH32 0x97A657C900000000000000000000000000000000000000000000000000000000 PUSH1 0x20 DUP4 ADD MSTORE MLOAD PUSH1 0x24 DUP3 ADD MSTORE PUSH1 0x24 DUP2 MSTORE PUSH2 0x1E75 DUP2 PUSH2 0x1ACB JUMP JUMPDEST MLOAD SWAP1 PUSH1 0x1 PUSH1 0x1 PUSH1 0xA0 SHL SUB DUP3 AND DUP3 SUB PUSH2 0x1E3 JUMPI JUMP JUMPDEST SWAP1 SWAP3 SWAP2 SWAP3 PUSH2 0x2301 DUP2 PUSH2 0x1B0A JUMP JUMPDEST SWAP2 PUSH2 0x230F PUSH1 0x40 MLOAD SWAP4 DUP5 PUSH2 0x1AE7 JUMP JUMPDEST DUP3 SWAP5 DUP3 DUP5 MSTORE DUP3 DUP3 ADD GT PUSH2 0x1E3 JUMPI PUSH1 0x20 PUSH2 0x2329 SWAP4 ADD SWAP1 PUSH2 0x1B6D JUMP JUMPDEST JUMP JUMPDEST PUSH1 0x0 SWAP1 PUSH1 0xA DUP1 SLOAD SWAP3 JUMPDEST DUP4 DUP2 LT PUSH2 0x2344 JUMPI POP POP POP POP PUSH1 0x0 SWAP1 JUMP JUMPDEST DUP2 PUSH1 0x0 MSTORE DUP1 PUSH32 0xC65A7BB8D6351C1CF70C95A316CC6A92839C986682D98BC35F958F4883F9D2A8 ADD PUSH1 0x40 DUP1 MLOAD PUSH1 0x20 SWAP1 DUP2 DUP2 ADD SWAP1 PUSH1 0x0 SWAP5 DUP2 DUP2 SLOAD SWAP7 PUSH2 0x2386 DUP9 PUSH2 0x1CEB JUMP JUMPDEST SWAP3 PUSH1 0x1 SWAP9 DUP8 DUP11 DUP3 AND SWAP2 DUP3 PUSH1 0x0 EQ PUSH2 0x243A JUMPI POP POP PUSH1 0x1 EQ PUSH2 0x23F9 JUMPI JUMPDEST POP PUSH2 0x23B5 SWAP3 POP SUB PUSH1 0x1F NOT DUP2 ADD DUP4 MSTORE DUP3 PUSH2 0x1AE7 JUMP JUMPDEST MLOAD SWAP1 KECCAK256 SWAP2 MLOAD PUSH2 0x23E0 DUP3 DUP3 ADD SWAP3 DUP3 DUP2 PUSH2 0x23D3 DUP12 DUP8 DUP2 MLOAD SWAP4 DUP5 SWAP3 ADD PUSH2 0x1B6D JUMP JUMPDEST DUP2 ADD SUB DUP1 DUP5 MSTORE ADD DUP3 PUSH2 0x1AE7 JUMP JUMPDEST MLOAD SWAP1 KECCAK256 EQ PUSH2 0x23F1 JUMPI POP PUSH1 0x1 ADD PUSH2 0x2334 JUMP JUMPDEST SWAP4 POP POP POP POP SWAP1 JUMP JUMPDEST SWAP2 POP POP PUSH1 0x0 MSTORE DUP2 DUP5 DUP1 PUSH1 0x0 KECCAK256 DUP9 PUSH1 0x0 SWAP2 JUMPDEST DUP6 DUP4 LT PUSH2 0x2421 JUMPI POP POP POP PUSH2 0x23B5 SWAP3 DUP3 ADD ADD CODESIZE PUSH2 0x23A1 JUMP JUMPDEST DUP1 SWAP2 SWAP3 SWAP5 POP SLOAD DUP4 DUP6 DUP9 ADD ADD MSTORE ADD SWAP2 ADD DUP6 SWAP1 DUP9 DUP6 SWAP4 PUSH2 0x240A JUMP JUMPDEST PUSH1 0xFF NOT AND DUP9 MSTORE PUSH2 0x23B5 SWAP6 DUP1 ISZERO ISZERO MUL DUP6 ADD ADD SWAP3 POP CODESIZE SWAP2 POP PUSH2 0x23A1 SWAP1 POP JUMP JUMPDEST SWAP1 DUP2 PUSH1 0x20 SWAP2 SUB SLT PUSH2 0x1E3 JUMPI MLOAD DUP1 ISZERO ISZERO DUP2 SUB PUSH2 0x1E3 JUMPI SWAP1 JUMP JUMPDEST SWAP1 DUP2 MLOAD DUP2 LT ISZERO PUSH2 0x1B7 JUMPI ADD PUSH1 0x20 ADD SWAP1 JUMP JUMPDEST SWAP8 SWAP4 SWAP6 SWAP5 SWAP7 SWAP3 SWAP2 SWAP1 SWAP2 DUP3 MLOAD SWAP9 PUSH1 0x20 SWAP10 DUP11 DUP2 LT SWAP1 DUP2 ISZERO PUSH2 0x28EA JUMPI JUMPDEST POP PUSH2 0x28DB JUMPI PUSH2 0x24E0 PUSH1 0x40 SWAP9 DUP5 DUP13 PUSH32 0x2274797065223A22776562617574686E2E676574220000000000000000000000 DUP13 MLOAD SWAP2 PUSH2 0x24D4 DUP4 PUSH2 0x1A77 JUMP JUMPDEST PUSH1 0x15 DUP4 MSTORE DUP3 ADD MSTORE PUSH2 0x29C4 JUMP JUMPDEST ISZERO PUSH2 0x28DB JUMPI PUSH2 0x24EE SWAP1 PUSH2 0x2A4D JUMP JUMPDEST PUSH1 0x0 DUP2 MLOAD PUSH1 0x2 DUP2 GT SWAP1 DUP2 PUSH2 0x2879 JUMPI JUMPDEST POP ISZERO PUSH2 0x27E8 JUMPI POP PUSH1 0x2 JUMPDEST DUP2 MLOAD SWAP1 DUP2 SUB SWAP1 DUP2 GT PUSH2 0x889 JUMPI DUP11 SWAP3 SWAP2 DUP2 DUP11 PUSH2 0x2522 DUP8 SWAP5 PUSH2 0x1B0A JUMP JUMPDEST SWAP2 PUSH2 0x252F DUP3 MLOAD SWAP4 DUP5 PUSH2 0x1AE7 JUMP JUMPDEST DUP1 DUP4 MSTORE PUSH2 0x253B DUP2 PUSH2 0x1B0A JUMP JUMPDEST SWAP4 PUSH1 0x1F NOT DUP9 DUP6 ADD SWAP6 ADD CALLDATASIZE DUP7 CALLDATACOPY PUSH1 0x0 JUMPDEST DUP3 DUP2 LT PUSH2 0x270B JUMPI POP POP POP PUSH2 0x25D3 SWAP6 PUSH32 0x226368616C6C656E6765223A2200000000000000000000000000000000000000 SWAP4 PUSH2 0x2598 PUSH2 0x25CE SWAP5 PUSH1 0x2E SWAP5 MLOAD SWAP7 DUP8 SWAP5 DUP6 ADD MSTORE MLOAD DUP1 SWAP3 PUSH1 0x2D DUP6 ADD SWAP1 PUSH2 0x1B6D JUMP JUMPDEST DUP2 ADD PUSH32 0x2200000000000000000000000000000000000000000000000000000000000000 PUSH1 0x2D DUP3 ADD MSTORE SUB PUSH1 0xE DUP2 ADD DUP5 MSTORE ADD DUP3 PUSH2 0x1AE7 JUMP JUMPDEST PUSH2 0x29C4 JUMP JUMPDEST ISZERO PUSH2 0x26FE JUMPI PUSH1 0x0 PUSH2 0x25F1 DUP10 SWAP3 DUP4 DUP10 MLOAD SWAP3 DUP3 DUP5 DUP1 SWAP5 MLOAD SWAP4 DUP5 SWAP3 ADD PUSH2 0x1B6D JUMP JUMPDEST DUP2 ADD SUB SWAP1 PUSH1 0x2 GAS STATICCALL ISZERO PUSH2 0x26F3 JUMPI PUSH1 0x0 PUSH2 0x2647 DUP9 SWAP3 DUP3 MLOAD PUSH2 0x2637 DUP10 DUP1 MLOAD DUP1 SWAP4 DUP9 PUSH2 0x2623 DUP2 DUP5 ADD SWAP8 DUP9 DUP2 MLOAD SWAP4 DUP5 SWAP3 ADD PUSH2 0x1B6D JUMP JUMPDEST DUP3 ADD SWAP1 DUP10 DUP3 ADD MSTORE SUB DUP8 DUP2 ADD DUP5 MSTORE ADD DUP3 PUSH2 0x1AE7 JUMP JUMPDEST DUP9 MLOAD SWAP3 DUP4 SWAP3 DUP4 SWAP3 MLOAD SWAP3 DUP4 SWAP2 PUSH2 0x1B6D JUMP JUMPDEST DUP2 ADD SUB SWAP1 PUSH1 0x2 GAS STATICCALL ISZERO PUSH2 0x26E8 JUMPI PUSH1 0x0 MLOAD SWAP3 DUP5 MLOAD SWAP6 DUP8 DUP8 ADD SWAP5 DUP6 MSTORE DUP6 DUP8 ADD MSTORE PUSH1 0x60 DUP7 ADD MSTORE PUSH1 0x80 DUP6 ADD MSTORE PUSH1 0xA0 DUP5 ADD MSTORE PUSH1 0xA0 DUP4 MSTORE PUSH1 0xC0 DUP4 ADD SWAP3 DUP1 DUP5 LT PUSH8 0xFFFFFFFFFFFFFFFF DUP6 GT OR PUSH2 0x1CD JUMPI PUSH1 0x0 SWAP4 DUP5 SWAP4 MSTORE MLOAD SWAP1 PUSH20 0x94474DB941CB2D89F3DBD946AAEC40054C30A9CD GAS STATICCALL SWAP1 PUSH2 0x26B8 PUSH2 0x1CBB JUMP JUMPDEST SWAP2 ISZERO PUSH2 0x26D2 JUMPI DUP1 DUP3 DUP1 MLOAD DUP2 ADD SUB SLT PUSH2 0x1E3 JUMPI ADD MLOAD PUSH1 0x1 EQ SWAP1 JUMP JUMPDEST PUSH4 0x4E487B71 PUSH1 0xE0 SHL PUSH1 0x0 MSTORE PUSH1 0x1 PUSH1 0x4 MSTORE PUSH1 0x24 PUSH1 0x0 REVERT JUMPDEST DUP4 MLOAD RETURNDATASIZE PUSH1 0x0 DUP3 RETURNDATACOPY RETURNDATASIZE SWAP1 REVERT JUMPDEST DUP5 MLOAD RETURNDATASIZE PUSH1 0x0 DUP3 RETURNDATACOPY RETURNDATASIZE SWAP1 REVERT JUMPDEST POP POP POP POP POP POP POP POP PUSH1 0x0 SWAP1 JUMP JUMPDEST SWAP2 SWAP5 SWAP7 SWAP8 POP SWAP3 SWAP5 POP PUSH1 0x1 SWAP2 POP PUSH32 0xFF00000000000000000000000000000000000000000000000000000000000000 PUSH32 0x2B00000000000000000000000000000000000000000000000000000000000000 DUP2 PUSH2 0x2764 DUP5 DUP8 PUSH2 0x246F JUMP JUMPDEST MLOAD AND SUB PUSH2 0x2789 JUMPI POP PUSH1 0x2D PUSH2 0x2778 DUP3 DUP8 PUSH2 0x246F JUMP JUMPDEST MSTORE8 JUMPDEST ADD DUP14 SWAP6 SWAP5 SWAP3 DUP8 SWAP5 SWAP3 DUP14 SWAP3 PUSH2 0x254A JUMP JUMPDEST PUSH32 0x2F00000000000000000000000000000000000000000000000000000000000000 DUP2 PUSH2 0x27B5 DUP5 DUP8 PUSH2 0x246F JUMP JUMPDEST MLOAD AND SUB PUSH2 0x27CF JUMPI POP PUSH1 0x5F PUSH2 0x27C9 DUP3 DUP8 PUSH2 0x246F JUMP JUMPDEST MSTORE8 PUSH2 0x277A JUMP JUMPDEST PUSH2 0x27D9 DUP3 DUP6 PUSH2 0x246F JUMP JUMPDEST MLOAD AND PUSH1 0x0 BYTE PUSH2 0x27C9 DUP3 DUP8 PUSH2 0x246F JUMP JUMPDEST DUP2 MLOAD PUSH1 0x1 DUP2 GT SWAP1 DUP2 PUSH2 0x2803 JUMPI JUMPDEST POP ISZERO PUSH2 0x2507 JUMPI POP PUSH1 0x1 PUSH2 0x2507 JUMP JUMPDEST PUSH1 0x0 NOT DUP2 ADD SWAP2 POP DUP2 GT PUSH2 0x2865 JUMPI PUSH32 0xFF00000000000000000000000000000000000000000000000000000000000000 PUSH2 0x285C PUSH32 0x3D00000000000000000000000000000000000000000000000000000000000000 SWAP3 DUP6 PUSH2 0x246F JUMP JUMPDEST MLOAD AND EQ CODESIZE PUSH2 0x27F5 JUMP JUMPDEST PUSH1 0x24 DUP3 PUSH4 0x4E487B71 PUSH1 0xE0 SHL DUP2 MSTORE PUSH1 0x11 PUSH1 0x4 MSTORE REVERT JUMPDEST PUSH1 0x1 NOT DUP2 ADD SWAP2 POP DUP2 GT PUSH2 0x2865 JUMPI PUSH32 0xFF00000000000000000000000000000000000000000000000000000000000000 PUSH2 0x28D2 PUSH32 0x3D00000000000000000000000000000000000000000000000000000000000000 SWAP3 DUP6 PUSH2 0x246F JUMP JUMPDEST MLOAD AND EQ CODESIZE PUSH2 0x24FD JUMP JUMPDEST POP POP POP POP POP POP POP POP POP POP PUSH1 0x0 SWAP1 JUMP JUMPDEST SWAP1 POP DUP11 LT ISZERO PUSH2 0x1B7 JUMPI PUSH2 0x2922 PUSH32 0xFF00000000000000000000000000000000000000000000000000000000000000 PUSH1 0x40 DUP7 ADD MLOAD AND PUSH2 0x2929 JUMP JUMPDEST ISZERO CODESIZE PUSH2 0x249A JUMP JUMPDEST PUSH32 0x100000000000000000000000000000000000000000000000000000000000000 DUP1 DUP3 AND SUB PUSH2 0x29B1 JUMPI PUSH32 0x800000000000000000000000000000000000000000000000000000000000000 DUP1 DUP3 AND SUB PUSH2 0x2982 JUMPI JUMPDEST POP PUSH1 0x1 SWAP1 JUMP JUMPDEST PUSH32 0x1000000000000000000000000000000000000000000000000000000000000000 DUP1 SWAP2 AND EQ PUSH2 0x226E JUMPI CODESIZE PUSH2 0x297C JUMP JUMPDEST POP PUSH1 0x0 SWAP1 JUMP JUMPDEST SWAP2 SWAP1 DUP3 ADD DUP1 SWAP3 GT PUSH2 0x889 JUMPI JUMP JUMPDEST SWAP2 SWAP1 DUP3 MLOAD SWAP3 DUP2 MLOAD PUSH1 0x0 JUMPDEST DUP6 DUP2 LT PUSH2 0x29E0 JUMPI POP POP POP POP POP POP PUSH1 0x1 SWAP1 JUMP JUMPDEST DUP2 PUSH2 0x29EB DUP3 DUP8 PUSH2 0x29B7 JUMP JUMPDEST LT ISZERO PUSH2 0x2A42 JUMPI PUSH32 0xFF00000000000000000000000000000000000000000000000000000000000000 DUP1 PUSH2 0x2A1D DUP4 DUP7 PUSH2 0x246F JUMP JUMPDEST MLOAD AND SWAP1 PUSH2 0x2A33 PUSH2 0x2A2D DUP5 DUP10 PUSH2 0x29B7 JUMP JUMPDEST DUP8 PUSH2 0x246F JUMP JUMPDEST MLOAD AND SUB PUSH2 0x2A42 JUMPI PUSH1 0x1 ADD PUSH2 0x29CE JUMP JUMPDEST POP POP POP POP POP POP PUSH1 0x0 SWAP1 JUMP JUMPDEST SWAP1 DUP2 MLOAD ISZERO PUSH2 0x2BCD JUMPI PUSH1 0x40 MLOAD SWAP2 PUSH2 0x2A62 DUP4 PUSH2 0x1ACB JUMP JUMPDEST PUSH1 0x40 DUP4 MSTORE PUSH32 0x4142434445464748494A4B4C4D4E4F505152535455565758595A616263646566 PUSH1 0x20 DUP5 ADD MSTORE PUSH32 0x6768696A6B6C6D6E6F707172737475767778797A303132333435363738392B2F PUSH1 0x40 DUP5 ADD MSTORE DUP1 MLOAD SWAP3 PUSH1 0x2 SWAP2 PUSH1 0x2 DUP6 ADD DUP1 SWAP6 GT PUSH2 0x889 JUMPI PUSH1 0x3 DUP1 SWAP6 DIV SWAP3 DUP4 PUSH1 0x2 SHL SWAP4 PUSH32 0x3FFFFFFFFFFFFFFFFFFFFFFFFFFFFFFFFFFFFFFFFFFFFFFFFFFFFFFFFFFFFFFF DUP2 AND SUB PUSH2 0x889 JUMPI SWAP5 PUSH2 0x2B19 PUSH2 0x2B03 DUP6 PUSH2 0x1B0A JUMP JUMPDEST SWAP5 PUSH2 0x2B11 PUSH1 0x40 MLOAD SWAP7 DUP8 PUSH2 0x1AE7 JUMP JUMPDEST DUP1 DUP7 MSTORE PUSH2 0x1B0A JUMP JUMPDEST PUSH1 0x1F NOT PUSH1 0x20 DUP7 ADD SWAP2 ADD CALLDATASIZE DUP3 CALLDATACOPY SWAP3 DUP3 SWAP2 DUP4 MLOAD DUP5 ADD SWAP8 PUSH1 0x20 DUP10 ADD SWAP3 DUP4 MLOAD SWAP5 PUSH1 0x0 DUP6 MSTORE JUMPDEST DUP11 DUP2 LT PUSH2 0x2B80 JUMPI POP POP POP POP PUSH1 0x3 SWAP4 SWAP5 SWAP6 SWAP7 POP MSTORE MLOAD MOD DUP1 PUSH1 0x1 EQ PUSH2 0x2B6D JUMPI PUSH1 0x2 EQ PUSH2 0x2B62 JUMPI POP SWAP1 JUMP JUMPDEST PUSH1 0x0 NOT PUSH1 0x3D SWAP2 ADD MSTORE8 SWAP1 JUMP JUMPDEST POP PUSH1 0x1 NOT DUP2 PUSH1 0x3D PUSH1 0x0 NOT DUP2 SWAP5 ADD MSTORE8 ADD MSTORE8 SWAP1 JUMP JUMPDEST DUP4 PUSH1 0x4 SWAP2 SWAP12 SWAP9 SWAP12 ADD SWAP11 DUP12 MLOAD PUSH1 0x1 SWAP1 PUSH1 0x3F SWAP1 DUP3 DUP3 DUP3 PUSH1 0x12 SHR AND DUP8 ADD ADD MLOAD DUP5 MSTORE8 DUP3 DUP3 DUP3 PUSH1 0xC SHR AND DUP8 ADD ADD MLOAD DUP4 DUP6 ADD MSTORE8 DUP3 DUP3 DUP3 PUSH1 0x6 SHR AND DUP8 ADD ADD MLOAD DUP8 DUP6 ADD MSTORE8 AND DUP5 ADD ADD MLOAD DUP6 DUP3 ADD MSTORE8 ADD SWAP7 SWAP10 PUSH2 0x2B3A JUMP JUMPDEST SWAP1 POP PUSH1 0x40 MLOAD PUSH2 0x2BDB DUP2 PUSH2 0x1A93 JUMP JUMPDEST PUSH1 0x0 DUP2 MSTORE SWAP1 JUMP INVALID LOG2 PUSH5 0x6970667358 0x22 SLT KECCAK256 DUP4 0xAE MOD 0xE5 0xA8 STOP 0xBF CALLCODE 0xBA DUP12 PUSH20 0x55AFE897C33AE54B69485BAEEFA1C4E07A5A8F3E SWAP16 PUSH5 0x736F6C6343 STOP ADDMOD XOR STOP CALLER "},"methodIdentifiers":{"SALT()":"ba9a91a5","accountImplementation()":"11464fbe","createAccount(bytes32[2])":"00ab22e5","getCounterfactualAddress(bytes32[2])":"d8cd1ecc","getUser(string)":"31feb671","saveUser(string,bytes32[2])":"2b455763","users(string)":"689e1c03"}}}}}