{"contracts/Creator.sol":{"Creator":{"abi":[{"inputs":[{"internalType":"address","name":"_owner","type":"address"},{"internalType":"address","name":"_ccipRouter","type":"address"}],"stateMutability":"nonpayable","type":"constructor"},{"inputs":[{"internalType":"address","name":"router","type":"address"}],"name":"InvalidRouter","type":"error"},{"anonymous":false,"inputs":[{"indexed":false,"internalType":"bool","name":"success","type":"bool"},{"indexed":false,"internalType":"bytes","name":"data","type":"bytes"}],"name":"CallResult","type":"event"},{"anonymous":false,"inputs":[{"indexed":false,"internalType":"address","name":"account","type":"address"}],"name":"CreatedAccount","type":"event"},{"inputs":[{"components":[{"internalType":"bytes32","name":"messageId","type":"bytes32"},{"internalType":"uint64","name":"sourceChainSelector","type":"uint64"},{"internalType":"bytes","name":"sender","type":"bytes"},{"internalType":"bytes","name":"data","type":"bytes"},{"components":[{"internalType":"address","name":"token","type":"address"},{"internalType":"uint256","name":"amount","type":"uint256"}],"internalType":"struct Client.EVMTokenAmount[]","name":"destTokenAmounts","type":"tuple[]"}],"internalType":"struct Client.Any2EVMMessage","name":"message","type":"tuple"}],"name":"ccipReceive","outputs":[],"stateMutability":"nonpayable","type":"function"},{"inputs":[],"name":"creationAddress","outputs":[{"internalType":"address","name":"","type":"address"}],"stateMutability":"view","type":"function"},{"inputs":[],"name":"d_AAFactory","outputs":[{"internalType":"address","name":"","type":"address"}],"stateMutability":"view","type":"function"},{"inputs":[],"name":"d_AAUser","outputs":[{"internalType":"address","name":"","type":"address"}],"stateMutability":"view","type":"function"},{"inputs":[],"name":"d_multiplex","outputs":[{"internalType":"uint8","name":"","type":"uint8"}],"stateMutability":"view","type":"function"},{"inputs":[],"name":"d_nativeAccount","outputs":[{"internalType":"address","name":"","type":"address"}],"stateMutability":"view","type":"function"},{"inputs":[],"name":"d_router","outputs":[{"internalType":"address","name":"","type":"address"}],"stateMutability":"view","type":"function"},{"inputs":[],"name":"getLastReceivedMessageDetails","outputs":[{"internalType":"bytes32","name":"messageId","type":"bytes32"},{"internalType":"string","name":"text","type":"string"},{"internalType":"bytes","name":"textBytes","type":"bytes"}],"stateMutability":"view","type":"function"},{"inputs":[],"name":"getRouter","outputs":[{"internalType":"address","name":"","type":"address"}],"stateMutability":"view","type":"function"},{"inputs":[],"name":"latestSourceMessage","outputs":[{"internalType":"bytes32","name":"","type":"bytes32"}],"stateMutability":"view","type":"function"},{"inputs":[],"name":"owner","outputs":[{"internalType":"address","name":"","type":"address"}],"stateMutability":"view","type":"function"},{"inputs":[{"internalType":"bytes4","name":"interfaceId","type":"bytes4"}],"name":"supportsInterface","outputs":[{"internalType":"bool","name":"","type":"bool"}],"stateMutability":"pure","type":"function"},{"stateMutability":"payable","type":"receive"}],"evm":{"bytecode":{"linkReferences":{},"object":"60a0346100b057601f61102138819003918201601f19168301916001600160401b038311848410176100b55780849260409485528339810103126100b057610052602061004b836100cb565b92016100cb565b6001600160a01b03919082811615610097576080521660018060a01b03196000541617600055604051610f4190816100e082396080518181816103df01526105030152f35b6040516335fdcccd60e21b815260006004820152602490fd5b600080fd5b634e487b7160e01b600052604160045260246000fd5b51906001600160a01b03821682036100b05756fe6080604052600436101561001b575b361561001957600080fd5b005b60003560e01c806301d3f286146100db57806301ffc9a7146100d65780630eae5600146100d1578063263596a5146100cc57806326e4bcfb146100c757806347af954d146100c2578063837cee9a146100bd57806385572ffb146100b85780638da5cb5b146100b3578063b0f479a1146100ae578063bd0b8ae8146100a95763e700068c0361000e5761054e565b610527565b6104e3565b6104bc565b6103a0565b61037c565b610355565b610337565b610217565b6101a8565b610107565b346101025760006003193601126101025760206001600160a01b0360085416604051908152f35b600080fd5b34610102576020600319360112610102576004357fffffffff00000000000000000000000000000000000000000000000000000000811680910361010257807f85572ffb000000000000000000000000000000000000000000000000000000006020921490811561017e575b506040519015158152f35b7f01ffc9a70000000000000000000000000000000000000000000000000000000091501438610173565b346101025760006003193601126101025760206001600160a01b0360075416604051908152f35b60005b8381106101e25750506000910152565b81810151838201526020016101d2565b90601f19601f602093610210815180928187528780880191016101cf565b0116010190565b3461010257600080600319360112610334576003546040519082916005549361023f85610575565b90818352602095869160019160018116908160001461031157506001146102b7575b82866102b387610273818c03826106cd565b6102a56040519161028e83610287816105c8565b03846106cd565b6060604051968796875286015260608501906101f2565b9083820360408501526101f2565b0390f35b92919550600583527f036b6384b5eca791c62761152d0c79bb0604c104a5fb6f4eb0703f3154bb3db05b8284106102fe57505050810190920191610273846102b383610261565b80548585018801529286019281016102e1565b60ff19168487015250505090151560051b8201019250610273846102b383610261565b80fd5b34610102576000600319360112610102576020600254604051908152f35b346101025760006003193601126101025760206001600160a01b0360015416604051908152f35b3461010257600060031936011261010257602060ff60095460a01c16604051908152f35b34610102576003196020813601126101025760049081359067ffffffffffffffff908183116101025760a0908336030112610102576001600160a01b037f000000000000000000000000000000000000000000000000000000000000000016330361048c5761040d6106f0565b9180840135835261042060248201610710565b602084015260448101358281116101025761044090853691840101610741565b604084015260648101358281116101025761046090853691840101610741565b6060840152608481013591821161010257610019936104829236920101610799565b6080820152610c5a565b6040517fd7f733340000000000000000000000000000000000000000000000000000000081523381850152602490fd5b346101025760006003193601126101025760206001600160a01b0360005416604051908152f35b346101025760006003193601126101025760206040516001600160a01b037f0000000000000000000000000000000000000000000000000000000000000000168152f35b346101025760006003193601126101025760206001600160a01b0360095416604051908152f35b346101025760006003193601126101025760206001600160a01b0360065416604051908152f35b90600182811c921680156105be575b602083101461058f57565b7f4e487b7100000000000000000000000000000000000000000000000000000000600052602260045260246000fd5b91607f1691610584565b600454600092916105d882610575565b8082529160209060019081811690811561065757506001146105fb575b50505050565b9293945060046000527f8a35acfbc15ff81a39ae7d344fd709f28e8600b4aa8c65c6b64bfe7fe36bd19b926000935b8585106106445750505060209250010190388080806105f5565b805485850184015293820193810161062a565b915050602094955060ff1991509291921683830152151560051b010190388080806105f5565b7f4e487b7100000000000000000000000000000000000000000000000000000000600052604160045260246000fd5b6040810190811067ffffffffffffffff8211176106c857604052565b61067d565b90601f601f19910116810190811067ffffffffffffffff8211176106c857604052565b6040519060a0820182811067ffffffffffffffff8211176106c857604052565b359067ffffffffffffffff8216820361010257565b67ffffffffffffffff81116106c857601f01601f191660200190565b81601f820112156101025780359061075882610725565b9261076660405194856106cd565b8284526020838301011161010257816000926020809301838601378301015290565b6001600160a01b0381160361010257565b81601f8201121561010257803590602067ffffffffffffffff83116106c857604092604051946107ce838360051b01876106cd565b818652828087019260061b85010193818511610102578301915b8483106107f85750505050505090565b858383031261010257838691825161080f816106ac565b853561081a81610788565b815282860135838201528152019201916107e8565b9092919261083c81610725565b9161084a60405193846106cd565b8294828452828201116101025760206108649301906101cf565b565b909160608284031261010257815160ff811681036101025792602083015161088d81610788565b9260408101519067ffffffffffffffff821161010257019080601f830112156101025781516108be9260200161082f565b90565b9081602091031261010257516108be81610788565b3d15610901573d906108e782610725565b916108f560405193846106cd565b82523d6000602084013e565b606090565b1561090d57565b60646040517f08c379a000000000000000000000000000000000000000000000000000000000815260206004820152601560248201527f4c6f772d6c6576656c2063616c6c206661696c656400000000000000000000006044820152fd5b6020818303126101025780519067ffffffffffffffff821161010257019080601f830112156101025781516108be9260200161082f565b601f81116109ae575050565b60009060056000527f036b6384b5eca791c62761152d0c79bb0604c104a5fb6f4eb0703f3154bb3db0906020601f850160051c83019410610a0a575b601f0160051c01915b8281106109ff57505050565b8181556001016109f3565b90925082906109ea565b601f8111610a20575050565b60009060046000527f8a35acfbc15ff81a39ae7d344fd709f28e8600b4aa8c65c6b64bfe7fe36bd19b906020601f850160051c83019410610a7c575b601f0160051c01915b828110610a7157505050565b818155600101610a65565b9092508290610a5c565b90815167ffffffffffffffff81116106c857610aac81610aa7600554610575565b6109a2565b602080601f8311600114610aee57508190610ade9394600092610ae3575b50506000198260011b9260031b1c19161790565b600555565b015190503880610aca565b90601f19831694610b2160056000527f036b6384b5eca791c62761152d0c79bb0604c104a5fb6f4eb0703f3154bb3db090565b926000905b878210610b5e575050836001959610610b45575b505050811b01600555565b015160001960f88460031b161c19169055388080610b3a565b80600185968294968601518155019501930190610b26565b90815167ffffffffffffffff81116106c857610b9c81610b97600454610575565b610a14565b602080601f8311600114610bd257508190610bcd9394600092610ae35750506000198260011b9260031b1c19161790565b600455565b90601f19831694610c0560046000527f8a35acfbc15ff81a39ae7d344fd709f28e8600b4aa8c65c6b64bfe7fe36bd19b90565b926000905b878210610c42575050836001959610610c29575b505050811b01600455565b015160001960f88460031b161c19169055388080610c1e565b80600185968294968601518155019501930190610c0a565b61086490610e4e610e496060830192610e3a8451916001600160a01b03610c8c84519460208080978301019101610866565b91921660ff610cb6610caa60408701518980825183010191016108c1565b6001600160a01b031690565b93610ddf60446024860151950151610db660405196610d8d8c8901997f42441339000000000000000000000000000000000000000000000000000000008b52610d378a610d298388876024850191604091949360608401956001600160a01b039283809216865216602085015216910152565b03601f1981018c528b6106cd565b610d64896001600160a01b031673ffffffffffffffffffffffffffffffffffffffff196009541617600955565b6001600160a01b031673ffffffffffffffffffffffffffffffffffffffff196006541617600655565b6001600160a01b031673ffffffffffffffffffffffffffffffffffffffff196007541617600755565b6001600160a01b031673ffffffffffffffffffffffffffffffffffffffff196008541617600855565b610e2a817fffffffffffffffffffffff00ffffffffffffffffffffffffffffffffffffffff74ff00000000000000000000000000000000000000006009549260a01b16911617600955565b1615610e54575b50505051600355565b8351805181018201910161096b565b610a86565b51610b76565b600080610caa92610eb09582610e879651925af1610e79610e736108d6565b91610906565b8680825183010191016108c1565b6001600160a01b031673ffffffffffffffffffffffffffffffffffffffff196001541617600155565b7f9a99f061244371663ac486f29204cfb3ce10dec6b603f0a69a3eb90ed3891cee610f00610ee66001546001600160a01b031690565b6040516001600160a01b0390911681529081906020820190565b0390a1388080610e3156fea2646970667358221220e1bd0b630f5a538148c6062cdad193f77d0b50f9dbee166e98590248073a9c5d64736f6c63430008180033","opcodes":"PUSH1 0xA0 CALLVALUE PUSH2 0xB0 JUMPI PUSH1 0x1F PUSH2 0x1021 CODESIZE DUP2 SWAP1 SUB SWAP2 DUP3 ADD PUSH1 0x1F NOT AND DUP4 ADD SWAP2 PUSH1 0x1 PUSH1 0x1 PUSH1 0x40 SHL SUB DUP4 GT DUP5 DUP5 LT OR PUSH2 0xB5 JUMPI DUP1 DUP5 SWAP3 PUSH1 0x40 SWAP5 DUP6 MSTORE DUP4 CODECOPY DUP2 ADD SUB SLT PUSH2 0xB0 JUMPI PUSH2 0x52 PUSH1 0x20 PUSH2 0x4B DUP4 PUSH2 0xCB JUMP JUMPDEST SWAP3 ADD PUSH2 0xCB JUMP JUMPDEST PUSH1 0x1 PUSH1 0x1 PUSH1 0xA0 SHL SUB SWAP2 SWAP1 DUP3 DUP2 AND ISZERO PUSH2 0x97 JUMPI PUSH1 0x80 MSTORE AND PUSH1 0x1 DUP1 PUSH1 0xA0 SHL SUB NOT PUSH1 0x0 SLOAD AND OR PUSH1 0x0 SSTORE PUSH1 0x40 MLOAD PUSH2 0xF41 SWAP1 DUP2 PUSH2 0xE0 DUP3 CODECOPY PUSH1 0x80 MLOAD DUP2 DUP2 DUP2 PUSH2 0x3DF ADD MSTORE PUSH2 0x503 ADD MSTORE RETURN JUMPDEST PUSH1 0x40 MLOAD PUSH4 0x35FDCCCD PUSH1 0xE2 SHL DUP2 MSTORE PUSH1 0x0 PUSH1 0x4 DUP3 ADD MSTORE PUSH1 0x24 SWAP1 REVERT JUMPDEST PUSH1 0x0 DUP1 REVERT JUMPDEST PUSH4 0x4E487B71 PUSH1 0xE0 SHL PUSH1 0x0 MSTORE PUSH1 0x41 PUSH1 0x4 MSTORE PUSH1 0x24 PUSH1 0x0 REVERT JUMPDEST MLOAD SWAP1 PUSH1 0x1 PUSH1 0x1 PUSH1 0xA0 SHL SUB DUP3 AND DUP3 SUB PUSH2 0xB0 JUMPI JUMP INVALID PUSH1 0x80 PUSH1 0x40 MSTORE PUSH1 0x4 CALLDATASIZE LT ISZERO PUSH2 0x1B JUMPI JUMPDEST CALLDATASIZE ISZERO PUSH2 0x19 JUMPI PUSH1 0x0 DUP1 REVERT JUMPDEST STOP JUMPDEST PUSH1 0x0 CALLDATALOAD PUSH1 0xE0 SHR DUP1 PUSH4 0x1D3F286 EQ PUSH2 0xDB JUMPI DUP1 PUSH4 0x1FFC9A7 EQ PUSH2 0xD6 JUMPI DUP1 PUSH4 0xEAE5600 EQ PUSH2 0xD1 JUMPI DUP1 PUSH4 0x263596A5 EQ PUSH2 0xCC JUMPI DUP1 PUSH4 0x26E4BCFB EQ PUSH2 0xC7 JUMPI DUP1 PUSH4 0x47AF954D EQ PUSH2 0xC2 JUMPI DUP1 PUSH4 0x837CEE9A EQ PUSH2 0xBD JUMPI DUP1 PUSH4 0x85572FFB EQ PUSH2 0xB8 JUMPI DUP1 PUSH4 0x8DA5CB5B EQ PUSH2 0xB3 JUMPI DUP1 PUSH4 0xB0F479A1 EQ PUSH2 0xAE JUMPI DUP1 PUSH4 0xBD0B8AE8 EQ PUSH2 0xA9 JUMPI PUSH4 0xE700068C SUB PUSH2 0xE JUMPI PUSH2 0x54E JUMP JUMPDEST PUSH2 0x527 JUMP JUMPDEST PUSH2 0x4E3 JUMP JUMPDEST PUSH2 0x4BC JUMP JUMPDEST PUSH2 0x3A0 JUMP JUMPDEST PUSH2 0x37C JUMP JUMPDEST PUSH2 0x355 JUMP JUMPDEST PUSH2 0x337 JUMP JUMPDEST PUSH2 0x217 JUMP JUMPDEST PUSH2 0x1A8 JUMP JUMPDEST PUSH2 0x107 JUMP JUMPDEST CALLVALUE PUSH2 0x102 JUMPI PUSH1 0x0 PUSH1 0x3 NOT CALLDATASIZE ADD SLT PUSH2 0x102 JUMPI PUSH1 0x20 PUSH1 0x1 PUSH1 0x1 PUSH1 0xA0 SHL SUB PUSH1 0x8 SLOAD AND PUSH1 0x40 MLOAD SWAP1 DUP2 MSTORE RETURN JUMPDEST PUSH1 0x0 DUP1 REVERT JUMPDEST CALLVALUE PUSH2 0x102 JUMPI PUSH1 0x20 PUSH1 0x3 NOT CALLDATASIZE ADD SLT PUSH2 0x102 JUMPI PUSH1 0x4 CALLDATALOAD PUSH32 0xFFFFFFFF00000000000000000000000000000000000000000000000000000000 DUP2 AND DUP1 SWAP2 SUB PUSH2 0x102 JUMPI DUP1 PUSH32 0x85572FFB00000000000000000000000000000000000000000000000000000000 PUSH1 0x20 SWAP3 EQ SWAP1 DUP2 ISZERO PUSH2 0x17E JUMPI JUMPDEST POP PUSH1 0x40 MLOAD SWAP1 ISZERO ISZERO DUP2 MSTORE RETURN JUMPDEST PUSH32 0x1FFC9A700000000000000000000000000000000000000000000000000000000 SWAP2 POP EQ CODESIZE PUSH2 0x173 JUMP JUMPDEST CALLVALUE PUSH2 0x102 JUMPI PUSH1 0x0 PUSH1 0x3 NOT CALLDATASIZE ADD SLT PUSH2 0x102 JUMPI PUSH1 0x20 PUSH1 0x1 PUSH1 0x1 PUSH1 0xA0 SHL SUB PUSH1 0x7 SLOAD AND PUSH1 0x40 MLOAD SWAP1 DUP2 MSTORE RETURN JUMPDEST PUSH1 0x0 JUMPDEST DUP4 DUP2 LT PUSH2 0x1E2 JUMPI POP POP PUSH1 0x0 SWAP2 ADD MSTORE JUMP JUMPDEST DUP2 DUP2 ADD MLOAD DUP4 DUP3 ADD MSTORE PUSH1 0x20 ADD PUSH2 0x1D2 JUMP JUMPDEST SWAP1 PUSH1 0x1F NOT PUSH1 0x1F PUSH1 0x20 SWAP4 PUSH2 0x210 DUP2 MLOAD DUP1 SWAP3 DUP2 DUP8 MSTORE DUP8 DUP1 DUP9 ADD SWAP2 ADD PUSH2 0x1CF JUMP JUMPDEST ADD AND ADD ADD SWAP1 JUMP JUMPDEST CALLVALUE PUSH2 0x102 JUMPI PUSH1 0x0 DUP1 PUSH1 0x3 NOT CALLDATASIZE ADD SLT PUSH2 0x334 JUMPI PUSH1 0x3 SLOAD PUSH1 0x40 MLOAD SWAP1 DUP3 SWAP2 PUSH1 0x5 SLOAD SWAP4 PUSH2 0x23F DUP6 PUSH2 0x575 JUMP JUMPDEST SWAP1 DUP2 DUP4 MSTORE PUSH1 0x20 SWAP6 DUP7 SWAP2 PUSH1 0x1 SWAP2 PUSH1 0x1 DUP2 AND SWAP1 DUP2 PUSH1 0x0 EQ PUSH2 0x311 JUMPI POP PUSH1 0x1 EQ PUSH2 0x2B7 JUMPI JUMPDEST DUP3 DUP7 PUSH2 0x2B3 DUP8 PUSH2 0x273 DUP2 DUP13 SUB DUP3 PUSH2 0x6CD JUMP JUMPDEST PUSH2 0x2A5 PUSH1 0x40 MLOAD SWAP2 PUSH2 0x28E DUP4 PUSH2 0x287 DUP2 PUSH2 0x5C8 JUMP JUMPDEST SUB DUP5 PUSH2 0x6CD JUMP JUMPDEST PUSH1 0x60 PUSH1 0x40 MLOAD SWAP7 DUP8 SWAP7 DUP8 MSTORE DUP7 ADD MSTORE PUSH1 0x60 DUP6 ADD SWAP1 PUSH2 0x1F2 JUMP JUMPDEST SWAP1 DUP4 DUP3 SUB PUSH1 0x40 DUP6 ADD MSTORE PUSH2 0x1F2 JUMP JUMPDEST SUB SWAP1 RETURN JUMPDEST SWAP3 SWAP2 SWAP6 POP PUSH1 0x5 DUP4 MSTORE PUSH32 0x36B6384B5ECA791C62761152D0C79BB0604C104A5FB6F4EB0703F3154BB3DB0 JUMPDEST DUP3 DUP5 LT PUSH2 0x2FE JUMPI POP POP POP DUP2 ADD SWAP1 SWAP3 ADD SWAP2 PUSH2 0x273 DUP5 PUSH2 0x2B3 DUP4 PUSH2 0x261 JUMP JUMPDEST DUP1 SLOAD DUP6 DUP6 ADD DUP9 ADD MSTORE SWAP3 DUP7 ADD SWAP3 DUP2 ADD PUSH2 0x2E1 JUMP JUMPDEST PUSH1 0xFF NOT AND DUP5 DUP8 ADD MSTORE POP POP POP SWAP1 ISZERO ISZERO PUSH1 0x5 SHL DUP3 ADD ADD SWAP3 POP PUSH2 0x273 DUP5 PUSH2 0x2B3 DUP4 PUSH2 0x261 JUMP JUMPDEST DUP1 REVERT JUMPDEST CALLVALUE PUSH2 0x102 JUMPI PUSH1 0x0 PUSH1 0x3 NOT CALLDATASIZE ADD SLT PUSH2 0x102 JUMPI PUSH1 0x20 PUSH1 0x2 SLOAD PUSH1 0x40 MLOAD SWAP1 DUP2 MSTORE RETURN JUMPDEST CALLVALUE PUSH2 0x102 JUMPI PUSH1 0x0 PUSH1 0x3 NOT CALLDATASIZE ADD SLT PUSH2 0x102 JUMPI PUSH1 0x20 PUSH1 0x1 PUSH1 0x1 PUSH1 0xA0 SHL SUB PUSH1 0x1 SLOAD AND PUSH1 0x40 MLOAD SWAP1 DUP2 MSTORE RETURN JUMPDEST CALLVALUE PUSH2 0x102 JUMPI PUSH1 0x0 PUSH1 0x3 NOT CALLDATASIZE ADD SLT PUSH2 0x102 JUMPI PUSH1 0x20 PUSH1 0xFF PUSH1 0x9 SLOAD PUSH1 0xA0 SHR AND PUSH1 0x40 MLOAD SWAP1 DUP2 MSTORE RETURN JUMPDEST CALLVALUE PUSH2 0x102 JUMPI PUSH1 0x3 NOT PUSH1 0x20 DUP2 CALLDATASIZE ADD SLT PUSH2 0x102 JUMPI PUSH1 0x4 SWAP1 DUP2 CALLDATALOAD SWAP1 PUSH8 0xFFFFFFFFFFFFFFFF SWAP1 DUP2 DUP4 GT PUSH2 0x102 JUMPI PUSH1 0xA0 SWAP1 DUP4 CALLDATASIZE SUB ADD SLT PUSH2 0x102 JUMPI PUSH1 0x1 PUSH1 0x1 PUSH1 0xA0 SHL SUB PUSH32 0x0 AND CALLER SUB PUSH2 0x48C JUMPI PUSH2 0x40D PUSH2 0x6F0 JUMP JUMPDEST SWAP2 DUP1 DUP5 ADD CALLDATALOAD DUP4 MSTORE PUSH2 0x420 PUSH1 0x24 DUP3 ADD PUSH2 0x710 JUMP JUMPDEST PUSH1 0x20 DUP5 ADD MSTORE PUSH1 0x44 DUP2 ADD CALLDATALOAD DUP3 DUP2 GT PUSH2 0x102 JUMPI PUSH2 0x440 SWAP1 DUP6 CALLDATASIZE SWAP2 DUP5 ADD ADD PUSH2 0x741 JUMP JUMPDEST PUSH1 0x40 DUP5 ADD MSTORE PUSH1 0x64 DUP2 ADD CALLDATALOAD DUP3 DUP2 GT PUSH2 0x102 JUMPI PUSH2 0x460 SWAP1 DUP6 CALLDATASIZE SWAP2 DUP5 ADD ADD PUSH2 0x741 JUMP JUMPDEST PUSH1 0x60 DUP5 ADD MSTORE PUSH1 0x84 DUP2 ADD CALLDATALOAD SWAP2 DUP3 GT PUSH2 0x102 JUMPI PUSH2 0x19 SWAP4 PUSH2 0x482 SWAP3 CALLDATASIZE SWAP3 ADD ADD PUSH2 0x799 JUMP JUMPDEST PUSH1 0x80 DUP3 ADD MSTORE PUSH2 0xC5A JUMP JUMPDEST PUSH1 0x40 MLOAD PUSH32 0xD7F7333400000000000000000000000000000000000000000000000000000000 DUP2 MSTORE CALLER DUP2 DUP6 ADD MSTORE PUSH1 0x24 SWAP1 REVERT JUMPDEST CALLVALUE PUSH2 0x102 JUMPI PUSH1 0x0 PUSH1 0x3 NOT CALLDATASIZE ADD SLT PUSH2 0x102 JUMPI PUSH1 0x20 PUSH1 0x1 PUSH1 0x1 PUSH1 0xA0 SHL SUB PUSH1 0x0 SLOAD AND PUSH1 0x40 MLOAD SWAP1 DUP2 MSTORE RETURN JUMPDEST CALLVALUE PUSH2 0x102 JUMPI PUSH1 0x0 PUSH1 0x3 NOT CALLDATASIZE ADD SLT PUSH2 0x102 JUMPI PUSH1 0x20 PUSH1 0x40 MLOAD PUSH1 0x1 PUSH1 0x1 PUSH1 0xA0 SHL SUB PUSH32 0x0 AND DUP2 MSTORE RETURN JUMPDEST CALLVALUE PUSH2 0x102 JUMPI PUSH1 0x0 PUSH1 0x3 NOT CALLDATASIZE ADD SLT PUSH2 0x102 JUMPI PUSH1 0x20 PUSH1 0x1 PUSH1 0x1 PUSH1 0xA0 SHL SUB PUSH1 0x9 SLOAD AND PUSH1 0x40 MLOAD SWAP1 DUP2 MSTORE RETURN JUMPDEST CALLVALUE PUSH2 0x102 JUMPI PUSH1 0x0 PUSH1 0x3 NOT CALLDATASIZE ADD SLT PUSH2 0x102 JUMPI PUSH1 0x20 PUSH1 0x1 PUSH1 0x1 PUSH1 0xA0 SHL SUB PUSH1 0x6 SLOAD AND PUSH1 0x40 MLOAD SWAP1 DUP2 MSTORE RETURN JUMPDEST SWAP1 PUSH1 0x1 DUP3 DUP2 SHR SWAP3 AND DUP1 ISZERO PUSH2 0x5BE JUMPI JUMPDEST PUSH1 0x20 DUP4 LT EQ PUSH2 0x58F JUMPI JUMP JUMPDEST PUSH32 0x4E487B7100000000000000000000000000000000000000000000000000000000 PUSH1 0x0 MSTORE PUSH1 0x22 PUSH1 0x4 MSTORE PUSH1 0x24 PUSH1 0x0 REVERT JUMPDEST SWAP2 PUSH1 0x7F AND SWAP2 PUSH2 0x584 JUMP JUMPDEST PUSH1 0x4 SLOAD PUSH1 0x0 SWAP3 SWAP2 PUSH2 0x5D8 DUP3 PUSH2 0x575 JUMP JUMPDEST DUP1 DUP3 MSTORE SWAP2 PUSH1 0x20 SWAP1 PUSH1 0x1 SWAP1 DUP2 DUP2 AND SWAP1 DUP2 ISZERO PUSH2 0x657 JUMPI POP PUSH1 0x1 EQ PUSH2 0x5FB JUMPI JUMPDEST POP POP POP POP JUMP JUMPDEST SWAP3 SWAP4 SWAP5 POP PUSH1 0x4 PUSH1 0x0 MSTORE PUSH32 0x8A35ACFBC15FF81A39AE7D344FD709F28E8600B4AA8C65C6B64BFE7FE36BD19B SWAP3 PUSH1 0x0 SWAP4 JUMPDEST DUP6 DUP6 LT PUSH2 0x644 JUMPI POP POP POP PUSH1 0x20 SWAP3 POP ADD ADD SWAP1 CODESIZE DUP1 DUP1 DUP1 PUSH2 0x5F5 JUMP JUMPDEST DUP1 SLOAD DUP6 DUP6 ADD DUP5 ADD MSTORE SWAP4 DUP3 ADD SWAP4 DUP2 ADD PUSH2 0x62A JUMP JUMPDEST SWAP2 POP POP PUSH1 0x20 SWAP5 SWAP6 POP PUSH1 0xFF NOT SWAP2 POP SWAP3 SWAP2 SWAP3 AND DUP4 DUP4 ADD MSTORE ISZERO ISZERO PUSH1 0x5 SHL ADD ADD SWAP1 CODESIZE DUP1 DUP1 DUP1 PUSH2 0x5F5 JUMP JUMPDEST PUSH32 0x4E487B7100000000000000000000000000000000000000000000000000000000 PUSH1 0x0 MSTORE PUSH1 0x41 PUSH1 0x4 MSTORE PUSH1 0x24 PUSH1 0x0 REVERT JUMPDEST PUSH1 0x40 DUP2 ADD SWAP1 DUP2 LT PUSH8 0xFFFFFFFFFFFFFFFF DUP3 GT OR PUSH2 0x6C8 JUMPI PUSH1 0x40 MSTORE JUMP JUMPDEST PUSH2 0x67D JUMP JUMPDEST SWAP1 PUSH1 0x1F PUSH1 0x1F NOT SWAP2 ADD AND DUP2 ADD SWAP1 DUP2 LT PUSH8 0xFFFFFFFFFFFFFFFF DUP3 GT OR PUSH2 0x6C8 JUMPI PUSH1 0x40 MSTORE JUMP JUMPDEST PUSH1 0x40 MLOAD SWAP1 PUSH1 0xA0 DUP3 ADD DUP3 DUP2 LT PUSH8 0xFFFFFFFFFFFFFFFF DUP3 GT OR PUSH2 0x6C8 JUMPI PUSH1 0x40 MSTORE JUMP JUMPDEST CALLDATALOAD SWAP1 PUSH8 0xFFFFFFFFFFFFFFFF DUP3 AND DUP3 SUB PUSH2 0x102 JUMPI JUMP JUMPDEST PUSH8 0xFFFFFFFFFFFFFFFF DUP2 GT PUSH2 0x6C8 JUMPI PUSH1 0x1F ADD PUSH1 0x1F NOT AND PUSH1 0x20 ADD SWAP1 JUMP JUMPDEST DUP2 PUSH1 0x1F DUP3 ADD SLT ISZERO PUSH2 0x102 JUMPI DUP1 CALLDATALOAD SWAP1 PUSH2 0x758 DUP3 PUSH2 0x725 JUMP JUMPDEST SWAP3 PUSH2 0x766 PUSH1 0x40 MLOAD SWAP5 DUP6 PUSH2 0x6CD JUMP JUMPDEST DUP3 DUP5 MSTORE PUSH1 0x20 DUP4 DUP4 ADD ADD GT PUSH2 0x102 JUMPI DUP2 PUSH1 0x0 SWAP3 PUSH1 0x20 DUP1 SWAP4 ADD DUP4 DUP7 ADD CALLDATACOPY DUP4 ADD ADD MSTORE SWAP1 JUMP JUMPDEST PUSH1 0x1 PUSH1 0x1 PUSH1 0xA0 SHL SUB DUP2 AND SUB PUSH2 0x102 JUMPI JUMP JUMPDEST DUP2 PUSH1 0x1F DUP3 ADD SLT ISZERO PUSH2 0x102 JUMPI DUP1 CALLDATALOAD SWAP1 PUSH1 0x20 PUSH8 0xFFFFFFFFFFFFFFFF DUP4 GT PUSH2 0x6C8 JUMPI PUSH1 0x40 SWAP3 PUSH1 0x40 MLOAD SWAP5 PUSH2 0x7CE DUP4 DUP4 PUSH1 0x5 SHL ADD DUP8 PUSH2 0x6CD JUMP JUMPDEST DUP2 DUP7 MSTORE DUP3 DUP1 DUP8 ADD SWAP3 PUSH1 0x6 SHL DUP6 ADD ADD SWAP4 DUP2 DUP6 GT PUSH2 0x102 JUMPI DUP4 ADD SWAP2 JUMPDEST DUP5 DUP4 LT PUSH2 0x7F8 JUMPI POP POP POP POP POP POP SWAP1 JUMP JUMPDEST DUP6 DUP4 DUP4 SUB SLT PUSH2 0x102 JUMPI DUP4 DUP7 SWAP2 DUP3 MLOAD PUSH2 0x80F DUP2 PUSH2 0x6AC JUMP JUMPDEST DUP6 CALLDATALOAD PUSH2 0x81A DUP2 PUSH2 0x788 JUMP JUMPDEST DUP2 MSTORE DUP3 DUP7 ADD CALLDATALOAD DUP4 DUP3 ADD MSTORE DUP2 MSTORE ADD SWAP3 ADD SWAP2 PUSH2 0x7E8 JUMP JUMPDEST SWAP1 SWAP3 SWAP2 SWAP3 PUSH2 0x83C DUP2 PUSH2 0x725 JUMP JUMPDEST SWAP2 PUSH2 0x84A PUSH1 0x40 MLOAD SWAP4 DUP5 PUSH2 0x6CD JUMP JUMPDEST DUP3 SWAP5 DUP3 DUP5 MSTORE DUP3 DUP3 ADD GT PUSH2 0x102 JUMPI PUSH1 0x20 PUSH2 0x864 SWAP4 ADD SWAP1 PUSH2 0x1CF JUMP JUMPDEST JUMP JUMPDEST SWAP1 SWAP2 PUSH1 0x60 DUP3 DUP5 SUB SLT PUSH2 0x102 JUMPI DUP2 MLOAD PUSH1 0xFF DUP2 AND DUP2 SUB PUSH2 0x102 JUMPI SWAP3 PUSH1 0x20 DUP4 ADD MLOAD PUSH2 0x88D DUP2 PUSH2 0x788 JUMP JUMPDEST SWAP3 PUSH1 0x40 DUP2 ADD MLOAD SWAP1 PUSH8 0xFFFFFFFFFFFFFFFF DUP3 GT PUSH2 0x102 JUMPI ADD SWAP1 DUP1 PUSH1 0x1F DUP4 ADD SLT ISZERO PUSH2 0x102 JUMPI DUP2 MLOAD PUSH2 0x8BE SWAP3 PUSH1 0x20 ADD PUSH2 0x82F JUMP JUMPDEST SWAP1 JUMP JUMPDEST SWAP1 DUP2 PUSH1 0x20 SWAP2 SUB SLT PUSH2 0x102 JUMPI MLOAD PUSH2 0x8BE DUP2 PUSH2 0x788 JUMP JUMPDEST RETURNDATASIZE ISZERO PUSH2 0x901 JUMPI RETURNDATASIZE SWAP1 PUSH2 0x8E7 DUP3 PUSH2 0x725 JUMP JUMPDEST SWAP2 PUSH2 0x8F5 PUSH1 0x40 MLOAD SWAP4 DUP5 PUSH2 0x6CD JUMP JUMPDEST DUP3 MSTORE RETURNDATASIZE PUSH1 0x0 PUSH1 0x20 DUP5 ADD RETURNDATACOPY JUMP JUMPDEST PUSH1 0x60 SWAP1 JUMP JUMPDEST ISZERO PUSH2 0x90D JUMPI JUMP JUMPDEST PUSH1 0x64 PUSH1 0x40 MLOAD PUSH32 0x8C379A000000000000000000000000000000000000000000000000000000000 DUP2 MSTORE PUSH1 0x20 PUSH1 0x4 DUP3 ADD MSTORE PUSH1 0x15 PUSH1 0x24 DUP3 ADD MSTORE PUSH32 0x4C6F772D6C6576656C2063616C6C206661696C65640000000000000000000000 PUSH1 0x44 DUP3 ADD MSTORE REVERT JUMPDEST PUSH1 0x20 DUP2 DUP4 SUB SLT PUSH2 0x102 JUMPI DUP1 MLOAD SWAP1 PUSH8 0xFFFFFFFFFFFFFFFF DUP3 GT PUSH2 0x102 JUMPI ADD SWAP1 DUP1 PUSH1 0x1F DUP4 ADD SLT ISZERO PUSH2 0x102 JUMPI DUP2 MLOAD PUSH2 0x8BE SWAP3 PUSH1 0x20 ADD PUSH2 0x82F JUMP JUMPDEST PUSH1 0x1F DUP2 GT PUSH2 0x9AE JUMPI POP POP JUMP JUMPDEST PUSH1 0x0 SWAP1 PUSH1 0x5 PUSH1 0x0 MSTORE PUSH32 0x36B6384B5ECA791C62761152D0C79BB0604C104A5FB6F4EB0703F3154BB3DB0 SWAP1 PUSH1 0x20 PUSH1 0x1F DUP6 ADD PUSH1 0x5 SHR DUP4 ADD SWAP5 LT PUSH2 0xA0A JUMPI JUMPDEST PUSH1 0x1F ADD PUSH1 0x5 SHR ADD SWAP2 JUMPDEST DUP3 DUP2 LT PUSH2 0x9FF JUMPI POP POP POP JUMP JUMPDEST DUP2 DUP2 SSTORE PUSH1 0x1 ADD PUSH2 0x9F3 JUMP JUMPDEST SWAP1 SWAP3 POP DUP3 SWAP1 PUSH2 0x9EA JUMP JUMPDEST PUSH1 0x1F DUP2 GT PUSH2 0xA20 JUMPI POP POP JUMP JUMPDEST PUSH1 0x0 SWAP1 PUSH1 0x4 PUSH1 0x0 MSTORE PUSH32 0x8A35ACFBC15FF81A39AE7D344FD709F28E8600B4AA8C65C6B64BFE7FE36BD19B SWAP1 PUSH1 0x20 PUSH1 0x1F DUP6 ADD PUSH1 0x5 SHR DUP4 ADD SWAP5 LT PUSH2 0xA7C JUMPI JUMPDEST PUSH1 0x1F ADD PUSH1 0x5 SHR ADD SWAP2 JUMPDEST DUP3 DUP2 LT PUSH2 0xA71 JUMPI POP POP POP JUMP JUMPDEST DUP2 DUP2 SSTORE PUSH1 0x1 ADD PUSH2 0xA65 JUMP JUMPDEST SWAP1 SWAP3 POP DUP3 SWAP1 PUSH2 0xA5C JUMP JUMPDEST SWAP1 DUP2 MLOAD PUSH8 0xFFFFFFFFFFFFFFFF DUP2 GT PUSH2 0x6C8 JUMPI PUSH2 0xAAC DUP2 PUSH2 0xAA7 PUSH1 0x5 SLOAD PUSH2 0x575 JUMP JUMPDEST PUSH2 0x9A2 JUMP JUMPDEST PUSH1 0x20 DUP1 PUSH1 0x1F DUP4 GT PUSH1 0x1 EQ PUSH2 0xAEE JUMPI POP DUP2 SWAP1 PUSH2 0xADE SWAP4 SWAP5 PUSH1 0x0 SWAP3 PUSH2 0xAE3 JUMPI JUMPDEST POP POP PUSH1 0x0 NOT DUP3 PUSH1 0x1 SHL SWAP3 PUSH1 0x3 SHL SHR NOT AND OR SWAP1 JUMP JUMPDEST PUSH1 0x5 SSTORE JUMP JUMPDEST ADD MLOAD SWAP1 POP CODESIZE DUP1 PUSH2 0xACA JUMP JUMPDEST SWAP1 PUSH1 0x1F NOT DUP4 AND SWAP5 PUSH2 0xB21 PUSH1 0x5 PUSH1 0x0 MSTORE PUSH32 0x36B6384B5ECA791C62761152D0C79BB0604C104A5FB6F4EB0703F3154BB3DB0 SWAP1 JUMP JUMPDEST SWAP3 PUSH1 0x0 SWAP1 JUMPDEST DUP8 DUP3 LT PUSH2 0xB5E JUMPI POP POP DUP4 PUSH1 0x1 SWAP6 SWAP7 LT PUSH2 0xB45 JUMPI JUMPDEST POP POP POP DUP2 SHL ADD PUSH1 0x5 SSTORE JUMP JUMPDEST ADD MLOAD PUSH1 0x0 NOT PUSH1 0xF8 DUP5 PUSH1 0x3 SHL AND SHR NOT AND SWAP1 SSTORE CODESIZE DUP1 DUP1 PUSH2 0xB3A JUMP JUMPDEST DUP1 PUSH1 0x1 DUP6 SWAP7 DUP3 SWAP5 SWAP7 DUP7 ADD MLOAD DUP2 SSTORE ADD SWAP6 ADD SWAP4 ADD SWAP1 PUSH2 0xB26 JUMP JUMPDEST SWAP1 DUP2 MLOAD PUSH8 0xFFFFFFFFFFFFFFFF DUP2 GT PUSH2 0x6C8 JUMPI PUSH2 0xB9C DUP2 PUSH2 0xB97 PUSH1 0x4 SLOAD PUSH2 0x575 JUMP JUMPDEST PUSH2 0xA14 JUMP JUMPDEST PUSH1 0x20 DUP1 PUSH1 0x1F DUP4 GT PUSH1 0x1 EQ PUSH2 0xBD2 JUMPI POP DUP2 SWAP1 PUSH2 0xBCD SWAP4 SWAP5 PUSH1 0x0 SWAP3 PUSH2 0xAE3 JUMPI POP POP PUSH1 0x0 NOT DUP3 PUSH1 0x1 SHL SWAP3 PUSH1 0x3 SHL SHR NOT AND OR SWAP1 JUMP JUMPDEST PUSH1 0x4 SSTORE JUMP JUMPDEST SWAP1 PUSH1 0x1F NOT DUP4 AND SWAP5 PUSH2 0xC05 PUSH1 0x4 PUSH1 0x0 MSTORE PUSH32 0x8A35ACFBC15FF81A39AE7D344FD709F28E8600B4AA8C65C6B64BFE7FE36BD19B SWAP1 JUMP JUMPDEST SWAP3 PUSH1 0x0 SWAP1 JUMPDEST DUP8 DUP3 LT PUSH2 0xC42 JUMPI POP POP DUP4 PUSH1 0x1 SWAP6 SWAP7 LT PUSH2 0xC29 JUMPI JUMPDEST POP POP POP DUP2 SHL ADD PUSH1 0x4 SSTORE JUMP JUMPDEST ADD MLOAD PUSH1 0x0 NOT PUSH1 0xF8 DUP5 PUSH1 0x3 SHL AND SHR NOT AND SWAP1 SSTORE CODESIZE DUP1 DUP1 PUSH2 0xC1E JUMP JUMPDEST DUP1 PUSH1 0x1 DUP6 SWAP7 DUP3 SWAP5 SWAP7 DUP7 ADD MLOAD DUP2 SSTORE ADD SWAP6 ADD SWAP4 ADD SWAP1 PUSH2 0xC0A JUMP JUMPDEST PUSH2 0x864 SWAP1 PUSH2 0xE4E PUSH2 0xE49 PUSH1 0x60 DUP4 ADD SWAP3 PUSH2 0xE3A DUP5 MLOAD SWAP2 PUSH1 0x1 PUSH1 0x1 PUSH1 0xA0 SHL SUB PUSH2 0xC8C DUP5 MLOAD SWAP5 PUSH1 0x20 DUP1 DUP1 SWAP8 DUP4 ADD ADD SWAP2 ADD PUSH2 0x866 JUMP JUMPDEST SWAP2 SWAP3 AND PUSH1 0xFF PUSH2 0xCB6 PUSH2 0xCAA PUSH1 0x40 DUP8 ADD MLOAD DUP10 DUP1 DUP3 MLOAD DUP4 ADD ADD SWAP2 ADD PUSH2 0x8C1 JUMP JUMPDEST PUSH1 0x1 PUSH1 0x1 PUSH1 0xA0 SHL SUB AND SWAP1 JUMP JUMPDEST SWAP4 PUSH2 0xDDF PUSH1 0x44 PUSH1 0x24 DUP7 ADD MLOAD SWAP6 ADD MLOAD PUSH2 0xDB6 PUSH1 0x40 MLOAD SWAP7 PUSH2 0xD8D DUP13 DUP10 ADD SWAP10 PUSH32 0x4244133900000000000000000000000000000000000000000000000000000000 DUP12 MSTORE PUSH2 0xD37 DUP11 PUSH2 0xD29 DUP4 DUP9 DUP8 PUSH1 0x24 DUP6 ADD SWAP2 PUSH1 0x40 SWAP2 SWAP5 SWAP4 PUSH1 0x60 DUP5 ADD SWAP6 PUSH1 0x1 PUSH1 0x1 PUSH1 0xA0 SHL SUB SWAP3 DUP4 DUP1 SWAP3 AND DUP7 MSTORE AND PUSH1 0x20 DUP6 ADD MSTORE AND SWAP2 ADD MSTORE JUMP JUMPDEST SUB PUSH1 0x1F NOT DUP2 ADD DUP13 MSTORE DUP12 PUSH2 0x6CD JUMP JUMPDEST PUSH2 0xD64 DUP10 PUSH1 0x1 PUSH1 0x1 PUSH1 0xA0 SHL SUB AND PUSH20 0xFFFFFFFFFFFFFFFFFFFFFFFFFFFFFFFFFFFFFFFF NOT PUSH1 0x9 SLOAD AND OR PUSH1 0x9 SSTORE JUMP JUMPDEST PUSH1 0x1 PUSH1 0x1 PUSH1 0xA0 SHL SUB AND PUSH20 0xFFFFFFFFFFFFFFFFFFFFFFFFFFFFFFFFFFFFFFFF NOT PUSH1 0x6 SLOAD AND OR PUSH1 0x6 SSTORE JUMP JUMPDEST PUSH1 0x1 PUSH1 0x1 PUSH1 0xA0 SHL SUB AND PUSH20 0xFFFFFFFFFFFFFFFFFFFFFFFFFFFFFFFFFFFFFFFF NOT PUSH1 0x7 SLOAD AND OR PUSH1 0x7 SSTORE JUMP JUMPDEST PUSH1 0x1 PUSH1 0x1 PUSH1 0xA0 SHL SUB AND PUSH20 0xFFFFFFFFFFFFFFFFFFFFFFFFFFFFFFFFFFFFFFFF NOT PUSH1 0x8 SLOAD AND OR PUSH1 0x8 SSTORE JUMP JUMPDEST PUSH2 0xE2A DUP2 PUSH32 0xFFFFFFFFFFFFFFFFFFFFFF00FFFFFFFFFFFFFFFFFFFFFFFFFFFFFFFFFFFFFFFF PUSH21 0xFF0000000000000000000000000000000000000000 PUSH1 0x9 SLOAD SWAP3 PUSH1 0xA0 SHL AND SWAP2 AND OR PUSH1 0x9 SSTORE JUMP JUMPDEST AND ISZERO PUSH2 0xE54 JUMPI JUMPDEST POP POP POP MLOAD PUSH1 0x3 SSTORE JUMP JUMPDEST DUP4 MLOAD DUP1 MLOAD DUP2 ADD DUP3 ADD SWAP2 ADD PUSH2 0x96B JUMP JUMPDEST PUSH2 0xA86 JUMP JUMPDEST MLOAD PUSH2 0xB76 JUMP JUMPDEST PUSH1 0x0 DUP1 PUSH2 0xCAA SWAP3 PUSH2 0xEB0 SWAP6 DUP3 PUSH2 0xE87 SWAP7 MLOAD SWAP3 GAS CALL PUSH2 0xE79 PUSH2 0xE73 PUSH2 0x8D6 JUMP JUMPDEST SWAP2 PUSH2 0x906 JUMP JUMPDEST DUP7 DUP1 DUP3 MLOAD DUP4 ADD ADD SWAP2 ADD PUSH2 0x8C1 JUMP JUMPDEST PUSH1 0x1 PUSH1 0x1 PUSH1 0xA0 SHL SUB AND PUSH20 0xFFFFFFFFFFFFFFFFFFFFFFFFFFFFFFFFFFFFFFFF NOT PUSH1 0x1 SLOAD AND OR PUSH1 0x1 SSTORE JUMP JUMPDEST PUSH32 0x9A99F061244371663AC486F29204CFB3CE10DEC6B603F0A69A3EB90ED3891CEE PUSH2 0xF00 PUSH2 0xEE6 PUSH1 0x1 SLOAD PUSH1 0x1 PUSH1 0x1 PUSH1 0xA0 SHL SUB AND SWAP1 JUMP JUMPDEST PUSH1 0x40 MLOAD PUSH1 0x1 PUSH1 0x1 PUSH1 0xA0 SHL SUB SWAP1 SWAP2 AND DUP2 MSTORE SWAP1 DUP2 SWAP1 PUSH1 0x20 DUP3 ADD SWAP1 JUMP JUMPDEST SUB SWAP1 LOG1 CODESIZE DUP1 DUP1 PUSH2 0xE31 JUMP INVALID LOG2 PUSH5 0x6970667358 0x22 SLT KECCAK256 0xE1 0xBD SIGNEXTEND PUSH4 0xF5A5381 BASEFEE 0xC6 MOD 0x2C 0xDA 0xD1 SWAP4 0xF7 PUSH30 0xB50F9DBEE166E98590248073A9C5D64736F6C6343000818003300000000 "},"methodIdentifiers":{"ccipReceive((bytes32,uint64,bytes,bytes,(address,uint256)[]))":"85572ffb","creationAddress()":"47af954d","d_AAFactory()":"bd0b8ae8","d_AAUser()":"0eae5600","d_multiplex()":"837cee9a","d_nativeAccount()":"e700068c","d_router()":"01d3f286","getLastReceivedMessageDetails()":"263596a5","getRouter()":"b0f479a1","latestSourceMessage()":"26e4bcfb","owner()":"8da5cb5b","supportsInterface(bytes4)":"01ffc9a7"}}}}}