{
  "_format": "hh-sol-artifact-1",
  "contractName": "SwapUniswapV3",
  "sourceName": "contracts/cleanup/SwapUniswapV3.sol",
  "abi": [
    {
      "inputs": [
        {
          "internalType": "address",
          "name": "_swapRouter",
          "type": "address"
        }
      ],
      "stateMutability": "nonpayable",
      "type": "constructor"
    },
    {
      "inputs": [
        {
          "internalType": "uint256",
          "name": "amountIn",
          "type": "uint256"
        },
        {
          "internalType": "uint256",
          "name": "amountOutMinimum",
          "type": "uint256"
        },
        {
          "internalType": "address",
          "name": "tokenIn",
          "type": "address"
        },
        {
          "internalType": "address",
          "name": "tokenOut",
          "type": "address"
        },
        {
          "internalType": "uint24",
          "name": "fee",
          "type": "uint24"
        }
      ],
      "name": "swapExactInputSingle",
      "outputs": [
        {
          "internalType": "uint256",
          "name": "amountOut",
          "type": "uint256"
        }
      ],
      "stateMutability": "nonpayable",
      "type": "function"
    },
    {
      "inputs": [],
      "name": "swapRouter",
      "outputs": [
        {
          "internalType": "contract ISwapRouter",
          "name": "",
          "type": "address"
        }
      ],
      "stateMutability": "view",
      "type": "function"
    }
  ],
  "bytecode": "0x60a03461007a57601f61069838819003918201601f19168301916001600160401b0383118484101761007f5780849260209460405283398101031261007a57516001600160a01b0381169081900361007a576080526040516106029081610096823960805181818161015c0152818161030b015261052d0152f35b600080fd5b634e487b7160e01b600052604160045260246000fdfe608080604052600436101561001357600080fd5b60003560e01c908163c31c9c0714610502575063d3b2a3991461003557600080fd5b346103715760a06003193601126103715773ffffffffffffffffffffffffffffffffffffffff60443516604435036103715760643573ffffffffffffffffffffffffffffffffffffffff81168103610371576084359062ffffff82168203610371576040517f23b872dd0000000000000000000000000000000000000000000000000000000060208201523360248201523060448201526004356064820152606481528060a081011067ffffffffffffffff60a08301111761038a5760008160a0829301604052602081519101826044355af1610110610574565b816104d3575b5015610475576040517f095ea7b300000000000000000000000000000000000000000000000000000000602082015273ffffffffffffffffffffffffffffffffffffffff7f000000000000000000000000000000000000000000000000000000000000000016602482015260043560448201526044815280608081011067ffffffffffffffff60808301111761038a576000816080829301604052602081519101826044355af16101c5610574565b81610446575b50156103e857610384420142116103b957604051918261010081011067ffffffffffffffff6101008501111761038a5773ffffffffffffffffffffffffffffffffffffffff62ffffff926101008501604052816044351685521660208401521660408201523360608201526103844201608082015260043560a082015260243560c0820152600060e082015273ffffffffffffffffffffffffffffffffffffffff60e0604051927f414bf38900000000000000000000000000000000000000000000000000000000845282815116600485015282602082015116602485015262ffffff60408201511660448501528260608201511660648501526080810151608485015260a081015160a485015260c081015160c485015201511660e482015260208161010481600073ffffffffffffffffffffffffffffffffffffffff7f0000000000000000000000000000000000000000000000000000000000000000165af1801561037e57600090610346575b602090604051908152f35b506020813d602011610376575b8161036060209383610551565b81010312610371576020905161033b565b600080fd5b3d9150610353565b6040513d6000823e3d90fd5b7f4e487b7100000000000000000000000000000000000000000000000000000000600052604160045260246000fd5b7f4e487b7100000000000000000000000000000000000000000000000000000000600052601160045260246000fd5b60646040517f08c379a000000000000000000000000000000000000000000000000000000000815260206004820152600260248201527f53410000000000000000000000000000000000000000000000000000000000006044820152fd5b805180159250821561045b575b5050386101cb565b61046e92506020809183010191016105b4565b3880610453565b60646040517f08c379a000000000000000000000000000000000000000000000000000000000815260206004820152600360248201527f53544600000000000000000000000000000000000000000000000000000000006044820152fd5b80518015925082156104e8575b505038610116565b6104fb92506020809183010191016105b4565b38806104e0565b346103715760006003193601126103715760209073ffffffffffffffffffffffffffffffffffffffff7f0000000000000000000000000000000000000000000000000000000000000000168152f35b90601f601f19910116810190811067ffffffffffffffff82111761038a57604052565b3d156105af573d9067ffffffffffffffff821161038a57604051916105a36020601f19601f8401160184610551565b82523d6000602084013e565b606090565b9081602091031261037157518015158103610371579056fea26469706673582212206ecc77871126ee4c49ef893430331853a124ff5308d9f57bd3abb60f19ff003064736f6c63430008180033",
  "linkReferences": {},
  "deployedLinkReferences": {}
}