{
  "_format": "hh-sol-artifact-1",
  "contractName": "Account",
  "sourceName": "contracts/Account.sol",
  "abi": [
    {
      "inputs": [
        {
          "internalType": "address",
          "name": "_owner",
          "type": "address"
        },
        {
          "internalType": "address",
          "name": "_ccipRouter",
          "type": "address"
        }
      ],
      "stateMutability": "nonpayable",
      "type": "constructor"
    },
    {
      "inputs": [],
      "name": "ECDSAInvalidSignature",
      "type": "error"
    },
    {
      "inputs": [
        {
          "internalType": "uint256",
          "name": "length",
          "type": "uint256"
        }
      ],
      "name": "ECDSAInvalidSignatureLength",
      "type": "error"
    },
    {
      "inputs": [
        {
          "internalType": "bytes32",
          "name": "s",
          "type": "bytes32"
        }
      ],
      "name": "ECDSAInvalidSignatureS",
      "type": "error"
    },
    {
      "inputs": [
        {
          "internalType": "address",
          "name": "router",
          "type": "address"
        }
      ],
      "name": "InvalidRouter",
      "type": "error"
    },
    {
      "anonymous": false,
      "inputs": [
        {
          "indexed": false,
          "internalType": "bool",
          "name": "success",
          "type": "bool"
        },
        {
          "indexed": false,
          "internalType": "bytes",
          "name": "data",
          "type": "bytes"
        }
      ],
      "name": "CallResult",
      "type": "event"
    },
    {
      "inputs": [
        {
          "internalType": "uint64",
          "name": "_destinationChainSelector",
          "type": "uint64"
        },
        {
          "internalType": "address",
          "name": "_receiver",
          "type": "address"
        },
        {
          "internalType": "address",
          "name": "AAFactory",
          "type": "address"
        },
        {
          "internalType": "address",
          "name": "AAUser",
          "type": "address"
        },
        {
          "internalType": "address",
          "name": "destinationRouter",
          "type": "address"
        }
      ],
      "name": "AAInitializeDestination",
      "outputs": [
        {
          "internalType": "bytes32",
          "name": "messageId",
          "type": "bytes32"
        }
      ],
      "stateMutability": "nonpayable",
      "type": "function"
    },
    {
      "inputs": [],
      "name": "ROUTER02",
      "outputs": [
        {
          "internalType": "address",
          "name": "",
          "type": "address"
        }
      ],
      "stateMutability": "view",
      "type": "function"
    },
    {
      "inputs": [
        {
          "internalType": "address",
          "name": "tokenA",
          "type": "address"
        },
        {
          "internalType": "address",
          "name": "tokenB",
          "type": "address"
        },
        {
          "internalType": "uint256",
          "name": "amountA",
          "type": "uint256"
        },
        {
          "internalType": "uint256",
          "name": "amountB",
          "type": "uint256"
        }
      ],
      "name": "addLiquidity",
      "outputs": [],
      "stateMutability": "nonpayable",
      "type": "function"
    },
    {
      "inputs": [
        {
          "components": [
            {
              "internalType": "bytes32",
              "name": "messageId",
              "type": "bytes32"
            },
            {
              "internalType": "uint64",
              "name": "sourceChainSelector",
              "type": "uint64"
            },
            {
              "internalType": "bytes",
              "name": "sender",
              "type": "bytes"
            },
            {
              "internalType": "bytes",
              "name": "data",
              "type": "bytes"
            },
            {
              "components": [
                {
                  "internalType": "address",
                  "name": "token",
                  "type": "address"
                },
                {
                  "internalType": "uint256",
                  "name": "amount",
                  "type": "uint256"
                }
              ],
              "internalType": "struct Client.EVMTokenAmount[]",
              "name": "destTokenAmounts",
              "type": "tuple[]"
            }
          ],
          "internalType": "struct Client.Any2EVMMessage",
          "name": "message",
          "type": "tuple"
        }
      ],
      "name": "ccipReceive",
      "outputs": [],
      "stateMutability": "nonpayable",
      "type": "function"
    },
    {
      "inputs": [],
      "name": "creationAddress",
      "outputs": [
        {
          "internalType": "address",
          "name": "",
          "type": "address"
        }
      ],
      "stateMutability": "view",
      "type": "function"
    },
    {
      "inputs": [
        {
          "internalType": "address",
          "name": "token",
          "type": "address"
        },
        {
          "internalType": "uint256",
          "name": "amount",
          "type": "uint256"
        }
      ],
      "name": "depositToken",
      "outputs": [],
      "stateMutability": "nonpayable",
      "type": "function"
    },
    {
      "inputs": [
        {
          "internalType": "address",
          "name": "target",
          "type": "address"
        },
        {
          "internalType": "bytes",
          "name": "data",
          "type": "bytes"
        }
      ],
      "name": "execute",
      "outputs": [],
      "stateMutability": "payable",
      "type": "function"
    },
    {
      "inputs": [],
      "name": "getLastReceivedMessageDetails",
      "outputs": [
        {
          "internalType": "bytes32",
          "name": "messageId",
          "type": "bytes32"
        },
        {
          "internalType": "string",
          "name": "text",
          "type": "string"
        },
        {
          "internalType": "bytes",
          "name": "textBytes",
          "type": "bytes"
        }
      ],
      "stateMutability": "view",
      "type": "function"
    },
    {
      "inputs": [],
      "name": "getRouter",
      "outputs": [
        {
          "internalType": "address",
          "name": "",
          "type": "address"
        }
      ],
      "stateMutability": "view",
      "type": "function"
    },
    {
      "inputs": [
        {
          "internalType": "address",
          "name": "token",
          "type": "address"
        }
      ],
      "name": "getTokenBalance",
      "outputs": [
        {
          "internalType": "uint256",
          "name": "",
          "type": "uint256"
        }
      ],
      "stateMutability": "view",
      "type": "function"
    },
    {
      "inputs": [],
      "name": "initAA",
      "outputs": [],
      "stateMutability": "nonpayable",
      "type": "function"
    },
    {
      "inputs": [],
      "name": "latestSourceMessage",
      "outputs": [
        {
          "internalType": "bytes32",
          "name": "",
          "type": "bytes32"
        }
      ],
      "stateMutability": "view",
      "type": "function"
    },
    {
      "inputs": [
        {
          "internalType": "address",
          "name": "tokenA",
          "type": "address"
        },
        {
          "internalType": "address",
          "name": "tokenB",
          "type": "address"
        },
        {
          "internalType": "address",
          "name": "pair",
          "type": "address"
        },
        {
          "internalType": "uint256",
          "name": "liquidity",
          "type": "uint256"
        }
      ],
      "name": "liquidateLiquidity",
      "outputs": [
        {
          "internalType": "uint256",
          "name": "amountA",
          "type": "uint256"
        },
        {
          "internalType": "uint256",
          "name": "amountB",
          "type": "uint256"
        }
      ],
      "stateMutability": "nonpayable",
      "type": "function"
    },
    {
      "inputs": [],
      "name": "owner",
      "outputs": [
        {
          "internalType": "address",
          "name": "",
          "type": "address"
        }
      ],
      "stateMutability": "view",
      "type": "function"
    },
    {
      "inputs": [],
      "name": "salt",
      "outputs": [
        {
          "internalType": "uint256",
          "name": "",
          "type": "uint256"
        }
      ],
      "stateMutability": "view",
      "type": "function"
    },
    {
      "inputs": [
        {
          "internalType": "bytes4",
          "name": "interfaceId",
          "type": "bytes4"
        }
      ],
      "name": "supportsInterface",
      "outputs": [
        {
          "internalType": "bool",
          "name": "",
          "type": "bool"
        }
      ],
      "stateMutability": "pure",
      "type": "function"
    },
    {
      "inputs": [],
      "name": "uniswapRouter",
      "outputs": [
        {
          "internalType": "contract IUniswapV2Router02",
          "name": "",
          "type": "address"
        }
      ],
      "stateMutability": "view",
      "type": "function"
    },
    {
      "inputs": [
        {
          "components": [
            {
              "internalType": "address",
              "name": "sender",
              "type": "address"
            },
            {
              "internalType": "uint256",
              "name": "nonce",
              "type": "uint256"
            },
            {
              "internalType": "bytes",
              "name": "initCode",
              "type": "bytes"
            },
            {
              "internalType": "bytes",
              "name": "callData",
              "type": "bytes"
            },
            {
              "internalType": "uint256",
              "name": "callGasLimit",
              "type": "uint256"
            },
            {
              "internalType": "uint256",
              "name": "verificationGasLimit",
              "type": "uint256"
            },
            {
              "internalType": "uint256",
              "name": "preVerificationGas",
              "type": "uint256"
            },
            {
              "internalType": "uint256",
              "name": "maxFeePerGas",
              "type": "uint256"
            },
            {
              "internalType": "uint256",
              "name": "maxPriorityFeePerGas",
              "type": "uint256"
            },
            {
              "internalType": "bytes",
              "name": "paymasterAndData",
              "type": "bytes"
            },
            {
              "internalType": "bytes",
              "name": "signature",
              "type": "bytes"
            }
          ],
          "internalType": "struct UserOperation",
          "name": "userOp",
          "type": "tuple"
        },
        {
          "internalType": "bytes32",
          "name": "userOpHash",
          "type": "bytes32"
        },
        {
          "internalType": "uint256",
          "name": "",
          "type": "uint256"
        }
      ],
      "name": "validateUserOp",
      "outputs": [
        {
          "internalType": "uint256",
          "name": "validationData",
          "type": "uint256"
        }
      ],
      "stateMutability": "view",
      "type": "function"
    },
    {
      "inputs": [
        {
          "internalType": "address",
          "name": "token",
          "type": "address"
        },
        {
          "internalType": "uint256",
          "name": "amount",
          "type": "uint256"
        }
      ],
      "name": "withdrawToken",
      "outputs": [],
      "stateMutability": "nonpayable",
      "type": "function"
    },
    {
      "stateMutability": "payable",
      "type": "receive"
    }
  ],
  "bytecode": "0x60a034620000e457601f62001f1f38819003918201601f19168301916001600160401b03831184841017620000e9578084926040948552833981010312620000e4576200005a60206200005283620000ff565b9201620000ff565b6001600160a01b039080821615620000cb5760805273c532a74256d3db42d0bf7a0400fefdbad76940089160018060a01b0319928084600754161760075583600854161760085516906000541617600055604051611e0a9081620001158239608051818181610d280152610f7b0152f35b6040516335fdcccd60e21b815260006004820152602490fd5b600080fd5b634e487b7160e01b600052604160045260246000fd5b51906001600160a01b0382168203620000e45756fe6080604052600436101561001b575b361561001957600080fd5b005b60003560e01c806301ffc9a71461014b5780631cff79cd14610146578063263596a51461014157806326e4bcfb1461013c57806329639df714610137578063338b5dea146101325780633a871cdd1461012d5780633aecd0e31461012857806347af954d146101235780636d9bad701461011e578063735de9f714610119578063740f454514610114578063832dcca51461010f57806385572ffb1461010a5780638da5cb5b146101055780639e281a9814610100578063b0f479a1146100fb578063bfa0b133146100f65763cf6c62ea0361000e57610fbd565b610f9f565b610f5b565b610e2c565b610e05565b610ce9565b610a6d565b610a1a565b6109f3565b61081c565b6107f5565b610752565b610659565b610595565b61057c565b61055e565b61043e565b610318565b346101ec5760206003193601126101ec576004357fffffffff0000000000000000000000000000000000000000000000000000000081168091036101ec57807f85572ffb00000000000000000000000000000000000000000000000000000000602092149081156101c2575b506040519015158152f35b7f01ffc9a700000000000000000000000000000000000000000000000000000000915014386101b7565b600080fd5b6001600160a01b038116036101ec57565b634e487b7160e01b600052604160045260246000fd5b6040810190811067ffffffffffffffff82111761023457604052565b610202565b6020810190811067ffffffffffffffff82111761023457604052565b90601f601f19910116810190811067ffffffffffffffff82111761023457604052565b6040519061028582610239565b565b6040519060a0820182811067ffffffffffffffff82111761023457604052565b67ffffffffffffffff811161023457601f01601f191660200190565b9291926102cf826102a7565b916102dd6040519384610255565b8294818452818301116101ec578281602093846000960137010152565b9080601f830112156101ec57816020610315933591016102c3565b90565b60406003193601126101ec57600435610330816101f1565b60243567ffffffffffffffff81116101ec57600091610354839236906004016102fa565b9082602083519301915af16103676111d5565b90156103b2576103ad7f582326e533af48b16567b0565a82550442e225cf8491cb9ae2a29e1f96935e7c9160405191829160018352604060208401526040830190610419565b0390a1005b606460405162461bcd60e51b815260206004820152600b60248201527f43616c6c206661696c65640000000000000000000000000000000000000000006044820152fd5b60005b8381106104095750506000910152565b81810151838201526020016103f9565b90601f19601f602093610437815180928187528780880191016103f6565b0116010190565b346101ec5760008060031936011261055b576004546040519082916006549361046685611205565b90818352602095869160019160018116908160001461053857506001146104de575b82866104da8761049a818c0382610255565b6104cc604051916104b5836104ae8161123f565b0384610255565b606060405196879687528601526060850190610419565b908382036040850152610419565b0390f35b92919550600683527ff652222313e28459528d920b65115c16c04f3efc82aaedc97be59f3f377c0d3f5b8284106105255750505081019092019161049a846104da83610488565b8054858501880152928601928101610508565b60ff19168487015250505090151560051b820101925061049a846104da83610488565b80fd5b346101ec5760006003193601126101ec576020600354604051908152f35b346101ec5760008060031936011261055b578060015580f35b346101ec5760406003193601126101ec576001600160a01b0360206004356105bc816101f1565b60646024356105cc8115156112f4565b600060405195869485937f23b872dd0000000000000000000000000000000000000000000000000000000085523360048601523060248601526044850152165af180156106545761001991600091610625575b50611363565b610647915060203d60201161064d575b61063f8183610255565b81019061133f565b3861061f565b503d610635565b611357565b346101ec576003196060813601126101ec5767ffffffffffffffff6004358181116101ec57610160813603938401126101ec576000927f19457468657265756d205369676e6564204d6573736167653a0a3332000000008452602435601c52603c8420917fffffffffffffffffffffffffffffffffffffffffffffffffffffffffffffffdd610144820135920182121561074e5701600481013592831161074a5760240191803603831361074a5761071c926107169136916102c3565b9061164e565b81546001600160a01b039081169116036107405760ff905b60405191168152602090f35b5060ff6001610734565b8380fd5b8480fd5b346101ec5760206003193601126101ec576001600160a01b036020600435610779816101f1565b6024604051809481937f70a08231000000000000000000000000000000000000000000000000000000008352306004840152165afa8015610654576020916000916107c8575b50604051908152f35b6107e89150823d84116107ee575b6107e08183610255565b8101906113ae565b386107bf565b503d6107d6565b346101ec5760006003193601126101ec5760206001600160a01b0360025416604051908152f35b346101ec5760806003193601126101ec57600435610839816101f1565b602435610845816101f1565b6108ce60443592610855846101f1565b606435602061086c6007546001600160a01b031690565b95610876836113d3565b9060409760006001600160a01b038a518099819682957f095ea7b300000000000000000000000000000000000000000000000000000000845260048401602090939291936001600160a01b0360408201951681520152565b0393165af19283156106545785936109d4575b506109036108f76008546001600160a01b031690565b6001600160a01b031690565b90600061090f42611404565b85517fbaa2abde0000000000000000000000000000000000000000000000000000000081526001600160a01b039586166004820152969094166024870152604486019190915260006064860181905260848601523060a486015260c4850192909252839160e4918391905af19182156106545760009160009361099f575b50519081526020810191909152604090f35b816109c59294506104da93503d85116109cd575b6109bd8183610255565b810190611413565b92909161098d565b503d6109b3565b6109ec9060203d60201161064d5761063f8183610255565b50386108e1565b346101ec5760006003193601126101ec5760206001600160a01b0360085416604051908152f35b346101ec5760006003193601126101ec5760206001600160a01b0360075416604051908152f35b6004359067ffffffffffffffff821682036101ec57565b359067ffffffffffffffff821682036101ec57565b346101ec5760a06003193601126101ec57610a86610a41565b60243590610a93826101f1565b604435610a9f816101f1565b610ac9606435610aae816101f1565b60843590610abb826101f1565b610ac3611441565b93611664565b91604092835192610b0084610af26020988983019190916001600160a01b036020820193169052565b03601f198101865285610255565b610b16610b0b610278565b622dc6c0815261173c565b91610b1f610287565b948552868501528484015260006060840152608083015282517fb0f479a10000000000000000000000000000000000000000000000000000000081528481600481305afa8015610654576001600160a01b0391600091610cbc575b50169083517f20487ded000000000000000000000000000000000000000000000000000000008152858180610bb3878660048401611469565b0381865afa90811561065457600091610c9f575b50478111610c5b57918493918693610c0c96518097819582947f96f4e9f900000000000000000000000000000000000000000000000000000000845260048401611469565b03925af1918215610654576104da93600093610c3c575b5050610c2e82600355565b519081529081906020820190565b610c53929350803d106107ee576107e08183610255565b903880610c23565b845162461bcd60e51b815260206004820152601260248201527f4e6f7420656e6f7567682062616c616e636500000000000000000000000000006044820152606490fd5b610cb69150863d88116107ee576107e08183610255565b38610bc7565b610cdc9150863d8811610ce2575b610cd48183610255565b810190611454565b38610b7a565b503d610cca565b346101ec576003196020813601126101ec5760049081359067ffffffffffffffff908183116101ec5760a09083360301126101ec576001600160a01b037f0000000000000000000000000000000000000000000000000000000000000000163303610dd557610d56610287565b91808401358352610d6960248201610a58565b602084015260448101358281116101ec57610d89908536918401016102fa565b604084015260648101358281116101ec57610da9908536918401016102fa565b606084015260848101359182116101ec5761001993610dcb923692010161155c565b6080820152611afc565b6040517fd7f733340000000000000000000000000000000000000000000000000000000081523381850152602490fd5b346101ec5760006003193601126101ec5760206001600160a01b0360005416604051908152f35b346101ec5760406003193601126101ec57600435610e49816101f1565b6001600160a01b0360243591610e608315156112f4565b6040517f70a082310000000000000000000000000000000000000000000000000000000081523060048201526020939291909116908381602481855afa9182156106545783610ec06000958795610f03958891610f3e575b5010156115e8565b6040517fa9059cbb000000000000000000000000000000000000000000000000000000008152336004820152602481019190915293849283919082906044820190565b03925af19081156106545761001992600092610f21575b5050611363565b610f379250803d1061064d5761063f8183610255565b3880610f1a565b610f559150873d89116107ee576107e08183610255565b38610eb8565b346101ec5760006003193601126101ec5760206040516001600160a01b037f0000000000000000000000000000000000000000000000000000000000000000168152f35b346101ec5760006003193601126101ec576020600154604051908152f35b346101ec5760806003193601126101ec57600435610fda816101f1565b602435610fe6816101f1565b6007546001600160a01b03916064359160443590841693611006826113ee565b6040517f095ea7b3000000000000000000000000000000000000000000000000000000008082526001600160a01b0397909716600482015260248101919091529460209190828760448160008c87165af1918215610654576110ad9784936111b8575b506007546001600160a01b03166000611081896113ee565b936040519a8b9586948593845260048401602090939291936001600160a01b0360408201951681520152565b039288165af19485156106545760609561119a575b505060006110db6108f76008546001600160a01b031690565b926111626110e842611404565b604051988997889687957fe8e33700000000000000000000000000000000000000000000000000000000008752309360048801929360e09497969591976101008501986001600160a01b03948580921687521660208601526040850152606084015260006080840152600060a08401521660c08201520152565b03925af180156106545761117257005b6100199060603d606011611193575b61118b8183610255565b810190611633565b503d611181565b816111b092903d1061064d5761063f8183610255565b5038806110c2565b6111ce90843d861161064d5761063f8183610255565b5038611069565b3d15611200573d906111e6826102a7565b916111f46040519384610255565b82523d6000602084013e565b606090565b90600182811c92168015611235575b602083101461121f57565b634e487b7160e01b600052602260045260246000fd5b91607f1691611214565b6005546000929161124f82611205565b808252916020906001908181169081156112ce5750600114611272575b50505050565b9293945060056000527f036b6384b5eca791c62761152d0c79bb0604c104a5fb6f4eb0703f3154bb3db0926000935b8585106112bb57505050602092500101903880808061126c565b80548585018401529382019381016112a1565b915050602094955060ff1991509291921683830152151560051b0101903880808061126c565b156112fb57565b606460405162461bcd60e51b815260206004820152601d60248201527f416d6f756e74206d7573742062652067726561746572207468616e20300000006044820152fd5b908160209103126101ec575180151581036101ec5790565b6040513d6000823e3d90fd5b1561136a57565b606460405162461bcd60e51b815260206004820152600f60248201527f5472616e73666572206661696c656400000000000000000000000000000000006044820152fd5b908160209103126101ec575190565b634e487b7160e01b600052601160045260246000fd5b908160011b91808304600214901517156113e957565b6113bd565b906003820291808304600314901517156113e957565b9061012c82018092116113e957565b91908260409103126101ec576020825192015190565b67ffffffffffffffff81116102345760051b60200190565b60405161144d81610239565b6000815290565b908160209103126101ec5751610315816101f1565b9092919267ffffffffffffffff60409116825260209160408382015261149b855160a0604084015260e0830190610419565b916114d584870151937fffffffffffffffffffffffffffffffffffffffffffffffffffffffffffffffc09485858303016060860152610419565b604087015194848483030160808501528080875193848152019601926000905b83821061153357505050505060c060808661152460606103159899015160a08601906001600160a01b03169052565b01519282850301910152610419565b845180516001600160a01b031689528301518884015296870196938201936001909101906114f5565b9080601f830112156101ec57813591602061157684611429565b936040936115876040519687610255565b818652828087019260061b850101938185116101ec578301915b8483106115b15750505050505090565b85838303126101ec5783869182516115c881610218565b85356115d3816101f1565b815282860135838201528152019201916115a1565b156115ef57565b606460405162461bcd60e51b815260206004820152601460248201527f496e73756666696369656e742062616c616e63650000000000000000000000006044820152fd5b908160609103126101ec578051916040602083015192015190565b6103159161165b91611c1d565b90929192611c79565b6040517f133572ba0000000000000000000000000000000000000000000000000000000060208201526001600160a01b0392831660248201529282166044808501919091528352608083019267ffffffffffffffff84118185101761023457610315927fffffffffffffffffffffffffffffffffffffffffffffffffffffffffffffff809285604052600060a08401521660c0820152606060e082015261170f610100820182610419565b037fffffffffffffffffffffffffffffffffffffffffffffffffffffffffffffff60810184520182610255565b604051907f97a657c9000000000000000000000000000000000000000000000000000000006020830152516024820152602481526060810181811067ffffffffffffffff8211176102345760405290565b9092919261179a816102a7565b916117a86040519384610255565b8294828452828201116101ec5760206102859301906103f6565b156117c957565b606460405162461bcd60e51b815260206004820152601560248201527f4c6f772d6c6576656c2063616c6c206661696c656400000000000000000000006044820152fd5b6020818303126101ec5780519067ffffffffffffffff82116101ec57019080601f830112156101ec5781516103159260200161178d565b601f8111611850575050565b60009060066000527ff652222313e28459528d920b65115c16c04f3efc82aaedc97be59f3f377c0d3f906020601f850160051c830194106118ac575b601f0160051c01915b8281106118a157505050565b818155600101611895565b909250829061188c565b601f81116118c2575050565b60009060056000527f036b6384b5eca791c62761152d0c79bb0604c104a5fb6f4eb0703f3154bb3db0906020601f850160051c8301941061191e575b601f0160051c01915b82811061191357505050565b818155600101611907565b90925082906118fe565b90815167ffffffffffffffff81116102345761194e81611949600654611205565b611844565b602080601f8311600114611990575081906119809394600092611985575b50506000198260011b9260031b1c19161790565b600655565b01519050388061196c565b90601f198316946119c360066000527ff652222313e28459528d920b65115c16c04f3efc82aaedc97be59f3f377c0d3f90565b926000905b878210611a005750508360019596106119e7575b505050811b01600655565b015160001960f88460031b161c191690553880806119dc565b806001859682949686015181550195019301906119c8565b90815167ffffffffffffffff811161023457611a3e81611a39600554611205565b6118b6565b602080601f8311600114611a7457508190611a6f93946000926119855750506000198260011b9260031b1c19161790565b600555565b90601f19831694611aa760056000527f036b6384b5eca791c62761152d0c79bb0604c104a5fb6f4eb0703f3154bb3db090565b926000905b878210611ae4575050836001959610611acb575b505050811b01600555565b015160001960f88460031b161c19169055388080611ac0565b80600185968294968601518155019501930190611aac565b606081018051918251906020918401916060858285019403126101ec57808501519260ff84168094036101ec57604086015195611b38876101f1565b60608101519067ffffffffffffffff82116101ec57019281603f850112156101ec5761028596611b9d95611b7a611b899487604088611b989a0151910161178d565b9015611ba3575b505051600455565b8351805181018201910161180d565b611928565b51611a18565b6108f760008083611c1695826001600160a01b038b611be29851940192165af1611bd4611bce6111d5565b916117c2565b868082518301019101611454565b6001600160a01b03167fffffffffffffffffffffffff00000000000000000000000000000000000000006002541617600255565b3880611b81565b8151919060418303611c4e57611c4792506020820151906060604084015193015160001a90611d50565b9192909190565b505060009160029190565b60041115611c6357565b634e487b7160e01b600052602160045260246000fd5b611c8281611c59565b80611c8b575050565b611c9481611c59565b60018103611cc65760046040517ff645eedf000000000000000000000000000000000000000000000000000000008152fd5b611ccf81611c59565b60028103611d09576040517ffce698f700000000000000000000000000000000000000000000000000000000815260048101839052602490fd5b80611d15600392611c59565b14611d1d5750565b6040517fd78bce0c0000000000000000000000000000000000000000000000000000000081526004810191909152602490fd5b91907f7fffffffffffffffffffffffffffffff5d576e7357a4501ddfe92f46681b20a08411611dc857926020929160ff608095604051948552168484015260408301526060820152600092839182805260015afa156106545780516001600160a01b03811615611dbf57918190565b50809160019190565b5050506000916003919056fea26469706673582212203dce353c0aad3cecfe78c73ee90d1f7a66c4fc5fd26c20f071782c8278fc26fe64736f6c63430008180033",
  "linkReferences": {},
  "deployedLinkReferences": {}
}