{
  "_format": "hh-sol-artifact-1",
  "contractName": "Paymaster",
  "sourceName": "contracts/Paymaster.sol",
  "abi": [
    {
      "anonymous": false,
      "inputs": [
        {
          "indexed": true,
          "internalType": "address",
          "name": "account",
          "type": "address"
        },
        {
          "indexed": false,
          "internalType": "uint256",
          "name": "totalDeposit",
          "type": "uint256"
        }
      ],
      "name": "Deposited",
      "type": "event"
    },
    {
      "anonymous": false,
      "inputs": [
        {
          "indexed": true,
          "internalType": "address",
          "name": "account",
          "type": "address"
        },
        {
          "indexed": false,
          "internalType": "uint256",
          "name": "totalStaked",
          "type": "uint256"
        },
        {
          "indexed": false,
          "internalType": "uint256",
          "name": "unstakeDelaySec",
          "type": "uint256"
        }
      ],
      "name": "StakeLocked",
      "type": "event"
    },
    {
      "anonymous": false,
      "inputs": [
        {
          "indexed": true,
          "internalType": "address",
          "name": "account",
          "type": "address"
        },
        {
          "indexed": false,
          "internalType": "uint256",
          "name": "withdrawTime",
          "type": "uint256"
        }
      ],
      "name": "StakeUnlocked",
      "type": "event"
    },
    {
      "anonymous": false,
      "inputs": [
        {
          "indexed": true,
          "internalType": "address",
          "name": "account",
          "type": "address"
        },
        {
          "indexed": false,
          "internalType": "address",
          "name": "withdrawAddress",
          "type": "address"
        },
        {
          "indexed": false,
          "internalType": "uint256",
          "name": "amount",
          "type": "uint256"
        }
      ],
      "name": "StakeWithdrawn",
      "type": "event"
    },
    {
      "anonymous": false,
      "inputs": [
        {
          "indexed": true,
          "internalType": "address",
          "name": "account",
          "type": "address"
        },
        {
          "indexed": false,
          "internalType": "address",
          "name": "withdrawAddress",
          "type": "address"
        },
        {
          "indexed": false,
          "internalType": "uint256",
          "name": "amount",
          "type": "uint256"
        }
      ],
      "name": "Withdrawn",
      "type": "event"
    },
    {
      "inputs": [
        {
          "internalType": "uint32",
          "name": "unstakeDelaySec",
          "type": "uint32"
        }
      ],
      "name": "addStake",
      "outputs": [],
      "stateMutability": "payable",
      "type": "function"
    },
    {
      "inputs": [
        {
          "internalType": "address",
          "name": "account",
          "type": "address"
        }
      ],
      "name": "balanceOf",
      "outputs": [
        {
          "internalType": "uint256",
          "name": "",
          "type": "uint256"
        }
      ],
      "stateMutability": "view",
      "type": "function"
    },
    {
      "inputs": [
        {
          "internalType": "uint64",
          "name": "_destinationChainSelector",
          "type": "uint64"
        },
        {
          "internalType": "address",
          "name": "_sourceRouter",
          "type": "address"
        },
        {
          "components": [
            {
              "internalType": "bytes",
              "name": "receiver",
              "type": "bytes"
            },
            {
              "internalType": "bytes",
              "name": "data",
              "type": "bytes"
            },
            {
              "components": [
                {
                  "internalType": "address",
                  "name": "token",
                  "type": "address"
                },
                {
                  "internalType": "uint256",
                  "name": "amount",
                  "type": "uint256"
                }
              ],
              "internalType": "struct Client.EVMTokenAmount[]",
              "name": "tokenAmounts",
              "type": "tuple[]"
            },
            {
              "internalType": "address",
              "name": "feeToken",
              "type": "address"
            },
            {
              "internalType": "bytes",
              "name": "extraArgs",
              "type": "bytes"
            }
          ],
          "internalType": "struct Client.EVM2AnyMessage",
          "name": "evm2AnyMessage",
          "type": "tuple"
        }
      ],
      "name": "ccipFeeOnBehalf",
      "outputs": [
        {
          "internalType": "bytes32",
          "name": "messageId",
          "type": "bytes32"
        }
      ],
      "stateMutability": "nonpayable",
      "type": "function"
    },
    {
      "inputs": [
        {
          "internalType": "uint64",
          "name": "_destinationChainSelector",
          "type": "uint64"
        },
        {
          "internalType": "address",
          "name": "_sourceRouter",
          "type": "address"
        },
        {
          "components": [
            {
              "internalType": "bytes",
              "name": "receiver",
              "type": "bytes"
            },
            {
              "internalType": "bytes",
              "name": "data",
              "type": "bytes"
            },
            {
              "components": [
                {
                  "internalType": "address",
                  "name": "token",
                  "type": "address"
                },
                {
                  "internalType": "uint256",
                  "name": "amount",
                  "type": "uint256"
                }
              ],
              "internalType": "struct Client.EVMTokenAmount[]",
              "name": "tokenAmounts",
              "type": "tuple[]"
            },
            {
              "internalType": "address",
              "name": "feeToken",
              "type": "address"
            },
            {
              "internalType": "bytes",
              "name": "extraArgs",
              "type": "bytes"
            }
          ],
          "internalType": "struct Client.EVM2AnyMessage",
          "name": "evm2AnyMessage",
          "type": "tuple"
        },
        {
          "internalType": "address",
          "name": "token",
          "type": "address"
        },
        {
          "internalType": "uint256",
          "name": "amount",
          "type": "uint256"
        }
      ],
      "name": "ccipFeeOnBehalfToken",
      "outputs": [
        {
          "internalType": "bytes32",
          "name": "messageId",
          "type": "bytes32"
        }
      ],
      "stateMutability": "nonpayable",
      "type": "function"
    },
    {
      "inputs": [
        {
          "internalType": "address",
          "name": "account",
          "type": "address"
        }
      ],
      "name": "depositTo",
      "outputs": [],
      "stateMutability": "payable",
      "type": "function"
    },
    {
      "inputs": [
        {
          "internalType": "address",
          "name": "",
          "type": "address"
        }
      ],
      "name": "deposits",
      "outputs": [
        {
          "internalType": "uint112",
          "name": "deposit",
          "type": "uint112"
        },
        {
          "internalType": "bool",
          "name": "staked",
          "type": "bool"
        },
        {
          "internalType": "uint112",
          "name": "stake",
          "type": "uint112"
        },
        {
          "internalType": "uint32",
          "name": "unstakeDelaySec",
          "type": "uint32"
        },
        {
          "internalType": "uint48",
          "name": "withdrawTime",
          "type": "uint48"
        }
      ],
      "stateMutability": "view",
      "type": "function"
    },
    {
      "inputs": [
        {
          "internalType": "address",
          "name": "account",
          "type": "address"
        }
      ],
      "name": "getDepositInfo",
      "outputs": [
        {
          "components": [
            {
              "internalType": "uint112",
              "name": "deposit",
              "type": "uint112"
            },
            {
              "internalType": "bool",
              "name": "staked",
              "type": "bool"
            },
            {
              "internalType": "uint112",
              "name": "stake",
              "type": "uint112"
            },
            {
              "internalType": "uint32",
              "name": "unstakeDelaySec",
              "type": "uint32"
            },
            {
              "internalType": "uint48",
              "name": "withdrawTime",
              "type": "uint48"
            }
          ],
          "internalType": "struct IStakeManager.DepositInfo",
          "name": "info",
          "type": "tuple"
        }
      ],
      "stateMutability": "view",
      "type": "function"
    },
    {
      "inputs": [
        {
          "internalType": "enum IPaymaster.PostOpMode",
          "name": "mode",
          "type": "uint8"
        },
        {
          "internalType": "bytes",
          "name": "context",
          "type": "bytes"
        },
        {
          "internalType": "uint256",
          "name": "actualGasCost",
          "type": "uint256"
        }
      ],
      "name": "postOp",
      "outputs": [],
      "stateMutability": "nonpayable",
      "type": "function"
    },
    {
      "inputs": [],
      "name": "unlockStake",
      "outputs": [],
      "stateMutability": "nonpayable",
      "type": "function"
    },
    {
      "inputs": [
        {
          "components": [
            {
              "internalType": "address",
              "name": "sender",
              "type": "address"
            },
            {
              "internalType": "uint256",
              "name": "nonce",
              "type": "uint256"
            },
            {
              "internalType": "bytes",
              "name": "initCode",
              "type": "bytes"
            },
            {
              "internalType": "bytes",
              "name": "callData",
              "type": "bytes"
            },
            {
              "internalType": "uint256",
              "name": "callGasLimit",
              "type": "uint256"
            },
            {
              "internalType": "uint256",
              "name": "verificationGasLimit",
              "type": "uint256"
            },
            {
              "internalType": "uint256",
              "name": "preVerificationGas",
              "type": "uint256"
            },
            {
              "internalType": "uint256",
              "name": "maxFeePerGas",
              "type": "uint256"
            },
            {
              "internalType": "uint256",
              "name": "maxPriorityFeePerGas",
              "type": "uint256"
            },
            {
              "internalType": "bytes",
              "name": "paymasterAndData",
              "type": "bytes"
            },
            {
              "internalType": "bytes",
              "name": "signature",
              "type": "bytes"
            }
          ],
          "internalType": "struct UserOperation",
          "name": "",
          "type": "tuple"
        },
        {
          "internalType": "bytes32",
          "name": "",
          "type": "bytes32"
        },
        {
          "internalType": "uint256",
          "name": "",
          "type": "uint256"
        }
      ],
      "name": "validatePaymasterUserOp",
      "outputs": [
        {
          "internalType": "bytes",
          "name": "context",
          "type": "bytes"
        },
        {
          "internalType": "uint256",
          "name": "validationData",
          "type": "uint256"
        }
      ],
      "stateMutability": "pure",
      "type": "function"
    },
    {
      "inputs": [
        {
          "internalType": "address payable",
          "name": "withdrawAddress",
          "type": "address"
        }
      ],
      "name": "withdrawStake",
      "outputs": [],
      "stateMutability": "nonpayable",
      "type": "function"
    },
    {
      "inputs": [
        {
          "internalType": "address payable",
          "name": "withdrawAddress",
          "type": "address"
        },
        {
          "internalType": "uint256",
          "name": "withdrawAmount",
          "type": "uint256"
        }
      ],
      "name": "withdrawTo",
      "outputs": [],
      "stateMutability": "nonpayable",
      "type": "function"
    },
    {
      "stateMutability": "payable",
      "type": "receive"
    }
  ],
  "bytecode": "0x6080806040523461001657611402908161001c8239f35b600080fdfe608060408181526004918236101561002b575b505050361561002057600080fd5b610029336112f9565b005b600092833560e01c9182630396cb6014610c6157508163205c287814610b055781635287ce1214610a2b5781636628c6e8146108c957816370a0823114610883578163a9a234091461082e578163b344b6ea1461055e578163b760faf91461053e578163bb9fe6bf146103da578163c23a5cea146101c7578163f465c77e14610144575063fc7e286d146100bf5780610012565b346101405760206003193601126101405765ffffffffffff8160a0936001600160a01b036100eb610f0f565b168152806020522080549260016dffffffffffffffffffffffffffff92015491815194818116865260ff8160701c161515602087015260781c169084015263ffffffff8116606084015260201c166080820152f35b5080fd5b8284346101c4576003196060813601126101405767ffffffffffffffff9084358281116101c0579061016091360301126101405782519360208501918211858310176101ad575082528083526101a3825193838594855284019061115f565b9060208301520390f35b826041602492634e487b7160e01b835252fd5b8380fd5b80fd5b919050346103d657602090816003193601126101c0576101e5610f0f565b338552848352818520908154916dffffffffffffffffffffffffffff8360781c169283156103945760018201805465ffffffffffff81891c168015610352574210610310577fffffffffffffffffffffffffffffffffffffffffffff000000000000000000001690557fffffff0000000000000000000000000000ffffffffffffffffffffffffffffff16905582516001600160a01b038281168252602082018490528793849384938493919033907fb7c918e0e249f999e965cafeb6c664271b3f4317d296461500e71da39f0cbda390604090a2165af16102c56111c2565b50156102cf578380f35b60649350519162461bcd60e51b8352820152601860248201527f6661696c656420746f207769746864726177207374616b6500000000000000006044820152fd5b6064898989519162461bcd60e51b8352820152601b60248201527f5374616b65207769746864726177616c206973206e6f742064756500000000006044820152fd5b60648a8a8a519162461bcd60e51b8352820152601d60248201527f6d7573742063616c6c20756e6c6f636b5374616b6528292066697273740000006044820152fd5b6064878787519162461bcd60e51b8352820152601460248201527f4e6f207374616b6520746f2077697468647261770000000000000000000000006044820152fd5b8280fd5b919050346103d657826003193601126103d6573383528260205280832090600182019163ffffffff8354169283156104fb5760ff825460701c16156104b85765ffffffffffff9384421601948486116104a55750805469ffffffffffff000000001916602086901b69ffffffffffff00000000161790557fffffffffffffffffffffffffffffffffff00ffffffffffffffffffffffffffff815416905551911681527ffa9b3c14cc825c412c9ed81b3ba365a5b459439403f18829e572ed53a4180f0a60203392a280f35b866011602492634e487b7160e01b835252fd5b606485602085519162461bcd60e51b8352820152601160248201527f616c726561647920756e7374616b696e670000000000000000000000000000006044820152fd5b606485602085519162461bcd60e51b8352820152600a60248201527f6e6f74207374616b6564000000000000000000000000000000000000000000006044820152fd5b8360206003193601126101c45761055b610556610f0f565b6112f9565b80f35b8383346101405760a060031936011261014057610579610f54565b610581610f2a565b9360443567ffffffffffffffff811161082a576105a19036908301611023565b916064356001600160a01b03808216809203610826576084359716928551917f20487ded0000000000000000000000000000000000000000000000000000000083526020988984806105f68a898884016111f2565b0381895afa93841561081c5789946107e9575b504784116107995787517f23b872dd00000000000000000000000000000000000000000000000000000000815233848201523060248201528160448201528a816064818d875af1801561078f578b928b9492604492610772575b508a5194859384927f095ea7b30000000000000000000000000000000000000000000000000000000084528b8985015260248401525af180156107685791899593916106e497959361073b575b508751968795869485937f96f4e9f900000000000000000000000000000000000000000000000000000000855284016111f2565b03925af19283156107305780936106fe575b505051908152f35b909192508382813d8311610729575b6107178183610f9d565b810103126101c45750519083806106f6565b503d61070d565b8251903d90823e3d90fd5b61075a90873d8911610761575b6107528183610f9d565b8101906112e1565b508a6106b0565b503d610748565b87513d8a823e3d90fd5b61078890853d8711610761576107528183610f9d565b508d610663565b89513d8c823e3d90fd5b6107e583895191829162461bcd60e51b8352820160609060208152601260208201527f4e6f7420656e6f7567682062616c616e6365000000000000000000000000000060408201520190565b0390fd5b9093508981813d8311610815575b6108018183610f9d565b810103126108115751928a610609565b8880fd5b503d6107f7565b88513d8b823e3d90fd5b8680fd5b8480fd5b83903461014057606060031936011261014057600381351015610140576024359067ffffffffffffffff908183116101c057366023840112156101c0578201359081116103d657369101602401116101c45780f35b505034610140576020600319360112610140576dffffffffffffffffffffffffffff816020936001600160a01b036108b9610f0f565b1681528085522054169051908152f35b838334610140576060600319360112610140576108e4610f54565b6108ec610f2a565b9060443567ffffffffffffffff811161082a576109146001600160a01b039136908801611023565b92169083517f20487ded00000000000000000000000000000000000000000000000000000000815260209687828061094f88878684016111f2565b0381875afa918215610a215787926109f2575b504782116109a657918793916106e495938751968795869485937f96f4e9f900000000000000000000000000000000000000000000000000000000855284016111f2565b6107e590865191829162461bcd60e51b8352820160609060208152601260208201527f4e6f7420656e6f7567682062616c616e6365000000000000000000000000000060408201520190565b9091508781813d8311610a1a575b610a0a8183610f9d565b8101031261082657519088610962565b503d610a00565b86513d89823e3d90fd5b505034610140576020806003193601126103d6576080908260a0946001600160a01b03610a56610f0f565b82868551610a6381610f6b565b828152828882015282878201528260608201520152168152808352208351610a8a81610f6b565b8154946dffffffffffffffffffffffffffff8087169687845260018685019560ff8360701c1615158752838587019360781c16835201549563ffffffff956060860195878916875265ffffffffffff998a910198831c1688528451998a52511515908901525116908601525116606084015251166080820152f35b919050346103d657806003193601126103d657610b20610f0f565b602435903385528460205282852080546dffffffffffffffffffffffffffff808216808611610c1e57858103908111610c0b57166dffffffffffffffffffffffffffff199190911617905582516001600160a01b038281168252602082018490528693849384938493919033907fd1c19fbcd4551a5edfb66d43d2e337c04837afda3482b42bdf569a8fccdae5fb90604090a2165af1610bbe6111c2565b5015610bc8578280f35b906020606492519162461bcd60e51b8352820152601260248201527f6661696c656420746f20776974686472617700000000000000000000000000006044820152fd5b60248960118a634e487b7160e01b835252fd5b606488602089519162461bcd60e51b8352820152601960248201527f576974686472617720616d6f756e7420746f6f206c61726765000000000000006044820152fd5b8482856020806003193601126101c05782359063ffffffff95868316809303610f0b57338652858252838620908315610ecb5750866001820154168310610e895754956dffffffffffffffffffffffffffff96610cc334898360781c1661119f565b958615610e4757888711610e0557509665ffffffffffff87610df79360017fa5ae833d0bb1dcd632d98a8b70973e8516812898e19bf27b70071ebc8dc52c01999a9b858a5191610d1283610f6b565b1681528781018281528c878c84019116815260608301978b89528c6080850197808952338152808d52209351167fffffff00000000000000000000000000000000000000000000000000000000007cffffffffffffffffffffffffffff0000000000000000000000000000006eff000000000000000000000000000086549551151560701b16935160781b1693161717178155019351167fffffffffffffffffffffffffffffffffffffffffffffffffffffffff00000000845416178355511669ffffffffffff000000001969ffffffffffff0000000083549260201b169116179055565b82519485528401523392a280f35b6064908487519162461bcd60e51b8352820152600e60248201527f7374616b65206f766572666c6f770000000000000000000000000000000000006044820152fd5b6064908487519162461bcd60e51b8352820152601260248201527f6e6f207374616b652073706563696669656400000000000000000000000000006044820152fd5b6064858386519162461bcd60e51b8352820152601c60248201527f63616e6e6f7420646563726561736520756e7374616b652074696d65000000006044820152fd5b80838762461bcd60e51b60649452820152601a60248201527f6d757374207370656369667920756e7374616b652064656c61790000000000006044820152fd5b8580fd5b600435906001600160a01b0382168203610f2557565b600080fd5b602435906001600160a01b0382168203610f2557565b35906001600160a01b0382168203610f2557565b6004359067ffffffffffffffff82168203610f2557565b60a0810190811067ffffffffffffffff821117610f8757604052565b634e487b7160e01b600052604160045260246000fd5b90601f601f19910116810190811067ffffffffffffffff821117610f8757604052565b67ffffffffffffffff8111610f8757601f01601f191660200190565b81601f82011215610f2557803590610ff382610fc0565b926110016040519485610f9d565b82845260208383010111610f2557816000926020809301838601378301015290565b91909160a081840312610f2557604080519161103e83610f6b565b829481359267ffffffffffffffff93848111610f255782611060918501610fdc565b855260209081840135858111610f25578361107c918601610fdc565b8287015280840135858111610f2557840183601f82011215610f2557803592868411610f87578251936110b4828260051b0186610f9d565b808552818086019160061b84010192868411610f25578201905b83821061110b57505050508501526110e860608301610f40565b60608501526080820135928311610f25576080926111069201610fdc565b910152565b8482880312610f2557845190858201908282108b83111761114a5786928592845261113585610f40565b815282850135838201528152019101906110ce565b60246000634e487b7160e01b81526041600452fd5b919082519283825260005b84811061118b575050601f19601f8460006020809697860101520116010190565b60208183018101518483018201520161116a565b919082018092116111ac57565b634e487b7160e01b600052601160045260246000fd5b3d156111ed573d906111d382610fc0565b916111e16040519384610f9d565b82523d6000602084013e565b606090565b9092919267ffffffffffffffff604091168252602091604083820152611224855160a0604084015260e083019061115f565b9161125e84870151937fffffffffffffffffffffffffffffffffffffffffffffffffffffffffffffffc0948585830301606086015261115f565b604087015194848483030160808501528080875193848152019601926000905b8382106112b857505050505060c06080866001600160a01b0360606112b5989901511660a08501520151928285030191015261115f565b90565b845180516001600160a01b0316895283015188840152968701969382019360019091019061127e565b90816020910312610f2557518015158103610f255790565b6001600160a01b031660008181528060205260408120908154906dffffffffffffffffffffffffffff9061132f3483851661119f565b90828211611388577f2da466a7b24304f47e87fa2e1e5a81b9831ce54fec19055ce277ca2f39ba42c4946020946dffffffffffffffffffffffffffff1985604095169116179055858152808452205416604051908152a2565b606460405162461bcd60e51b815260206004820152601060248201527f6465706f736974206f766572666c6f77000000000000000000000000000000006044820152fdfea26469706673582212201d3d80da49bf26391c156f793384fbcf3702acdd4bd5452e24566475742e87ae64736f6c63430008180033",
  "linkReferences": {},
  "deployedLinkReferences": {}
}