{
  "_format": "hh-sol-artifact-1",
  "contractName": "AccountFactory",
  "sourceName": "contracts/AccountFactory.sol",
  "abi": [
    {
      "inputs": [
        {
          "internalType": "address",
          "name": "_ccipRouter",
          "type": "address"
        }
      ],
      "stateMutability": "nonpayable",
      "type": "constructor"
    },
    {
      "inputs": [],
      "name": "SALT",
      "outputs": [
        {
          "internalType": "bytes32",
          "name": "",
          "type": "bytes32"
        }
      ],
      "stateMutability": "view",
      "type": "function"
    },
    {
      "inputs": [],
      "name": "accountImplementation",
      "outputs": [
        {
          "internalType": "contract AccountNative",
          "name": "",
          "type": "address"
        }
      ],
      "stateMutability": "view",
      "type": "function"
    },
    {
      "inputs": [
        {
          "internalType": "bytes32[2]",
          "name": "publicKey",
          "type": "bytes32[2]"
        }
      ],
      "name": "createAccount",
      "outputs": [
        {
          "internalType": "contract AccountNative",
          "name": "",
          "type": "address"
        }
      ],
      "stateMutability": "payable",
      "type": "function"
    },
    {
      "inputs": [
        {
          "internalType": "bytes32[2]",
          "name": "publicKey",
          "type": "bytes32[2]"
        }
      ],
      "name": "getCounterfactualAddress",
      "outputs": [
        {
          "internalType": "address",
          "name": "",
          "type": "address"
        }
      ],
      "stateMutability": "view",
      "type": "function"
    },
    {
      "inputs": [
        {
          "internalType": "string",
          "name": "id",
          "type": "string"
        }
      ],
      "name": "getUser",
      "outputs": [
        {
          "components": [
            {
              "internalType": "string",
              "name": "id",
              "type": "string"
            },
            {
              "internalType": "bytes32[2]",
              "name": "publicKey",
              "type": "bytes32[2]"
            },
            {
              "internalType": "address",
              "name": "account",
              "type": "address"
            }
          ],
          "internalType": "struct User",
          "name": "",
          "type": "tuple"
        }
      ],
      "stateMutability": "view",
      "type": "function"
    },
    {
      "inputs": [
        {
          "internalType": "string",
          "name": "id",
          "type": "string"
        },
        {
          "internalType": "bytes32[2]",
          "name": "publicKey",
          "type": "bytes32[2]"
        }
      ],
      "name": "saveUser",
      "outputs": [],
      "stateMutability": "nonpayable",
      "type": "function"
    },
    {
      "inputs": [
        {
          "internalType": "string",
          "name": "id",
          "type": "string"
        }
      ],
      "name": "users",
      "outputs": [
        {
          "internalType": "string",
          "name": "id",
          "type": "string"
        },
        {
          "internalType": "address",
          "name": "account",
          "type": "address"
        }
      ],
      "stateMutability": "view",
      "type": "function"
    }
  ],
  "bytecode": "0x60a0346100d2576001600160401b0390601f6140cd38819003918201601f1916830191848311848410176100bc578084926020946040528339810103126100d257516001600160a01b038116908190036100d2576040519161319690818401908111848210176100bc576040928492610f37843933825260208201520301906000f080156100b057608052604051610e5f90816100d882396080518181816105e5015281816109bb0152610ac90152f35b6040513d6000823e3d90fd5b634e487b7160e01b600052604160045260246000fd5b600080fdfe604060808152600490813610156200001657600080fd5b600091823560e01c908162ab22e5146200060957816311464fbe14620005c35781632b45576314620002da57816331feb6711462000189578163689e1c0314620000f157508063ba9a91a514620000b55763d8cd1ecc146200007757600080fd5b34620000b15780600319360112620000b1576020906001600160a01b03620000a9620000a336620006ab565b62000a0c565b915191168152f35b5080fd5b5034620000b15781600319360112620000b157602090517fa4fb38cf4b0bf210f043c7762dde92916dbaf2d16f82c7b9414def8a49fa55c38152f35b83915034620000b1576020600319360112620000b157803567ffffffffffffffff81116200018557916200012f6020926200014394369101620006f8565b908285519483868095519384920162000754565b820190815203019020906001600160a01b0360036200016284620007dd565b930154166200017b825193838594855284019062000779565b9060208301520390f35b8280fd5b90508234620002d75760209182600319360112620000b157803567ffffffffffffffff811162000185576200020684620001c981948894369101620006f8565b85848051620001d88162000637565b606081528151620001e9816200066a565b823682378582015201528184519382858094519384920162000754565b810186815203019020918151916200021e8362000637565b6200022984620007dd565b8352600194815192839587600182019784905b60028210620002c35750505084959650620002596003956200066a565b8187019586526001600160a01b039485910154169280870193845262000290815197838952516080848a015260a089019062000779565b9551929087015b60028210620002af5784518616608089015287870388f35b835181529282019290880190820162000297565b89548152988201989082019084016200023c565b80fd5b90503462000185576060600319360112620001855767ffffffffffffffff908035828111620005bf57620003129036908301620006f8565b903660431215620005bf5783516200032a816200066a565b60648136821162000598576024905b828210620005ae575050508451937fd8cd1ecc0000000000000000000000000000000000000000000000000000000085526020928386806200037e86858301620008ad565b0381305afa958615620005a45788966200055a575b50620003d384885196620003a78862000637565b808852818801958652818a89019a6001600160a01b03809b168c52519382858094519384920162000754565b81018b81520301902094519081519283116200054757508190620003f88654620007a0565b601f8111620004f4575b508490601f83116001146200048e57899262000482575b50506000198260011b9260031b1c19161783555b51855b600281106200046c575050506003019151167fffffffffffffffffffffffff000000000000000000000000000000000000000082541617905580f35b6001908383519301928282870101550162000430565b01519050388062000419565b868a52858a2092601f19168a5b87828210620004dd575050908460019594939210620004c3575b505050811b0183556200042d565b015160001960f88460031b161c19169055388080620004b5565b60018596829396860151815501950193016200049b565b909150858952848920601f840160051c8101918685106200053c575b90601f859493920160051c01905b8181106200052d575062000402565b8a81558493506001016200051e565b909150819062000510565b886041602492634e487b7160e01b835252fd5b9095508381813d83116200059c575b62000575818362000687565b810103126200059857516001600160a01b03811681036200059857943862000393565b8780fd5b503d62000569565b87513d8a823e3d90fd5b813581526020918201910162000339565b8480fd5b505034620000b15781600319360112620000b157602090516001600160a01b037f0000000000000000000000000000000000000000000000000000000000000000168152f35b505080600319360112620000b1576020906001600160a01b03620000a96200063136620006ab565b62000902565b6060810190811067ffffffffffffffff8211176200065457604052565b634e487b7160e01b600052604160045260246000fd5b6040810190811067ffffffffffffffff8211176200065457604052565b90601f601f19910116810190811067ffffffffffffffff8211176200065457604052565b8060231215620006f35760405190620006c4826200066a565b81604491604411620006f3576004905b828210620006e25750505090565b8135815260209182019101620006d4565b600080fd5b81601f82011215620006f35780359067ffffffffffffffff8211620006545760405192620007316020601f19601f860116018562000687565b82845260208383010111620006f357816000926020809301838601378301015290565b60005b838110620007685750506000910152565b818101518382015260200162000757565b90601f19601f602093620007998151809281875287808801910162000754565b0116010190565b90600182811c92168015620007d2575b6020831014620007bc57565b634e487b7160e01b600052602260045260246000fd5b91607f1691620007b0565b90604051918260008254620007f281620007a0565b908184526020946001916001811690816000146200086a575060011462000827575b505050620008259250038362000687565b565b600090815285812095935091905b8183106200085157505062000825935082010138808062000814565b8554888401850152948501948794509183019162000835565b915050620008259593507fffffffffffffffffffffffffffffffffffffffffffffffffffffffffffffff0091501682840152151560051b82010138808062000814565b6040810192916000915b60028310620008c557505050565b600190825181526020809101920192019190620008b7565b6040906001600160a01b03620008ff9493168152816020820152019062000779565b90565b6200090d8162000a0c565b803b620009fe57506200095c6200096b6001600160a01b03926040519283917f2d16032100000000000000000000000000000000000000000000000000000000602084015260248301620008ad565b03601f19810183528262000687565b6040516102de8082019082821067ffffffffffffffff83111762000654577fa4fb38cf4b0bf210f043c7762dde92916dbaf2d16f82c7b9414def8a49fa55c3938392620009e29262000b4c8539867f00000000000000000000000000000000000000000000000000000000000000001690620008dd565b03906000f58015620009f2571690565b6040513d6000823e3d90fd5b6001600160a01b0391501690565b600b6055917fa4fb38cf4b0bf210f043c7762dde92916dbaf2d16f82c7b9414def8a49fa55c36102de60209062000b2662000b338360409662000a9a88519162000a598488018462000687565b8683528383019662000b4c883989519182917f2d160321000000000000000000000000000000000000000000000000000000008684015260248301620008ad565b0362000aaf601f199182810184528362000687565b62000afd8a51918262000af0878201956001600160a01b037f00000000000000000000000000000000000000000000000000000000000000001687620008dd565b0390810183528262000687565b895195869362000b16868601998a925192839162000754565b8401915180938684019062000754565b0103808452018262000687565b5190208351938401528201523081520160ff8153209056fe60806040526102de8038038061001481610194565b92833981019060408183031261018f5780516001600160a01b03811680820361018f5760208381015190936001600160401b03821161018f570184601f8201121561018f5780519061006d610068836101cf565b610194565b9582875285838301011161018f57849060005b83811061017b57505060009186010152813b15610163577f360894a13ba1a3210667c828492db98dca3e2076cc3735a920a3ca505d382bbc80546001600160a01b03191682179055604051907fbc7cd75a20ee27fd9adebab32041f755214dbc6bffa90cc0225b39da2e5c2d3b600080a28351156101455750600080848461012c96519101845af4903d1561013c573d61011c610068826101cf565b908152600081943d92013e6101ea565b505b6040516090908161024e8239f35b606092506101ea565b9250505034610154575061012e565b63b398979f60e01b8152600490fd5b60249060405190634c9c8ce360e01b82526004820152fd5b818101830151888201840152869201610080565b600080fd5b6040519190601f01601f191682016001600160401b038111838210176101b957604052565b634e487b7160e01b600052604160045260246000fd5b6001600160401b0381116101b957601f01601f191660200190565b9061021157508051156101ff57805190602001fd5b604051630a12f52160e11b8152600490fd5b81511580610244575b610222575090565b604051639996b31560e01b81526001600160a01b039091166004820152602490fd5b50803b1561021a56fe608060405273ffffffffffffffffffffffffffffffffffffffff7f360894a13ba1a3210667c828492db98dca3e2076cc3735a920a3ca505d382bbc54166000808092368280378136915af43d82803e156056573d90f35b3d90fdfea26469706673582212209a21b2f901831fe048ea166473ab8a5d06b5169741b36cb9c5f215d2aa0ed78864736f6c63430008180033a26469706673582212206bcf6cbf6f833db3016b9982cea7ba9e9e601ae0f1a70bdc0be5c43b34c087fc64736f6c6343000818003360a034620000bf57601f6200319638819003918201601f19168301916001600160401b03831184841017620000c4578084926040948552833981010312620000bf576200005a60206200005283620000da565b9201620000da565b6001600160a01b03919082811615620000a6576080526000600a551660018060a01b031960005416176000556040516130a69081620000f08239608051818181610fdd01526111630152f35b6040516335fdcccd60e21b815260006004820152602490fd5b600080fd5b634e487b7160e01b600052604160045260246000fd5b51906001600160a01b0382168203620000bf5756fe608080604052600436101561001d575b50361561001b57600080fd5b005b60003560e01c90816301ffc9a714611c925750806303d1ef1814611c305780631626ba7e14611bad578063263596a5146119fe57806326e4bcfb146119e057806329639df7146119c85780632d160321146119615780633a871cdd14611913578063449d193f1461187b57806347af954d1461185457806363ffab311461182f578063735de9f714611800578063740f4545146118005780637823d3f3146116bb5780637e54211f1461169f57806385572ffb146111245780638da5cb5b146110fd578063a563794a14611030578063ad5c464814611001578063b0f479a114610fbd578063bfa0b13314610f9f578063c095b5b314610f5e578063c8a10ada14610d58578063e5c01f9514610280578063e8b4a30d1461022d578063ee0e73a1146101f45763ffddc53014610153573861000f565b346101ef5760006003193601126101ef57604051806006549182815260208091019260066000527ff652222313e28459528d920b65115c16c04f3efc82aaedc97be59f3f377c0d3f916000905b8282106101cf576101cb856101b781890382611e56565b604051918291602083526020830190611fc2565b0390f35b83546001600160a01b0316865294850194600193840193909101906101a0565b600080fd5b346101ef5760206003193601126101ef5760043567ffffffffffffffff81116101ef5761022861001b913690600401611f2e565b612444565b346101ef5760406003193601126101ef5767ffffffffffffffff6004358181116101ef5761025f903690600401611f2e565b6024359182116101ef5761027a61001b923690600401611f2e565b9061249a565b346101ef576101406003193601126101ef5761029a611efb565b6102a2611d30565b906102ab611d46565b906102b4611d5c565b916102bd611d72565b926102c6611d88565b60c435946001600160a01b03861686036101ef5761012435926001600160a01b03841684036101ef5760405160008060208301927fd0e30db00000000000000000000000000000000000000000000000000000000084526004815261032a81611de6565b5173fff9976782d46cc05630d1f6ebab18b2324d6b149360e435855af161034f6122d5565b5015610d14576020602491604051928380927f70a082310000000000000000000000000000000000000000000000000000000082523060048301525afa90811561099157600091610ce2575b5060e43511610c9e576040517f70a082310000000000000000000000000000000000000000000000000000000081523060048201526020816024816001600160a01b0386165afa90811561099157600091610c6c575b5060e43511610c285760405163095ea7b360e01b815273139d70e24b8c82539800eeb99510bfb8b09eaf68600482015269021e19e0c9bab2400000602482015260208160448160006001600160a01b0387165af1801561099157610c09575b506040517fdd62ed3e00000000000000000000000000000000000000000000000000000000815230600482015273139d70e24b8c82539800eeb99510bfb8b09eaf6860248201526020816044816001600160a01b0386165afa90811561099157600091610bd7575b5060e43511610b9357604051916104ce83611e3a565b6002835260403660208501376001600160a01b0382166104ed84612305565b526104f783612312565b6001600160a01b0382169052600360e43581020460e43503610a3757600061056893604051809581927f38ed173900000000000000000000000000000000000000000000000000000000835260e43560030260021c600484015284602484015260a0604484015260a4830190611fc2565b30606483015261010435608483015203818373139d70e24b8c82539800eeb99510bfb8b09eaf685af192831561099157600093610ae3575b5060036105ac84612312565b5104906040519063095ea7b360e01b825273139d70e24b8c82539800eeb99510bfb8b09eaf68600483015269021e19e0c9bab2400000602483015260208260448160006001600160a01b0386165af1918215610991576001600160a01b0392610ac4575b5081604051947fe8e33700000000000000000000000000000000000000000000000000000000008652166004850152166024830152600360e435810260021c046044830152606482015260006084820152600060a48201523060c48201526101043560e482015260608161010481600073139d70e24b8c82539800eeb99510bfb8b09eaf685af1801561099157610a99575b5061074090600b54610a4d575b7fb9b2119c2588aabc018c67bf4ad564d7e384e06b256a7a2f87a2e9114bc0147060c060405160408152600b60408201527f6574682d7365706f6c6961000000000000000000000000000000000000000000606082015260806020820152600960808201527f555344432f57455448000000000000000000000000000000000000000000000060a0820152a1612312565b5194858060011b0460021486151715610a37576040519061076082611de6565b6001825260005b60208110610a1257506001600160a01b0390816040519661078788611de6565b169586815260038960011b0460208201526107a184612305565b526107ab83612305565b5081604051946063602087015216604085015216606083015260038660011b046080830152608082526107dd82611e1e565b6001600160a01b0360405197166020880152602087526107fc87611de6565b61081660405161080b81611e02565b622dc6c08152612733565b916040519761082489611e1e565b88526020880152604087015260006060870152608086015260405163095ea7b360e01b81526001600160a01b038216600482015260038560011b0460248201526020816044816000875af18015610991576109e3575b50604051927fb0f479a1000000000000000000000000000000000000000000000000000000008452602084600481305afa928315610991576001600160a01b039660209560009561099d575b5067ffffffffffffffff926000926109238a936040519b8c998a9889967fb344b6ea00000000000000000000000000000000000000000000000000000000885216600487015216602485015260a0604485015260a4840190612173565b90606483015260038960011b0460848301520393165af19182156109915760009261095c575b5060039060011b04600a55600355600080f35b9091506020813d602011610989575b8161097860209383611e56565b810103126101ef5751906003610949565b3d915061096b565b6040513d6000823e3d90fd5b88919550926000926109236109d067ffffffffffffffff968a3d8c116109dc575b6109c88183611e56565b810190612154565b979350509250926108c6565b503d6109be565b610a049060203d602011610a0b575b6109fc8183611e56565b8101906128e5565b508561087a565b503d6109f2565b602090604051610a2181611de6565b6000815260008382015282828601015201610767565b634e487b7160e01b600052601160045260246000fd5b610a94610a58612251565b60405190610a6582611de6565b600982527f555344432f574554480000000000000000000000000000000000000000000000602083015261249a565b6106af565b606090813d8311610abd575b610aaf8183611e56565b810103126101ef57876106a2565b503d610aa5565b610adc9060203d602011610a0b576109fc8183611e56565b508b610610565b9092503d806000833e610af68183611e56565b60208282810103126101ef5781519067ffffffffffffffff82116101ef57808301601f8385010112156101ef578183015191610b318361213c565b93610b3f6040519586611e56565b8385526020850192810160208560051b8484010101116101ef5780820160200192915b60208560051b82840101018410610b7f57505050505091896105a0565b602080809486518152019401939250610b62565b606460405162461bcd60e51b815260206004820152601660248201527f496e73756666696369656e7420616c6c6f77616e6365000000000000000000006044820152fd5b90506020813d602011610c01575b81610bf260209383611e56565b810103126101ef5751896104b8565b3d9150610be5565b610c219060203d602011610a0b576109fc8183611e56565b5088610450565b606460405162461bcd60e51b815260206004820152601b60248201527f496e73756666696369656e7420746f6b656e312062616c616e636500000000006044820152fd5b90506020813d602011610c96575b81610c8760209383611e56565b810103126101ef5751896103f1565b3d9150610c7a565b606460405162461bcd60e51b815260206004820152601960248201527f496e73756666696369656e7420574554482062616c616e6365000000000000006044820152fd5b90506020813d602011610d0c575b81610cfd60209383611e56565b810103126101ef57518961039b565b3d9150610cf0565b606460405162461bcd60e51b815260206004820152601360248201527f57455448204465706f736974206661696c6564000000000000000000000000006044820152fd5b346101ef5760a06003193601126101ef57610d71611efb565b610d79611d30565b610d81611d46565b91610d8a611d5c565b91610d93611d72565b604051610d9f81611e02565b60008152600a54908115610f1a57604051916020976001898501526001600160a01b0397888092166040860152166060840152608083015260808252610de482611e1e565b85604051941687850152868452610dfa84611de6565b610e0960405161080b81611e02565b9160405194610e1786611e1e565b8552878501526040840152600060608401526080830152604051927fb0f479a10000000000000000000000000000000000000000000000000000000084528584600481305afa801561099157610eac958795600092610efa575b5060009192604051978896879586937f6628c6e800000000000000000000000000000000000000000000000000000000855260048501612222565b0393165af190811561099157600091610ecd575b5080600355604051908152f35b90508181813d8311610ef3575b610ee48183611e56565b810103126101ef575182610ec0565b503d610eda565b60009250610f1490873d89116109dc576109c88183611e56565b91610e71565b606460405162461bcd60e51b815260206004820152601e60248201527f53656564207a65726f2c207472616e73666572207365656420666972737400006044820152fd5b346101ef5760206003193601126101ef576004356006548110156101ef576001600160a01b03610f8f602092611f75565b9190546040519260031b1c168152f35b346101ef5760006003193601126101ef576020600154604051908152f35b346101ef5760006003193601126101ef5760206040516001600160a01b037f0000000000000000000000000000000000000000000000000000000000000000168152f35b346101ef5760006003193601126101ef57602060405173fff9976782d46cc05630d1f6ebab18b2324d6b148152f35b346101ef576020806003193601126101ef5760043567ffffffffffffffff81116101ef578161106661108a923690600401611f2e565b611077611072826127b9565b61228a565b8160405193828580945193849201611d9e565b8101600c815203019020805461109f8161213c565b916110ad6040519384611e56565b8183526000908152838120938084015b8383106110d257604051806101cb8782611e79565b60018281926040516110ef816110e8818d6120a6565b0382611e56565b8152019601920191946110bd565b346101ef5760006003193601126101ef5760206001600160a01b0360005416604051908152f35b346101ef57602060031981813601126101ef5760043567ffffffffffffffff918282116101ef5760a09082360301126101ef576001600160a01b0392837f000000000000000000000000000000000000000000000000000000000000000016330361166f5760405161119581611e1e565b826004013581526024948584013585811681036101ef578383015260448401358581116101ef576111cc9060043691870101611f2e565b604083015260648401358581116101ef576111ed9060043691870101611f2e565b93606083019485526084810135908682116101ef5701366023820112156101ef5760048101359061121d8261213c565b9161122b6040519384611e56565b808352888684019160061b830101913683116101ef578901905b828210611632575050506080830152835180518101906060818684019303126101ef57848101519160ff83168093036101ef5761128460408301612770565b916060810151908982116101ef57019080603f830112156101ef57868201516112af92604001612784565b9115611587575b505050516007558151805181019082818184019303126101ef5782810151908582116101ef57019080603f830112156101ef57828201516112f992604001612784565b9182518481116115725761130e60095461206c565b93601f94858111611526575b5083908583116001146114a057611349929160009183611495575b50506000198260011b9260031b1c19161790565b6009555b51938451938411611481575061136460085461206c565b82811161142b575b50809183116001146113aa5750819061139a9360009261139f5750506000198260011b9260031b1c19161790565b600855005b015190508380611335565b90601f1983169360086000527ff3f7a9fe364faab93b216da50a3214154f22a0a2b415b23a84c8169e8b636ee3926000905b86821061141357505083600195106113fa575b505050811b01600855005b015160001960f88460031b161c191690558280806113ef565b806001859682949686015181550195019301906113dc565b6114729060086000527ff3f7a9fe364faab93b216da50a3214154f22a0a2b415b23a84c8169e8b636ee38480870160051c820192858810611478575b0160051c0190612322565b8461136c565b92508192611467565b634e487b7160e01b60005260416004526000fd5b015190508880611335565b90601f1983169160096000527f6e1540171b6c0c960b71a7020d9f60077f6af931a8bbf590da0223dacf75c7af9260005b878282106115105750509084600195949392106114f7575b505050811b0160095561134d565b015160001960f88460031b161c191690558780806114e9565b60018596829396860151815501950193016114d1565b61156c9060096000527f6e1540171b6c0c960b71a7020d9f60077f6af931a8bbf590da0223dacf75c7af8780860160051c820192888710611478570160051c0190612322565b8761131a565b85634e487b7160e01b60005260416004526000fd5b8160009291838588829551940192165af16115a06122d5565b90156115ef5783818051810103126101ef57836115bd9101612770565b167fffffffffffffffffffffffff000000000000000000000000000000000000000060025416176002558580806112b6565b6064846015896040519262461bcd60e51b845260048401528201527f4c6f772d6c6576656c2063616c6c206661696c656400000000000000000000006044820152fd5b6040823603126101ef576040519061164982611de6565b82359086821682036101ef57828992604094528285013583820152815201910190611245565b60246040517fd7f73334000000000000000000000000000000000000000000000000000000008152336004820152fd5b346101ef5760006003193601126101ef5761001b610228612251565b346101ef5760c06003193601126101ef576116d4611efb565b6116dc611d30565b906116e5611d46565b906116ee611d5c565b926116f7611d72565b92611700611d88565b9060405161170d81611e02565b600081526040516020977f133572ba00000000000000000000000000000000000000000000000000000000898301526001600160a01b039788809216602484015216604482015260448152608081019281841067ffffffffffffffff8511176117ea57610de491887fffffffffffffffffffffffffffffffffffffffffffffffffffffffffffffff809286604052600060a08401521660c0820152606060e08201526117bd610100820182611dc1565b037fffffffffffffffffffffffffffffffffffffffffffffffffffffffffffffff60810185520183611e56565b634e487b7160e01b600052604160045260246000fd5b346101ef5760006003193601126101ef57602060405173139d70e24b8c82539800eeb99510bfb8b09eaf688152f35b346101ef5760006003193601126101ef57604060045460055482519182526020820152f35b346101ef5760006003193601126101ef5760206001600160a01b0360025416604051908152f35b346101ef5760006003193601126101ef57600b546118988161213c565b6118a56040519182611e56565b81815260209160208201600b6000527f0175b7a638427703f0dbe7bb9bbf987a2551717b34e79f33b5b1008d1fa01db9936000915b8383106118ef57604051806101cb8782611e79565b6001828192604051611905816110e8818d6120a6565b8152019601920191946118da565b346101ef576003196060813601126101ef576004359067ffffffffffffffff82116101ef576101609082360301126101ef5761195590602435906004016125f5565b50602060405160008152f35b346101ef5760406003193601126101ef5736602312156101ef5760405161198781611de6565b6044813682116101ef576004905b8282106119b8578360208151910151906119b0604051611de6565b600455600555005b8135815260209182019101611995565b346101ef5760006003193601126101ef576000600155005b346101ef5760006003193601126101ef576020600354604051908152f35b346101ef5760006003193601126101ef5760075460405160009160095491611a258361206c565b808252816020958692600196600181169081600014611b8f5750600114611b33575b50611a5492500382611e56565b604051906000938560085491611a698361206c565b8086529260018116908115611b165750600114611abc575b50846101cb85611aae86611a97838c0384611e56565b606060405196879687528601526060850190611dc1565b908382036040850152611dc1565b9190955060086000527ff3f7a9fe364faab93b216da50a3214154f22a0a2b415b23a84c8169e8b636ee3916000925b828410611b0357505050820190930192808583611a81565b8054868501890152928701928101611aeb565b60ff191683870152505090151560051b8301019350808583611a81565b600960009081529150867f6e1540171b6c0c960b71a7020d9f60077f6af931a8bbf590da0223dacf75c7af5b828410611b785750505091611a54928201018692611a47565b805487850187015286945092850192889101611b5f565b60ff19168486015250879390151560051b8301019050611a54611a47565b346101ef5760406003193601126101ef5767ffffffffffffffff6024358181116101ef57366023820112156101ef5780600401359182116101ef5736602483830101116101ef576020916024611c069201600435611fff565b7fffffffff0000000000000000000000000000000000000000000000000000000060405191168152f35b346101ef5760206003193601126101ef576004356001600160a01b03908181168091036101ef57600654680100000000000000008110156117ea57806001611c7b9201600655611f75565b909283549160031b92831b921b1916179055600080f35b346101ef5760206003193601126101ef57600435907fffffffff0000000000000000000000000000000000000000000000000000000082168092036101ef57817f85572ffb0000000000000000000000000000000000000000000000000000000060209314908115611d06575b5015158152f35b7f01ffc9a70000000000000000000000000000000000000000000000000000000091501483611cff565b602435906001600160a01b03821682036101ef57565b604435906001600160a01b03821682036101ef57565b606435906001600160a01b03821682036101ef57565b608435906001600160a01b03821682036101ef57565b60a435906001600160a01b03821682036101ef57565b60005b838110611db15750506000910152565b8181015183820152602001611da1565b90601f19601f602093611ddf81518092818752878088019101611d9e565b0116010190565b6040810190811067ffffffffffffffff8211176117ea57604052565b6020810190811067ffffffffffffffff8211176117ea57604052565b60a0810190811067ffffffffffffffff8211176117ea57604052565b6060810190811067ffffffffffffffff8211176117ea57604052565b90601f601f19910116810190811067ffffffffffffffff8211176117ea57604052565b6020808201906020835283518092526040830192602060408460051b8301019501936000915b848310611eaf5750505050505090565b9091929394958480611eeb837fffffffffffffffffffffffffffffffffffffffffffffffffffffffffffffffc086600196030187528a51611dc1565b9801930193019194939290611e9f565b6004359067ffffffffffffffff821682036101ef57565b67ffffffffffffffff81116117ea57601f01601f191660200190565b81601f820112156101ef57803590611f4582611f12565b92611f536040519485611e56565b828452602083830101116101ef57816000926020809301838601378301015290565b600654811015611fac5760066000527ff652222313e28459528d920b65115c16c04f3efc82aaedc97be59f3f377c0d3f0190600090565b634e487b7160e01b600052603260045260246000fd5b90815180825260208080930193019160005b828110611fe2575050505090565b83516001600160a01b031685529381019392810192600101611fd4565b9061202092916040519060208201526020815261201b81611de6565b6124ea565b612048577fffffffff0000000000000000000000000000000000000000000000000000000090565b7f1626ba7e0000000000000000000000000000000000000000000000000000000090565b90600182811c9216801561209c575b602083101461208657565b634e487b7160e01b600052602260045260246000fd5b91607f169161207b565b8054600093926120b58261206c565b9182825260209360019160018116908160001461211d57506001146120dc575b5050505050565b90939495506000929192528360002092846000945b838610612109575050505001019038808080806120d5565b8054858701830152940193859082016120f1565b60ff19168685015250505090151560051b0101915038808080806120d5565b67ffffffffffffffff81116117ea5760051b60200190565b908160209103126101ef57516001600160a01b03811681036101ef5790565b9190612188835160a0835260a0830190611dc1565b9061219f6020928386015183820385850152611dc1565b60409060408601519383820360408501528080865193848152019501926000905b8382106121f95750505050506080846001600160a01b0360606121f6969701511660608401520151906080818403910152611dc1565b90565b845180516001600160a01b031688528301518784015295860195938201936001909101906121c0565b6001600160a01b036121f6949367ffffffffffffffff6060941683521660208201528160408201520190612173565b6040519061225e82611de6565b600b82527f6574682d7365706f6c69610000000000000000000000000000000000000000006020830152565b1561229157565b606460405162461bcd60e51b815260206004820152601860248201527f417175617269756d20646f6573206e6f742065786973742e00000000000000006044820152fd5b3d15612300573d906122e682611f12565b916122f46040519384611e56565b82523d6000602084013e565b606090565b805115611fac5760200190565b805160011015611fac5760400190565b81811061232d575050565b60008155600101612322565b919091825167ffffffffffffffff81116117ea57612357825461206c565b601f8111612407575b50602080601f83116001146123a2575081906123939394956000926123975750506000198260011b9260031b1c19161790565b9055565b015190503880611335565b90601f19831695846000526020600020926000905b8882106123ef575050836001959697106123d6575b505050811b019055565b015160001960f88460031b161c191690553880806123cc565b806001859682949686015181550195019301906123b7565b61243490836000526020600020601f840160051c8101916020851061243a575b601f0160051c0190612322565b38612360565b9091508190612427565b600b5490680100000000000000008210156117ea576001820180600b55821015611fac5761249891600b6000527f0175b7a638427703f0dbe7bb9bbf987a2551717b34e79f33b5b1008d1fa01db901612339565b565b60206124ac91611077611072826127b9565b8101600c815203019020908154680100000000000000008110156117ea5760018101808455811015611fac5761249892600052602060002001612339565b90918201916020818403126101ef57803567ffffffffffffffff918282116101ef57019060c0828503126101ef576040519060c08201828110828211176117ea5760405282358181116101ef5785612543918501611f2e565b825260208301359081116101ef576121f694612560918401611f2e565b91826020830152604081013580604084015260608201359081606085015260a06080840135938460808701520135938460a08201525194600454956005549761290e565b9035907fffffffffffffffffffffffffffffffffffffffffffffffffffffffffffffffe1813603018212156101ef570180359067ffffffffffffffff82116101ef576020019181360383136101ef57565b6000929161014082019161260983826125a4565b809291501561270a5761261c84826125a4565b1561271f57359160018360f81c146000146127145760071161270a5761264284826125a4565b60079591951161270657612655916125a4565b9290958360071161270357507fffffffffffff000000000000000000000000000000000000000000000000000060017ffffffffffffffffffffffffffffffffffffffffffffffffffffffffffffffff960076126f59899019501957fff0000000000000000000000000000000000000000000000000000000000000060405195166020860152013516602183015260278201526027815261201b81611e3a565b6126fe57600190565b600090565b80fd5b8680fd5b5060019450505050565b506001955050505050565b602487634e487b7160e01b81526032600452fd5b604051907f97a657c9000000000000000000000000000000000000000000000000000000006020830152516024820152602481526121f681611e3a565b51906001600160a01b03821682036101ef57565b9092919261279181611f12565b9161279f6040519384611e56565b8294828452828201116101ef576020612498930190611d9e565b600090600b8054925b8381106127d25750505050600090565b81600052807f0175b7a638427703f0dbe7bb9bbf987a2551717b34e79f33b5b1008d1fa01db9016040805160209081810190600094818154966128148861206c565b92600198878a821691826000146128c8575050600114612887575b50612843925003601f198101835282611e56565b519020915161286e8282019282816128618b87815193849201611d9e565b8101038084520182611e56565b5190201461287f57506001016127c2565b935050505090565b915050600052818480600020886000915b8583106128af57505050612843928201013861282f565b8091929450548385880101520191018590888593612898565b60ff191688526128439580151502850101925038915061282f9050565b908160209103126101ef575180151581036101ef5790565b908151811015611fac570160200190565b9793959496929190918251986020998a8110908115612d78575b50612d695761296e604098848c7f2274797065223a22776562617574686e2e6765742200000000000000000000008c519161296283611de6565b60158352820152612e52565b15612d695761297c90612edb565b60008151600281119081612d07575b5015612c76575060025b8151908103908111610a37578a9291818a6129b08794611f12565b916129bd82519384611e56565b8083526129c981611f12565b93601f19888501950136863760005b828110612b9957505050612a61957f226368616c6c656e6765223a220000000000000000000000000000000000000093612a26612a5c94602e9451968794850152518092602d850190611d9e565b81017f2200000000000000000000000000000000000000000000000000000000000000602d82015203600e810184520182611e56565b612e52565b15612b8c576000612a7f899283895192828480945193849201611d9e565b8101039060025afa15612b81576000612ad588928251612ac5898051809388612ab18184019788815193849201611d9e565b820190898201520387810184520182611e56565b8851928392839251928391611d9e565b8101039060025afa15612b765760005192845195878701948552858701526060860152608085015260a084015260a0835260c083019280841067ffffffffffffffff8511176117ea5760009384935251907394474db941cb2d89f3dbd946aaec40054c30a9cd5afa90612b466122d5565b9115612b605780828051810103126101ef57015160011490565b634e487b7160e01b600052600160045260246000fd5b83513d6000823e3d90fd5b84513d6000823e3d90fd5b5050505050505050600090565b9194969750929450600191507fff000000000000000000000000000000000000000000000000000000000000007f2b0000000000000000000000000000000000000000000000000000000000000081612bf284876128fd565b511603612c175750602d612c0682876128fd565b535b018d9594928794928d926129d8565b7f2f0000000000000000000000000000000000000000000000000000000000000081612c4384876128fd565b511603612c5d5750605f612c5782876128fd565b53612c08565b612c6782856128fd565b511660001a612c5782876128fd565b8151600181119081612c91575b501561299557506001612995565b600019810191508111612cf3577fff00000000000000000000000000000000000000000000000000000000000000612cea7f3d0000000000000000000000000000000000000000000000000000000000000092856128fd565b51161438612c83565b602482634e487b7160e01b81526011600452fd5b600119810191508111612cf3577fff00000000000000000000000000000000000000000000000000000000000000612d607f3d0000000000000000000000000000000000000000000000000000000000000092856128fd565b5116143861298b565b50505050505050505050600090565b90508a1015611fac57612db07fff00000000000000000000000000000000000000000000000000000000000000604086015116612db7565b1538612928565b7f010000000000000000000000000000000000000000000000000000000000000080821603612e3f577f080000000000000000000000000000000000000000000000000000000000000080821603612e10575b50600190565b7f1000000000000000000000000000000000000000000000000000000000000000809116146126fe5738612e0a565b50600090565b91908201809211610a3757565b9190825192815160005b858110612e6e57505050505050600190565b81612e798287612e45565b1015612ed0577fff0000000000000000000000000000000000000000000000000000000000000080612eab83866128fd565b511690612ec1612ebb8489612e45565b876128fd565b511603612ed057600101612e5c565b505050505050600090565b9081511561305b5760405191612ef083611e3a565b604083527f4142434445464748494a4b4c4d4e4f505152535455565758595a61626364656660208401527f6768696a6b6c6d6e6f707172737475767778797a303132333435363738392b2f604084015280519260029160028501809511610a37576003809504928360021b937f3fffffffffffffffffffffffffffffffffffffffffffffffffffffffffffffff811603610a375794612fa7612f9185611f12565b94612f9f6040519687611e56565b808652611f12565b601f1960208601910136823792829183518401976020890192835194600085525b8a811061300e57505050506003939495965052510680600114612ffb57600214612ff0575090565b600019603d91015390565b5060011981603d60001981940153015390565b836004919b989b019a8b51600190603f9082828260121c16870101518453828282600c1c16870101518385015382828260061c168701015187850153168401015185820153019699612fc8565b905060405161306981611e02565b600081529056fea2646970667358221220a12bfd0ba0979f737bdbf92fee2d88649a5ed5ca73f6a37a82b29d4b84e5cffe64736f6c63430008180033",
  "linkReferences": {},
  "deployedLinkReferences": {}
}