{
  "_format": "hh-sol-artifact-1",
  "contractName": "Incubator",
  "sourceName": "contracts/Incubator.sol",
  "abi": [
    {
      "inputs": [
        {
          "internalType": "address",
          "name": "_router",
          "type": "address"
        }
      ],
      "stateMutability": "nonpayable",
      "type": "constructor"
    },
    {
      "inputs": [
        {
          "internalType": "address",
          "name": "token1",
          "type": "address"
        },
        {
          "internalType": "address",
          "name": "token2",
          "type": "address"
        },
        {
          "internalType": "uint256",
          "name": "amountToken1",
          "type": "uint256"
        },
        {
          "internalType": "uint256",
          "name": "amountToken1Min",
          "type": "uint256"
        },
        {
          "internalType": "uint256",
          "name": "amountToken2Min",
          "type": "uint256"
        },
        {
          "internalType": "address",
          "name": "to",
          "type": "address"
        },
        {
          "internalType": "uint256",
          "name": "deadline",
          "type": "uint256"
        }
      ],
      "name": "Incubate",
      "outputs": [],
      "stateMutability": "nonpayable",
      "type": "function"
    }
  ],
  "bytecode": "0x60803461007457601f61064138819003918201601f19168301916001600160401b038311848410176100795780849260209460405283398101031261007457516001600160a01b0381169081900361007457600080546001600160a01b0319169190911790556040516105b190816100908239f35b600080fd5b634e487b7160e01b600052604160045260246000fdfe608080604052600436101561001357600080fd5b60003560e01c632e59de051461002857600080fd5b3461035a5760e07ffffffffffffffffffffffffffffffffffffffffffffffffffffffffffffffffc36011261035a576004356001600160a01b038116810361035a57602435916001600160a01b038316830361035a576044359160a435916001600160a01b038316830361035a577f23b872dd00000000000000000000000000000000000000000000000000000000815233600482015230602482015283604482015260208160648160006001600160a01b0387165af18015610366576104f3575b506001600160a01b0360005416604051907f095ea7b3000000000000000000000000000000000000000000000000000000008252600482015269021e19e0c9bab2400000602482015260208160448160006001600160a01b0387165af18015610366576104d4575b5060405180606081011067ffffffffffffffff6060830111176104545760608101604052600281526020810160403682378151156104a557906001600160a01b03831682526001600160a01b0386166101aa8261056b565b526001600160a01b0360005416906040519283917f38ed173900000000000000000000000000000000000000000000000000000000835260a48301908860011c6004850152606435602485015260a060448501525180915260c48301919060005b818110610483575050509181600081819530606483015260c435608483015203925af18015610366576000906103a1575b610246915061056b565b51906001600160a01b0360005416604051907f095ea7b30000000000000000000000000000000000000000000000000000000082526004820152683635c9adc5dea00000602482015260208160448160006001600160a01b038b165af1948515610366576001600160a01b03809561010495600094606099610372575b508285541693836040519b8c9a8b997fe8e33700000000000000000000000000000000000000000000000000000000008b521660048a015216602488015260011c60448701526064860152606435608486015260843560a48601521660c484015260c43560e48401525af180156103665761033a57005b606090813d831161035f575b6103508183610512565b8101031261035a57005b600080fd5b503d610346565b6040513d6000823e3d90fd5b6103939060203d60201161039a575b61038b8183610512565b810190610553565b50386102c3565b503d610381565b503d90816000823e6103b38282610512565b602081838101031261035a5780519167ffffffffffffffff831161035a57808201601f84840101121561035a57828201519267ffffffffffffffff8411610454578360051b604051946104096020830187610512565b85526020850192840160208284870101011161035a5790602081850101925b602083838701010184106104445750505050506102469061023c565b8351815260209384019301610428565b7f4e487b7100000000000000000000000000000000000000000000000000000000600052604160045260246000fd5b82516001600160a01b031684528694506020938401939092019160010161020b565b7f4e487b7100000000000000000000000000000000000000000000000000000000600052603260045260246000fd5b6104ec9060203d60201161039a5761038b8183610512565b5038610152565b61050b9060203d60201161039a5761038b8183610512565b50386100ea565b90601f7fffffffffffffffffffffffffffffffffffffffffffffffffffffffffffffffe0910116810190811067ffffffffffffffff82111761045457604052565b9081602091031261035a5751801515810361035a5790565b8051600110156104a5576040019056fea26469706673582212203a535f0b502b36b86a898bca30589e1f80076856e80cd3e192c2965c79e6f55864736f6c63430008180033",
  "linkReferences": {},
  "deployedLinkReferences": {}
}