{
  "_format": "hh-sol-artifact-1",
  "contractName": "UniswapV3SwapHelper",
  "sourceName": "contracts/cleanup/UniswapV3SwapHelper.sol",
  "abi": [
    {
      "inputs": [
        {
          "internalType": "address",
          "name": "_swapRouter",
          "type": "address"
        }
      ],
      "stateMutability": "nonpayable",
      "type": "constructor"
    },
    {
      "inputs": [],
      "name": "incrementTestNo",
      "outputs": [],
      "stateMutability": "nonpayable",
      "type": "function"
    },
    {
      "inputs": [
        {
          "internalType": "address",
          "name": "tokenIn",
          "type": "address"
        },
        {
          "internalType": "address",
          "name": "tokenOut",
          "type": "address"
        },
        {
          "internalType": "uint24",
          "name": "fee",
          "type": "uint24"
        },
        {
          "internalType": "uint256",
          "name": "amountIn",
          "type": "uint256"
        },
        {
          "internalType": "address",
          "name": "to",
          "type": "address"
        }
      ],
      "name": "swapExactInputSingle",
      "outputs": [
        {
          "internalType": "uint256",
          "name": "amountOut",
          "type": "uint256"
        }
      ],
      "stateMutability": "nonpayable",
      "type": "function"
    },
    {
      "inputs": [],
      "name": "swapRouter",
      "outputs": [
        {
          "internalType": "contract ISwapRouter",
          "name": "",
          "type": "address"
        }
      ],
      "stateMutability": "view",
      "type": "function"
    },
    {
      "inputs": [],
      "name": "testNo",
      "outputs": [
        {
          "internalType": "uint256",
          "name": "",
          "type": "uint256"
        }
      ],
      "stateMutability": "view",
      "type": "function"
    }
  ],
  "bytecode": "0x60a03461007d57601f61055938819003918201601f19168301916001600160401b038311848410176100825780849260209460405283398101031261007d57516001600160a01b0381169081900361007d57600080556080526040516104c0908161009982396080518181816098015281816101f0015261036b0152f35b600080fd5b634e487b7160e01b600052604160045260246000fdfe6080604052600436101561001257600080fd5b60003560e01c806315c7567d1461012e578063785dd4a1146100bc578063c31c9c071461006b5763d08d72201461004857600080fd5b34610066576000600319360112610066576020600054604051908152f35b600080fd5b3461006657600060031936011261006657602060405173ffffffffffffffffffffffffffffffffffffffff7f0000000000000000000000000000000000000000000000000000000000000000168152f35b34610066576000600319360112610066576000547fffffffffffffffffffffffffffffffffffffffffffffffffffffffffffffffff81146100ff57600101600055005b7f4e487b7100000000000000000000000000000000000000000000000000000000600052601160045260246000fd5b346100665760a06003193601126100665760043573ffffffffffffffffffffffffffffffffffffffff81168103610066576024359073ffffffffffffffffffffffffffffffffffffffff82168203610066576044359162ffffff8316830361006657606435916084359073ffffffffffffffffffffffffffffffffffffffff82168203610066577f095ea7b30000000000000000000000000000000000000000000000000000000060805273ffffffffffffffffffffffffffffffffffffffff7f000000000000000000000000000000000000000000000000000000000000000016600460800152836024608001526020608060446080600073ffffffffffffffffffffffffffffffffffffffff86165af180156103d957610414575b6040519461010086019186831067ffffffffffffffff8411176103e55773ffffffffffffffffffffffffffffffffffffffff9485809262ffffff9560405216885216602087015216604085015216606083015242608083015260a0820152600060c0820152600060e082015273ffffffffffffffffffffffffffffffffffffffff60e0604051927f414bf38900000000000000000000000000000000000000000000000000000000845282815116600485015282602082015116602485015262ffffff60408201511660448501528260608201511660648501526080810151608485015260a081015160a485015260c081015160c485015201511660e482015260208161010481600073ffffffffffffffffffffffffffffffffffffffff7f0000000000000000000000000000000000000000000000000000000000000000165af180156103d9576000906103a6575b602090604051908152f35b506020813d6020116103d1575b816103c060209383610449565b81010312610066576020905161039b565b3d91506103b3565b6040513d6000823e3d90fd5b7f4e487b7100000000000000000000000000000000000000000000000000000000600052604160045260246000fd5b60203d602011610442575b8061042d6020926080610449565b12610066576080518015151461024b57600080fd5b503d61041f565b90601f7fffffffffffffffffffffffffffffffffffffffffffffffffffffffffffffffe0910116810190811067ffffffffffffffff8211176103e55760405256fea26469706673582212200de1e33223c549747a05635db57bb49bbe56c4f8cf797dacacd38ac5b3c0936964736f6c63430008180033",
  "linkReferences": {},
  "deployedLinkReferences": {}
}