{
  "_format": "hh-sol-artifact-1",
  "contractName": "SingleSwap",
  "sourceName": "contracts/cleanup/SingleSwap.sol",
  "abi": [
    {
      "inputs": [],
      "stateMutability": "nonpayable",
      "type": "constructor"
    },
    {
      "inputs": [],
      "name": "LINK",
      "outputs": [
        {
          "internalType": "address",
          "name": "",
          "type": "address"
        }
      ],
      "stateMutability": "view",
      "type": "function"
    },
    {
      "inputs": [],
      "name": "WETH",
      "outputs": [
        {
          "internalType": "address",
          "name": "",
          "type": "address"
        }
      ],
      "stateMutability": "view",
      "type": "function"
    },
    {
      "inputs": [],
      "name": "poolFee",
      "outputs": [
        {
          "internalType": "uint24",
          "name": "",
          "type": "uint24"
        }
      ],
      "stateMutability": "view",
      "type": "function"
    },
    {
      "inputs": [],
      "name": "routerAddress",
      "outputs": [
        {
          "internalType": "address",
          "name": "",
          "type": "address"
        }
      ],
      "stateMutability": "view",
      "type": "function"
    },
    {
      "inputs": [
        {
          "internalType": "uint256",
          "name": "amountIn",
          "type": "uint256"
        }
      ],
      "name": "swapExactInputSingle",
      "outputs": [
        {
          "internalType": "uint256",
          "name": "amountOut",
          "type": "uint256"
        }
      ],
      "stateMutability": "nonpayable",
      "type": "function"
    },
    {
      "inputs": [],
      "name": "swapRouter",
      "outputs": [
        {
          "internalType": "contract ISwapRouter",
          "name": "",
          "type": "address"
        }
      ],
      "stateMutability": "view",
      "type": "function"
    },
    {
      "inputs": [],
      "name": "wethToken",
      "outputs": [
        {
          "internalType": "contract IERC20",
          "name": "",
          "type": "address"
        }
      ],
      "stateMutability": "view",
      "type": "function"
    }
  ],
  "bytecode": "0x60a080604052346100635773e592427a0aece92de3edee1f18e0157c05861564608052600080546001600160a01b03191673fff9976782d46cc05630d1f6ebab18b2324d6b1417905561049490816100698239608051818181609a01526101270152f35b600080fdfe60806040818152600436101561001457600080fd5b600091823560e01c908163089fe6aa146103d2575080631b6b6d23146103a45780633268cc56146103765780634b57b0be1461034457806373bd43ad146100f0578063ad5c4648146100c25763c31c9c071461006f57600080fd5b346100be57816003193601126100be576020905173ffffffffffffffffffffffffffffffffffffffff7f0000000000000000000000000000000000000000000000000000000000000000168152f35b5080fd5b50346100be57816003193601126100be576020905173fff9976782d46cc05630d1f6ebab18b2324d6b148152f35b5090346102bd57602091826003193601126100be5760043573ffffffffffffffffffffffffffffffffffffffff90818454168486847f0000000000000000000000000000000000000000000000000000000000000000169260448751809481937f095ea7b30000000000000000000000000000000000000000000000000000000083528760048401528860248401525af1801561033a576102ff575b50835191610100830183811067ffffffffffffffff8211176102d2578686899594938793825273fff9976782d46cc05630d1f6ebab18b2324d6b148652868601734f7a67464b5976d7547c860109e4432d50afb38e815284838801610bb8815260608901903082528260808b019442865260a08c0196875260c08c019789895260e08d01998a52519d8e9c7f414bf389000000000000000000000000000000000000000000000000000000008e52511660048d0152511660248b01525162ffffff1660448a0152511660648801525160848701525160a48601525160c4850152511660e483015281865a9261010493f19283156102c7578093610292575b505051908152f35b909192508382813d83116102c0575b6102ab81836103ee565b810103126102bd57505190388061028a565b80fd5b503d6102a1565b8251903d90823e3d90fd5b6024877f4e487b710000000000000000000000000000000000000000000000000000000081526041600452fd5b8681813d8311610333575b61031481836103ee565b8101031261032f57518015150361032b573861018c565b8480fd5b8580fd5b503d61030a565b85513d88823e3d90fd5b50346100be57816003193601126100be5773ffffffffffffffffffffffffffffffffffffffff60209254169051908152f35b50346100be57816003193601126100be576020905173e592427a0aece92de3edee1f18e0157c058615648152f35b50346100be57816003193601126100be5760209051734f7a67464b5976d7547c860109e4432d50afb38e8152f35b8390346100be57816003193601126100be5780610bb860209252f35b90601f7fffffffffffffffffffffffffffffffffffffffffffffffffffffffffffffffe0910116810190811067ffffffffffffffff82111761042f57604052565b7f4e487b7100000000000000000000000000000000000000000000000000000000600052604160045260246000fdfea2646970667358221220a488f55b7af463fda43cbb7a27f065e2fed0d98d4bb0760517d3d72d52322fe764736f6c63430008180033",
  "linkReferences": {},
  "deployedLinkReferences": {}
}