{
  "_format": "hh-sol-artifact-1",
  "contractName": "UniswapV3LiquidateHelper",
  "sourceName": "contracts/cleanup/UniswapV3LiquidateHelper.sol",
  "abi": [
    {
      "inputs": [
        {
          "internalType": "contract INonfungiblePositionManager",
          "name": "_nonfungiblePositionManager",
          "type": "address"
        }
      ],
      "stateMutability": "nonpayable",
      "type": "constructor"
    },
    {
      "inputs": [
        {
          "internalType": "uint256",
          "name": "tokenId",
          "type": "uint256"
        }
      ],
      "name": "collectAllFees",
      "outputs": [
        {
          "internalType": "uint256",
          "name": "amount0",
          "type": "uint256"
        },
        {
          "internalType": "uint256",
          "name": "amount1",
          "type": "uint256"
        }
      ],
      "stateMutability": "nonpayable",
      "type": "function"
    },
    {
      "inputs": [
        {
          "internalType": "uint256",
          "name": "tokenId",
          "type": "uint256"
        }
      ],
      "name": "decreaseLiquidityInHalf",
      "outputs": [
        {
          "internalType": "uint256",
          "name": "amount0",
          "type": "uint256"
        },
        {
          "internalType": "uint256",
          "name": "amount1",
          "type": "uint256"
        }
      ],
      "stateMutability": "nonpayable",
      "type": "function"
    },
    {
      "inputs": [
        {
          "internalType": "uint256",
          "name": "",
          "type": "uint256"
        }
      ],
      "name": "deposits",
      "outputs": [
        {
          "internalType": "address",
          "name": "owner",
          "type": "address"
        },
        {
          "internalType": "uint128",
          "name": "liquidity",
          "type": "uint128"
        },
        {
          "internalType": "address",
          "name": "token0",
          "type": "address"
        },
        {
          "internalType": "address",
          "name": "token1",
          "type": "address"
        }
      ],
      "stateMutability": "view",
      "type": "function"
    },
    {
      "inputs": [
        {
          "internalType": "uint256",
          "name": "tokenId",
          "type": "uint256"
        },
        {
          "internalType": "uint256",
          "name": "amountAdd0",
          "type": "uint256"
        },
        {
          "internalType": "uint256",
          "name": "amountAdd1",
          "type": "uint256"
        }
      ],
      "name": "increaseLiquidityCurrentRange",
      "outputs": [
        {
          "internalType": "uint128",
          "name": "liquidity",
          "type": "uint128"
        },
        {
          "internalType": "uint256",
          "name": "amount0",
          "type": "uint256"
        },
        {
          "internalType": "uint256",
          "name": "amount1",
          "type": "uint256"
        }
      ],
      "stateMutability": "nonpayable",
      "type": "function"
    },
    {
      "inputs": [
        {
          "internalType": "address",
          "name": "token0",
          "type": "address"
        },
        {
          "internalType": "address",
          "name": "token1",
          "type": "address"
        },
        {
          "internalType": "uint256",
          "name": "amount0ToMint",
          "type": "uint256"
        },
        {
          "internalType": "uint256",
          "name": "amount1ToMint",
          "type": "uint256"
        }
      ],
      "name": "mintNewPosition",
      "outputs": [
        {
          "internalType": "uint256",
          "name": "tokenId",
          "type": "uint256"
        },
        {
          "internalType": "uint128",
          "name": "liquidity",
          "type": "uint128"
        },
        {
          "internalType": "uint256",
          "name": "amount0",
          "type": "uint256"
        },
        {
          "internalType": "uint256",
          "name": "amount1",
          "type": "uint256"
        }
      ],
      "stateMutability": "nonpayable",
      "type": "function"
    },
    {
      "inputs": [],
      "name": "nonfungiblePositionManager",
      "outputs": [
        {
          "internalType": "contract INonfungiblePositionManager",
          "name": "",
          "type": "address"
        }
      ],
      "stateMutability": "view",
      "type": "function"
    },
    {
      "inputs": [
        {
          "internalType": "address",
          "name": "operator",
          "type": "address"
        },
        {
          "internalType": "address",
          "name": "",
          "type": "address"
        },
        {
          "internalType": "uint256",
          "name": "tokenId",
          "type": "uint256"
        },
        {
          "internalType": "bytes",
          "name": "",
          "type": "bytes"
        }
      ],
      "name": "onERC721Received",
      "outputs": [
        {
          "internalType": "bytes4",
          "name": "",
          "type": "bytes4"
        }
      ],
      "stateMutability": "nonpayable",
      "type": "function"
    },
    {
      "inputs": [],
      "name": "poolFee",
      "outputs": [
        {
          "internalType": "uint24",
          "name": "",
          "type": "uint24"
        }
      ],
      "stateMutability": "view",
      "type": "function"
    },
    {
      "inputs": [
        {
          "internalType": "uint256",
          "name": "tokenId",
          "type": "uint256"
        }
      ],
      "name": "retrieveNFT",
      "outputs": [],
      "stateMutability": "nonpayable",
      "type": "function"
    }
  ],
  "bytecode": "0x60a0346100af57601f6112e338819003918201601f19168301916001600160401b038311848410176100b4578084926020946040528339810103126100af57516001600160a01b03811681036100af5760805260405161121890816100cb823960805181818160a30152818161022c0152818161031f01528181610355015281816104e80152818161057b015281816105d0015281816107090152818161090201528181610a070152610c620152f35b600080fd5b634e487b7160e01b600052604160045260246000fdfe60806040818152600436101561001457600080fd5b600091823560e01c908163089fe6aa14610ad1575080630a1d7c5f146109d0578063150b7a021461093d57806346ce96dd14610860578063617d6d6e1461068c57806374780df9146102cd5780638187b4c514610133578063b02c43d0146100cb5763b44a27221461008557600080fd5b346100c757816003193601126100c757602090516001600160a01b037f0000000000000000000000000000000000000000000000000000000000000000168152f35b5080fd5b50346100c75760206003193601126100c75780608092600435815280602052206001600160a01b039081815416926fffffffffffffffffffffffffffffffff600183015416926003816002850154169301541692815194855260208501528301526060820152f35b5090346102ca5760206003193601126102ca57600435808252816020526001600160a01b03906101698285852054163314610b1e565b808352826020526f7fffffffffffffffffffffffffffffff6001858520015460011c169184519260a084019184831067ffffffffffffffff8411176102b4576fffffffffffffffffffffffffffffffff948660a492899586528683526020830194855285830182815260608401838152608085019142835288519a8b9889977f0c49ccbe000000000000000000000000000000000000000000000000000000008952516004890152511660248701525160448601525160648501525160848401527f0000000000000000000000000000000000000000000000000000000000000000165af19182156102aa578392610274575b50818361026892610e31565b82519182526020820152f35b61029a9193506102689250843d86116102a3575b6102928183610b85565b810190610ba8565b9190929061025c565b503d610288565b84513d85823e3d90fd5b634e487b7160e01b600052604160045260246000fd5b80fd5b50346100c757608091826003193601126102ca576102e9610aed565b906102f2610b08565b926044359361030385303387610ec8565b610311606435303384610ec8565b610345856001600160a01b037f000000000000000000000000000000000000000000000000000000000000000016866110a5565b61037b6064356001600160a01b037f000000000000000000000000000000000000000000000000000000000000000016836110a5565b61038442019081421161067857825191610160830183811067ffffffffffffffff8211176102b45784526001600160a01b03861683526001600160a01b0382166020840152610bb8848401527ffffffffffffffffffffffffffffffffffffffffffffffffffffffffffff2764c6060840152620d89b4888401528660a084015260643560c08401528460e084015284610100840152306101208401526101408301526101408351927f883164560000000000000000000000000000000000000000000000000000000084526001600160a01b0381511660048501526001600160a01b03602082015116602485015262ffffff85820151166044850152606081015160020b60648501528881015160020b608485015260a081015160a485015260c081015160c485015260e081015160e48501526101008101516101048501526001600160a01b03610120820151166101248501520151610144830152868261016481876001600160a01b037f0000000000000000000000000000000000000000000000000000000000000000165af194851561066b5784968593868098610603575b50506fffffffffffffffffffffffffffffffff939291869161053f8a33610c20565b8083106105bb575b505050606435861061056a575b5082519586521660208501528301526060820152f35b6105b5906105a16001600160a01b037f00000000000000000000000000000000000000000000000000000000000000001682610fc5565b6105ad87606435610bdb565b9033906110fd565b38610554565b6105fb926105ad916105f66001600160a01b037f00000000000000000000000000000000000000000000000000000000000000001685610fc5565b610bdb565b843880610547565b9398509350955093508682813d8311610664575b6106218183610b85565b810103126102ca5750806fffffffffffffffffffffffffffffffff91519561064b60208301610bbe565b848301516060909301519692959093509091818661051d565b503d610617565b50505051903d90823e3d90fd5b602484634e487b7160e01b81526011600452fd5b5090346102ca57606091826003193601126100c75760043590602435926044359383825280602094838652610745876001600160a01b036106d9858260028b8b2001541630903390610ec8565b8387528689526106f38230338460038d8d20015416610ec8565b83875286895280600289892001541690610732817f000000000000000000000000000000000000000000000000000000000000000016978880946110a5565b848852878a5260038989200154166110a5565b845160c0810181811067ffffffffffffffff8211176102b457899460c493879289528352888301948552878301998a528583018281526080840183815260a08501914283528a519c8d9889977f219f5d170000000000000000000000000000000000000000000000000000000089525160048901525160248801525160448701525160648601525160848501525160a48401525af192831561085457819482809561080c575b50506fffffffffffffffffffffffffffffffff835195168552840152820152f35b925080955086809295503d831161084d575b6108288183610b85565b810103126102ca575061083a83610bbe565b81838501519401519093909238806107eb565b503d61081e565b509051903d90823e3d90fd5b5090346102ca5760206003193601126102ca57815160043561088182610b69565b8082528360208301308152608482850194866fffffffffffffffffffffffffffffffff9687815287606084018181526001600160a01b03998a9389519b8c998a987ffc6f7865000000000000000000000000000000000000000000000000000000008a525160048a01525116602488015251166044860152511660648401527f0000000000000000000000000000000000000000000000000000000000000000165af19182156102aa5783926102745750818361026892610e31565b50346100c75760806003193601126100c757610957610aed565b91610960610b08565b5060643567ffffffffffffffff8082116109cc57366023830112156109cc5781600401359081116109cc57369101602401116102ca57506109a660209260443590610c20565b517f150b7a02000000000000000000000000000000000000000000000000000000008152f35b8280fd5b5090346102ca5760206003193601126102ca57600435808252816020526001600160a01b03610a058185852054163314610b1e565b7f000000000000000000000000000000000000000000000000000000000000000016803b156109cc5783517f42842e0e000000000000000000000000000000000000000000000000000000008152306004820152336024820152604481018390529083908290606490829084905af180156102aa57610aa1575b5081926003918352826020528220828155826001820155826002820155015580f35b67ffffffffffffffff8193929311610abd578352906003610a7f565b602482634e487b7160e01b81526041600452fd5b8390346100c757816003193601126100c75780610bb860209252f35b600435906001600160a01b0382168203610b0357565b600080fd5b602435906001600160a01b0382168203610b0357565b15610b2557565b606460405162461bcd60e51b815260206004820152600d60248201527f4e6f7420746865206f776e6572000000000000000000000000000000000000006044820152fd5b6080810190811067ffffffffffffffff8211176102b457604052565b90601f601f19910116810190811067ffffffffffffffff8211176102b457604052565b9190826040910312610b03576020825192015190565b51906fffffffffffffffffffffffffffffffff82168203610b0357565b91908203918211610be857565b634e487b7160e01b600052601160045260246000fd5b51906001600160a01b0382168203610b0357565b51908160020b8203610b0357565b6001600160a01b0360409182517f99fbab88000000000000000000000000000000000000000000000000000000008152846004820152610180948582602481877f0000000000000000000000000000000000000000000000000000000000000000165afa948515610e275760009283978497610d5e575b50509084828160039695945195610cad87610b69565b16855260208501926fffffffffffffffffffffffffffffffff8099168452828287019516855282606087019a168a526000526000602052600020935116957fffffffffffffffffffffffff00000000000000000000000000000000000000009687855416178455600184019151167fffffffffffffffffffffffffffffffff000000000000000000000000000000008254161790558360028301915116858254161790550192511690825416179055565b819850809297503d8311610e20575b610d778183610b85565b810103126100c75785516bffffffffffffffffffffffff8116036100c757610da160208701610bfe565b50610dad858701610bfe565b610db960608801610bfe565b92608088015162ffffff8116036102ca575090846003949392610dde60a08a01610c12565b50610deb60c08a01610c12565b50610e13610160610dfe60e08c01610bbe565b9a610e0c6101408201610bbe565b5001610bbe565b5092979691929394610c97565b503d610d6d565b513d6000823e3d90fd5b90610e6e929160005260006020526040600020610e696001600160a01b039283835416846003829660028701541695015416936110fd565b6110fd565b565b3d15610eab573d9067ffffffffffffffff82116102b45760405191610e9f6020601f19601f8401160184610b85565b82523d6000602084013e565b606090565b90816020910312610b0357518015158103610b035790565b9060008094610f388295610f2a60405193849260208401977f23b872dd000000000000000000000000000000000000000000000000000000008952602485016040919493929460608201956001600160a01b0380921683521660208201520152565b03601f198101835282610b85565b51925af1610f44610e70565b81610f96575b5015610f5257565b606460405162461bcd60e51b815260206004820152600360248201527f53544600000000000000000000000000000000000000000000000000000000006044820152fd5b8051801592508215610fab575b505038610f4a565b610fbe9250602080918301019101610eb0565b3880610fa3565b600091908291826040516001600160a01b0360208201937f095ea7b30000000000000000000000000000000000000000000000000000000085521660248201528160448201526044815261101881610b69565b51925af1611024610e70565b81611076575b501561103257565b606460405162461bcd60e51b815260206004820152600260248201527f53410000000000000000000000000000000000000000000000000000000000006044820152fd5b805180159250821561108b575b50503861102a565b61109e9250602080918301019101610eb0565b3880611083565b6040517f095ea7b300000000000000000000000000000000000000000000000000000000602082019081526001600160a01b039093166024820152604481019390935260009283929083906110188160648101610f2a565b6040517fa9059cbb00000000000000000000000000000000000000000000000000000000602082019081526001600160a01b039093166024820152604481019390935260009283929083906111558160648101610f2a565b51925af1611161610e70565b816111b3575b501561116f57565b606460405162461bcd60e51b815260206004820152600260248201527f53540000000000000000000000000000000000000000000000000000000000006044820152fd5b80518015925082156111c8575b505038611167565b6111db9250602080918301019101610eb0565b38806111c056fea26469706673582212209d7f3d892c78748014bc747b9ef5100869cc7e180a7cc7f25ad39b29d1eb8f2564736f6c63430008180033",
  "linkReferences": {},
  "deployedLinkReferences": {}
}